# Pen node
#
# Recording are threes vertical line with the pen tip with medium-strong pressure.
#
# +-------------------------------------------+
# +                                           +
# +  |                 |                  |   +
# +  |                 |                  |   +
# +  |                 |                  |   +
# +  |                 |                  |   +
# +  |                 |                  |   +
# +  |                 |                  |   +
# +  |                 |                  |   +
# +                                           +
# +-------------------------------------------+
#
# Wacom Co.,Ltd. Wacom Intuos Pro M
# 0x05, 0x01,                    // Usage Page (Generic Desktop)        0
# 0x09, 0x02,                    // Usage (Mouse)                       2
# 0xa1, 0x01,                    // Collection (Application)            4
# 0x85, 0x01,                    //  Report ID (1)                      6
# 0x09, 0x01,                    //  Usage (Pointer)                    8
# 0xa1, 0x00,                    //  Collection (Physical)              10
# 0x05, 0x09,                    //   Usage Page (Button)               12
# 0x19, 0x01,                    //   Usage Minimum (1)                 14
# 0x29, 0x03,                    //   Usage Maximum (3)                 16
# 0x15, 0x00,                    //   Logical Minimum (0)               18
# 0x25, 0x01,                    //   Logical Maximum (1)               20
# 0x75, 0x01,                    //   Report Size (1)                   22
# 0x95, 0x03,                    //   Report Count (3)                  24
# 0x81, 0x02,                    //   Input (Data,Var,Abs)              26
# 0x75, 0x01,                    //   Report Size (1)                   28
# 0x95, 0x05,                    //   Report Count (5)                  30
# 0x81, 0x03,                    //   Input (Cnst,Var,Abs)              32
# 0x05, 0x01,                    //   Usage Page (Generic Desktop)      34
# 0x09, 0x30,                    //   Usage (X)                         36
# 0x09, 0x31,                    //   Usage (Y)                         38
# 0x15, 0x81,                    //   Logical Minimum (-127)            40
# 0x25, 0x7f,                    //   Logical Maximum (127)             42
# 0x75, 0x08,                    //   Report Size (8)                   44
# 0x95, 0x02,                    //   Report Count (2)                  46
# 0x81, 0x06,                    //   Input (Data,Var,Rel)              48
# 0xc0,                          //  End Collection                     50
# 0xc0,                          // End Collection                      51
# 0x06, 0x0d, 0xff,              // Usage Page (Wacom)                  52
# 0x09, 0x01,                    // Usage (Wacom Digitizer)             55
# 0xa1, 0x01,                    // Collection (Application)            57
# 0x85, 0x10,                    //  Report ID (16)                     59
# 0x09, 0x20,                    //  Usage (Stylus)                     61
# 0xa1, 0x00,                    //  Collection (Physical)              63
# 0x09, 0x42,                    //   Usage (Tip Switch)                65
# 0x09, 0x44,                    //   Usage (Barrel Switch)             67
# 0x09, 0x5a,                    //   Usage (Secondary Barrel Switch)   69
# 0x09, 0x45,                    //   Usage (Eraser)                    71
# 0x09, 0x3c,                    //   Usage (Invert)                    73
# 0x09, 0x32,                    //   Usage (In Range)                  75
# 0x09, 0x36,                    //   Usage (Wacom Sense)               77
# 0x15, 0x00,                    //   Logical Minimum (0)               79
# 0x25, 0x01,                    //   Logical Maximum (1)               81
# 0x75, 0x01,                    //   Report Size (1)                   83
# 0x95, 0x07,                    //   Report Count (7)                  85
# 0x81, 0x02,                    //   Input (Data,Var,Abs)              87
# 0x95, 0x01,                    //   Report Count (1)                  89
# 0x81, 0x03,                    //   Input (Cnst,Var,Abs)              91
# 0x0a, 0x30, 0x01,              //   Usage (X)                         93
# 0x65, 0x11,                    //   Unit (SILinear: cm)               96
# 0x55, 0x0d,                    //   Unit Exponent (-3)                98
# 0x35, 0x00,                    //   Physical Minimum (0)              100
# 0x47, 0x80, 0x57, 0x00, 0x00,  //   Physical Maximum (22400)          102
# 0x15, 0x00,                    //   Logical Minimum (0)               107
# 0x27, 0x00, 0xaf, 0x00, 0x00,  //   Logical Maximum (44800)           109
# 0x75, 0x18,                    //   Report Size (24)                  114
# 0x95, 0x01,                    //   Report Count (1)                  116
# 0x81, 0x02,                    //   Input (Data,Var,Abs)              118
# 0x0a, 0x31, 0x01,              //   Usage (Y)                         120
# 0x47, 0xd0, 0x39, 0x00, 0x00,  //   Physical Maximum (14800)          123
# 0x27, 0xa0, 0x73, 0x00, 0x00,  //   Logical Maximum (29600)           128
# 0x81, 0x02,                    //   Input (Data,Var,Abs)              133
# 0x09, 0x30,                    //   Usage (Tip Pressure)              135
# 0x55, 0x00,                    //   Unit Exponent (0)                 137
# 0x65, 0x00,                    //   Unit (None)                       139
# 0x15, 0x00,                    //   Logical Minimum (0)               141
# 0x26, 0xff, 0x1f,              //   Logical Maximum (8191)            143
# 0x75, 0x10,                    //   Report Size (16)                  146
# 0x81, 0x02,                    //   Input (Data,Var,Abs)              148
# 0x09, 0x3d,                    //   Usage (X Tilt)                    150
# 0x09, 0x3e,                    //   Usage (Y Tilt)                    152
# 0x65, 0x14,                    //   Unit (EnglishRotation: deg)       154
# 0x55, 0x00,                    //   Unit Exponent (0)                 156
# 0x35, 0xc0,                    //   Physical Minimum (-64)            158
# 0x45, 0x3f,                    //   Physical Maximum (63)             160
# 0x15, 0xc0,                    //   Logical Minimum (-64)             162
# 0x25, 0x3f,                    //   Logical Maximum (63)              164
# 0x75, 0x08,                    //   Report Size (8)                   166
# 0x95, 0x02,                    //   Report Count (2)                  168
# 0x81, 0x02,                    //   Input (Data,Var,Abs)              170
# 0x09, 0x41,                    //   Usage (Twist)                     172
# 0x65, 0x14,                    //   Unit (EnglishRotation: deg)       174
# 0x55, 0x00,                    //   Unit Exponent (0)                 176
# 0x36, 0x4c, 0xff,              //   Physical Minimum (-180)           178
# 0x46, 0xb3, 0x00,              //   Physical Maximum (179)            181
# 0x16, 0x7c, 0xfc,              //   Logical Minimum (-900)            184
# 0x26, 0x83, 0x03,              //   Logical Maximum (899)             187
# 0x75, 0x10,                    //   Report Size (16)                  190
# 0x95, 0x01,                    //   Report Count (1)                  192
# 0x81, 0x0a,                    //   Input (Data,Var,Abs,Wrap)         194
# 0x0a, 0x03, 0x0d,              //   Usage (Wacom FingerWheel)         196
# 0x65, 0x00,                    //   Unit (None)                       199
# 0x55, 0x00,                    //   Unit Exponent (0)                 201
# 0x15, 0x00,                    //   Logical Minimum (0)               203
# 0x26, 0xff, 0x07,              //   Logical Maximum (2047)            205
# 0x75, 0x10,                    //   Report Size (16)                  208
# 0x95, 0x01,                    //   Report Count (1)                  210
# 0x81, 0x02,                    //   Input (Data,Var,Abs)              212
# 0x0a, 0x32, 0x01,              //   Usage (Wacom Distance)            214
# 0x15, 0x00,                    //   Logical Minimum (0)               217
# 0x25, 0x3f,                    //   Logical Maximum (63)              219
# 0x75, 0x08,                    //   Report Size (8)                   221
# 0x95, 0x01,                    //   Report Count (1)                  223
# 0x81, 0x02,                    //   Input (Data,Var,Abs)              225
# 0x09, 0x5b,                    //   Usage (Transducer Serial Number)  227
# 0x09, 0x5c,                    //   Usage (Wacom SerialHi)            229
# 0x17, 0x00, 0x00, 0x00, 0x80,  //   Logical Minimum (-2147483648)     231
# 0x27, 0xff, 0xff, 0xff, 0x7f,  //   Logical Maximum (2147483647)      236
# 0x75, 0x20,                    //   Report Size (32)                  241
# 0x95, 0x02,                    //   Report Count (2)                  243
# 0x81, 0x02,                    //   Input (Data,Var,Abs)              245
# 0x09, 0x77,                    //   Usage (Wacom ToolType)            247
# 0x15, 0x00,                    //   Logical Minimum (0)               249
# 0x26, 0xff, 0x0f,              //   Logical Maximum (4095)            251
# 0x75, 0x10,                    //   Report Size (16)                  254
# 0x95, 0x01,                    //   Report Count (1)                  256
# 0x81, 0x02,                    //   Input (Data,Var,Abs)              258
# 0xc0,                          //  End Collection                     260
# 0x85, 0x11,                    //  Report ID (17)                     261
# 0x09, 0x39,                    //  Usage (Wacom DigitizerFnKeys)      263
# 0xa1, 0x00,                    //  Collection (Physical)              265
# 0x1a, 0x10, 0x09,              //   Usage Minimum (2320)              267
# 0x2a, 0x17, 0x09,              //   Usage Maximum (2327)              270
# 0x15, 0x00,                    //   Logical Minimum (0)               273
# 0x25, 0x01,                    //   Logical Maximum (1)               275
# 0x75, 0x01,                    //   Report Size (1)                   277
# 0x95, 0x08,                    //   Report Count (8)                  279
# 0x81, 0x02,                    //   Input (Data,Var,Abs)              281
# 0x1a, 0x40, 0x09,              //   Usage Minimum (2368)              283
# 0x2a, 0x47, 0x09,              //   Usage Maximum (2375)              286
# 0x81, 0x02,                    //   Input (Data,Var,Abs)              289
# 0x0a, 0x95, 0x09,              //   Usage (Wacom Button Center)       291
# 0x95, 0x01,                    //   Report Count (1)                  294
# 0x81, 0x02,                    //   Input (Data,Var,Abs)              296
# 0x95, 0x07,                    //   Report Count (7)                  298
# 0x81, 0x03,                    //   Input (Cnst,Var,Abs)              300
# 0x0a, 0x38, 0x01,              //   Usage (Wacom TouchRing)           302
# 0x65, 0x14,                    //   Unit (EnglishRotation: deg)       305
# 0x55, 0x00,                    //   Unit Exponent (0)                 307
# 0x35, 0x00,                    //   Physical Minimum (0)              309
# 0x46, 0x67, 0x01,              //   Physical Maximum (359)            311
# 0x15, 0x00,                    //   Logical Minimum (0)               314
# 0x25, 0x47,                    //   Logical Maximum (71)              316
# 0x75, 0x07,                    //   Report Size (7)                   318
# 0x95, 0x01,                    //   Report Count (1)                  320
# 0x81, 0x0a,                    //   Input (Data,Var,Abs,Wrap)         322
# 0x0a, 0x39, 0x01,              //   Usage (Wacom TouchRingStatus)     324
# 0x65, 0x00,                    //   Unit (None)                       327
# 0x55, 0x00,                    //   Unit Exponent (0)                 329
# 0x25, 0x01,                    //   Logical Maximum (1)               331
# 0x75, 0x01,                    //   Report Size (1)                   333
# 0x95, 0x01,                    //   Report Count (1)                  335
# 0x81, 0x02,                    //   Input (Data,Var,Abs)              337
# 0x75, 0x08,                    //   Report Size (8)                   339
# 0x95, 0x04,                    //   Report Count (4)                  341
# 0x81, 0x03,                    //   Input (Cnst,Var,Abs)              343
# 0xc0,                          //  End Collection                     345
# 0x85, 0x13,                    //  Report ID (19)                     346
# 0x0a, 0x13, 0x10,              //  Usage (Wacom Digitizer Info)       348
# 0xa1, 0x00,                    //  Collection (Physical)              351
# 0x0a, 0x3b, 0x04,              //   Usage (Wacom Battery Level)       353
# 0x15, 0x00,                    //   Logical Minimum (0)               356
# 0x25, 0x64,                    //   Logical Maximum (100)             358
# 0x75, 0x07,                    //   Report Size (7)                   360
# 0x95, 0x01,                    //   Report Count (1)                  362
# 0x81, 0x02,                    //   Input (Data,Var,Abs)              364
# 0x0a, 0x04, 0x04,              //   Usage (Wacom Battery Charging)    366
# 0x25, 0x01,                    //   Logical Maximum (1)               369
# 0x75, 0x01,                    //   Report Size (1)                   371
# 0x81, 0x02,                    //   Input (Data,Var,Abs)              373
# 0x0a, 0x52, 0x04,              //   Usage (Vendor Usage 0x452)        375
# 0x15, 0x00,                    //   Logical Minimum (0)               378
# 0x25, 0x01,                    //   Logical Maximum (1)               380
# 0x75, 0x01,                    //   Report Size (1)                   382
# 0x95, 0x01,                    //   Report Count (1)                  384
# 0x81, 0x02,                    //   Input (Data,Var,Abs)              386
# 0x95, 0x06,                    //   Report Count (6)                  388
# 0x81, 0x03,                    //   Input (Cnst,Var,Abs)              390
# 0x0a, 0x54, 0x04,              //   Usage (Wacom TouchOnOff)          392
# 0x95, 0x01,                    //   Report Count (1)                  395
# 0x81, 0x02,                    //   Input (Data,Var,Abs)              397
# 0x75, 0x08,                    //   Report Size (8)                   399
# 0x95, 0x06,                    //   Report Count (6)                  401
# 0x81, 0x03,                    //   Input (Cnst,Var,Abs)              403
# 0xc0,                          //  End Collection                     405
# 0x09, 0x0e,                    //  Usage (Device Configuration)       406
# 0xa1, 0x02,                    //  Collection (Logical)               408
# 0x15, 0x00,                    //   Logical Minimum (0)               410
# 0x85, 0x02,                    //   Report ID (2)                     412
# 0x09, 0x01,                    //   Usage (Wacom Digitizer)           414
# 0x75, 0x08,                    //   Report Size (8)                   416
# 0x25, 0x01,                    //   Logical Maximum (1)               418
# 0x95, 0x01,                    //   Report Count (1)                  420
# 0xb1, 0x02,                    //   Feature (Data,Var,Abs)            422
# 0x85, 0x03,                    //   Report ID (3)                     424
# 0x0a, 0x03, 0x10,              //   Usage (Vendor Usage 0x1003)       426
# 0x26, 0xff, 0x00,              //   Logical Maximum (255)             429
# 0x95, 0x01,                    //   Report Count (1)                  432
# 0xb1, 0x02,                    //   Feature (Data,Var,Abs)            434
# 0x85, 0x04,                    //   Report ID (4)                     436
# 0x0a, 0x04, 0x10,              //   Usage (Vendor Usage 0x1004)       438
# 0x25, 0x01,                    //   Logical Maximum (1)               441
# 0x95, 0x01,                    //   Report Count (1)                  443
# 0xb1, 0x02,                    //   Feature (Data,Var,Abs)            445
# 0x85, 0x07,                    //   Report ID (7)                     447
# 0x0a, 0x09, 0x10,              //   Usage (Vendor Usage 0x1009)       449
# 0x25, 0x02,                    //   Logical Maximum (2)               452
# 0x95, 0x01,                    //   Report Count (1)                  454
# 0xb1, 0x02,                    //   Feature (Data,Var,Abs)            456
# 0x95, 0x01,                    //   Report Count (1)                  458
# 0xb1, 0x03,                    //   Feature (Cnst,Var,Abs)            460
# 0x0a, 0x07, 0x10,              //   Usage (Vendor Usage 0x1007)       462
# 0x09, 0x00,                    //   Usage (Vendor Usage 0x00)         465
# 0x0a, 0x08, 0x10,              //   Usage (Vendor Usage 0x1008)       467
# 0x09, 0x00,                    //   Usage (Vendor Usage 0x00)         470
# 0x09, 0x00,                    //   Usage (Vendor Usage 0x00)         472
# 0x09, 0x00,                    //   Usage (Vendor Usage 0x00)         474
# 0x27, 0xff, 0xff, 0x00, 0x00,  //   Logical Maximum (65535)           476
# 0x75, 0x10,                    //   Report Size (16)                  481
# 0x95, 0x06,                    //   Report Count (6)                  483
# 0xb1, 0x02,                    //   Feature (Data,Var,Abs)            485
# 0x75, 0x08,                    //   Report Size (8)                   487
# 0x95, 0x01,                    //   Report Count (1)                  489
# 0xb1, 0x03,                    //   Feature (Cnst,Var,Abs)            491
# 0x85, 0x0c,                    //   Report ID (12)                    493
# 0x0a, 0x30, 0x0d,              //   Usage (Wacom Offset Left)         495
# 0x0a, 0x31, 0x0d,              //   Usage (Wacom Offset Top)          498
# 0x0a, 0x32, 0x0d,              //   Usage (Wacom Offset Right)        501
# 0x0a, 0x33, 0x0d,              //   Usage (Wacom Offset Bottom)       504
# 0x65, 0x11,                    //   Unit (SILinear: cm)               507
# 0x55, 0x0d,                    //   Unit Exponent (-3)                509
# 0x75, 0x10,                    //   Report Size (16)                  511
# 0x95, 0x04,                    //   Report Count (4)                  513
# 0xb1, 0x03,                    //   Feature (Cnst,Var,Abs)            515
# 0x85, 0x0d,                    //   Report ID (13)                    517
# 0x65, 0x00,                    //   Unit (None)                       519
# 0x55, 0x00,                    //   Unit Exponent (0)                 521
# 0x0a, 0x0d, 0x10,              //   Usage (Vendor Usage 0x100d)       523
# 0x15, 0x00,                    //   Logical Minimum (0)               526
# 0x25, 0x01,                    //   Logical Maximum (1)               528
# 0x75, 0x08,                    //   Report Size (8)                   530
# 0x95, 0x01,                    //   Report Count (1)                  532
# 0xb1, 0x02,                    //   Feature (Data,Var,Abs)            534
# 0x85, 0x14,                    //   Report ID (20)                    536
# 0x0a, 0x14, 0x10,              //   Usage (Vendor Usage 0x1014)       538
# 0x26, 0xff, 0x00,              //   Logical Maximum (255)             541
# 0x95, 0x0d,                    //   Report Count (13)                 544
# 0xb1, 0x02,                    //   Feature (Data,Var,Abs)            546
# 0x85, 0x31,                    //   Report ID (49)                    548
# 0x0a, 0x31, 0x10,              //   Usage (Vendor Usage 0x1031)       550
# 0x25, 0x64,                    //   Logical Maximum (100)             553
# 0x95, 0x05,                    //   Report Count (5)                  555
# 0xb1, 0x02,                    //   Feature (Data,Var,Abs)            557
# 0x85, 0x32,                    //   Report ID (50)                    559
# 0x0a, 0x31, 0x10,              //   Usage (Vendor Usage 0x1031)       561
# 0x25, 0x64,                    //   Logical Maximum (100)             564
# 0x95, 0x01,                    //   Report Count (1)                  566
# 0xb1, 0x02,                    //   Feature (Data,Var,Abs)            568
# 0x0a, 0x32, 0x10,              //   Usage (Vendor Usage 0x1032)       570
# 0x25, 0x03,                    //   Logical Maximum (3)               573
# 0xb1, 0x02,                    //   Feature (Data,Var,Abs)            575
# 0x85, 0x34,                    //   Report ID (52)                    577
# 0x0a, 0x34, 0x10,              //   Usage (Vendor Usage 0x1034)       579
# 0x25, 0x01,                    //   Logical Maximum (1)               582
# 0x95, 0x04,                    //   Report Count (4)                  584
# 0xb1, 0x02,                    //   Feature (Data,Var,Abs)            586
# 0x85, 0x35,                    //   Report ID (53)                    588
# 0x0a, 0x35, 0x10,              //   Usage (Vendor Usage 0x1035)       590
# 0x26, 0xff, 0x00,              //   Logical Maximum (255)             593
# 0x95, 0x0a,                    //   Report Count (10)                 596
# 0xb1, 0x02,                    //   Feature (Data,Var,Abs)            598
# 0x85, 0x36,                    //   Report ID (54)                    600
# 0x0a, 0x35, 0x10,              //   Usage (Vendor Usage 0x1035)       602
# 0x26, 0xff, 0x00,              //   Logical Maximum (255)             605
# 0x96, 0x01, 0x01,              //   Report Count (257)                608
# 0xb1, 0x02,                    //   Feature (Data,Var,Abs)            611
# 0x85, 0xcc,                    //   Report ID (204)                   613
# 0x0a, 0xcc, 0x10,              //   Usage (Vendor Usage 0x10cc)       615
# 0x26, 0xff, 0x00,              //   Logical Maximum (255)             618
# 0x95, 0x02,                    //   Report Count (2)                  621
# 0xb1, 0x02,                    //   Feature (Data,Var,Abs)            623
# 0xc0,                          //  End Collection                     625
# 0x0a, 0xac, 0x10,              //  Usage (Vendor Usage 0x10ac)        626
# 0xa1, 0x02,                    //  Collection (Logical)               629
# 0x15, 0x00,                    //   Logical Minimum (0)               631
# 0x26, 0xff, 0x00,              //   Logical Maximum (255)             633
# 0x75, 0x08,                    //   Report Size (8)                   636
# 0x85, 0xac,                    //   Report ID (172)                   638
# 0x09, 0x00,                    //   Usage (Vendor Usage 0x00)         640
# 0x95, 0xbf,                    //   Report Count (191)                642
# 0x81, 0x02,                    //   Input (Data,Var,Abs)              644
# 0x85, 0x33,                    //   Report ID (51)                    646
# 0x09, 0x00,                    //   Usage (Vendor Usage 0x00)         648
# 0x95, 0x12,                    //   Report Count (18)                 650
# 0xb1, 0x02,                    //   Feature (Data,Var,Abs)            652
# 0x85, 0x64,                    //   Report ID (100)                   654
# 0x09, 0x00,                    //   Usage (Vendor Usage 0x00)         656
# 0x95, 0x0c,                    //   Report Count (12)                 658
# 0xb1, 0x02,                    //   Feature (Data,Var,Abs)            660
# 0x85, 0x15,                    //   Report ID (21)                    662
# 0x09, 0x00,                    //   Usage (Vendor Usage 0x00)         664
# 0x95, 0x0e,                    //   Report Count (14)                 666
# 0xb1, 0x02,                    //   Feature (Data,Var,Abs)            668
# 0x85, 0x12,                    //   Report ID (18)                    670
# 0x09, 0x00,                    //   Usage (Vendor Usage 0x00)         672
# 0x95, 0x04,                    //   Report Count (4)                  674
# 0xb1, 0x02,                    //   Feature (Data,Var,Abs)            676
# 0x85, 0x16,                    //   Report ID (22)                    678
# 0x09, 0x00,                    //   Usage (Vendor Usage 0x00)         680
# 0x95, 0x0e,                    //   Report Count (14)                 682
# 0xb1, 0x02,                    //   Feature (Data,Var,Abs)            684
# 0x85, 0x40,                    //   Report ID (64)                    686
# 0x09, 0x00,                    //   Usage (Vendor Usage 0x00)         688
# 0x95, 0x01,                    //   Report Count (1)                  690
# 0xb1, 0x02,                    //   Feature (Data,Var,Abs)            692
# 0x85, 0x41,                    //   Report ID (65)                    694
# 0x09, 0x00,                    //   Usage (Vendor Usage 0x00)         696
# 0x95, 0x01,                    //   Report Count (1)                  698
# 0xb1, 0x02,                    //   Feature (Data,Var,Abs)            700
# 0x85, 0x42,                    //   Report ID (66)                    702
# 0x09, 0x00,                    //   Usage (Vendor Usage 0x00)         704
# 0x95, 0x04,                    //   Report Count (4)                  706
# 0xb1, 0x02,                    //   Feature (Data,Var,Abs)            708
# 0x85, 0x43,                    //   Report ID (67)                    710
# 0x09, 0x00,                    //   Usage (Vendor Usage 0x00)         712
# 0x95, 0x0d,                    //   Report Count (13)                 714
# 0xb1, 0x02,                    //   Feature (Data,Var,Abs)            716
# 0x85, 0x44,                    //   Report ID (68)                    718
# 0x09, 0x00,                    //   Usage (Vendor Usage 0x00)         720
# 0x95, 0x3f,                    //   Report Count (63)                 722
# 0xb1, 0x02,                    //   Feature (Data,Var,Abs)            724
# 0x85, 0x45,                    //   Report ID (69)                    726
# 0x09, 0x00,                    //   Usage (Vendor Usage 0x00)         728
# 0x95, 0x20,                    //   Report Count (32)                 730
# 0xb1, 0x02,                    //   Feature (Data,Var,Abs)            732
# 0x85, 0x60,                    //   Report ID (96)                    734
# 0x09, 0x00,                    //   Usage (Vendor Usage 0x00)         736
# 0x95, 0x3f,                    //   Report Count (63)                 738
# 0xb1, 0x02,                    //   Feature (Data,Var,Abs)            740
# 0x85, 0x61,                    //   Report ID (97)                    742
# 0x09, 0x00,                    //   Usage (Vendor Usage 0x00)         744
# 0x95, 0x3e,                    //   Report Count (62)                 746
# 0xb1, 0x02,                    //   Feature (Data,Var,Abs)            748
# 0x85, 0x62,                    //   Report ID (98)                    750
# 0x09, 0x00,                    //   Usage (Vendor Usage 0x00)         752
# 0x95, 0x3e,                    //   Report Count (62)                 754
# 0xb1, 0x02,                    //   Feature (Data,Var,Abs)            756
# 0xc0,                          //  End Collection                     758
# 0x85, 0xd0,                    //  Report ID (208)                    759
# 0x09, 0x01,                    //  Usage (Wacom Digitizer)            761
# 0x96, 0x08, 0x00,              //  Report Count (8)                   763
# 0xb1, 0x02,                    //  Feature (Data,Var,Abs)             766
# 0x85, 0xd1,                    //  Report ID (209)                    768
# 0x09, 0x01,                    //  Usage (Wacom Digitizer)            770
# 0x96, 0x04, 0x01,              //  Report Count (260)                 772
# 0xb1, 0x02,                    //  Feature (Data,Var,Abs)             775
# 0x85, 0xd2,                    //  Report ID (210)                    777
# 0x09, 0x01,                    //  Usage (Wacom Digitizer)            779
# 0x96, 0x04, 0x01,              //  Report Count (260)                 781
# 0xb1, 0x02,                    //  Feature (Data,Var,Abs)             784
# 0x85, 0xd3,                    //  Report ID (211)                    786
# 0x09, 0x01,                    //  Usage (Wacom Digitizer)            788
# 0x96, 0x04, 0x00,              //  Report Count (4)                   790
# 0xb1, 0x02,                    //  Feature (Data,Var,Abs)             793
# 0x85, 0xd4,                    //  Report ID (212)                    795
# 0x09, 0x01,                    //  Usage (Wacom Digitizer)            797
# 0x96, 0x04, 0x00,              //  Report Count (4)                   799
# 0xb1, 0x02,                    //  Feature (Data,Var,Abs)             802
# 0x85, 0xd5,                    //  Report ID (213)                    804
# 0x09, 0x01,                    //  Usage (Wacom Digitizer)            806
# 0x96, 0x04, 0x00,              //  Report Count (4)                   808
# 0xb1, 0x02,                    //  Feature (Data,Var,Abs)             811
# 0x85, 0xd6,                    //  Report ID (214)                    813
# 0x09, 0x01,                    //  Usage (Wacom Digitizer)            815
# 0x96, 0x04, 0x00,              //  Report Count (4)                   817
# 0xb1, 0x02,                    //  Feature (Data,Var,Abs)             820
# 0x85, 0xd7,                    //  Report ID (215)                    822
# 0x09, 0x01,                    //  Usage (Wacom Digitizer)            824
# 0x96, 0x08, 0x00,              //  Report Count (8)                   826
# 0xb1, 0x02,                    //  Feature (Data,Var,Abs)             829
# 0x85, 0xd8,                    //  Report ID (216)                    831
# 0x09, 0x01,                    //  Usage (Wacom Digitizer)            833
# 0x96, 0x0c, 0x00,              //  Report Count (12)                  835
# 0xb1, 0x02,                    //  Feature (Data,Var,Abs)             838
# 0x85, 0xd9,                    //  Report ID (217)                    840
# 0x09, 0x01,                    //  Usage (Wacom Digitizer)            842
# 0x96, 0x00, 0x0a,              //  Report Count (2560)                844
# 0xb1, 0x02,                    //  Feature (Data,Var,Abs)             847
# 0x85, 0xda,                    //  Report ID (218)                    849
# 0x09, 0x01,                    //  Usage (Wacom Digitizer)            851
# 0x96, 0x04, 0x04,              //  Report Count (1028)                853
# 0xb1, 0x02,                    //  Feature (Data,Var,Abs)             856
# 0x85, 0xdb,                    //  Report ID (219)                    858
# 0x09, 0x01,                    //  Usage (Wacom Digitizer)            860
# 0x96, 0x06, 0x00,              //  Report Count (6)                   862
# 0xb1, 0x02,                    //  Feature (Data,Var,Abs)             865
# 0x85, 0xdc,                    //  Report ID (220)                    867
# 0x09, 0x01,                    //  Usage (Wacom Digitizer)            869
# 0x96, 0x02, 0x00,              //  Report Count (2)                   871
# 0xb1, 0x02,                    //  Feature (Data,Var,Abs)             874
# 0x85, 0xdd,                    //  Report ID (221)                    876
# 0x09, 0x01,                    //  Usage (Wacom Digitizer)            878
# 0x96, 0x04, 0x00,              //  Report Count (4)                   880
# 0xb1, 0x02,                    //  Feature (Data,Var,Abs)             883
# 0x85, 0xde,                    //  Report ID (222)                    885
# 0x09, 0x01,                    //  Usage (Wacom Digitizer)            887
# 0x96, 0x04, 0x00,              //  Report Count (4)                   889
# 0xb1, 0x02,                    //  Feature (Data,Var,Abs)             892
# 0x85, 0xdf,                    //  Report ID (223)                    894
# 0x09, 0x01,                    //  Usage (Wacom Digitizer)            896
# 0x96, 0x22, 0x00,              //  Report Count (34)                  898
# 0xb1, 0x02,                    //  Feature (Data,Var,Abs)             901
# 0x85, 0xe0,                    //  Report ID (224)                    903
# 0x09, 0x01,                    //  Usage (Wacom Digitizer)            905
# 0x96, 0x01, 0x00,              //  Report Count (1)                   907
# 0xb1, 0x02,                    //  Feature (Data,Var,Abs)             910
# 0x85, 0xe1,                    //  Report ID (225)                    912
# 0x09, 0x01,                    //  Usage (Wacom Digitizer)            914
# 0x96, 0x02, 0x00,              //  Report Count (2)                   916
# 0xb1, 0x02,                    //  Feature (Data,Var,Abs)             919
# 0x85, 0xe2,                    //  Report ID (226)                    921
# 0x09, 0x01,                    //  Usage (Wacom Digitizer)            923
# 0x96, 0x02, 0x00,              //  Report Count (2)                   925
# 0xb1, 0x02,                    //  Feature (Data,Var,Abs)             928
# 0x85, 0xe3,                    //  Report ID (227)                    930
# 0x09, 0x01,                    //  Usage (Wacom Digitizer)            932
# 0x96, 0x02, 0x00,              //  Report Count (2)                   934
# 0xb1, 0x02,                    //  Feature (Data,Var,Abs)             937
# 0x85, 0xe4,                    //  Report ID (228)                    939
# 0x09, 0x01,                    //  Usage (Wacom Digitizer)            941
# 0x96, 0xff, 0x01,              //  Report Count (511)                 943
# 0xb1, 0x02,                    //  Feature (Data,Var,Abs)             946
# 0xc0,                          // End Collection                      948
# 
R: 949 05 01 09 02 a1 01 85 01 09 01 a1 00 05 09 19 01 29 03 15 00 25 01 75 01 95 03 81 02 75 01 95 05 81 03 05 01 09 30 09 31 15 81 25 7f 75 08 95 02 81 06 c0 c0 06 0d ff 09 01 a1 01 85 10 09 20 a1 00 09 42 09 44 09 5a 09 45 09 3c 09 32 09 36 15 00 25 01 75 01 95 07 81 02 95 01 81 03 0a 30 01 65 11 55 0d 35 00 47 80 57 00 00 15 00 27 00 af 00 00 75 18 95 01 81 02 0a 31 01 47 d0 39 00 00 27 a0 73 00 00 81 02 09 30 55 00 65 00 15 00 26 ff 1f 75 10 81 02 09 3d 09 3e 65 14 55 00 35 c0 45 3f 15 c0 25 3f 75 08 95 02 81 02 09 41 65 14 55 00 36 4c ff 46 b3 00 16 7c fc 26 83 03 75 10 95 01 81 0a 0a 03 0d 65 00 55 00 15 00 26 ff 07 75 10 95 01 81 02 0a 32 01 15 00 25 3f 75 08 95 01 81 02 09 5b 09 5c 17 00 00 00 80 27 ff ff ff 7f 75 20 95 02 81 02 09 77 15 00 26 ff 0f 75 10 95 01 81 02 c0 85 11 09 39 a1 00 1a 10 09 2a 17 09 15 00 25 01 75 01 95 08 81 02 1a 40 09 2a 47 09 81 02 0a 95 09 95 01 81 02 95 07 81 03 0a 38 01 65 14 55 00 35 00 46 67 01 15 00 25 47 75 07 95 01 81 0a 0a 39 01 65 00 55 00 25 01 75 01 95 01 81 02 75 08 95 04 81 03 c0 85 13 0a 13 10 a1 00 0a 3b 04 15 00 25 64 75 07 95 01 81 02 0a 04 04 25 01 75 01 81 02 0a 52 04 15 00 25 01 75 01 95 01 81 02 95 06 81 03 0a 54 04 95 01 81 02 75 08 95 06 81 03 c0 09 0e a1 02 15 00 85 02 09 01 75 08 25 01 95 01 b1 02 85 03 0a 03 10 26 ff 00 95 01 b1 02 85 04 0a 04 10 25 01 95 01 b1 02 85 07 0a 09 10 25 02 95 01 b1 02 95 01 b1 03 0a 07 10 09 00 0a 08 10 09 00 09 00 09 00 27 ff ff 00 00 75 10 95 06 b1 02 75 08 95 01 b1 03 85 0c 0a 30 0d 0a 31 0d 0a 32 0d 0a 33 0d 65 11 55 0d 75 10 95 04 b1 03 85 0d 65 00 55 00 0a 0d 10 15 00 25 01 75 08 95 01 b1 02 85 14 0a 14 10 26 ff 00 95 0d b1 02 85 31 0a 31 10 25 64 95 05 b1 02 85 32 0a 31 10 25 64 95 01 b1 02 0a 32 10 25 03 b1 02 85 34 0a 34 10 25 01 95 04 b1 02 85 35 0a 35 10 26 ff 00 95 0a b1 02 85 36 0a 35 10 26 ff 00 96 01 01 b1 02 85 cc 0a cc 10 26 ff 00 95 02 b1 02 c0 0a ac 10 a1 02 15 00 26 ff 00 75 08 85 ac 09 00 95 bf 81 02 85 33 09 00 95 12 b1 02 85 64 09 00 95 0c b1 02 85 15 09 00 95 0e b1 02 85 12 09 00 95 04 b1 02 85 16 09 00 95 0e b1 02 85 40 09 00 95 01 b1 02 85 41 09 00 95 01 b1 02 85 42 09 00 95 04 b1 02 85 43 09 00 95 0d b1 02 85 44 09 00 95 3f b1 02 85 45 09 00 95 20 b1 02 85 60 09 00 95 3f b1 02 85 61 09 00 95 3e b1 02 85 62 09 00 95 3e b1 02 c0 85 d0 09 01 96 08 00 b1 02 85 d1 09 01 96 04 01 b1 02 85 d2 09 01 96 04 01 b1 02 85 d3 09 01 96 04 00 b1 02 85 d4 09 01 96 04 00 b1 02 85 d5 09 01 96 04 00 b1 02 85 d6 09 01 96 04 00 b1 02 85 d7 09 01 96 08 00 b1 02 85 d8 09 01 96 0c 00 b1 02 85 d9 09 01 96 00 0a b1 02 85 da 09 01 96 04 04 b1 02 85 db 09 01 96 06 00 b1 02 85 dc 09 01 96 02 00 b1 02 85 dd 09 01 96 04 00 b1 02 85 de 09 01 96 04 00 b1 02 85 df 09 01 96 22 00 b1 02 85 e0 09 01 96 01 00 b1 02 85 e1 09 01 96 02 00 b1 02 85 e2 09 01 96 02 00 b1 02 85 e3 09 01 96 02 00 b1 02 85 e4 09 01 96 ff 01 b1 02 c0
N: Wacom Co.,Ltd. Wacom Intuos Pro M
I: 3 056a 0357
# ReportID: 19 / Wacom Battery Level:  100 | Wacom Battery Charging: 0 | 0xff0d0452: 0 | # | Wacom TouchOnOff: 1 | # 
E: 000000.000000 9 13 64 80 00 00 00 00 00 00
# ReportID: 16 / Tip Switch: 0 | Barrel Switch: 0 | Secondary Barrel Switch: 0 | Eraser: 0 | Invert: 0 | In Range: 0 | Wacom Sense: 1 | # | X:      6057 | Y:      9531 | Tip Pressure:      0 | X Tilt:    0 | Y Tilt:    0 | Twist:      0 | Wacom FingerWheel:      0 | Wacom Distance:   63 | Transducer Serial Number:           0 | Wacom SerialHi:           0 | Wacom ToolType:      0 
E: 000000.144941 27 10 40 a9 17 00 3b 25 00 00 00 00 00 00 00 00 00 3f 00 00 00 00 00 00 00 00 00 00
# ReportID: 16 / Tip Switch: 0 | Barrel Switch: 0 | Secondary Barrel Switch: 0 | Eraser: 0 | Invert: 0 | In Range: 0 | Wacom Sense: 1 | # | X:      6057 | Y:      9531 | Tip Pressure:      0 | X Tilt:    0 | Y Tilt:    0 | Twist:      0 | Wacom FingerWheel:      0 | Wacom Distance:   63 | Transducer Serial Number:           0 | Wacom SerialHi:           0 | Wacom ToolType:      0 
E: 000000.153844 27 10 40 a9 17 00 3b 25 00 00 00 00 00 00 00 00 00 3f 00 00 00 00 00 00 00 00 00 00
# ReportID: 16 / Tip Switch: 0 | Barrel Switch: 0 | Secondary Barrel Switch: 0 | Eraser: 0 | Invert: 0 | In Range: 0 | Wacom Sense: 1 | # | X:      6057 | Y:      9531 | Tip Pressure:      0 | X Tilt:    0 | Y Tilt:    0 | Twist:      0 | Wacom FingerWheel:      0 | Wacom Distance:   63 | Transducer Serial Number:           0 | Wacom SerialHi:           0 | Wacom ToolType:      0 
E: 000000.162919 27 10 40 a9 17 00 3b 25 00 00 00 00 00 00 00 00 00 3f 00 00 00 00 00 00 00 00 00 00
# ReportID: 16 / Tip Switch: 0 | Barrel Switch: 0 | Secondary Barrel Switch: 0 | Eraser: 0 | Invert: 0 | In Range: 0 | Wacom Sense: 1 | # | X:      6057 | Y:      9531 | Tip Pressure:      0 | X Tilt:    0 | Y Tilt:    0 | Twist:      0 | Wacom FingerWheel:      0 | Wacom Distance:   63 | Transducer Serial Number:           0 | Wacom SerialHi:           0 | Wacom ToolType:      0 
E: 000000.171831 27 10 40 a9 17 00 3b 25 00 00 00 00 00 00 00 00 00 3f 00 00 00 00 00 00 00 00 00 00
# ReportID: 16 / Tip Switch: 0 | Barrel Switch: 0 | Secondary Barrel Switch: 0 | Eraser: 0 | Invert: 0 | In Range: 0 | Wacom Sense: 1 | # | X:      6057 | Y:      9531 | Tip Pressure:      0 | X Tilt:    0 | Y Tilt:    0 | Twist:      0 | Wacom FingerWheel:      0 | Wacom Distance:   63 | Transducer Serial Number:           0 | Wacom SerialHi:           0 | Wacom ToolType:      0 
E: 000000.180795 27 10 40 a9 17 00 3b 25 00 00 00 00 00 00 00 00 00 3f 00 00 00 00 00 00 00 00 00 00
# ReportID: 16 / Tip Switch: 0 | Barrel Switch: 0 | Secondary Barrel Switch: 0 | Eraser: 0 | Invert: 0 | In Range: 0 | Wacom Sense: 1 | # | X:      6057 | Y:      9531 | Tip Pressure:      0 | X Tilt:    0 | Y Tilt:    0 | Twist:      0 | Wacom FingerWheel:      0 | Wacom Distance:   63 | Transducer Serial Number:           0 | Wacom SerialHi:           0 | Wacom ToolType:      0 
E: 000000.186922 27 10 40 a9 17 00 3b 25 00 00 00 00 00 00 00 00 00 3f 00 00 00 00 00 00 00 00 00 00
# ReportID: 16 / Tip Switch: 0 | Barrel Switch: 0 | Secondary Barrel Switch: 0 | Eraser: 0 | Invert: 0 | In Range: 0 | Wacom Sense: 1 | # | X:      6057 | Y:      9531 | Tip Pressure:      0 | X Tilt:    0 | Y Tilt:    0 | Twist:      0 | Wacom FingerWheel:      0 | Wacom Distance:   63 | Transducer Serial Number:           0 | Wacom SerialHi:           0 | Wacom ToolType:      0 
E: 000000.195969 27 10 40 a9 17 00 3b 25 00 00 00 00 00 00 00 00 00 3f 00 00 00 00 00 00 00 00 00 00
# ReportID: 16 / Tip Switch: 0 | Barrel Switch: 0 | Secondary Barrel Switch: 0 | Eraser: 0 | Invert: 0 | In Range: 0 | Wacom Sense: 1 | # | X:      6057 | Y:      9531 | Tip Pressure:      0 | X Tilt:    0 | Y Tilt:    0 | Twist:      0 | Wacom FingerWheel:      0 | Wacom Distance:   63 | Transducer Serial Number:           0 | Wacom SerialHi:           0 | Wacom ToolType:      0 
E: 000000.204868 27 10 40 a9 17 00 3b 25 00 00 00 00 00 00 00 00 00 3f 00 00 00 00 00 00 00 00 00 00
# ReportID: 16 / Tip Switch: 0 | Barrel Switch: 0 | Secondary Barrel Switch: 0 | Eraser: 0 | Invert: 0 | In Range: 0 | Wacom Sense: 1 | # | X:      5768 | Y:      9151 | Tip Pressure:      0 | X Tilt:    0 | Y Tilt:    0 | Twist:      0 | Wacom FingerWheel:      0 | Wacom Distance:   63 | Transducer Serial Number:           0 | Wacom SerialHi:           0 | Wacom ToolType:      0 
E: 000000.213948 27 10 40 88 16 00 bf 23 00 00 00 00 00 00 00 00 00 3f 00 00 00 00 00 00 00 00 00 00
# ReportID: 16 / Tip Switch: 0 | Barrel Switch: 0 | Secondary Barrel Switch: 0 | Eraser: 0 | Invert: 0 | In Range: 0 | Wacom Sense: 1 | # | X:      5779 | Y:      9130 | Tip Pressure:      0 | X Tilt:    0 | Y Tilt:    0 | Twist:      0 | Wacom FingerWheel:      0 | Wacom Distance:   63 | Transducer Serial Number:           0 | Wacom SerialHi:           0 | Wacom ToolType:      0 
E: 000000.222776 27 10 40 93 16 00 aa 23 00 00 00 00 00 00 00 00 00 3f 00 00 00 00 00 00 00 00 00 00
# ReportID: 16 / Tip Switch: 0 | Barrel Switch: 0 | Secondary Barrel Switch: 0 | Eraser: 0 | Invert: 0 | In Range: 0 | Wacom Sense: 1 | # | X:      5522 | Y:      8784 | Tip Pressure:      0 | X Tilt:    0 | Y Tilt:    0 | Twist:      0 | Wacom FingerWheel:      0 | Wacom Distance:   63 | Transducer Serial Number:           0 | Wacom SerialHi:           0 | Wacom ToolType:      0 
E: 000000.228904 27 10 40 92 15 00 50 22 00 00 00 00 00 00 00 00 00 3f 00 00 00 00 00 00 00 00 00 00
# ReportID: 16 / Tip Switch: 0 | Barrel Switch: 0 | Secondary Barrel Switch: 0 | Eraser: 0 | Invert: 0 | In Range: 1 | Wacom Sense: 1 | # | X:      5518 | Y:      8691 | Tip Pressure:      0 | X Tilt:   14 | Y Tilt:   -3 | Twist:      0 | Wacom FingerWheel:      0 | Wacom Distance:   63 | Transducer Serial Number:   595605148 | Wacom SerialHi:     1116162 | Wacom ToolType:   2050 
E: 000000.240809 27 10 60 8e 15 00 f3 21 00 00 00 0e fd 00 00 00 00 3f 9c 36 80 23 02 08 11 00 02 08
# ReportID: 16 / Tip Switch: 0 | Barrel Switch: 0 | Secondary Barrel Switch: 0 | Eraser: 0 | Invert: 0 | In Range: 1 | Wacom Sense: 1 | # | X:      5512 | Y:      8672 | Tip Pressure:      0 | X Tilt:   15 | Y Tilt:   -2 | Twist:      0 | Wacom FingerWheel:      0 | Wacom Distance:   63 | Transducer Serial Number:   595605148 | Wacom SerialHi:     1116162 | Wacom ToolType:   2050 
E: 000000.246826 27 10 60 88 15 00 e0 21 00 00 00 0f fe 00 00 00 00 3f 9c 36 80 23 02 08 11 00 02 08
# ReportID: 16 / Tip Switch: 0 | Barrel Switch: 0 | Secondary Barrel Switch: 0 | Eraser: 0 | Invert: 0 | In Range: 1 | Wacom Sense: 1 | # | X:      5503 | Y:      8637 | Tip Pressure:      0 | X Tilt:   17 | Y Tilt:   -1 | Twist:      0 | Wacom FingerWheel:      0 | Wacom Distance:   63 | Transducer Serial Number:   595605148 | Wacom SerialHi:     1116162 | Wacom ToolType:   2050 
E: 000000.249827 27 10 60 7f 15 00 bd 21 00 00 00 11 ff 00 00 00 00 3f 9c 36 80 23 02 08 11 00 02 08
# ReportID: 16 / Tip Switch: 0 | Barrel Switch: 0 | Secondary Barrel Switch: 0 | Eraser: 0 | Invert: 0 | In Range: 1 | Wacom Sense: 1 | # | X:      5496 | Y:      8602 | Tip Pressure:      0 | X Tilt:   18 | Y Tilt:    0 | Twist:      0 | Wacom FingerWheel:      0 | Wacom Distance:   63 | Transducer Serial Number:   595605148 | Wacom SerialHi:     1116162 | Wacom ToolType:   2050 
E: 000000.255976 27 10 60 78 15 00 9a 21 00 00 00 12 00 00 00 00 00 3f 9c 36 80 23 02 08 11 00 02 08
# ReportID: 16 / Tip Switch: 0 | Barrel Switch: 0 | Secondary Barrel Switch: 0 | Eraser: 0 | Invert: 0 | In Range: 1 | Wacom Sense: 1 | # | X:      5489 | Y:      8571 | Tip Pressure:      0 | X Tilt:   19 | Y Tilt:    0 | Twist:      0 | Wacom FingerWheel:      0 | Wacom Distance:   63 | Transducer Serial Number:   595605148 | Wacom SerialHi:     1116162 | Wacom ToolType:   2050 
E: 000000.261908 27 10 60 71 15 00 7b 21 00 00 00 13 00 00 00 00 00 3f 9c 36 80 23 02 08 11 00 02 08
# ReportID: 16 / Tip Switch: 0 | Barrel Switch: 0 | Secondary Barrel Switch: 0 | Eraser: 0 | Invert: 0 | In Range: 1 | Wacom Sense: 1 | # | X:      5482 | Y:      8540 | Tip Pressure:      0 | X Tilt:   20 | Y Tilt:    1 | Twist:      0 | Wacom FingerWheel:      0 | Wacom Distance:   63 | Transducer Serial Number:   595605148 | Wacom SerialHi:     1116162 | Wacom ToolType:   2050 
E: 000000.264775 27 10 60 6a 15 00 5c 21 00 00 00 14 01 00 00 00 00 3f 9c 36 80 23 02 08 11 00 02 08
# ReportID: 16 / Tip Switch: 0 | Barrel Switch: 0 | Secondary Barrel Switch: 0 | Eraser: 0 | Invert: 0 | In Range: 1 | Wacom Sense: 1 | # | X:      5473 | Y:      8509 | Tip Pressure:      0 | X Tilt:   21 | Y Tilt:    1 | Twist:      0 | Wacom FingerWheel:      0 | Wacom Distance:   62 | Transducer Serial Number:   595605148 | Wacom SerialHi:     1116162 | Wacom ToolType:   2050 
E: 000000.270746 27 10 60 61 15 00 3d 21 00 00 00 15 01 00 00 00 00 3e 9c 36 80 23 02 08 11 00 02 08
# ReportID: 16 / Tip Switch: 0 | Barrel Switch: 0 | Secondary Barrel Switch: 0 | Eraser: 0 | Invert: 0 | In Range: 1 | Wacom Sense: 1 | # | X:      5464 | Y:      8482 | Tip Pressure:      0 | X Tilt:   21 | Y Tilt:    2 | Twist:      0 | Wacom FingerWheel:      0 | Wacom Distance:   62 | Transducer Serial Number:   595605148 | Wacom SerialHi:     1116162 | Wacom ToolType:   2050 
E: 000000.276746 27 10 60 58 15 00 22 21 00 00 00 15 02 00 00 00 00 3e 9c 36 80 23 02 08 11 00 02 08
# ReportID: 16 / Tip Switch: 0 | Barrel Switch: 0 | Secondary Barrel Switch: 0 | Eraser: 0 | Invert: 0 | In Range: 1 | Wacom Sense: 1 | # | X:      5455 | Y:      8453 | Tip Pressure:      0 | X Tilt:   22 | Y Tilt:    2 | Twist:      0 | Wacom FingerWheel:      0 | Wacom Distance:   61 | Transducer Serial Number:   595605148 | Wacom SerialHi:     1116162 | Wacom ToolType:   2050 
E: 000000.279755 27 10 60 4f 15 00 05 21 00 00 00 16 02 00 00 00 00 3d 9c 36 80 23 02 08 11 00 02 08
# ReportID: 16 / Tip Switch: 0 | Barrel Switch: 0 | Secondary Barrel Switch: 0 | Eraser: 0 | Invert: 0 | In Range: 1 | Wacom Sense: 1 | # | X:      5446 | Y:      8425 | Tip Pressure:      0 | X Tilt:   24 | Y Tilt:    3 | Twist:      0 | Wacom FingerWheel:      0 | Wacom Distance:   61 | Transducer Serial Number:   595605148 | Wacom SerialHi:     1116162 | Wacom ToolType:   2050 
E: 000000.285791 27 10 60 46 15 00 e9 20 00 00 00 18 03 00 00 00 00 3d 9c 36 80 23 02 08 11 00 02 08
# ReportID: 16 / Tip Switch: 0 | Barrel Switch: 0 | Secondary Barrel Switch: 0 | Eraser: 0 | Invert: 0 | In Range: 1 | Wacom Sense: 1 | # | X:      5437 | Y:      8400 | Tip Pressure:      0 | X Tilt:   25 | Y Tilt:    3 | Twist:      0 | Wacom FingerWheel:      0 | Wacom Distance:   60 | Transducer Serial Number:   595605148 | Wacom SerialHi:     1116162 | Wacom ToolType:   2050 
E: 000000.291830 27 10 60 3d 15 00 d0 20 00 00 00 19 03 00 00 00 00 3c 9c 36 80 23 02 08 11 00 02 08
# ReportID: 16 / Tip Switch: 0 | Barrel Switch: 0 | Secondary Barrel Switch: 0 | Eraser: 0 | Invert: 0 | In Range: 1 | Wacom Sense: 1 | # | X:      5427 | Y:      8376 | Tip Pressure:      0 | X Tilt:   27 | Y Tilt:    4 | Twist:      0 | Wacom FingerWheel:      0 | Wacom Distance:   59 | Transducer Serial Number:   595605148 | Wacom SerialHi:     1116162 | Wacom ToolType:   2050 
E: 000000.294866 27 10 60 33 15 00 b8 20 00 00 00 1b 04 00 00 00 00 3b 9c 36 80 23 02 08 11 00 02 08
# ReportID: 16 / Tip Switch: 0 | Barrel Switch: 0 | Secondary Barrel Switch: 0 | Eraser: 0 | Invert: 0 | In Range: 1 | Wacom Sense: 1 | # | X:      5417 | Y:      8354 | Tip Pressure:      0 | X Tilt:   28 | Y Tilt:    4 | Twist:      0 | Wacom FingerWheel:      0 | Wacom Distance:   59 | Transducer Serial Number:   595605148 | Wacom SerialHi:     1116162 | Wacom ToolType:   2050 
E: 000000.300780 27 10 60 29 15 00 a2 20 00 00 00 1c 04 00 00 00 00 3b 9c 36 80 23 02 08 11 00 02 08
# ReportID: 16 / Tip Switch: 0 | Barrel Switch: 0 | Secondary Barrel Switch: 0 | Eraser: 0 | Invert: 0 | In Range: 1 | Wacom Sense: 1 | # | X:      5407 | Y:      8333 | Tip Pressure:      0 | X Tilt:   29 | Y Tilt:    4 | Twist:      0 | Wacom FingerWheel:      0 | Wacom Distance:   58 | Transducer Serial Number:   595605148 | Wacom SerialHi:     1116162 | Wacom ToolType:   2050 
E: 000000.306760 27 10 60 1f 15 00 8d 20 00 00 00 1d 04 00 00 00 00 3a 9c 36 80 23 02 08 11 00 02 08
# ReportID: 16 / Tip Switch: 0 | Barrel Switch: 0 | Secondary Barrel Switch: 0 | Eraser: 0 | Invert: 0 | In Range: 1 | Wacom Sense: 1 | # | X:      5397 | Y:      8315 | Tip Pressure:      0 | X Tilt:   30 | Y Tilt:    4 | Twist:      0 | Wacom FingerWheel:      0 | Wacom Distance:   57 | Transducer Serial Number:   595605148 | Wacom SerialHi:     1116162 | Wacom ToolType:   2050 
E: 000000.309763 27 10 60 15 15 00 7b 20 00 00 00 1e 04 00 00 00 00 39 9c 36 80 23 02 08 11 00 02 08
# ReportID: 16 / Tip Switch: 0 | Barrel Switch: 0 | Secondary Barrel Switch: 0 | Eraser: 0 | Invert: 0 | In Range: 1 | Wacom Sense: 1 | # | X:      5387 | Y:      8298 | Tip Pressure:      0 | X Tilt:   31 | Y Tilt:    5 | Twist:      0 | Wacom FingerWheel:      0 | Wacom Distance:   56 | Transducer Serial Number:   595605148 | Wacom SerialHi:     1116162 | Wacom ToolType:   2050 
E: 000000.315837 27 10 60 0b 15 00 6a 20 00 00 00 1f 05 00 00 00 00 38 9c 36 80 23 02 08 11 00 02 08
# ReportID: 16 / Tip Switch: 0 | Barrel Switch: 0 | Secondary Barrel Switch: 0 | Eraser: 0 | Invert: 0 | In Range: 1 | Wacom Sense: 1 | # | X:      5377 | Y:      8283 | Tip Pressure:      0 | X Tilt:   32 | Y Tilt:    5 | Twist:      0 | Wacom FingerWheel:      0 | Wacom Distance:   55 | Transducer Serial Number:   595605148 | Wacom SerialHi:     1116162 | Wacom ToolType:   2050 
E: 000000.321829 27 10 60 01 15 00 5b 20 00 00 00 20 05 00 00 00 00 37 9c 36 80 23 02 08 11 00 02 08
# ReportID: 16 / Tip Switch: 0 | Barrel Switch: 0 | Secondary Barrel Switch: 0 | Eraser: 0 | Invert: 0 | In Range: 1 | Wacom Sense: 1 | # | X:      5358 | Y:      8245 | Tip Pressure:      0 | X Tilt:   32 | Y Tilt:    5 | Twist:      0 | Wacom FingerWheel:      0 | Wacom Distance:   55 | Transducer Serial Number:   595605148 | Wacom SerialHi:     1116162 | Wacom ToolType:   2050 
E: 000000.324850 27 10 60 ee 14 00 35 20 00 00 00 20 05 00 00 00 00 37 9c 36 80 23 02 08 11 00 02 08
# ReportID: 16 / Tip Switch: 0 | Barrel Switch: 0 | Secondary Barrel Switch: 0 | Eraser: 0 | Invert: 0 | In Range: 1 | Wacom Sense: 1 | # | X:      5339 | Y:      8209 | Tip Pressure:      0 | X Tilt:   33 | Y Tilt:    5 | Twist:      0 | Wacom FingerWheel:      0 | Wacom Distance:   54 | Transducer Serial Number:   595605148 | Wacom SerialHi:     1116162 | Wacom ToolType:   2050 
E: 000000.330932 27 10 60 db 14 00 11 20 00 00 00 21 05 00 00 00 00 36 9c 36 80 23 02 08 11 00 02 08
# ReportID: 16 / Tip Switch: 0 | Barrel Switch: 0 | Secondary Barrel Switch: 0 | Eraser: 0 | Invert: 0 | In Range: 1 | Wacom Sense: 1 | # | X:      5319 | Y:      8178 | Tip Pressure:      0 | X Tilt:   33 | Y Tilt:    6 | Twist:      0 | Wacom FingerWheel:      0 | Wacom Distance:   52 | Transducer Serial Number:   595605148 | Wacom SerialHi:     1116162 | Wacom ToolType:   2050 
E: 000000.336821 27 10 60 c7 14 00 f2 1f 00 00 00 21 06 00 00 00 00 34 9c 36 80 23 02 08 11 00 02 08
# ReportID: 16 / Tip Switch: 0 | Barrel Switch: 0 | Secondary Barrel Switch: 0 | Eraser: 0 | Invert: 0 | In Range: 1 | Wacom Sense: 1 | # | X:      5289 | Y:      8134 | Tip Pressure:      0 | X Tilt:   34 | Y Tilt:    6 | Twist:      0 | Wacom FingerWheel:      0 | Wacom Distance:   51 | Transducer Serial Number:   595605148 | Wacom SerialHi:     1116162 | Wacom ToolType:   2050 
E: 000000.339906 27 10 60 a9 14 00 c6 1f 00 00 00 22 06 00 00 00 00 33 9c 36 80 23 02 08 11 00 02 08
# ReportID: 16 / Tip Switch: 0 | Barrel Switch: 0 | Secondary Barrel Switch: 0 | Eraser: 0 | Invert: 0 | In Range: 1 | Wacom Sense: 1 | # | X:      5268 | Y:      8114 | Tip Pressure:      0 | X Tilt:   34 | Y Tilt:    6 | Twist:      0 | Wacom FingerWheel:      0 | Wacom Distance:   50 | Transducer Serial Number:   595605148 | Wacom SerialHi:     1116162 | Wacom ToolType:   2050 
E: 000000.345823 27 10 60 94 14 00 b2 1f 00 00 00 22 06 00 00 00 00 32 9c 36 80 23 02 08 11 00 02 08
# ReportID: 16 / Tip Switch: 0 | Barrel Switch: 0 | Secondary Barrel Switch: 0 | Eraser: 0 | Invert: 0 | In Range: 1 | Wacom Sense: 1 | # | X:      5248 | Y:      8097 | Tip Pressure:      0 | X Tilt:   35 | Y Tilt:    6 | Twist:      0 | Wacom FingerWheel:      0 | Wacom Distance:   48 | Transducer Serial Number:   595605148 | Wacom SerialHi:     1116162 | Wacom ToolType:   2050 
E: 000000.351830 27 10 60 80 14 00 a1 1f 00 00 00 23 06 00 00 00 00 30 9c 36 80 23 02 08 11 00 02 08
# ReportID: 16 / Tip Switch: 0 | Barrel Switch: 0 | Secondary Barrel Switch: 0 | Eraser: 0 | Invert: 0 | In Range: 1 | Wacom Sense: 1 | # | X:      5219 | Y:      8073 | Tip Pressure:      0 | X Tilt:   35 | Y Tilt:    6 | Twist:      0 | Wacom FingerWheel:      0 | Wacom Distance:   46 | Transducer Serial Number:   595605148 | Wacom SerialHi:     1116162 | Wacom ToolType:   2050 
E: 000000.355827 27 10 60 63 14 00 89 1f 00 00 00 23 06 00 00 00 00 2e 9c 36 80 23 02 08 11 00 02 08
# ReportID: 16 / Tip Switch: 0 | Barrel Switch: 0 | Secondary Barrel Switch: 0 | Eraser: 0 | Invert: 0 | In Range: 1 | Wacom Sense: 1 | # | X:      5200 | Y:      8064 | Tip Pressure:      0 | X Tilt:   35 | Y Tilt:    6 | Twist:      0 | Wacom FingerWheel:      0 | Wacom Distance:   45 | Transducer Serial Number:   595605148 | Wacom SerialHi:     1116162 | Wacom ToolType:   2050 
E: 000000.361909 27 10 60 50 14 00 80 1f 00 00 00 23 06 00 00 00 00 2d 9c 36 80 23 02 08 11 00 02 08
# ReportID: 16 / Tip Switch: 0 | Barrel Switch: 0 | Secondary Barrel Switch: 0 | Eraser: 0 | Invert: 0 | In Range: 1 | Wacom Sense: 1 | # | X:      5172 | Y:      8053 | Tip Pressure:      0 | X Tilt:   35 | Y Tilt:    6 | Twist:      0 | Wacom FingerWheel:      0 | Wacom Distance:   43 | Transducer Serial Number:   595605148 | Wacom SerialHi:     1116162 | Wacom ToolType:   2050 
E: 000000.366906 27 10 60 34 14 00 75 1f 00 00 00 23 06 00 00 00 00 2b 9c 36 80 23 02 08 11 00 02 08
# ReportID: 16 / Tip Switch: 0 | Barrel Switch: 0 | Secondary Barrel Switch: 0 | Eraser: 0 | Invert: 0 | In Range: 1 | Wacom Sense: 1 | # | X:      5156 | Y:      8048 | Tip Pressure:      0 | X Tilt:   36 | Y Tilt:    6 | Twist:      0 | Wacom FingerWheel:      0 | Wacom Distance:   42 | Transducer Serial Number:   595605148 | Wacom SerialHi:     1116162 | Wacom ToolType:   2050 
E: 000000.369812 27 10 60 24 14 00 70 1f 00 00 00 24 06 00 00 00 00 2a 9c 36 80 23 02 08 11 00 02 08
# ReportID: 16 / Tip Switch: 0 | Barrel Switch: 0 | Secondary Barrel Switch: 0 | Eraser: 0 | Invert: 0 | In Range: 1 | Wacom Sense: 1 | # | X:      5139 | Y:      8044 | Tip Pressure:      0 | X Tilt:   36 | Y Tilt:    6 | Twist:      0 | Wacom FingerWheel:      0 | Wacom Distance:   42 | Transducer Serial Number:   595605148 | Wacom SerialHi:     1116162 | Wacom ToolType:   2050 
E: 000000.375809 27 10 60 13 14 00 6c 1f 00 00 00 24 06 00 00 00 00 2a 9c 36 80 23 02 08 11 00 02 08
# ReportID: 16 / Tip Switch: 0 | Barrel Switch: 0 | Secondary Barrel Switch: 0 | Eraser: 0 | Invert: 0 | In Range: 1 | Wacom Sense: 1 | # | X:      5124 | Y:      8039 | Tip Pressure:      0 | X Tilt:   36 | Y Tilt:    7 | Twist:      0 | Wacom FingerWheel:      0 | Wacom Distance:   42 | Transducer Serial Number:   595605148 | Wacom SerialHi:     1116162 | Wacom ToolType:   2050 
E: 000000.381739 27 10 60 04 14 00 67 1f 00 00 00 24 07 00 00 00 00 2a 9c 36 80 23 02 08 11 00 02 08
# ReportID: 16 / Tip Switch: 0 | Barrel Switch: 0 | Secondary Barrel Switch: 0 | Eraser: 0 | Invert: 0 | In Range: 1 | Wacom Sense: 1 | # | X:      5108 | Y:      8033 | Tip Pressure:      0 | X Tilt:   36 | Y Tilt:    7 | Twist:      0 | Wacom FingerWheel:      0 | Wacom Distance:   42 | Transducer Serial Number:   595605148 | Wacom SerialHi:     1116162 | Wacom ToolType:   2050 
E: 000000.385705 27 10 60 f4 13 00 61 1f 00 00 00 24 07 00 00 00 00 2a 9c 36 80 23 02 08 11 00 02 08
# ReportID: 16 / Tip Switch: 0 | Barrel Switch: 0 | Secondary Barrel Switch: 0 | Eraser: 0 | Invert: 0 | In Range: 1 | Wacom Sense: 1 | # | X:      5094 | Y:      8027 | Tip Pressure:      0 | X Tilt:   36 | Y Tilt:    7 | Twist:      0 | Wacom FingerWheel:      0 | Wacom Distance:   41 | Transducer Serial Number:   595605148 | Wacom SerialHi:     1116162 | Wacom ToolType:   2050 
E: 000000.390703 27 10 60 e6 13 00 5b 1f 00 00 00 24 07 00 00 00 00 29 9c 36 80 23 02 08 11 00 02 08
# ReportID: 16 / Tip Switch: 0 | Barrel Switch: 0 | Secondary Barrel Switch: 0 | Eraser: 0 | Invert: 0 | In Range: 1 | Wacom Sense: 1 | # | X:      5080 | Y:      8018 | Tip Pressure:      0 | X Tilt:   36 | Y Tilt:    7 | Twist:      0 | Wacom FingerWheel:      0 | Wacom Distance:   42 | Transducer Serial Number:   595605148 | Wacom SerialHi:     1116162 | Wacom ToolType:   2050 
E: 000000.394764 27 10 60 d8 13 00 52 1f 00 00 00 24 07 00 00 00 00 2a 9c 36 80 23 02 08 11 00 02 08
# ReportID: 16 / Tip Switch: 0 | Barrel Switch: 0 | Secondary Barrel Switch: 0 | Eraser: 0 | Invert: 0 | In Range: 1 | Wacom Sense: 1 | # | X:      5067 | Y:      8010 | Tip Pressure:      0 | X Tilt:   36 | Y Tilt:    7 | Twist:      0 | Wacom FingerWheel:      0 | Wacom Distance:   42 | Transducer Serial Number:   595605148 | Wacom SerialHi:     1116162 | Wacom ToolType:   2050 
E: 000000.399696 27 10 60 cb 13 00 4a 1f 00 00 00 24 07 00 00 00 00 2a 9c 36 80 23 02 08 11 00 02 08
# ReportID: 16 / Tip Switch: 0 | Barrel Switch: 0 | Secondary Barrel Switch: 0 | Eraser: 0 | Invert: 0 | In Range: 1 | Wacom Sense: 1 | # | X:      5055 | Y:      7999 | Tip Pressure:      0 | X Tilt:   36 | Y Tilt:    7 | Twist:      0 | Wacom FingerWheel:      0 | Wacom Distance:   42 | Transducer Serial Number:   595605148 | Wacom SerialHi:     1116162 | Wacom ToolType:   2050 
E: 000000.405920 27 10 60 bf 13 00 3f 1f 00 00 00 24 07 00 00 00 00 2a 9c 36 80 23 02 08 11 00 02 08
# ReportID: 16 / Tip Switch: 0 | Barrel Switch: 0 | Secondary Barrel Switch: 0 | Eraser: 0 | Invert: 0 | In Range: 1 | Wacom Sense: 1 | # | X:      5045 | Y:      7987 | Tip Pressure:      0 | X Tilt:   36 | Y Tilt:    7 | Twist:      0 | Wacom FingerWheel:      0 | Wacom Distance:   42 | Transducer Serial Number:   595605148 | Wacom SerialHi:     1116162 | Wacom ToolType:   2050 
E: 000000.408913 27 10 60 b5 13 00 33 1f 00 00 00 24 07 00 00 00 00 2a 9c 36 80 23 02 08 11 00 02 08
# ReportID: 16 / Tip Switch: 0 | Barrel Switch: 0 | Secondary Barrel Switch: 0 | Eraser: 0 | Invert: 0 | In Range: 1 | Wacom Sense: 1 | # | X:      5036 | Y:      7975 | Tip Pressure:      0 | X Tilt:   36 | Y Tilt:    7 | Twist:      0 | Wacom FingerWheel:      0 | Wacom Distance:   41 | Transducer Serial Number:   595605148 | Wacom SerialHi:     1116162 | Wacom ToolType:   2050 
E: 000000.415717 27 10 60 ac 13 00 27 1f 00 00 00 24 07 00 00 00 00 29 9c 36 80 23 02 08 11 00 02 08
# ReportID: 16 / Tip Switch: 0 | Barrel Switch: 0 | Secondary Barrel Switch: 0 | Eraser: 0 | Invert: 0 | In Range: 1 | Wacom Sense: 1 | # | X:      5028 | Y:      7961 | Tip Pressure:      0 | X Tilt:   36 | Y Tilt:    7 | Twist:      0 | Wacom FingerWheel:      0 | Wacom Distance:   41 | Transducer Serial Number:   595605148 | Wacom SerialHi:     1116162 | Wacom ToolType:   2050 
E: 000000.420713 27 10 60 a4 13 00 19 1f 00 00 00 24 07 00 00 00 00 29 9c 36 80 23 02 08 11 00 02 08
# ReportID: 16 / Tip Switch: 0 | Barrel Switch: 0 | Secondary Barrel Switch: 0 | Eraser: 0 | Invert: 0 | In Range: 1 | Wacom Sense: 1 | # | X:      5021 | Y:      7948 | Tip Pressure:      0 | X Tilt:   36 | Y Tilt:    7 | Twist:      0 | Wacom FingerWheel:      0 | Wacom Distance:   40 | Transducer Serial Number:   595605148 | Wacom SerialHi:     1116162 | Wacom ToolType:   2050 
E: 000000.424920 27 10 60 9d 13 00 0c 1f 00 00 00 24 07 00 00 00 00 28 9c 36 80 23 02 08 11 00 02 08
# ReportID: 16 / Tip Switch: 0 | Barrel Switch: 0 | Secondary Barrel Switch: 0 | Eraser: 0 | Invert: 0 | In Range: 1 | Wacom Sense: 1 | # | X:      5010 | Y:      7926 | Tip Pressure:      0 | X Tilt:   36 | Y Tilt:    7 | Twist:      0 | Wacom FingerWheel:      0 | Wacom Distance:   39 | Transducer Serial Number:   595605148 | Wacom SerialHi:     1116162 | Wacom ToolType:   2050 
E: 000000.429737 27 10 60 92 13 00 f6 1e 00 00 00 24 07 00 00 00 00 27 9c 36 80 23 02 08 11 00 02 08
# ReportID: 16 / Tip Switch: 0 | Barrel Switch: 0 | Secondary Barrel Switch: 0 | Eraser: 0 | Invert: 0 | In Range: 1 | Wacom Sense: 1 | # | X:      5006 | Y:      7914 | Tip Pressure:      0 | X Tilt:   36 | Y Tilt:    7 | Twist:      0 | Wacom FingerWheel:      0 | Wacom Distance:   37 | Transducer Serial Number:   595605148 | Wacom SerialHi:     1116162 | Wacom ToolType:   2050 
E: 000000.435741 27 10 60 8e 13 00 ea 1e 00 00 00 24 07 00 00 00 00 25 9c 36 80 23 02 08 11 00 02 08
# ReportID: 16 / Tip Switch: 0 | Barrel Switch: 0 | Secondary Barrel Switch: 0 | Eraser: 0 | Invert: 0 | In Range: 1 | Wacom Sense: 1 | # | X:      5003 | Y:      7902 | Tip Pressure:      0 | X Tilt:   36 | Y Tilt:    7 | Twist:      0 | Wacom FingerWheel:      0 | Wacom Distance:   36 | Transducer Serial Number:   595605148 | Wacom SerialHi:     1116162 | Wacom ToolType:   2050 
E: 000000.438844 27 10 60 8b 13 00 de 1e 00 00 00 24 07 00 00 00 00 24 9c 36 80 23 02 08 11 00 02 08
# ReportID: 16 / Tip Switch: 0 | Barrel Switch: 0 | Secondary Barrel Switch: 0 | Eraser: 0 | Invert: 0 | In Range: 1 | Wacom Sense: 1 | # | X:      4999 | Y:      7886 | Tip Pressure:      0 | X Tilt:   36 | Y Tilt:    7 | Twist:      0 | Wacom FingerWheel:      0 | Wacom Distance:   34 | Transducer Serial Number:   595605148 | Wacom SerialHi:     1116162 | Wacom ToolType:   2050 
E: 000000.445733 27 10 60 87 13 00 ce 1e 00 00 00 24 07 00 00 00 00 22 9c 36 80 23 02 08 11 00 02 08
# ReportID: 16 / Tip Switch: 0 | Barrel Switch: 0 | Secondary Barrel Switch: 0 | Eraser: 0 | Invert: 0 | In Range: 1 | Wacom Sense: 1 | # | X:      4999 | Y:      7879 | Tip Pressure:      0 | X Tilt:   36 | Y Tilt:    7 | Twist:      0 | Wacom FingerWheel:      0 | Wacom Distance:   33 | Transducer Serial Number:   595605148 | Wacom SerialHi:     1116162 | Wacom ToolType:   2050 
E: 000000.450738 27 10 60 87 13 00 c7 1e 00 00 00 24 07 00 00 00 00 21 9c 36 80 23 02 08 11 00 02 08
# ReportID: 16 / Tip Switch: 0 | Barrel Switch: 0 | Secondary Barrel Switch: 0 | Eraser: 0 | Invert: 0 | In Range: 1 | Wacom Sense: 1 | # | X:      5002 | Y:      7869 | Tip Pressure:      0 | X Tilt:   36 | Y Tilt:    7 | Twist:      0 | Wacom FingerWheel:      0 | Wacom Distance:   31 | Transducer Serial Number:   595605148 | Wacom SerialHi:     1116162 | Wacom ToolType:   2050 
E: 000000.454731 27 10 60 8a 13 00 bd 1e 00 00 00 24 07 00 00 00 00 1f 9c 36 80 23 02 08 11 00 02 08
# ReportID: 16 / Tip Switch: 0 | Barrel Switch: 0 | Secondary Barrel Switch: 0 | Eraser: 0 | Invert: 0 | In Range: 1 | Wacom Sense: 1 | # | X:      5006 | Y:      7865 | Tip Pressure:      0 | X Tilt:   36 | Y Tilt:    7 | Twist:      0 | Wacom FingerWheel:      0 | Wacom Distance:   29 | Transducer Serial Number:   595605148 | Wacom SerialHi:     1116162 | Wacom ToolType:   2050 
E: 000000.459763 27 10 60 8e 13 00 b9 1e 00 00 00 24 07 00 00 00 00 1d 9c 36 80 23 02 08 11 00 02 08
# ReportID: 16 / Tip Switch: 0 | Barrel Switch: 0 | Secondary Barrel Switch: 0 | Eraser: 0 | Invert: 0 | In Range: 1 | Wacom Sense: 1 | # | X:      5013 | Y:      7860 | Tip Pressure:      0 | X Tilt:   36 | Y Tilt:    7 | Twist:      0 | Wacom FingerWheel:      0 | Wacom Distance:   26 | Transducer Serial Number:   595605148 | Wacom SerialHi:     1116162 | Wacom ToolType:   2050 
E: 000000.465738 27 10 60 95 13 00 b4 1e 00 00 00 24 07 00 00 00 00 1a 9c 36 80 23 02 08 11 00 02 08
# ReportID: 16 / Tip Switch: 0 | Barrel Switch: 0 | Secondary Barrel Switch: 0 | Eraser: 0 | Invert: 0 | In Range: 1 | Wacom Sense: 1 | # | X:      5018 | Y:      7855 | Tip Pressure:      0 | X Tilt:   36 | Y Tilt:    7 | Twist:      0 | Wacom FingerWheel:      0 | Wacom Distance:   24 | Transducer Serial Number:   595605148 | Wacom SerialHi:     1116162 | Wacom ToolType:   2050 
E: 000000.468739 27 10 60 9a 13 00 af 1e 00 00 00 24 07 00 00 00 00 18 9c 36 80 23 02 08 11 00 02 08
# ReportID: 16 / Tip Switch: 0 | Barrel Switch: 0 | Secondary Barrel Switch: 0 | Eraser: 0 | Invert: 0 | In Range: 1 | Wacom Sense: 1 | # | X:      5025 | Y:      7848 | Tip Pressure:      0 | X Tilt:   36 | Y Tilt:    7 | Twist:      0 | Wacom FingerWheel:      0 | Wacom Distance:   21 | Transducer Serial Number:   595605148 | Wacom SerialHi:     1116162 | Wacom ToolType:   2050 
E: 000000.475733 27 10 60 a1 13 00 a8 1e 00 00 00 24 07 00 00 00 00 15 9c 36 80 23 02 08 11 00 02 08
# ReportID: 16 / Tip Switch: 0 | Barrel Switch: 0 | Secondary Barrel Switch: 0 | Eraser: 0 | Invert: 0 | In Range: 1 | Wacom Sense: 1 | # | X:      5030 | Y:      7839 | Tip Pressure:      0 | X Tilt:   36 | Y Tilt:    7 | Twist:      0 | Wacom FingerWheel:      0 | Wacom Distance:   20 | Transducer Serial Number:   595605148 | Wacom SerialHi:     1116162 | Wacom ToolType:   2050 
E: 000000.480735 27 10 60 a6 13 00 9f 1e 00 00 00 24 07 00 00 00 00 14 9c 36 80 23 02 08 11 00 02 08
# ReportID: 16 / Tip Switch: 0 | Barrel Switch: 0 | Secondary Barrel Switch: 0 | Eraser: 0 | Invert: 0 | In Range: 1 | Wacom Sense: 1 | # | X:      5038 | Y:      7822 | Tip Pressure:      0 | X Tilt:   36 | Y Tilt:    7 | Twist:      0 | Wacom FingerWheel:      0 | Wacom Distance:   18 | Transducer Serial Number:   595605148 | Wacom SerialHi:     1116162 | Wacom ToolType:   2050 
E: 000000.484780 27 10 60 ae 13 00 8e 1e 00 00 00 24 07 00 00 00 00 12 9c 36 80 23 02 08 11 00 02 08
# ReportID: 16 / Tip Switch: 0 | Barrel Switch: 0 | Secondary Barrel Switch: 0 | Eraser: 0 | Invert: 0 | In Range: 1 | Wacom Sense: 1 | # | X:      5043 | Y:      7804 | Tip Pressure:      0 | X Tilt:   36 | Y Tilt:    7 | Twist:      0 | Wacom FingerWheel:      0 | Wacom Distance:   16 | Transducer Serial Number:   595605148 | Wacom SerialHi:     1116162 | Wacom ToolType:   2050 
E: 000000.489929 27 10 60 b3 13 00 7c 1e 00 00 00 24 07 00 00 00 00 10 9c 36 80 23 02 08 11 00 02 08
# ReportID: 16 / Tip Switch: 0 | Barrel Switch: 0 | Secondary Barrel Switch: 0 | Eraser: 0 | Invert: 0 | In Range: 1 | Wacom Sense: 1 | # | X:      5051 | Y:      7771 | Tip Pressure:      0 | X Tilt:   36 | Y Tilt:    7 | Twist:      0 | Wacom FingerWheel:      0 | Wacom Distance:   14 | Transducer Serial Number:   595605148 | Wacom SerialHi:     1116162 | Wacom ToolType:   2050 
E: 000000.495935 27 10 60 bb 13 00 5b 1e 00 00 00 24 07 00 00 00 00 0e 9c 36 80 23 02 08 11 00 02 08
# ReportID: 16 / Tip Switch: 0 | Barrel Switch: 0 | Secondary Barrel Switch: 0 | Eraser: 0 | Invert: 0 | In Range: 1 | Wacom Sense: 1 | # | X:      5058 | Y:      7745 | Tip Pressure:      0 | X Tilt:   36 | Y Tilt:    7 | Twist:      0 | Wacom FingerWheel:      0 | Wacom Distance:   12 | Transducer Serial Number:   595605148 | Wacom SerialHi:     1116162 | Wacom ToolType:   2050 
E: 000000.498923 27 10 60 c2 13 00 41 1e 00 00 00 24 07 00 00 00 00 0c 9c 36 80 23 02 08 11 00 02 08
# ReportID: 16 / Tip Switch: 0 | Barrel Switch: 0 | Secondary Barrel Switch: 0 | Eraser: 0 | Invert: 0 | In Range: 1 | Wacom Sense: 1 | # | X:      5069 | Y:      7706 | Tip Pressure:      0 | X Tilt:   36 | Y Tilt:    7 | Twist:      0 | Wacom FingerWheel:      0 | Wacom Distance:   10 | Transducer Serial Number:   595605148 | Wacom SerialHi:     1116162 | Wacom ToolType:   2050 
E: 000000.504792 27 10 60 cd 13 00 1a 1e 00 00 00 24 07 00 00 00 00 0a 9c 36 80 23 02 08 11 00 02 08
# ReportID: 16 / Tip Switch: 0 | Barrel Switch: 0 | Secondary Barrel Switch: 0 | Eraser: 0 | Invert: 0 | In Range: 1 | Wacom Sense: 1 | # | X:      5077 | Y:      7686 | Tip Pressure:      0 | X Tilt:   36 | Y Tilt:    7 | Twist:      0 | Wacom FingerWheel:      0 | Wacom Distance:    8 | Transducer Serial Number:   595605148 | Wacom SerialHi:     1116162 | Wacom ToolType:   2050 
E: 000000.511753 27 10 60 d5 13 00 06 1e 00 00 00 24 07 00 00 00 00 08 9c 36 80 23 02 08 11 00 02 08
# ReportID: 16 / Tip Switch: 0 | Barrel Switch: 0 | Secondary Barrel Switch: 0 | Eraser: 0 | Invert: 0 | In Range: 1 | Wacom Sense: 1 | # | X:      5088 | Y:      7660 | Tip Pressure:      0 | X Tilt:   36 | Y Tilt:    7 | Twist:      0 | Wacom FingerWheel:      0 | Wacom Distance:    7 | Transducer Serial Number:   595605148 | Wacom SerialHi:     1116162 | Wacom ToolType:   2050 
E: 000000.513748 27 10 60 e0 13 00 ec 1d 00 00 00 24 07 00 00 00 00 07 9c 36 80 23 02 08 11 00 02 08
# ReportID: 16 / Tip Switch: 0 | Barrel Switch: 0 | Secondary Barrel Switch: 0 | Eraser: 0 | Invert: 0 | In Range: 1 | Wacom Sense: 1 | # | X:      5093 | Y:      7651 | Tip Pressure:      0 | X Tilt:   36 | Y Tilt:    7 | Twist:      0 | Wacom FingerWheel:      0 | Wacom Distance:    6 | Transducer Serial Number:   595605148 | Wacom SerialHi:     1116162 | Wacom ToolType:   2050 
E: 000000.519760 27 10 60 e5 13 00 e3 1d 00 00 00 24 07 00 00 00 00 06 9c 36 80 23 02 08 11 00 02 08
# ReportID: 16 / Tip Switch: 0 | Barrel Switch: 0 | Secondary Barrel Switch: 0 | Eraser: 0 | Invert: 0 | In Range: 1 | Wacom Sense: 1 | # | X:      5095 | Y:      7648 | Tip Pressure:      0 | X Tilt:   36 | Y Tilt:    7 | Twist:      0 | Wacom FingerWheel:      0 | Wacom Distance:    5 | Transducer Serial Number:   595605148 | Wacom SerialHi:     1116162 | Wacom ToolType:   2050 
E: 000000.525748 27 10 60 e7 13 00 e0 1d 00 00 00 24 07 00 00 00 00 05 9c 36 80 23 02 08 11 00 02 08
# ReportID: 16 / Tip Switch: 0 | Barrel Switch: 0 | Secondary Barrel Switch: 0 | Eraser: 0 | Invert: 0 | In Range: 1 | Wacom Sense: 1 | # | X:      5089 | Y:      7652 | Tip Pressure:      0 | X Tilt:   36 | Y Tilt:    7 | Twist:      0 | Wacom FingerWheel:      0 | Wacom Distance:    5 | Transducer Serial Number:   595605148 | Wacom SerialHi:     1116162 | Wacom ToolType:   2050 
E: 000000.528667 27 10 60 e1 13 00 e4 1d 00 00 00 24 07 00 00 00 00 05 9c 36 80 23 02 08 11 00 02 08
# ReportID: 16 / Tip Switch: 1 | Barrel Switch: 0 | Secondary Barrel Switch: 0 | Eraser: 0 | Invert: 0 | In Range: 1 | Wacom Sense: 1 | # | X:      5088 | Y:      7653 | Tip Pressure:    876 | X Tilt:   36 | Y Tilt:    7 | Twist:      0 | Wacom FingerWheel:      0 | Wacom Distance:    5 | Transducer Serial Number:   595605148 | Wacom SerialHi:     1116162 | Wacom ToolType:   2050 
E: 000000.534861 27 10 61 e0 13 00 e5 1d 00 6c 03 24 07 00 00 00 00 05 9c 36 80 23 02 08 11 00 02 08
# ReportID: 16 / Tip Switch: 1 | Barrel Switch: 0 | Secondary Barrel Switch: 0 | Eraser: 0 | Invert: 0 | In Range: 1 | Wacom Sense: 1 | # | X:      5088 | Y:      7654 | Tip Pressure:   1224 | X Tilt:   36 | Y Tilt:    7 | Twist:      0 | Wacom FingerWheel:      0 | Wacom Distance:    5 | Transducer Serial Number:   595605148 | Wacom SerialHi:     1116162 | Wacom ToolType:   2050 
E: 000000.541886 27 10 61 e0 13 00 e6 1d 00 c8 04 24 07 00 00 00 00 05 9c 36 80 23 02 08 11 00 02 08
# ReportID: 16 / Tip Switch: 1 | Barrel Switch: 0 | Secondary Barrel Switch: 0 | Eraser: 0 | Invert: 0 | In Range: 1 | Wacom Sense: 1 | # | X:      5088 | Y:      7655 | Tip Pressure:   1408 | X Tilt:   36 | Y Tilt:    7 | Twist:      0 | Wacom FingerWheel:      0 | Wacom Distance:    5 | Transducer Serial Number:   595605148 | Wacom SerialHi:     1116162 | Wacom ToolType:   2050 
E: 000000.543809 27 10 61 e0 13 00 e7 1d 00 80 05 24 07 00 00 00 00 05 9c 36 80 23 02 08 11 00 02 08
# ReportID: 16 / Tip Switch: 1 | Barrel Switch: 0 | Secondary Barrel Switch: 0 | Eraser: 0 | Invert: 0 | In Range: 1 | Wacom Sense: 1 | # | X:      5088 | Y:      7657 | Tip Pressure:   1552 | X Tilt:   36 | Y Tilt:    7 | Twist:      0 | Wacom FingerWheel:      0 | Wacom Distance:    5 | Transducer Serial Number:   595605148 | Wacom SerialHi:     1116162 | Wacom ToolType:   2050 
E: 000000.549892 27 10 61 e0 13 00 e9 1d 00 10 06 24 07 00 00 00 00 05 9c 36 80 23 02 08 11 00 02 08
# ReportID: 16 / Tip Switch: 1 | Barrel Switch: 0 | Secondary Barrel Switch: 0 | Eraser: 0 | Invert: 0 | In Range: 1 | Wacom Sense: 1 | # | X:      5088 | Y:      7659 | Tip Pressure:   1680 | X Tilt:   36 | Y Tilt:    7 | Twist:      0 | Wacom FingerWheel:      0 | Wacom Distance:    5 | Transducer Serial Number:   595605148 | Wacom SerialHi:     1116162 | Wacom ToolType:   2050 
E: 000000.555825 27 10 61 e0 13 00 eb 1d 00 90 06 24 07 00 00 00 00 05 9c 36 80 23 02 08 11 00 02 08
# ReportID: 16 / Tip Switch: 1 | Barrel Switch: 0 | Secondary Barrel Switch: 0 | Eraser: 0 | Invert: 0 | In Range: 1 | Wacom Sense: 1 | # | X:      5089 | Y:      7659 | Tip Pressure:   1856 | X Tilt:   36 | Y Tilt:    7 | Twist:      0 | Wacom FingerWheel:      0 | Wacom Distance:    5 | Transducer Serial Number:   595605148 | Wacom SerialHi:     1116162 | Wacom ToolType:   2050 
E: 000000.558815 27 10 61 e1 13 00 eb 1d 00 40 07 24 07 00 00 00 00 05 9c 36 80 23 02 08 11 00 02 08
# ReportID: 16 / Tip Switch: 1 | Barrel Switch: 0 | Secondary Barrel Switch: 0 | Eraser: 0 | Invert: 0 | In Range: 1 | Wacom Sense: 1 | # | X:      5088 | Y:      7660 | Tip Pressure:   2032 | X Tilt:   36 | Y Tilt:    7 | Twist:      0 | Wacom FingerWheel:      0 | Wacom Distance:    5 | Transducer Serial Number:   595605148 | Wacom SerialHi:     1116162 | Wacom ToolType:   2050 
E: 000000.565813 27 10 61 e0 13 00 ec 1d 00 f0 07 24 07 00 00 00 00 05 9c 36 80 23 02 08 11 00 02 08
# ReportID: 16 / Tip Switch: 1 | Barrel Switch: 0 | Secondary Barrel Switch: 0 | Eraser: 0 | Invert: 0 | In Range: 1 | Wacom Sense: 1 | # | X:      5089 | Y:      7659 | Tip Pressure:   2233 | X Tilt:   36 | Y Tilt:    7 | Twist:      0 | Wacom FingerWheel:      0 | Wacom Distance:    5 | Transducer Serial Number:   595605148 | Wacom SerialHi:     1116162 | Wacom ToolType:   2050 
E: 000000.567825 27 10 61 e1 13 00 eb 1d 00 b9 08 24 07 00 00 00 00 05 9c 36 80 23 02 08 11 00 02 08
# ReportID: 16 / Tip Switch: 1 | Barrel Switch: 0 | Secondary Barrel Switch: 0 | Eraser: 0 | Invert: 0 | In Range: 1 | Wacom Sense: 1 | # | X:      5089 | Y:      7660 | Tip Pressure:   2373 | X Tilt:   36 | Y Tilt:    7 | Twist:      0 | Wacom FingerWheel:      0 | Wacom Distance:    5 | Transducer Serial Number:   595605148 | Wacom SerialHi:     1116162 | Wacom ToolType:   2050 
E: 000000.574815 27 10 61 e1 13 00 ec 1d 00 45 09 24 07 00 00 00 00 05 9c 36 80 23 02 08 11 00 02 08
# ReportID: 16 / Tip Switch: 1 | Barrel Switch: 0 | Secondary Barrel Switch: 0 | Eraser: 0 | Invert: 0 | In Range: 1 | Wacom Sense: 1 | # | X:      5089 | Y:      7660 | Tip Pressure:   2501 | X Tilt:   36 | Y Tilt:    7 | Twist:      0 | Wacom FingerWheel:      0 | Wacom Distance:    5 | Transducer Serial Number:   595605148 | Wacom SerialHi:     1116162 | Wacom ToolType:   2050 
E: 000000.579937 27 10 61 e1 13 00 ec 1d 00 c5 09 24 07 00 00 00 00 05 9c 36 80 23 02 08 11 00 02 08
# ReportID: 16 / Tip Switch: 1 | Barrel Switch: 0 | Secondary Barrel Switch: 0 | Eraser: 0 | Invert: 0 | In Range: 1 | Wacom Sense: 1 | # | X:      5089 | Y:      7661 | Tip Pressure:   2637 | X Tilt:   36 | Y Tilt:    7 | Twist:      0 | Wacom FingerWheel:      0 | Wacom Distance:    5 | Transducer Serial Number:   595605148 | Wacom SerialHi:     1116162 | Wacom ToolType:   2050 
E: 000000.582796 27 10 61 e1 13 00 ed 1d 00 4d 0a 24 07 00 00 00 00 05 9c 36 80 23 02 08 11 00 02 08
# ReportID: 16 / Tip Switch: 1 | Barrel Switch: 0 | Secondary Barrel Switch: 0 | Eraser: 0 | Invert: 0 | In Range: 1 | Wacom Sense: 1 | # | X:      5090 | Y:      7664 | Tip Pressure:   2757 | X Tilt:   36 | Y Tilt:    7 | Twist:      0 | Wacom FingerWheel:      0 | Wacom Distance:    5 | Transducer Serial Number:   595605148 | Wacom SerialHi:     1116162 | Wacom ToolType:   2050 
E: 000000.588918 27 10 61 e2 13 00 f0 1d 00 c5 0a 24 07 00 00 00 00 05 9c 36 80 23 02 08 11 00 02 08
# ReportID: 16 / Tip Switch: 1 | Barrel Switch: 0 | Secondary Barrel Switch: 0 | Eraser: 0 | Invert: 0 | In Range: 1 | Wacom Sense: 1 | # | X:      5089 | Y:      7670 | Tip Pressure:   2885 | X Tilt:   36 | Y Tilt:    7 | Twist:      0 | Wacom FingerWheel:      0 | Wacom Distance:    5 | Transducer Serial Number:   595605148 | Wacom SerialHi:     1116162 | Wacom ToolType:   2050 
E: 000000.595829 27 10 61 e1 13 00 f6 1d 00 45 0b 24 07 00 00 00 00 05 9c 36 80 23 02 08 11 00 02 08
# ReportID: 16 / Tip Switch: 1 | Barrel Switch: 0 | Secondary Barrel Switch: 0 | Eraser: 0 | Invert: 0 | In Range: 1 | Wacom Sense: 1 | # | X:      5091 | Y:      7682 | Tip Pressure:   3017 | X Tilt:   36 | Y Tilt:    7 | Twist:      0 | Wacom FingerWheel:      0 | Wacom Distance:    5 | Transducer Serial Number:   595605148 | Wacom SerialHi:     1116162 | Wacom ToolType:   2050 
E: 000000.597759 27 10 61 e3 13 00 02 1e 00 c9 0b 24 07 00 00 00 00 05 9c 36 80 23 02 08 11 00 02 08
# ReportID: 16 / Tip Switch: 1 | Barrel Switch: 0 | Secondary Barrel Switch: 0 | Eraser: 0 | Invert: 0 | In Range: 1 | Wacom Sense: 1 | # | X:      5092 | Y:      7702 | Tip Pressure:   3181 | X Tilt:   36 | Y Tilt:    7 | Twist:      0 | Wacom FingerWheel:      0 | Wacom Distance:    5 | Transducer Serial Number:   595605148 | Wacom SerialHi:     1116162 | Wacom ToolType:   2050 
E: 000000.604758 27 10 61 e4 13 00 16 1e 00 6d 0c 24 07 00 00 00 00 05 9c 36 80 23 02 08 11 00 02 08
# ReportID: 16 / Tip Switch: 1 | Barrel Switch: 0 | Secondary Barrel Switch: 0 | Eraser: 0 | Invert: 0 | In Range: 1 | Wacom Sense: 1 | # | X:      5092 | Y:      7727 | Tip Pressure:   3329 | X Tilt:   36 | Y Tilt:    7 | Twist:      0 | Wacom FingerWheel:      0 | Wacom Distance:    5 | Transducer Serial Number:   595605148 | Wacom SerialHi:     1116162 | Wacom ToolType:   2050 
E: 000000.609810 27 10 61 e4 13 00 2f 1e 00 01 0d 24 07 00 00 00 00 05 9c 36 80 23 02 08 11 00 02 08
# ReportID: 16 / Tip Switch: 1 | Barrel Switch: 0 | Secondary Barrel Switch: 0 | Eraser: 0 | Invert: 0 | In Range: 1 | Wacom Sense: 1 | # | X:      5091 | Y:      7758 | Tip Pressure:   3437 | X Tilt:   36 | Y Tilt:    7 | Twist:      0 | Wacom FingerWheel:      0 | Wacom Distance:    5 | Transducer Serial Number:   595605148 | Wacom SerialHi:     1116162 | Wacom ToolType:   2050 
E: 000000.612904 27 10 61 e3 13 00 4e 1e 00 6d 0d 24 07 00 00 00 00 05 9c 36 80 23 02 08 11 00 02 08
# ReportID: 16 / Tip Switch: 1 | Barrel Switch: 0 | Secondary Barrel Switch: 0 | Eraser: 0 | Invert: 0 | In Range: 1 | Wacom Sense: 1 | # | X:      5089 | Y:      7793 | Tip Pressure:   3549 | X Tilt:   36 | Y Tilt:    7 | Twist:      0 | Wacom FingerWheel:      0 | Wacom Distance:    5 | Transducer Serial Number:   595605148 | Wacom SerialHi:     1116162 | Wacom ToolType:   2050 
E: 000000.618957 27 10 61 e1 13 00 71 1e 00 dd 0d 24 07 00 00 00 00 05 9c 36 80 23 02 08 11 00 02 08
# ReportID: 16 / Tip Switch: 1 | Barrel Switch: 0 | Secondary Barrel Switch: 0 | Eraser: 0 | Invert: 0 | In Range: 1 | Wacom Sense: 1 | # | X:      5085 | Y:      7832 | Tip Pressure:   3657 | X Tilt:   36 | Y Tilt:    7 | Twist:      0 | Wacom FingerWheel:      0 | Wacom Distance:    5 | Transducer Serial Number:   595605148 | Wacom SerialHi:     1116162 | Wacom ToolType:   2050 
E: 000000.625826 27 10 61 dd 13 00 98 1e 00 49 0e 24 07 00 00 00 00 05 9c 36 80 23 02 08 11 00 02 08
# ReportID: 16 / Tip Switch: 1 | Barrel Switch: 0 | Secondary Barrel Switch: 0 | Eraser: 0 | Invert: 0 | In Range: 1 | Wacom Sense: 1 | # | X:      5080 | Y:      7877 | Tip Pressure:   3725 | X Tilt:   36 | Y Tilt:    7 | Twist:      0 | Wacom FingerWheel:      0 | Wacom Distance:    5 | Transducer Serial Number:   595605148 | Wacom SerialHi:     1116162 | Wacom ToolType:   2050 
E: 000000.627984 27 10 61 d8 13 00 c5 1e 00 8d 0e 24 07 00 00 00 00 05 9c 36 80 23 02 08 11 00 02 08
# ReportID: 16 / Tip Switch: 1 | Barrel Switch: 0 | Secondary Barrel Switch: 0 | Eraser: 0 | Invert: 0 | In Range: 1 | Wacom Sense: 1 | # | X:      5074 | Y:      7930 | Tip Pressure:   3793 | X Tilt:   36 | Y Tilt:    7 | Twist:      0 | Wacom FingerWheel:      0 | Wacom Distance:    5 | Transducer Serial Number:   595605148 | Wacom SerialHi:     1116162 | Wacom ToolType:   2050 
E: 000000.635001 27 10 61 d2 13 00 fa 1e 00 d1 0e 24 07 00 00 00 00 05 9c 36 80 23 02 08 11 00 02 08
# ReportID: 16 / Tip Switch: 1 | Barrel Switch: 0 | Secondary Barrel Switch: 0 | Eraser: 0 | Invert: 0 | In Range: 1 | Wacom Sense: 1 | # | X:      5067 | Y:      7988 | Tip Pressure:   3901 | X Tilt:   36 | Y Tilt:    7 | Twist:      0 | Wacom FingerWheel:      0 | Wacom Distance:    5 | Transducer Serial Number:   595605148 | Wacom SerialHi:     1116162 | Wacom ToolType:   2050 
E: 000000.640002 27 10 61 cb 13 00 34 1f 00 3d 0f 24 07 00 00 00 00 05 9c 36 80 23 02 08 11 00 02 08
# ReportID: 16 / Tip Switch: 1 | Barrel Switch: 0 | Secondary Barrel Switch: 0 | Eraser: 0 | Invert: 0 | In Range: 1 | Wacom Sense: 1 | # | X:      5061 | Y:      8056 | Tip Pressure:   3969 | X Tilt:   36 | Y Tilt:    7 | Twist:      0 | Wacom FingerWheel:      0 | Wacom Distance:    5 | Transducer Serial Number:   595605148 | Wacom SerialHi:     1116162 | Wacom ToolType:   2050 
E: 000000.642809 27 10 61 c5 13 00 78 1f 00 81 0f 24 07 00 00 00 00 05 9c 36 80 23 02 08 11 00 02 08
# ReportID: 16 / Tip Switch: 1 | Barrel Switch: 0 | Secondary Barrel Switch: 0 | Eraser: 0 | Invert: 0 | In Range: 1 | Wacom Sense: 1 | # | X:      5054 | Y:      8128 | Tip Pressure:   4033 | X Tilt:   36 | Y Tilt:    7 | Twist:      0 | Wacom FingerWheel:      0 | Wacom Distance:    5 | Transducer Serial Number:   595605148 | Wacom SerialHi:     1116162 | Wacom ToolType:   2050 
E: 000000.648804 27 10 61 be 13 00 c0 1f 00 c1 0f 24 07 00 00 00 00 05 9c 36 80 23 02 08 11 00 02 08
# ReportID: 16 / Tip Switch: 1 | Barrel Switch: 0 | Secondary Barrel Switch: 0 | Eraser: 0 | Invert: 0 | In Range: 1 | Wacom Sense: 1 | # | X:      5047 | Y:      8204 | Tip Pressure:   4106 | X Tilt:   36 | Y Tilt:    6 | Twist:      0 | Wacom FingerWheel:      0 | Wacom Distance:    5 | Transducer Serial Number:   595605148 | Wacom SerialHi:     1116162 | Wacom ToolType:   2050 
E: 000000.655982 27 10 61 b7 13 00 0c 20 00 0a 10 24 06 00 00 00 00 05 9c 36 80 23 02 08 11 00 02 08
# ReportID: 16 / Tip Switch: 1 | Barrel Switch: 0 | Secondary Barrel Switch: 0 | Eraser: 0 | Invert: 0 | In Range: 1 | Wacom Sense: 1 | # | X:      5041 | Y:      8285 | Tip Pressure:   4182 | X Tilt:   36 | Y Tilt:    6 | Twist:      0 | Wacom FingerWheel:      0 | Wacom Distance:    5 | Transducer Serial Number:   595605148 | Wacom SerialHi:     1116162 | Wacom ToolType:   2050 
E: 000000.657909 27 10 61 b1 13 00 5d 20 00 56 10 24 06 00 00 00 00 05 9c 36 80 23 02 08 11 00 02 08
# ReportID: 16 / Tip Switch: 1 | Barrel Switch: 0 | Secondary Barrel Switch: 0 | Eraser: 0 | Invert: 0 | In Range: 1 | Wacom Sense: 1 | # | X:      5035 | Y:      8368 | Tip Pressure:   4246 | X Tilt:   36 | Y Tilt:    6 | Twist:      0 | Wacom FingerWheel:      0 | Wacom Distance:    5 | Transducer Serial Number:   595605148 | Wacom SerialHi:     1116162 | Wacom ToolType:   2050 
E: 000000.664815 27 10 61 ab 13 00 b0 20 00 96 10 24 06 00 00 00 00 05 9c 36 80 23 02 08 11 00 02 08
# ReportID: 16 / Tip Switch: 1 | Barrel Switch: 0 | Secondary Barrel Switch: 0 | Eraser: 0 | Invert: 0 | In Range: 1 | Wacom Sense: 1 | # | X:      5031 | Y:      8455 | Tip Pressure:   4302 | X Tilt:   36 | Y Tilt:    6 | Twist:      0 | Wacom FingerWheel:      0 | Wacom Distance:    5 | Transducer Serial Number:   595605148 | Wacom SerialHi:     1116162 | Wacom ToolType:   2050 
E: 000000.669760 27 10 61 a7 13 00 07 21 00 ce 10 24 06 00 00 00 00 05 9c 36 80 23 02 08 11 00 02 08
# ReportID: 16 / Tip Switch: 1 | Barrel Switch: 0 | Secondary Barrel Switch: 0 | Eraser: 0 | Invert: 0 | In Range: 1 | Wacom Sense: 1 | # | X:      5029 | Y:      8547 | Tip Pressure:   4346 | X Tilt:   36 | Y Tilt:    5 | Twist:      0 | Wacom FingerWheel:      0 | Wacom Distance:    5 | Transducer Serial Number:   595605148 | Wacom SerialHi:     1116162 | Wacom ToolType:   2050 
E: 000000.672755 27 10 61 a5 13 00 63 21 00 fa 10 24 05 00 00 00 00 05 9c 36 80 23 02 08 11 00 02 08
# ReportID: 16 / Tip Switch: 1 | Barrel Switch: 0 | Secondary Barrel Switch: 0 | Eraser: 0 | Invert: 0 | In Range: 1 | Wacom Sense: 1 | # | X:      5028 | Y:      8642 | Tip Pressure:   4422 | X Tilt:   36 | Y Tilt:    5 | Twist:      0 | Wacom FingerWheel:      0 | Wacom Distance:    5 | Transducer Serial Number:   595605148 | Wacom SerialHi:     1116162 | Wacom ToolType:   2050 
E: 000000.678956 27 10 61 a4 13 00 c2 21 00 46 11 24 05 00 00 00 00 05 9c 36 80 23 02 08 11 00 02 08
# ReportID: 16 / Tip Switch: 1 | Barrel Switch: 0 | Secondary Barrel Switch: 0 | Eraser: 0 | Invert: 0 | In Range: 1 | Wacom Sense: 1 | # | X:      5027 | Y:      8740 | Tip Pressure:   4490 | X Tilt:   36 | Y Tilt:    5 | Twist:      0 | Wacom FingerWheel:      0 | Wacom Distance:    5 | Transducer Serial Number:   595605148 | Wacom SerialHi:     1116162 | Wacom ToolType:   2050 
E: 000000.685980 27 10 61 a3 13 00 24 22 00 8a 11 24 05 00 00 00 00 05 9c 36 80 23 02 08 11 00 02 08
# ReportID: 16 / Tip Switch: 1 | Barrel Switch: 0 | Secondary Barrel Switch: 0 | Eraser: 0 | Invert: 0 | In Range: 1 | Wacom Sense: 1 | # | X:      5027 | Y:      8839 | Tip Pressure:   4526 | X Tilt:   36 | Y Tilt:    5 | Twist:      0 | Wacom FingerWheel:      0 | Wacom Distance:    5 | Transducer Serial Number:   595605148 | Wacom SerialHi:     1116162 | Wacom ToolType:   2050 
E: 000000.687970 27 10 61 a3 13 00 87 22 00 ae 11 24 05 00 00 00 00 05 9c 36 80 23 02 08 11 00 02 08
# ReportID: 16 / Tip Switch: 1 | Barrel Switch: 0 | Secondary Barrel Switch: 0 | Eraser: 0 | Invert: 0 | In Range: 1 | Wacom Sense: 1 | # | X:      5027 | Y:      8989 | Tip Pressure:   4578 | X Tilt:   36 | Y Tilt:    4 | Twist:      0 | Wacom FingerWheel:      0 | Wacom Distance:    5 | Transducer Serial Number:   595605148 | Wacom SerialHi:     1116162 | Wacom ToolType:   2050 
E: 000000.694930 27 10 61 a3 13 00 1d 23 00 e2 11 24 04 00 00 00 00 05 9c 36 80 23 02 08 11 00 02 08
# ReportID: 16 / Tip Switch: 1 | Barrel Switch: 0 | Secondary Barrel Switch: 0 | Eraser: 0 | Invert: 0 | In Range: 1 | Wacom Sense: 1 | # | X:      5028 | Y:      9041 | Tip Pressure:   4638 | X Tilt:   36 | Y Tilt:    4 | Twist:      0 | Wacom FingerWheel:      0 | Wacom Distance:    5 | Transducer Serial Number:   595605148 | Wacom SerialHi:     1116162 | Wacom ToolType:   2050 
E: 000000.699974 27 10 61 a4 13 00 51 23 00 1e 12 24 04 00 00 00 00 05 9c 36 80 23 02 08 11 00 02 08
# ReportID: 16 / Tip Switch: 1 | Barrel Switch: 0 | Secondary Barrel Switch: 0 | Eraser: 0 | Invert: 0 | In Range: 1 | Wacom Sense: 1 | # | X:      5029 | Y:      9146 | Tip Pressure:   4682 | X Tilt:   36 | Y Tilt:    4 | Twist:      0 | Wacom FingerWheel:      0 | Wacom Distance:    5 | Transducer Serial Number:   595605148 | Wacom SerialHi:     1116162 | Wacom ToolType:   2050 
E: 000000.702904 27 10 61 a5 13 00 ba 23 00 4a 12 24 04 00 00 00 00 05 9c 36 80 23 02 08 11 00 02 08
# ReportID: 16 / Tip Switch: 1 | Barrel Switch: 0 | Secondary Barrel Switch: 0 | Eraser: 0 | Invert: 0 | In Range: 1 | Wacom Sense: 1 | # | X:      5029 | Y:      9308 | Tip Pressure:   4730 | X Tilt:   36 | Y Tilt:    4 | Twist:      0 | Wacom FingerWheel:      0 | Wacom Distance:    5 | Transducer Serial Number:   595605148 | Wacom SerialHi:     1116162 | Wacom ToolType:   2050 
E: 000000.708980 27 10 61 a5 13 00 5c 24 00 7a 12 24 04 00 00 00 00 05 9c 36 80 23 02 08 11 00 02 08
# ReportID: 16 / Tip Switch: 1 | Barrel Switch: 0 | Secondary Barrel Switch: 0 | Eraser: 0 | Invert: 0 | In Range: 1 | Wacom Sense: 1 | # | X:      5025 | Y:      9475 | Tip Pressure:   4778 | X Tilt:   36 | Y Tilt:    3 | Twist:      0 | Wacom FingerWheel:      0 | Wacom Distance:    5 | Transducer Serial Number:   595605148 | Wacom SerialHi:     1116162 | Wacom ToolType:   2050 
E: 000000.715842 27 10 61 a1 13 00 03 25 00 aa 12 24 03 00 00 00 00 05 9c 36 80 23 02 08 11 00 02 08
# ReportID: 16 / Tip Switch: 1 | Barrel Switch: 0 | Secondary Barrel Switch: 0 | Eraser: 0 | Invert: 0 | In Range: 1 | Wacom Sense: 1 | # | X:      5015 | Y:      9651 | Tip Pressure:   4838 | X Tilt:   36 | Y Tilt:    3 | Twist:      0 | Wacom FingerWheel:      0 | Wacom Distance:    5 | Transducer Serial Number:   595605148 | Wacom SerialHi:     1116162 | Wacom ToolType:   2050 
E: 000000.717911 27 10 61 97 13 00 b3 25 00 e6 12 24 03 00 00 00 00 05 9c 36 80 23 02 08 11 00 02 08
# ReportID: 16 / Tip Switch: 1 | Barrel Switch: 0 | Secondary Barrel Switch: 0 | Eraser: 0 | Invert: 0 | In Range: 1 | Wacom Sense: 1 | # | X:      5003 | Y:      9777 | Tip Pressure:   4902 | X Tilt:   36 | Y Tilt:    3 | Twist:      0 | Wacom FingerWheel:      0 | Wacom Distance:    5 | Transducer Serial Number:   595605148 | Wacom SerialHi:     1116162 | Wacom ToolType:   2050 
E: 000000.724815 27 10 61 8b 13 00 31 26 00 26 13 24 03 00 00 00 00 05 9c 36 80 23 02 08 11 00 02 08
# ReportID: 16 / Tip Switch: 1 | Barrel Switch: 0 | Secondary Barrel Switch: 0 | Eraser: 0 | Invert: 0 | In Range: 1 | Wacom Sense: 1 | # | X:      4996 | Y:      9911 | Tip Pressure:   4934 | X Tilt:   36 | Y Tilt:    3 | Twist:      0 | Wacom FingerWheel:      0 | Wacom Distance:    5 | Transducer Serial Number:   595605148 | Wacom SerialHi:     1116162 | Wacom ToolType:   2050 
E: 000000.729992 27 10 61 84 13 00 b7 26 00 46 13 24 03 00 00 00 00 05 9c 36 80 23 02 08 11 00 02 08
# ReportID: 16 / Tip Switch: 1 | Barrel Switch: 0 | Secondary Barrel Switch: 0 | Eraser: 0 | Invert: 0 | In Range: 1 | Wacom Sense: 1 | # | X:      4982 | Y:     10047 | Tip Pressure:   4978 | X Tilt:   36 | Y Tilt:    3 | Twist:      0 | Wacom FingerWheel:      0 | Wacom Distance:    5 | Transducer Serial Number:   595605148 | Wacom SerialHi:     1116162 | Wacom ToolType:   2050 
E: 000000.732792 27 10 61 76 13 00 3f 27 00 72 13 24 03 00 00 00 00 05 9c 36 80 23 02 08 11 00 02 08
# ReportID: 16 / Tip Switch: 1 | Barrel Switch: 0 | Secondary Barrel Switch: 0 | Eraser: 0 | Invert: 0 | In Range: 1 | Wacom Sense: 1 | # | X:      4965 | Y:     10183 | Tip Pressure:   5046 | X Tilt:   36 | Y Tilt:    3 | Twist:      0 | Wacom FingerWheel:      0 | Wacom Distance:    5 | Transducer Serial Number:   595605148 | Wacom SerialHi:     1116162 | Wacom ToolType:   2050 
E: 000000.738893 27 10 61 65 13 00 c7 27 00 b6 13 24 03 00 00 00 00 05 9c 36 80 23 02 08 11 00 02 08
# ReportID: 16 / Tip Switch: 1 | Barrel Switch: 0 | Secondary Barrel Switch: 0 | Eraser: 0 | Invert: 0 | In Range: 1 | Wacom Sense: 1 | # | X:      4950 | Y:     10329 | Tip Pressure:   5094 | X Tilt:   36 | Y Tilt:    2 | Twist:      0 | Wacom FingerWheel:      0 | Wacom Distance:    5 | Transducer Serial Number:   595605148 | Wacom SerialHi:     1116162 | Wacom ToolType:   2050 
E: 000000.741986 27 10 61 56 13 00 59 28 00 e6 13 24 02 00 00 00 00 05 9c 36 80 23 02 08 11 00 02 08
# ReportID: 16 / Tip Switch: 1 | Barrel Switch: 0 | Secondary Barrel Switch: 0 | Eraser: 0 | Invert: 0 | In Range: 1 | Wacom Sense: 1 | # | X:      4935 | Y:     10476 | Tip Pressure:   5146 | X Tilt:   36 | Y Tilt:    2 | Twist:      0 | Wacom FingerWheel:      0 | Wacom Distance:    5 | Transducer Serial Number:   595605148 | Wacom SerialHi:     1116162 | Wacom ToolType:   2050 
E: 000000.747831 27 10 61 47 13 00 ec 28 00 1a 14 24 02 00 00 00 00 05 9c 36 80 23 02 08 11 00 02 08
# ReportID: 16 / Tip Switch: 1 | Barrel Switch: 0 | Secondary Barrel Switch: 0 | Eraser: 0 | Invert: 0 | In Range: 1 | Wacom Sense: 1 | # | X:      4919 | Y:     10629 | Tip Pressure:   5170 | X Tilt:   36 | Y Tilt:    2 | Twist:      0 | Wacom FingerWheel:      0 | Wacom Distance:    5 | Transducer Serial Number:   595605148 | Wacom SerialHi:     1116162 | Wacom ToolType:   2050 
E: 000000.754959 27 10 61 37 13 00 85 29 00 32 14 24 02 00 00 00 00 05 9c 36 80 23 02 08 11 00 02 08
# ReportID: 16 / Tip Switch: 1 | Barrel Switch: 0 | Secondary Barrel Switch: 0 | Eraser: 0 | Invert: 0 | In Range: 1 | Wacom Sense: 1 | # | X:      4901 | Y:     10779 | Tip Pressure:   5222 | X Tilt:   36 | Y Tilt:    2 | Twist:      0 | Wacom FingerWheel:      0 | Wacom Distance:    5 | Transducer Serial Number:   595605148 | Wacom SerialHi:     1116162 | Wacom ToolType:   2050 
E: 000000.756913 27 10 61 25 13 00 1b 2a 00 66 14 24 02 00 00 00 00 05 9c 36 80 23 02 08 11 00 02 08
# ReportID: 16 / Tip Switch: 1 | Barrel Switch: 0 | Secondary Barrel Switch: 0 | Eraser: 0 | Invert: 0 | In Range: 1 | Wacom Sense: 1 | # | X:      4886 | Y:     10927 | Tip Pressure:   5250 | X Tilt:   36 | Y Tilt:    1 | Twist:      0 | Wacom FingerWheel:      0 | Wacom Distance:    6 | Transducer Serial Number:   595605148 | Wacom SerialHi:     1116162 | Wacom ToolType:   2050 
E: 000000.762909 27 10 61 16 13 00 af 2a 00 82 14 24 01 00 00 00 00 06 9c 36 80 23 02 08 11 00 02 08
# ReportID: 16 / Tip Switch: 1 | Barrel Switch: 0 | Secondary Barrel Switch: 0 | Eraser: 0 | Invert: 0 | In Range: 1 | Wacom Sense: 1 | # | X:      4873 | Y:     11072 | Tip Pressure:   5274 | X Tilt:   36 | Y Tilt:    1 | Twist:      0 | Wacom FingerWheel:      0 | Wacom Distance:    5 | Transducer Serial Number:   595605148 | Wacom SerialHi:     1116162 | Wacom ToolType:   2050 
E: 000000.768768 27 10 61 09 13 00 40 2b 00 9a 14 24 01 00 00 00 00 05 9c 36 80 23 02 08 11 00 02 08
# ReportID: 16 / Tip Switch: 1 | Barrel Switch: 0 | Secondary Barrel Switch: 0 | Eraser: 0 | Invert: 0 | In Range: 1 | Wacom Sense: 1 | # | X:      4858 | Y:     11219 | Tip Pressure:   5282 | X Tilt:   36 | Y Tilt:    1 | Twist:      0 | Wacom FingerWheel:      0 | Wacom Distance:    6 | Transducer Serial Number:   595605148 | Wacom SerialHi:     1116162 | Wacom ToolType:   2050 
E: 000000.771748 27 10 61 fa 12 00 d3 2b 00 a2 14 24 01 00 00 00 00 06 9c 36 80 23 02 08 11 00 02 08
# ReportID: 16 / Tip Switch: 1 | Barrel Switch: 0 | Secondary Barrel Switch: 0 | Eraser: 0 | Invert: 0 | In Range: 1 | Wacom Sense: 1 | # | X:      4848 | Y:     11362 | Tip Pressure:   5322 | X Tilt:   36 | Y Tilt:    1 | Twist:      0 | Wacom FingerWheel:      0 | Wacom Distance:    6 | Transducer Serial Number:   595605148 | Wacom SerialHi:     1116162 | Wacom ToolType:   2050 
E: 000000.777722 27 10 61 f0 12 00 62 2c 00 ca 14 24 01 00 00 00 00 06 9c 36 80 23 02 08 11 00 02 08
# ReportID: 16 / Tip Switch: 1 | Barrel Switch: 0 | Secondary Barrel Switch: 0 | Eraser: 0 | Invert: 0 | In Range: 1 | Wacom Sense: 1 | # | X:      4838 | Y:     11504 | Tip Pressure:   5354 | X Tilt:   36 | Y Tilt:    0 | Twist:      0 | Wacom FingerWheel:      0 | Wacom Distance:    6 | Transducer Serial Number:   595605148 | Wacom SerialHi:     1116162 | Wacom ToolType:   2050 
E: 000000.784808 27 10 61 e6 12 00 f0 2c 00 ea 14 24 00 00 00 00 00 06 9c 36 80 23 02 08 11 00 02 08
# ReportID: 16 / Tip Switch: 1 | Barrel Switch: 0 | Secondary Barrel Switch: 0 | Eraser: 0 | Invert: 0 | In Range: 1 | Wacom Sense: 1 | # | X:      4830 | Y:     11649 | Tip Pressure:   5362 | X Tilt:   36 | Y Tilt:    0 | Twist:      0 | Wacom FingerWheel:      0 | Wacom Distance:    6 | Transducer Serial Number:   595605148 | Wacom SerialHi:     1116162 | Wacom ToolType:   2050 
E: 000000.786763 27 10 61 de 12 00 81 2d 00 f2 14 24 00 00 00 00 00 06 9c 36 80 23 02 08 11 00 02 08
# ReportID: 16 / Tip Switch: 1 | Barrel Switch: 0 | Secondary Barrel Switch: 0 | Eraser: 0 | Invert: 0 | In Range: 1 | Wacom Sense: 1 | # | X:      4823 | Y:     11786 | Tip Pressure:   5370 | X Tilt:   36 | Y Tilt:    0 | Twist:      0 | Wacom FingerWheel:      0 | Wacom Distance:    6 | Transducer Serial Number:   595605148 | Wacom SerialHi:     1116162 | Wacom ToolType:   2050 
E: 000000.792813 27 10 61 d7 12 00 0a 2e 00 fa 14 24 00 00 00 00 00 06 9c 36 80 23 02 08 11 00 02 08
# ReportID: 16 / Tip Switch: 1 | Barrel Switch: 0 | Secondary Barrel Switch: 0 | Eraser: 0 | Invert: 0 | In Range: 1 | Wacom Sense: 1 | # | X:      4812 | Y:     11921 | Tip Pressure:   5394 | X Tilt:   36 | Y Tilt:    0 | Twist:      0 | Wacom FingerWheel:      0 | Wacom Distance:    6 | Transducer Serial Number:   595605148 | Wacom SerialHi:     1116162 | Wacom ToolType:   2050 
E: 000000.798996 27 10 61 cc 12 00 91 2e 00 12 15 24 00 00 00 00 00 06 9c 36 80 23 02 08 11 00 02 08
# ReportID: 16 / Tip Switch: 1 | Barrel Switch: 0 | Secondary Barrel Switch: 0 | Eraser: 0 | Invert: 0 | In Range: 1 | Wacom Sense: 1 | # | X:      4804 | Y:     12070 | Tip Pressure:   5434 | X Tilt:   36 | Y Tilt:    0 | Twist:      0 | Wacom FingerWheel:      0 | Wacom Distance:    6 | Transducer Serial Number:   595605148 | Wacom SerialHi:     1116162 | Wacom ToolType:   2050 
E: 000000.802016 27 10 61 c4 12 00 26 2f 00 3a 15 24 00 00 00 00 00 06 9c 36 80 23 02 08 11 00 02 08
# ReportID: 16 / Tip Switch: 1 | Barrel Switch: 0 | Secondary Barrel Switch: 0 | Eraser: 0 | Invert: 0 | In Range: 1 | Wacom Sense: 1 | # | X:      4791 | Y:     12219 | Tip Pressure:   5454 | X Tilt:   35 | Y Tilt:    0 | Twist:      0 | Wacom FingerWheel:      0 | Wacom Distance:    6 | Transducer Serial Number:   595605148 | Wacom SerialHi:     1116162 | Wacom ToolType:   2050 
E: 000000.807925 27 10 61 b7 12 00 bb 2f 00 4e 15 23 00 00 00 00 00 06 9c 36 80 23 02 08 11 00 02 08
# ReportID: 16 / Tip Switch: 1 | Barrel Switch: 0 | Secondary Barrel Switch: 0 | Eraser: 0 | Invert: 0 | In Range: 1 | Wacom Sense: 1 | # | X:      4778 | Y:     12376 | Tip Pressure:   5458 | X Tilt:   35 | Y Tilt:    0 | Twist:      0 | Wacom FingerWheel:      0 | Wacom Distance:    6 | Transducer Serial Number:   595605148 | Wacom SerialHi:     1116162 | Wacom ToolType:   2050 
E: 000000.814989 27 10 61 aa 12 00 58 30 00 52 15 23 00 00 00 00 00 06 9c 36 80 23 02 08 11 00 02 08
# ReportID: 16 / Tip Switch: 1 | Barrel Switch: 0 | Secondary Barrel Switch: 0 | Eraser: 0 | Invert: 0 | In Range: 1 | Wacom Sense: 1 | # | X:      4765 | Y:     12528 | Tip Pressure:   5502 | X Tilt:   35 | Y Tilt:    0 | Twist:      0 | Wacom FingerWheel:      0 | Wacom Distance:    6 | Transducer Serial Number:   595605148 | Wacom SerialHi:     1116162 | Wacom ToolType:   2050 
E: 000000.816766 27 10 61 9d 12 00 f0 30 00 7e 15 23 00 00 00 00 00 06 9c 36 80 23 02 08 11 00 02 08
# ReportID: 16 / Tip Switch: 1 | Barrel Switch: 0 | Secondary Barrel Switch: 0 | Eraser: 0 | Invert: 0 | In Range: 1 | Wacom Sense: 1 | # | X:      4748 | Y:     12683 | Tip Pressure:   5530 | X Tilt:   35 | Y Tilt:   -1 | Twist:      0 | Wacom FingerWheel:      0 | Wacom Distance:    6 | Transducer Serial Number:   595605148 | Wacom SerialHi:     1116162 | Wacom ToolType:   2050 
E: 000000.822961 27 10 61 8c 12 00 8b 31 00 9a 15 23 ff 00 00 00 00 06 9c 36 80 23 02 08 11 00 02 08
# ReportID: 16 / Tip Switch: 1 | Barrel Switch: 0 | Secondary Barrel Switch: 0 | Eraser: 0 | Invert: 0 | In Range: 1 | Wacom Sense: 1 | # | X:      4735 | Y:     12837 | Tip Pressure:   5542 | X Tilt:   35 | Y Tilt:   -1 | Twist:      0 | Wacom FingerWheel:      0 | Wacom Distance:    7 | Transducer Serial Number:   595605148 | Wacom SerialHi:     1116162 | Wacom ToolType:   2050 
E: 000000.828980 27 10 61 7f 12 00 25 32 00 a6 15 23 ff 00 00 00 00 07 9c 36 80 23 02 08 11 00 02 08
# ReportID: 16 / Tip Switch: 1 | Barrel Switch: 0 | Secondary Barrel Switch: 0 | Eraser: 0 | Invert: 0 | In Range: 1 | Wacom Sense: 1 | # | X:      4719 | Y:     12992 | Tip Pressure:   5554 | X Tilt:   35 | Y Tilt:   -1 | Twist:      0 | Wacom FingerWheel:      0 | Wacom Distance:    7 | Transducer Serial Number:   595605148 | Wacom SerialHi:     1116162 | Wacom ToolType:   2050 
