# Pen node
#
# Recording is one ~5cm CCW circle with the eraser tip at medium-strong pressure
#
# Wacom Co.,Ltd. Wacom Intuos Pro M
# 0x05, 0x01,                    // Usage Page (Generic Desktop)        0
# 0x09, 0x02,                    // Usage (Mouse)                       2
# 0xa1, 0x01,                    // Collection (Application)            4
# 0x85, 0x01,                    //  Report ID (1)                      6
# 0x09, 0x01,                    //  Usage (Pointer)                    8
# 0xa1, 0x00,                    //  Collection (Physical)              10
# 0x05, 0x09,                    //   Usage Page (Button)               12
# 0x19, 0x01,                    //   Usage Minimum (1)                 14
# 0x29, 0x03,                    //   Usage Maximum (3)                 16
# 0x15, 0x00,                    //   Logical Minimum (0)               18
# 0x25, 0x01,                    //   Logical Maximum (1)               20
# 0x75, 0x01,                    //   Report Size (1)                   22
# 0x95, 0x03,                    //   Report Count (3)                  24
# 0x81, 0x02,                    //   Input (Data,Var,Abs)              26
# 0x75, 0x01,                    //   Report Size (1)                   28
# 0x95, 0x05,                    //   Report Count (5)                  30
# 0x81, 0x03,                    //   Input (Cnst,Var,Abs)              32
# 0x05, 0x01,                    //   Usage Page (Generic Desktop)      34
# 0x09, 0x30,                    //   Usage (X)                         36
# 0x09, 0x31,                    //   Usage (Y)                         38
# 0x15, 0x81,                    //   Logical Minimum (-127)            40
# 0x25, 0x7f,                    //   Logical Maximum (127)             42
# 0x75, 0x08,                    //   Report Size (8)                   44
# 0x95, 0x02,                    //   Report Count (2)                  46
# 0x81, 0x06,                    //   Input (Data,Var,Rel)              48
# 0xc0,                          //  End Collection                     50
# 0xc0,                          // End Collection                      51
# 0x06, 0x0d, 0xff,              // Usage Page (Wacom)                  52
# 0x09, 0x01,                    // Usage (Wacom Digitizer)             55
# 0xa1, 0x01,                    // Collection (Application)            57
# 0x85, 0x10,                    //  Report ID (16)                     59
# 0x09, 0x20,                    //  Usage (Stylus)                     61
# 0xa1, 0x00,                    //  Collection (Physical)              63
# 0x09, 0x42,                    //   Usage (Tip Switch)                65
# 0x09, 0x44,                    //   Usage (Barrel Switch)             67
# 0x09, 0x5a,                    //   Usage (Secondary Barrel Switch)   69
# 0x09, 0x45,                    //   Usage (Eraser)                    71
# 0x09, 0x3c,                    //   Usage (Invert)                    73
# 0x09, 0x32,                    //   Usage (In Range)                  75
# 0x09, 0x36,                    //   Usage (Wacom Sense)               77
# 0x15, 0x00,                    //   Logical Minimum (0)               79
# 0x25, 0x01,                    //   Logical Maximum (1)               81
# 0x75, 0x01,                    //   Report Size (1)                   83
# 0x95, 0x07,                    //   Report Count (7)                  85
# 0x81, 0x02,                    //   Input (Data,Var,Abs)              87
# 0x95, 0x01,                    //   Report Count (1)                  89
# 0x81, 0x03,                    //   Input (Cnst,Var,Abs)              91
# 0x0a, 0x30, 0x01,              //   Usage (X)                         93
# 0x65, 0x11,                    //   Unit (SILinear: cm)               96
# 0x55, 0x0d,                    //   Unit Exponent (-3)                98
# 0x35, 0x00,                    //   Physical Minimum (0)              100
# 0x47, 0x80, 0x57, 0x00, 0x00,  //   Physical Maximum (22400)          102
# 0x15, 0x00,                    //   Logical Minimum (0)               107
# 0x27, 0x00, 0xaf, 0x00, 0x00,  //   Logical Maximum (44800)           109
# 0x75, 0x18,                    //   Report Size (24)                  114
# 0x95, 0x01,                    //   Report Count (1)                  116
# 0x81, 0x02,                    //   Input (Data,Var,Abs)              118
# 0x0a, 0x31, 0x01,              //   Usage (Y)                         120
# 0x47, 0xd0, 0x39, 0x00, 0x00,  //   Physical Maximum (14800)          123
# 0x27, 0xa0, 0x73, 0x00, 0x00,  //   Logical Maximum (29600)           128
# 0x81, 0x02,                    //   Input (Data,Var,Abs)              133
# 0x09, 0x30,                    //   Usage (Tip Pressure)              135
# 0x55, 0x00,                    //   Unit Exponent (0)                 137
# 0x65, 0x00,                    //   Unit (None)                       139
# 0x15, 0x00,                    //   Logical Minimum (0)               141
# 0x26, 0xff, 0x1f,              //   Logical Maximum (8191)            143
# 0x75, 0x10,                    //   Report Size (16)                  146
# 0x81, 0x02,                    //   Input (Data,Var,Abs)              148
# 0x09, 0x3d,                    //   Usage (X Tilt)                    150
# 0x09, 0x3e,                    //   Usage (Y Tilt)                    152
# 0x65, 0x14,                    //   Unit (EnglishRotation: deg)       154
# 0x55, 0x00,                    //   Unit Exponent (0)                 156
# 0x35, 0xc0,                    //   Physical Minimum (-64)            158
# 0x45, 0x3f,                    //   Physical Maximum (63)             160
# 0x15, 0xc0,                    //   Logical Minimum (-64)             162
# 0x25, 0x3f,                    //   Logical Maximum (63)              164
# 0x75, 0x08,                    //   Report Size (8)                   166
# 0x95, 0x02,                    //   Report Count (2)                  168
# 0x81, 0x02,                    //   Input (Data,Var,Abs)              170
# 0x09, 0x41,                    //   Usage (Twist)                     172
# 0x65, 0x14,                    //   Unit (EnglishRotation: deg)       174
# 0x55, 0x00,                    //   Unit Exponent (0)                 176
# 0x36, 0x4c, 0xff,              //   Physical Minimum (-180)           178
# 0x46, 0xb3, 0x00,              //   Physical Maximum (179)            181
# 0x16, 0x7c, 0xfc,              //   Logical Minimum (-900)            184
# 0x26, 0x83, 0x03,              //   Logical Maximum (899)             187
# 0x75, 0x10,                    //   Report Size (16)                  190
# 0x95, 0x01,                    //   Report Count (1)                  192
# 0x81, 0x0a,                    //   Input (Data,Var,Abs,Wrap)         194
# 0x0a, 0x03, 0x0d,              //   Usage (Wacom FingerWheel)         196
# 0x65, 0x00,                    //   Unit (None)                       199
# 0x55, 0x00,                    //   Unit Exponent (0)                 201
# 0x15, 0x00,                    //   Logical Minimum (0)               203
# 0x26, 0xff, 0x07,              //   Logical Maximum (2047)            205
# 0x75, 0x10,                    //   Report Size (16)                  208
# 0x95, 0x01,                    //   Report Count (1)                  210
# 0x81, 0x02,                    //   Input (Data,Var,Abs)              212
# 0x0a, 0x32, 0x01,              //   Usage (Wacom Distance)            214
# 0x15, 0x00,                    //   Logical Minimum (0)               217
# 0x25, 0x3f,                    //   Logical Maximum (63)              219
# 0x75, 0x08,                    //   Report Size (8)                   221
# 0x95, 0x01,                    //   Report Count (1)                  223
# 0x81, 0x02,                    //   Input (Data,Var,Abs)              225
# 0x09, 0x5b,                    //   Usage (Transducer Serial Number)  227
# 0x09, 0x5c,                    //   Usage (Wacom SerialHi)            229
# 0x17, 0x00, 0x00, 0x00, 0x80,  //   Logical Minimum (-2147483648)     231
# 0x27, 0xff, 0xff, 0xff, 0x7f,  //   Logical Maximum (2147483647)      236
# 0x75, 0x20,                    //   Report Size (32)                  241
# 0x95, 0x02,                    //   Report Count (2)                  243
# 0x81, 0x02,                    //   Input (Data,Var,Abs)              245
# 0x09, 0x77,                    //   Usage (Wacom ToolType)            247
# 0x15, 0x00,                    //   Logical Minimum (0)               249
# 0x26, 0xff, 0x0f,              //   Logical Maximum (4095)            251
# 0x75, 0x10,                    //   Report Size (16)                  254
# 0x95, 0x01,                    //   Report Count (1)                  256
# 0x81, 0x02,                    //   Input (Data,Var,Abs)              258
# 0xc0,                          //  End Collection                     260
# 0x85, 0x11,                    //  Report ID (17)                     261
# 0x09, 0x39,                    //  Usage (Wacom DigitizerFnKeys)      263
# 0xa1, 0x00,                    //  Collection (Physical)              265
# 0x1a, 0x10, 0x09,              //   Usage Minimum (2320)              267
# 0x2a, 0x17, 0x09,              //   Usage Maximum (2327)              270
# 0x15, 0x00,                    //   Logical Minimum (0)               273
# 0x25, 0x01,                    //   Logical Maximum (1)               275
# 0x75, 0x01,                    //   Report Size (1)                   277
# 0x95, 0x08,                    //   Report Count (8)                  279
# 0x81, 0x02,                    //   Input (Data,Var,Abs)              281
# 0x1a, 0x40, 0x09,              //   Usage Minimum (2368)              283
# 0x2a, 0x47, 0x09,              //   Usage Maximum (2375)              286
# 0x81, 0x02,                    //   Input (Data,Var,Abs)              289
# 0x0a, 0x95, 0x09,              //   Usage (Wacom Button Center)       291
# 0x95, 0x01,                    //   Report Count (1)                  294
# 0x81, 0x02,                    //   Input (Data,Var,Abs)              296
# 0x95, 0x07,                    //   Report Count (7)                  298
# 0x81, 0x03,                    //   Input (Cnst,Var,Abs)              300
# 0x0a, 0x38, 0x01,              //   Usage (Wacom TouchRing)           302
# 0x65, 0x14,                    //   Unit (EnglishRotation: deg)       305
# 0x55, 0x00,                    //   Unit Exponent (0)                 307
# 0x35, 0x00,                    //   Physical Minimum (0)              309
# 0x46, 0x67, 0x01,              //   Physical Maximum (359)            311
# 0x15, 0x00,                    //   Logical Minimum (0)               314
# 0x25, 0x47,                    //   Logical Maximum (71)              316
# 0x75, 0x07,                    //   Report Size (7)                   318
# 0x95, 0x01,                    //   Report Count (1)                  320
# 0x81, 0x0a,                    //   Input (Data,Var,Abs,Wrap)         322
# 0x0a, 0x39, 0x01,              //   Usage (Wacom TouchRingStatus)     324
# 0x65, 0x00,                    //   Unit (None)                       327
# 0x55, 0x00,                    //   Unit Exponent (0)                 329
# 0x25, 0x01,                    //   Logical Maximum (1)               331
# 0x75, 0x01,                    //   Report Size (1)                   333
# 0x95, 0x01,                    //   Report Count (1)                  335
# 0x81, 0x02,                    //   Input (Data,Var,Abs)              337
# 0x75, 0x08,                    //   Report Size (8)                   339
# 0x95, 0x04,                    //   Report Count (4)                  341
# 0x81, 0x03,                    //   Input (Cnst,Var,Abs)              343
# 0xc0,                          //  End Collection                     345
# 0x85, 0x13,                    //  Report ID (19)                     346
# 0x0a, 0x13, 0x10,              //  Usage (Wacom Digitizer Info)       348
# 0xa1, 0x00,                    //  Collection (Physical)              351
# 0x0a, 0x3b, 0x04,              //   Usage (Wacom Battery Level)       353
# 0x15, 0x00,                    //   Logical Minimum (0)               356
# 0x25, 0x64,                    //   Logical Maximum (100)             358
# 0x75, 0x07,                    //   Report Size (7)                   360
# 0x95, 0x01,                    //   Report Count (1)                  362
# 0x81, 0x02,                    //   Input (Data,Var,Abs)              364
# 0x0a, 0x04, 0x04,              //   Usage (Wacom Battery Charging)    366
# 0x25, 0x01,                    //   Logical Maximum (1)               369
# 0x75, 0x01,                    //   Report Size (1)                   371
# 0x81, 0x02,                    //   Input (Data,Var,Abs)              373
# 0x0a, 0x52, 0x04,              //   Usage (Vendor Usage 0x452)        375
# 0x15, 0x00,                    //   Logical Minimum (0)               378
# 0x25, 0x01,                    //   Logical Maximum (1)               380
# 0x75, 0x01,                    //   Report Size (1)                   382
# 0x95, 0x01,                    //   Report Count (1)                  384
# 0x81, 0x02,                    //   Input (Data,Var,Abs)              386
# 0x95, 0x06,                    //   Report Count (6)                  388
# 0x81, 0x03,                    //   Input (Cnst,Var,Abs)              390
# 0x0a, 0x54, 0x04,              //   Usage (Wacom TouchOnOff)          392
# 0x95, 0x01,                    //   Report Count (1)                  395
# 0x81, 0x02,                    //   Input (Data,Var,Abs)              397
# 0x75, 0x08,                    //   Report Size (8)                   399
# 0x95, 0x06,                    //   Report Count (6)                  401
# 0x81, 0x03,                    //   Input (Cnst,Var,Abs)              403
# 0xc0,                          //  End Collection                     405
# 0x09, 0x0e,                    //  Usage (Device Configuration)       406
# 0xa1, 0x02,                    //  Collection (Logical)               408
# 0x15, 0x00,                    //   Logical Minimum (0)               410
# 0x85, 0x02,                    //   Report ID (2)                     412
# 0x09, 0x01,                    //   Usage (Wacom Digitizer)           414
# 0x75, 0x08,                    //   Report Size (8)                   416
# 0x25, 0x01,                    //   Logical Maximum (1)               418
# 0x95, 0x01,                    //   Report Count (1)                  420
# 0xb1, 0x02,                    //   Feature (Data,Var,Abs)            422
# 0x85, 0x03,                    //   Report ID (3)                     424
# 0x0a, 0x03, 0x10,              //   Usage (Vendor Usage 0x1003)       426
# 0x26, 0xff, 0x00,              //   Logical Maximum (255)             429
# 0x95, 0x01,                    //   Report Count (1)                  432
# 0xb1, 0x02,                    //   Feature (Data,Var,Abs)            434
# 0x85, 0x04,                    //   Report ID (4)                     436
# 0x0a, 0x04, 0x10,              //   Usage (Vendor Usage 0x1004)       438
# 0x25, 0x01,                    //   Logical Maximum (1)               441
# 0x95, 0x01,                    //   Report Count (1)                  443
# 0xb1, 0x02,                    //   Feature (Data,Var,Abs)            445
# 0x85, 0x07,                    //   Report ID (7)                     447
# 0x0a, 0x09, 0x10,              //   Usage (Vendor Usage 0x1009)       449
# 0x25, 0x02,                    //   Logical Maximum (2)               452
# 0x95, 0x01,                    //   Report Count (1)                  454
# 0xb1, 0x02,                    //   Feature (Data,Var,Abs)            456
# 0x95, 0x01,                    //   Report Count (1)                  458
# 0xb1, 0x03,                    //   Feature (Cnst,Var,Abs)            460
# 0x0a, 0x07, 0x10,              //   Usage (Vendor Usage 0x1007)       462
# 0x09, 0x00,                    //   Usage (Vendor Usage 0x00)         465
# 0x0a, 0x08, 0x10,              //   Usage (Vendor Usage 0x1008)       467
# 0x09, 0x00,                    //   Usage (Vendor Usage 0x00)         470
# 0x09, 0x00,                    //   Usage (Vendor Usage 0x00)         472
# 0x09, 0x00,                    //   Usage (Vendor Usage 0x00)         474
# 0x27, 0xff, 0xff, 0x00, 0x00,  //   Logical Maximum (65535)           476
# 0x75, 0x10,                    //   Report Size (16)                  481
# 0x95, 0x06,                    //   Report Count (6)                  483
# 0xb1, 0x02,                    //   Feature (Data,Var,Abs)            485
# 0x75, 0x08,                    //   Report Size (8)                   487
# 0x95, 0x01,                    //   Report Count (1)                  489
# 0xb1, 0x03,                    //   Feature (Cnst,Var,Abs)            491
# 0x85, 0x0c,                    //   Report ID (12)                    493
# 0x0a, 0x30, 0x0d,              //   Usage (Wacom Offset Left)         495
# 0x0a, 0x31, 0x0d,              //   Usage (Wacom Offset Top)          498
# 0x0a, 0x32, 0x0d,              //   Usage (Wacom Offset Right)        501
# 0x0a, 0x33, 0x0d,              //   Usage (Wacom Offset Bottom)       504
# 0x65, 0x11,                    //   Unit (SILinear: cm)               507
# 0x55, 0x0d,                    //   Unit Exponent (-3)                509
# 0x75, 0x10,                    //   Report Size (16)                  511
# 0x95, 0x04,                    //   Report Count (4)                  513
# 0xb1, 0x03,                    //   Feature (Cnst,Var,Abs)            515
# 0x85, 0x0d,                    //   Report ID (13)                    517
# 0x65, 0x00,                    //   Unit (None)                       519
# 0x55, 0x00,                    //   Unit Exponent (0)                 521
# 0x0a, 0x0d, 0x10,              //   Usage (Vendor Usage 0x100d)       523
# 0x15, 0x00,                    //   Logical Minimum (0)               526
# 0x25, 0x01,                    //   Logical Maximum (1)               528
# 0x75, 0x08,                    //   Report Size (8)                   530
# 0x95, 0x01,                    //   Report Count (1)                  532
# 0xb1, 0x02,                    //   Feature (Data,Var,Abs)            534
# 0x85, 0x14,                    //   Report ID (20)                    536
# 0x0a, 0x14, 0x10,              //   Usage (Vendor Usage 0x1014)       538
# 0x26, 0xff, 0x00,              //   Logical Maximum (255)             541
# 0x95, 0x0d,                    //   Report Count (13)                 544
# 0xb1, 0x02,                    //   Feature (Data,Var,Abs)            546
# 0x85, 0x31,                    //   Report ID (49)                    548
# 0x0a, 0x31, 0x10,              //   Usage (Vendor Usage 0x1031)       550
# 0x25, 0x64,                    //   Logical Maximum (100)             553
# 0x95, 0x05,                    //   Report Count (5)                  555
# 0xb1, 0x02,                    //   Feature (Data,Var,Abs)            557
# 0x85, 0x32,                    //   Report ID (50)                    559
# 0x0a, 0x31, 0x10,              //   Usage (Vendor Usage 0x1031)       561
# 0x25, 0x64,                    //   Logical Maximum (100)             564
# 0x95, 0x01,                    //   Report Count (1)                  566
# 0xb1, 0x02,                    //   Feature (Data,Var,Abs)            568
# 0x0a, 0x32, 0x10,              //   Usage (Vendor Usage 0x1032)       570
# 0x25, 0x03,                    //   Logical Maximum (3)               573
# 0xb1, 0x02,                    //   Feature (Data,Var,Abs)            575
# 0x85, 0x34,                    //   Report ID (52)                    577
# 0x0a, 0x34, 0x10,              //   Usage (Vendor Usage 0x1034)       579
# 0x25, 0x01,                    //   Logical Maximum (1)               582
# 0x95, 0x04,                    //   Report Count (4)                  584
# 0xb1, 0x02,                    //   Feature (Data,Var,Abs)            586
# 0x85, 0x35,                    //   Report ID (53)                    588
# 0x0a, 0x35, 0x10,              //   Usage (Vendor Usage 0x1035)       590
# 0x26, 0xff, 0x00,              //   Logical Maximum (255)             593
# 0x95, 0x0a,                    //   Report Count (10)                 596
# 0xb1, 0x02,                    //   Feature (Data,Var,Abs)            598
# 0x85, 0x36,                    //   Report ID (54)                    600
# 0x0a, 0x35, 0x10,              //   Usage (Vendor Usage 0x1035)       602
# 0x26, 0xff, 0x00,              //   Logical Maximum (255)             605
# 0x96, 0x01, 0x01,              //   Report Count (257)                608
# 0xb1, 0x02,                    //   Feature (Data,Var,Abs)            611
# 0x85, 0xcc,                    //   Report ID (204)                   613
# 0x0a, 0xcc, 0x10,              //   Usage (Vendor Usage 0x10cc)       615
# 0x26, 0xff, 0x00,              //   Logical Maximum (255)             618
# 0x95, 0x02,                    //   Report Count (2)                  621
# 0xb1, 0x02,                    //   Feature (Data,Var,Abs)            623
# 0xc0,                          //  End Collection                     625
# 0x0a, 0xac, 0x10,              //  Usage (Vendor Usage 0x10ac)        626
# 0xa1, 0x02,                    //  Collection (Logical)               629
# 0x15, 0x00,                    //   Logical Minimum (0)               631
# 0x26, 0xff, 0x00,              //   Logical Maximum (255)             633
# 0x75, 0x08,                    //   Report Size (8)                   636
# 0x85, 0xac,                    //   Report ID (172)                   638
# 0x09, 0x00,                    //   Usage (Vendor Usage 0x00)         640
# 0x95, 0xbf,                    //   Report Count (191)                642
# 0x81, 0x02,                    //   Input (Data,Var,Abs)              644
# 0x85, 0x33,                    //   Report ID (51)                    646
# 0x09, 0x00,                    //   Usage (Vendor Usage 0x00)         648
# 0x95, 0x12,                    //   Report Count (18)                 650
# 0xb1, 0x02,                    //   Feature (Data,Var,Abs)            652
# 0x85, 0x64,                    //   Report ID (100)                   654
# 0x09, 0x00,                    //   Usage (Vendor Usage 0x00)         656
# 0x95, 0x0c,                    //   Report Count (12)                 658
# 0xb1, 0x02,                    //   Feature (Data,Var,Abs)            660
# 0x85, 0x15,                    //   Report ID (21)                    662
# 0x09, 0x00,                    //   Usage (Vendor Usage 0x00)         664
# 0x95, 0x0e,                    //   Report Count (14)                 666
# 0xb1, 0x02,                    //   Feature (Data,Var,Abs)            668
# 0x85, 0x12,                    //   Report ID (18)                    670
# 0x09, 0x00,                    //   Usage (Vendor Usage 0x00)         672
# 0x95, 0x04,                    //   Report Count (4)                  674
# 0xb1, 0x02,                    //   Feature (Data,Var,Abs)            676
# 0x85, 0x16,                    //   Report ID (22)                    678
# 0x09, 0x00,                    //   Usage (Vendor Usage 0x00)         680
# 0x95, 0x0e,                    //   Report Count (14)                 682
# 0xb1, 0x02,                    //   Feature (Data,Var,Abs)            684
# 0x85, 0x40,                    //   Report ID (64)                    686
# 0x09, 0x00,                    //   Usage (Vendor Usage 0x00)         688
# 0x95, 0x01,                    //   Report Count (1)                  690
# 0xb1, 0x02,                    //   Feature (Data,Var,Abs)            692
# 0x85, 0x41,                    //   Report ID (65)                    694
# 0x09, 0x00,                    //   Usage (Vendor Usage 0x00)         696
# 0x95, 0x01,                    //   Report Count (1)                  698
# 0xb1, 0x02,                    //   Feature (Data,Var,Abs)            700
# 0x85, 0x42,                    //   Report ID (66)                    702
# 0x09, 0x00,                    //   Usage (Vendor Usage 0x00)         704
# 0x95, 0x04,                    //   Report Count (4)                  706
# 0xb1, 0x02,                    //   Feature (Data,Var,Abs)            708
# 0x85, 0x43,                    //   Report ID (67)                    710
# 0x09, 0x00,                    //   Usage (Vendor Usage 0x00)         712
# 0x95, 0x0d,                    //   Report Count (13)                 714
# 0xb1, 0x02,                    //   Feature (Data,Var,Abs)            716
# 0x85, 0x44,                    //   Report ID (68)                    718
# 0x09, 0x00,                    //   Usage (Vendor Usage 0x00)         720
# 0x95, 0x3f,                    //   Report Count (63)                 722
# 0xb1, 0x02,                    //   Feature (Data,Var,Abs)            724
# 0x85, 0x45,                    //   Report ID (69)                    726
# 0x09, 0x00,                    //   Usage (Vendor Usage 0x00)         728
# 0x95, 0x20,                    //   Report Count (32)                 730
# 0xb1, 0x02,                    //   Feature (Data,Var,Abs)            732
# 0x85, 0x60,                    //   Report ID (96)                    734
# 0x09, 0x00,                    //   Usage (Vendor Usage 0x00)         736
# 0x95, 0x3f,                    //   Report Count (63)                 738
# 0xb1, 0x02,                    //   Feature (Data,Var,Abs)            740
# 0x85, 0x61,                    //   Report ID (97)                    742
# 0x09, 0x00,                    //   Usage (Vendor Usage 0x00)         744
# 0x95, 0x3e,                    //   Report Count (62)                 746
# 0xb1, 0x02,                    //   Feature (Data,Var,Abs)            748
# 0x85, 0x62,                    //   Report ID (98)                    750
# 0x09, 0x00,                    //   Usage (Vendor Usage 0x00)         752
# 0x95, 0x3e,                    //   Report Count (62)                 754
# 0xb1, 0x02,                    //   Feature (Data,Var,Abs)            756
# 0xc0,                          //  End Collection                     758
# 0x85, 0xd0,                    //  Report ID (208)                    759
# 0x09, 0x01,                    //  Usage (Wacom Digitizer)            761
# 0x96, 0x08, 0x00,              //  Report Count (8)                   763
# 0xb1, 0x02,                    //  Feature (Data,Var,Abs)             766
# 0x85, 0xd1,                    //  Report ID (209)                    768
# 0x09, 0x01,                    //  Usage (Wacom Digitizer)            770
# 0x96, 0x04, 0x01,              //  Report Count (260)                 772
# 0xb1, 0x02,                    //  Feature (Data,Var,Abs)             775
# 0x85, 0xd2,                    //  Report ID (210)                    777
# 0x09, 0x01,                    //  Usage (Wacom Digitizer)            779
# 0x96, 0x04, 0x01,              //  Report Count (260)                 781
# 0xb1, 0x02,                    //  Feature (Data,Var,Abs)             784
# 0x85, 0xd3,                    //  Report ID (211)                    786
# 0x09, 0x01,                    //  Usage (Wacom Digitizer)            788
# 0x96, 0x04, 0x00,              //  Report Count (4)                   790
# 0xb1, 0x02,                    //  Feature (Data,Var,Abs)             793
# 0x85, 0xd4,                    //  Report ID (212)                    795
# 0x09, 0x01,                    //  Usage (Wacom Digitizer)            797
# 0x96, 0x04, 0x00,              //  Report Count (4)                   799
# 0xb1, 0x02,                    //  Feature (Data,Var,Abs)             802
# 0x85, 0xd5,                    //  Report ID (213)                    804
# 0x09, 0x01,                    //  Usage (Wacom Digitizer)            806
# 0x96, 0x04, 0x00,              //  Report Count (4)                   808
# 0xb1, 0x02,                    //  Feature (Data,Var,Abs)             811
# 0x85, 0xd6,                    //  Report ID (214)                    813
# 0x09, 0x01,                    //  Usage (Wacom Digitizer)            815
# 0x96, 0x04, 0x00,              //  Report Count (4)                   817
# 0xb1, 0x02,                    //  Feature (Data,Var,Abs)             820
# 0x85, 0xd7,                    //  Report ID (215)                    822
# 0x09, 0x01,                    //  Usage (Wacom Digitizer)            824
# 0x96, 0x08, 0x00,              //  Report Count (8)                   826
# 0xb1, 0x02,                    //  Feature (Data,Var,Abs)             829
# 0x85, 0xd8,                    //  Report ID (216)                    831
# 0x09, 0x01,                    //  Usage (Wacom Digitizer)            833
# 0x96, 0x0c, 0x00,              //  Report Count (12)                  835
# 0xb1, 0x02,                    //  Feature (Data,Var,Abs)             838
# 0x85, 0xd9,                    //  Report ID (217)                    840
# 0x09, 0x01,                    //  Usage (Wacom Digitizer)            842
# 0x96, 0x00, 0x0a,              //  Report Count (2560)                844
# 0xb1, 0x02,                    //  Feature (Data,Var,Abs)             847
# 0x85, 0xda,                    //  Report ID (218)                    849
# 0x09, 0x01,                    //  Usage (Wacom Digitizer)            851
# 0x96, 0x04, 0x04,              //  Report Count (1028)                853
# 0xb1, 0x02,                    //  Feature (Data,Var,Abs)             856
# 0x85, 0xdb,                    //  Report ID (219)                    858
# 0x09, 0x01,                    //  Usage (Wacom Digitizer)            860
# 0x96, 0x06, 0x00,              //  Report Count (6)                   862
# 0xb1, 0x02,                    //  Feature (Data,Var,Abs)             865
# 0x85, 0xdc,                    //  Report ID (220)                    867
# 0x09, 0x01,                    //  Usage (Wacom Digitizer)            869
# 0x96, 0x02, 0x00,              //  Report Count (2)                   871
# 0xb1, 0x02,                    //  Feature (Data,Var,Abs)             874
# 0x85, 0xdd,                    //  Report ID (221)                    876
# 0x09, 0x01,                    //  Usage (Wacom Digitizer)            878
# 0x96, 0x04, 0x00,              //  Report Count (4)                   880
# 0xb1, 0x02,                    //  Feature (Data,Var,Abs)             883
# 0x85, 0xde,                    //  Report ID (222)                    885
# 0x09, 0x01,                    //  Usage (Wacom Digitizer)            887
# 0x96, 0x04, 0x00,              //  Report Count (4)                   889
# 0xb1, 0x02,                    //  Feature (Data,Var,Abs)             892
# 0x85, 0xdf,                    //  Report ID (223)                    894
# 0x09, 0x01,                    //  Usage (Wacom Digitizer)            896
# 0x96, 0x22, 0x00,              //  Report Count (34)                  898
# 0xb1, 0x02,                    //  Feature (Data,Var,Abs)             901
# 0x85, 0xe0,                    //  Report ID (224)                    903
# 0x09, 0x01,                    //  Usage (Wacom Digitizer)            905
# 0x96, 0x01, 0x00,              //  Report Count (1)                   907
# 0xb1, 0x02,                    //  Feature (Data,Var,Abs)             910
# 0x85, 0xe1,                    //  Report ID (225)                    912
# 0x09, 0x01,                    //  Usage (Wacom Digitizer)            914
# 0x96, 0x02, 0x00,              //  Report Count (2)                   916
# 0xb1, 0x02,                    //  Feature (Data,Var,Abs)             919
# 0x85, 0xe2,                    //  Report ID (226)                    921
# 0x09, 0x01,                    //  Usage (Wacom Digitizer)            923
# 0x96, 0x02, 0x00,              //  Report Count (2)                   925
# 0xb1, 0x02,                    //  Feature (Data,Var,Abs)             928
# 0x85, 0xe3,                    //  Report ID (227)                    930
# 0x09, 0x01,                    //  Usage (Wacom Digitizer)            932
# 0x96, 0x02, 0x00,              //  Report Count (2)                   934
# 0xb1, 0x02,                    //  Feature (Data,Var,Abs)             937
# 0x85, 0xe4,                    //  Report ID (228)                    939
# 0x09, 0x01,                    //  Usage (Wacom Digitizer)            941
# 0x96, 0xff, 0x01,              //  Report Count (511)                 943
# 0xb1, 0x02,                    //  Feature (Data,Var,Abs)             946
# 0xc0,                          // End Collection                      948
# 
R: 949 05 01 09 02 a1 01 85 01 09 01 a1 00 05 09 19 01 29 03 15 00 25 01 75 01 95 03 81 02 75 01 95 05 81 03 05 01 09 30 09 31 15 81 25 7f 75 08 95 02 81 06 c0 c0 06 0d ff 09 01 a1 01 85 10 09 20 a1 00 09 42 09 44 09 5a 09 45 09 3c 09 32 09 36 15 00 25 01 75 01 95 07 81 02 95 01 81 03 0a 30 01 65 11 55 0d 35 00 47 80 57 00 00 15 00 27 00 af 00 00 75 18 95 01 81 02 0a 31 01 47 d0 39 00 00 27 a0 73 00 00 81 02 09 30 55 00 65 00 15 00 26 ff 1f 75 10 81 02 09 3d 09 3e 65 14 55 00 35 c0 45 3f 15 c0 25 3f 75 08 95 02 81 02 09 41 65 14 55 00 36 4c ff 46 b3 00 16 7c fc 26 83 03 75 10 95 01 81 0a 0a 03 0d 65 00 55 00 15 00 26 ff 07 75 10 95 01 81 02 0a 32 01 15 00 25 3f 75 08 95 01 81 02 09 5b 09 5c 17 00 00 00 80 27 ff ff ff 7f 75 20 95 02 81 02 09 77 15 00 26 ff 0f 75 10 95 01 81 02 c0 85 11 09 39 a1 00 1a 10 09 2a 17 09 15 00 25 01 75 01 95 08 81 02 1a 40 09 2a 47 09 81 02 0a 95 09 95 01 81 02 95 07 81 03 0a 38 01 65 14 55 00 35 00 46 67 01 15 00 25 47 75 07 95 01 81 0a 0a 39 01 65 00 55 00 25 01 75 01 95 01 81 02 75 08 95 04 81 03 c0 85 13 0a 13 10 a1 00 0a 3b 04 15 00 25 64 75 07 95 01 81 02 0a 04 04 25 01 75 01 81 02 0a 52 04 15 00 25 01 75 01 95 01 81 02 95 06 81 03 0a 54 04 95 01 81 02 75 08 95 06 81 03 c0 09 0e a1 02 15 00 85 02 09 01 75 08 25 01 95 01 b1 02 85 03 0a 03 10 26 ff 00 95 01 b1 02 85 04 0a 04 10 25 01 95 01 b1 02 85 07 0a 09 10 25 02 95 01 b1 02 95 01 b1 03 0a 07 10 09 00 0a 08 10 09 00 09 00 09 00 27 ff ff 00 00 75 10 95 06 b1 02 75 08 95 01 b1 03 85 0c 0a 30 0d 0a 31 0d 0a 32 0d 0a 33 0d 65 11 55 0d 75 10 95 04 b1 03 85 0d 65 00 55 00 0a 0d 10 15 00 25 01 75 08 95 01 b1 02 85 14 0a 14 10 26 ff 00 95 0d b1 02 85 31 0a 31 10 25 64 95 05 b1 02 85 32 0a 31 10 25 64 95 01 b1 02 0a 32 10 25 03 b1 02 85 34 0a 34 10 25 01 95 04 b1 02 85 35 0a 35 10 26 ff 00 95 0a b1 02 85 36 0a 35 10 26 ff 00 96 01 01 b1 02 85 cc 0a cc 10 26 ff 00 95 02 b1 02 c0 0a ac 10 a1 02 15 00 26 ff 00 75 08 85 ac 09 00 95 bf 81 02 85 33 09 00 95 12 b1 02 85 64 09 00 95 0c b1 02 85 15 09 00 95 0e b1 02 85 12 09 00 95 04 b1 02 85 16 09 00 95 0e b1 02 85 40 09 00 95 01 b1 02 85 41 09 00 95 01 b1 02 85 42 09 00 95 04 b1 02 85 43 09 00 95 0d b1 02 85 44 09 00 95 3f b1 02 85 45 09 00 95 20 b1 02 85 60 09 00 95 3f b1 02 85 61 09 00 95 3e b1 02 85 62 09 00 95 3e b1 02 c0 85 d0 09 01 96 08 00 b1 02 85 d1 09 01 96 04 01 b1 02 85 d2 09 01 96 04 01 b1 02 85 d3 09 01 96 04 00 b1 02 85 d4 09 01 96 04 00 b1 02 85 d5 09 01 96 04 00 b1 02 85 d6 09 01 96 04 00 b1 02 85 d7 09 01 96 08 00 b1 02 85 d8 09 01 96 0c 00 b1 02 85 d9 09 01 96 00 0a b1 02 85 da 09 01 96 04 04 b1 02 85 db 09 01 96 06 00 b1 02 85 dc 09 01 96 02 00 b1 02 85 dd 09 01 96 04 00 b1 02 85 de 09 01 96 04 00 b1 02 85 df 09 01 96 22 00 b1 02 85 e0 09 01 96 01 00 b1 02 85 e1 09 01 96 02 00 b1 02 85 e2 09 01 96 02 00 b1 02 85 e3 09 01 96 02 00 b1 02 85 e4 09 01 96 ff 01 b1 02 c0
N: Wacom Co.,Ltd. Wacom Intuos Pro M
I: 3 056a 0357
# ReportID: 19 / Wacom Battery Level:  100 | Wacom Battery Charging: 0 | 0xff0d0452: 0 | # | Wacom TouchOnOff: 1 | # 
E: 000000.000000 9 13 64 80 00 00 00 00 00 00
# ReportID: 16 / Tip Switch: 0 | Barrel Switch: 0 | Secondary Barrel Switch: 0 | Eraser: 0 | Invert: 0 | In Range: 0 | Wacom Sense: 1 | # | X:     23470 | Y:     10615 | Tip Pressure:      0 | X Tilt:    0 | Y Tilt:    0 | Twist:      0 | Wacom FingerWheel:      0 | Wacom Distance:   63 | Transducer Serial Number:           0 | Wacom SerialHi:           0 | Wacom ToolType:      0 
E: 000001.795960 27 10 40 ae 5b 00 77 29 00 00 00 00 00 00 00 00 00 3f 00 00 00 00 00 00 00 00 00 00
# ReportID: 16 / Tip Switch: 0 | Barrel Switch: 0 | Secondary Barrel Switch: 0 | Eraser: 0 | Invert: 1 | In Range: 1 | Wacom Sense: 1 | # | X:     23533 | Y:     10544 | Tip Pressure:      0 | X Tilt:   30 | Y Tilt:   25 | Twist:      0 | Wacom FingerWheel:      0 | Wacom Distance:   63 | Transducer Serial Number:   595605148 | Wacom SerialHi:     1116162 | Wacom ToolType:   2058 
E: 000001.807886 27 10 70 ed 5b 00 30 29 00 00 00 1e 19 00 00 00 00 3f 9c 36 80 23 02 08 11 00 0a 08
# ReportID: 16 / Tip Switch: 0 | Barrel Switch: 0 | Secondary Barrel Switch: 0 | Eraser: 0 | Invert: 1 | In Range: 1 | Wacom Sense: 1 | # | X:     23546 | Y:     10561 | Tip Pressure:      0 | X Tilt:   30 | Y Tilt:   25 | Twist:      0 | Wacom FingerWheel:      0 | Wacom Distance:   63 | Transducer Serial Number:   595605148 | Wacom SerialHi:     1116162 | Wacom ToolType:   2058 
E: 000001.810909 27 10 70 fa 5b 00 41 29 00 00 00 1e 19 00 00 00 00 3f 9c 36 80 23 02 08 11 00 0a 08
# ReportID: 16 / Tip Switch: 0 | Barrel Switch: 0 | Secondary Barrel Switch: 0 | Eraser: 0 | Invert: 1 | In Range: 1 | Wacom Sense: 1 | # | X:     23557 | Y:     10572 | Tip Pressure:      0 | X Tilt:   30 | Y Tilt:   25 | Twist:      0 | Wacom FingerWheel:      0 | Wacom Distance:   63 | Transducer Serial Number:   595605148 | Wacom SerialHi:     1116162 | Wacom ToolType:   2058 
E: 000001.816872 27 10 70 05 5c 00 4c 29 00 00 00 1e 19 00 00 00 00 3f 9c 36 80 23 02 08 11 00 0a 08
# ReportID: 16 / Tip Switch: 0 | Barrel Switch: 0 | Secondary Barrel Switch: 0 | Eraser: 0 | Invert: 1 | In Range: 1 | Wacom Sense: 1 | # | X:     23568 | Y:     10573 | Tip Pressure:      0 | X Tilt:   30 | Y Tilt:   25 | Twist:      0 | Wacom FingerWheel:      0 | Wacom Distance:   63 | Transducer Serial Number:   595605148 | Wacom SerialHi:     1116162 | Wacom ToolType:   2058 
E: 000001.822880 27 10 70 10 5c 00 4d 29 00 00 00 1e 19 00 00 00 00 3f 9c 36 80 23 02 08 11 00 0a 08
# ReportID: 16 / Tip Switch: 0 | Barrel Switch: 0 | Secondary Barrel Switch: 0 | Eraser: 0 | Invert: 1 | In Range: 1 | Wacom Sense: 1 | # | X:     23577 | Y:     10577 | Tip Pressure:      0 | X Tilt:   30 | Y Tilt:   25 | Twist:      0 | Wacom FingerWheel:      0 | Wacom Distance:   63 | Transducer Serial Number:   595605148 | Wacom SerialHi:     1116162 | Wacom ToolType:   2058 
E: 000001.825939 27 10 70 19 5c 00 51 29 00 00 00 1e 19 00 00 00 00 3f 9c 36 80 23 02 08 11 00 0a 08
# ReportID: 16 / Tip Switch: 0 | Barrel Switch: 0 | Secondary Barrel Switch: 0 | Eraser: 0 | Invert: 1 | In Range: 1 | Wacom Sense: 1 | # | X:     23587 | Y:     10581 | Tip Pressure:      0 | X Tilt:   30 | Y Tilt:   25 | Twist:      0 | Wacom FingerWheel:      0 | Wacom Distance:   63 | Transducer Serial Number:   595605148 | Wacom SerialHi:     1116162 | Wacom ToolType:   2058 
E: 000001.831869 27 10 70 23 5c 00 55 29 00 00 00 1e 19 00 00 00 00 3f 9c 36 80 23 02 08 11 00 0a 08
# ReportID: 16 / Tip Switch: 0 | Barrel Switch: 0 | Secondary Barrel Switch: 0 | Eraser: 0 | Invert: 1 | In Range: 1 | Wacom Sense: 1 | # | X:     23596 | Y:     10585 | Tip Pressure:      0 | X Tilt:   30 | Y Tilt:   25 | Twist:      0 | Wacom FingerWheel:      0 | Wacom Distance:   63 | Transducer Serial Number:   595605148 | Wacom SerialHi:     1116162 | Wacom ToolType:   2058 
E: 000001.837944 27 10 70 2c 5c 00 59 29 00 00 00 1e 19 00 00 00 00 3f 9c 36 80 23 02 08 11 00 0a 08
# ReportID: 16 / Tip Switch: 0 | Barrel Switch: 0 | Secondary Barrel Switch: 0 | Eraser: 0 | Invert: 1 | In Range: 1 | Wacom Sense: 1 | # | X:     23604 | Y:     10588 | Tip Pressure:      0 | X Tilt:   30 | Y Tilt:   25 | Twist:      0 | Wacom FingerWheel:      0 | Wacom Distance:   62 | Transducer Serial Number:   595605148 | Wacom SerialHi:     1116162 | Wacom ToolType:   2058 
E: 000001.840972 27 10 70 34 5c 00 5c 29 00 00 00 1e 19 00 00 00 00 3e 9c 36 80 23 02 08 11 00 0a 08
# ReportID: 16 / Tip Switch: 0 | Barrel Switch: 0 | Secondary Barrel Switch: 0 | Eraser: 0 | Invert: 1 | In Range: 1 | Wacom Sense: 1 | # | X:     23612 | Y:     10590 | Tip Pressure:      0 | X Tilt:   30 | Y Tilt:   25 | Twist:      0 | Wacom FingerWheel:      0 | Wacom Distance:   61 | Transducer Serial Number:   595605148 | Wacom SerialHi:     1116162 | Wacom ToolType:   2058 
E: 000001.846943 27 10 70 3c 5c 00 5e 29 00 00 00 1e 19 00 00 00 00 3d 9c 36 80 23 02 08 11 00 0a 08
# ReportID: 16 / Tip Switch: 0 | Barrel Switch: 0 | Secondary Barrel Switch: 0 | Eraser: 0 | Invert: 1 | In Range: 1 | Wacom Sense: 1 | # | X:     23619 | Y:     10591 | Tip Pressure:      0 | X Tilt:   30 | Y Tilt:   25 | Twist:      0 | Wacom FingerWheel:      0 | Wacom Distance:   59 | Transducer Serial Number:   595605148 | Wacom SerialHi:     1116162 | Wacom ToolType:   2058 
E: 000001.852952 27 10 70 43 5c 00 5f 29 00 00 00 1e 19 00 00 00 00 3b 9c 36 80 23 02 08 11 00 0a 08
# ReportID: 16 / Tip Switch: 0 | Barrel Switch: 0 | Secondary Barrel Switch: 0 | Eraser: 0 | Invert: 1 | In Range: 1 | Wacom Sense: 1 | # | X:     23626 | Y:     10590 | Tip Pressure:      0 | X Tilt:   31 | Y Tilt:   25 | Twist:      0 | Wacom FingerWheel:      0 | Wacom Distance:   58 | Transducer Serial Number:   595605148 | Wacom SerialHi:     1116162 | Wacom ToolType:   2058 
E: 000001.855977 27 10 70 4a 5c 00 5e 29 00 00 00 1f 19 00 00 00 00 3a 9c 36 80 23 02 08 11 00 0a 08
# ReportID: 16 / Tip Switch: 0 | Barrel Switch: 0 | Secondary Barrel Switch: 0 | Eraser: 0 | Invert: 1 | In Range: 1 | Wacom Sense: 1 | # | X:     23633 | Y:     10589 | Tip Pressure:      0 | X Tilt:   31 | Y Tilt:   25 | Twist:      0 | Wacom FingerWheel:      0 | Wacom Distance:   56 | Transducer Serial Number:   595605148 | Wacom SerialHi:     1116162 | Wacom ToolType:   2058 
E: 000001.861951 27 10 70 51 5c 00 5d 29 00 00 00 1f 19 00 00 00 00 38 9c 36 80 23 02 08 11 00 0a 08
# ReportID: 16 / Tip Switch: 0 | Barrel Switch: 0 | Secondary Barrel Switch: 0 | Eraser: 0 | Invert: 1 | In Range: 1 | Wacom Sense: 1 | # | X:     23640 | Y:     10588 | Tip Pressure:      0 | X Tilt:   31 | Y Tilt:   25 | Twist:      0 | Wacom FingerWheel:      0 | Wacom Distance:   54 | Transducer Serial Number:   595605148 | Wacom SerialHi:     1116162 | Wacom ToolType:   2058 
E: 000001.868087 27 10 70 58 5c 00 5c 29 00 00 00 1f 19 00 00 00 00 36 9c 36 80 23 02 08 11 00 0a 08
# ReportID: 16 / Tip Switch: 0 | Barrel Switch: 0 | Secondary Barrel Switch: 0 | Eraser: 0 | Invert: 1 | In Range: 1 | Wacom Sense: 1 | # | X:     23647 | Y:     10585 | Tip Pressure:      0 | X Tilt:   31 | Y Tilt:   25 | Twist:      0 | Wacom FingerWheel:      0 | Wacom Distance:   52 | Transducer Serial Number:   595605148 | Wacom SerialHi:     1116162 | Wacom ToolType:   2058 
E: 000001.870954 27 10 70 5f 5c 00 59 29 00 00 00 1f 19 00 00 00 00 34 9c 36 80 23 02 08 11 00 0a 08
# ReportID: 16 / Tip Switch: 0 | Barrel Switch: 0 | Secondary Barrel Switch: 0 | Eraser: 0 | Invert: 1 | In Range: 1 | Wacom Sense: 1 | # | X:     23654 | Y:     10580 | Tip Pressure:      0 | X Tilt:   31 | Y Tilt:   25 | Twist:      0 | Wacom FingerWheel:      0 | Wacom Distance:   51 | Transducer Serial Number:   595605148 | Wacom SerialHi:     1116162 | Wacom ToolType:   2058 
E: 000001.876920 27 10 70 66 5c 00 54 29 00 00 00 1f 19 00 00 00 00 33 9c 36 80 23 02 08 11 00 0a 08
# ReportID: 16 / Tip Switch: 0 | Barrel Switch: 0 | Secondary Barrel Switch: 0 | Eraser: 0 | Invert: 1 | In Range: 1 | Wacom Sense: 1 | # | X:     23661 | Y:     10573 | Tip Pressure:      0 | X Tilt:   31 | Y Tilt:   25 | Twist:      0 | Wacom FingerWheel:      0 | Wacom Distance:   50 | Transducer Serial Number:   595605148 | Wacom SerialHi:     1116162 | Wacom ToolType:   2058 
E: 000001.880068 27 10 70 6d 5c 00 4d 29 00 00 00 1f 19 00 00 00 00 32 9c 36 80 23 02 08 11 00 0a 08
# ReportID: 16 / Tip Switch: 0 | Barrel Switch: 0 | Secondary Barrel Switch: 0 | Eraser: 0 | Invert: 1 | In Range: 1 | Wacom Sense: 1 | # | X:     23676 | Y:     10567 | Tip Pressure:      0 | X Tilt:   31 | Y Tilt:   25 | Twist:      0 | Wacom FingerWheel:      0 | Wacom Distance:   48 | Transducer Serial Number:   595605148 | Wacom SerialHi:     1116162 | Wacom ToolType:   2058 
E: 000001.885932 27 10 70 7c 5c 00 47 29 00 00 00 1f 19 00 00 00 00 30 9c 36 80 23 02 08 11 00 0a 08
# ReportID: 16 / Tip Switch: 0 | Barrel Switch: 0 | Secondary Barrel Switch: 0 | Eraser: 0 | Invert: 1 | In Range: 1 | Wacom Sense: 1 | # | X:     23697 | Y:     10555 | Tip Pressure:      0 | X Tilt:   31 | Y Tilt:   25 | Twist:      0 | Wacom FingerWheel:      0 | Wacom Distance:   46 | Transducer Serial Number:   595605148 | Wacom SerialHi:     1116162 | Wacom ToolType:   2058 
E: 000001.891960 27 10 70 91 5c 00 3b 29 00 00 00 1f 19 00 00 00 00 2e 9c 36 80 23 02 08 11 00 0a 08
# ReportID: 16 / Tip Switch: 0 | Barrel Switch: 0 | Secondary Barrel Switch: 0 | Eraser: 0 | Invert: 1 | In Range: 1 | Wacom Sense: 1 | # | X:     23710 | Y:     10541 | Tip Pressure:      0 | X Tilt:   31 | Y Tilt:   25 | Twist:      0 | Wacom FingerWheel:      0 | Wacom Distance:   45 | Transducer Serial Number:   595605148 | Wacom SerialHi:     1116162 | Wacom ToolType:   2058 
E: 000001.894970 27 10 70 9e 5c 00 2d 29 00 00 00 1f 19 00 00 00 00 2d 9c 36 80 23 02 08 11 00 0a 08
# ReportID: 16 / Tip Switch: 0 | Barrel Switch: 0 | Secondary Barrel Switch: 0 | Eraser: 0 | Invert: 1 | In Range: 1 | Wacom Sense: 1 | # | X:     23728 | Y:     10519 | Tip Pressure:      0 | X Tilt:   31 | Y Tilt:   25 | Twist:      0 | Wacom FingerWheel:      0 | Wacom Distance:   43 | Transducer Serial Number:   595605148 | Wacom SerialHi:     1116162 | Wacom ToolType:   2058 
E: 000001.900934 27 10 70 b0 5c 00 17 29 00 00 00 1f 19 00 00 00 00 2b 9c 36 80 23 02 08 11 00 0a 08
# ReportID: 16 / Tip Switch: 0 | Barrel Switch: 0 | Secondary Barrel Switch: 0 | Eraser: 0 | Invert: 1 | In Range: 1 | Wacom Sense: 1 | # | X:     23739 | Y:     10496 | Tip Pressure:      0 | X Tilt:   31 | Y Tilt:   25 | Twist:      0 | Wacom FingerWheel:      0 | Wacom Distance:   42 | Transducer Serial Number:   595605148 | Wacom SerialHi:     1116162 | Wacom ToolType:   2058 
E: 000001.906977 27 10 70 bb 5c 00 00 29 00 00 00 1f 19 00 00 00 00 2a 9c 36 80 23 02 08 11 00 0a 08
# ReportID: 16 / Tip Switch: 0 | Barrel Switch: 0 | Secondary Barrel Switch: 0 | Eraser: 0 | Invert: 1 | In Range: 1 | Wacom Sense: 1 | # | X:     23749 | Y:     10470 | Tip Pressure:      0 | X Tilt:   31 | Y Tilt:   25 | Twist:      0 | Wacom FingerWheel:      0 | Wacom Distance:   41 | Transducer Serial Number:   595605148 | Wacom SerialHi:     1116162 | Wacom ToolType:   2058 
E: 000001.909921 27 10 70 c5 5c 00 e6 28 00 00 00 1f 19 00 00 00 00 29 9c 36 80 23 02 08 11 00 0a 08
# ReportID: 16 / Tip Switch: 0 | Barrel Switch: 0 | Secondary Barrel Switch: 0 | Eraser: 0 | Invert: 1 | In Range: 1 | Wacom Sense: 1 | # | X:     23757 | Y:     10441 | Tip Pressure:      0 | X Tilt:   31 | Y Tilt:   25 | Twist:      0 | Wacom FingerWheel:      0 | Wacom Distance:   40 | Transducer Serial Number:   595605148 | Wacom SerialHi:     1116162 | Wacom ToolType:   2058 
E: 000001.916079 27 10 70 cd 5c 00 c9 28 00 00 00 1f 19 00 00 00 00 28 9c 36 80 23 02 08 11 00 0a 08
# ReportID: 16 / Tip Switch: 0 | Barrel Switch: 0 | Secondary Barrel Switch: 0 | Eraser: 0 | Invert: 1 | In Range: 1 | Wacom Sense: 1 | # | X:     23770 | Y:     10396 | Tip Pressure:      0 | X Tilt:   31 | Y Tilt:   25 | Twist:      0 | Wacom FingerWheel:      0 | Wacom Distance:   39 | Transducer Serial Number:   595605148 | Wacom SerialHi:     1116162 | Wacom ToolType:   2058 
E: 000001.922051 27 10 70 da 5c 00 9c 28 00 00 00 1f 19 00 00 00 00 27 9c 36 80 23 02 08 11 00 0a 08
# ReportID: 16 / Tip Switch: 0 | Barrel Switch: 0 | Secondary Barrel Switch: 0 | Eraser: 0 | Invert: 1 | In Range: 1 | Wacom Sense: 1 | # | X:     23776 | Y:     10360 | Tip Pressure:      0 | X Tilt:   31 | Y Tilt:   25 | Twist:      0 | Wacom FingerWheel:      0 | Wacom Distance:   39 | Transducer Serial Number:   595605148 | Wacom SerialHi:     1116162 | Wacom ToolType:   2058 
E: 000001.924925 27 10 70 e0 5c 00 78 28 00 00 00 1f 19 00 00 00 00 27 9c 36 80 23 02 08 11 00 0a 08
# ReportID: 16 / Tip Switch: 0 | Barrel Switch: 0 | Secondary Barrel Switch: 0 | Eraser: 0 | Invert: 1 | In Range: 1 | Wacom Sense: 1 | # | X:     23780 | Y:     10321 | Tip Pressure:      0 | X Tilt:   31 | Y Tilt:   25 | Twist:      0 | Wacom FingerWheel:      0 | Wacom Distance:   38 | Transducer Serial Number:   595605148 | Wacom SerialHi:     1116162 | Wacom ToolType:   2058 
E: 000001.930973 27 10 70 e4 5c 00 51 28 00 00 00 1f 19 00 00 00 00 26 9c 36 80 23 02 08 11 00 0a 08
# ReportID: 16 / Tip Switch: 0 | Barrel Switch: 0 | Secondary Barrel Switch: 0 | Eraser: 0 | Invert: 1 | In Range: 1 | Wacom Sense: 1 | # | X:     23782 | Y:     10281 | Tip Pressure:      0 | X Tilt:   31 | Y Tilt:   25 | Twist:      0 | Wacom FingerWheel:      0 | Wacom Distance:   38 | Transducer Serial Number:   595605148 | Wacom SerialHi:     1116162 | Wacom ToolType:   2058 
E: 000001.936949 27 10 70 e6 5c 00 29 28 00 00 00 1f 19 00 00 00 00 26 9c 36 80 23 02 08 11 00 0a 08
# ReportID: 16 / Tip Switch: 0 | Barrel Switch: 0 | Secondary Barrel Switch: 0 | Eraser: 0 | Invert: 1 | In Range: 1 | Wacom Sense: 1 | # | X:     23781 | Y:     10239 | Tip Pressure:      0 | X Tilt:   31 | Y Tilt:   25 | Twist:      0 | Wacom FingerWheel:      0 | Wacom Distance:   37 | Transducer Serial Number:   595605148 | Wacom SerialHi:     1116162 | Wacom ToolType:   2058 
E: 000001.939936 27 10 70 e5 5c 00 ff 27 00 00 00 1f 19 00 00 00 00 25 9c 36 80 23 02 08 11 00 0a 08
# ReportID: 16 / Tip Switch: 0 | Barrel Switch: 0 | Secondary Barrel Switch: 0 | Eraser: 0 | Invert: 1 | In Range: 1 | Wacom Sense: 1 | # | X:     23779 | Y:     10197 | Tip Pressure:      0 | X Tilt:   31 | Y Tilt:   25 | Twist:      0 | Wacom FingerWheel:      0 | Wacom Distance:   37 | Transducer Serial Number:   595605148 | Wacom SerialHi:     1116162 | Wacom ToolType:   2058 
E: 000001.945884 27 10 70 e3 5c 00 d5 27 00 00 00 1f 19 00 00 00 00 25 9c 36 80 23 02 08 11 00 0a 08
# ReportID: 16 / Tip Switch: 0 | Barrel Switch: 0 | Secondary Barrel Switch: 0 | Eraser: 0 | Invert: 1 | In Range: 1 | Wacom Sense: 1 | # | X:     23776 | Y:     10153 | Tip Pressure:      0 | X Tilt:   31 | Y Tilt:   25 | Twist:      0 | Wacom FingerWheel:      0 | Wacom Distance:   36 | Transducer Serial Number:   595605148 | Wacom SerialHi:     1116162 | Wacom ToolType:   2058 
E: 000001.951971 27 10 70 e0 5c 00 a9 27 00 00 00 1f 19 00 00 00 00 24 9c 36 80 23 02 08 11 00 0a 08
# ReportID: 16 / Tip Switch: 0 | Barrel Switch: 0 | Secondary Barrel Switch: 0 | Eraser: 0 | Invert: 1 | In Range: 1 | Wacom Sense: 1 | # | X:     23769 | Y:     10087 | Tip Pressure:      0 | X Tilt:   31 | Y Tilt:   25 | Twist:      0 | Wacom FingerWheel:      0 | Wacom Distance:   35 | Transducer Serial Number:   595605148 | Wacom SerialHi:     1116162 | Wacom ToolType:   2058 
E: 000001.955075 27 10 70 d9 5c 00 67 27 00 00 00 1f 19 00 00 00 00 23 9c 36 80 23 02 08 11 00 0a 08
# ReportID: 16 / Tip Switch: 0 | Barrel Switch: 0 | Secondary Barrel Switch: 0 | Eraser: 0 | Invert: 1 | In Range: 1 | Wacom Sense: 1 | # | X:     23761 | Y:     10044 | Tip Pressure:      0 | X Tilt:   31 | Y Tilt:   25 | Twist:      0 | Wacom FingerWheel:      0 | Wacom Distance:   34 | Transducer Serial Number:   595605148 | Wacom SerialHi:     1116162 | Wacom ToolType:   2058 
E: 000001.962005 27 10 70 d1 5c 00 3c 27 00 00 00 1f 19 00 00 00 00 22 9c 36 80 23 02 08 11 00 0a 08
# ReportID: 16 / Tip Switch: 0 | Barrel Switch: 0 | Secondary Barrel Switch: 0 | Eraser: 0 | Invert: 1 | In Range: 1 | Wacom Sense: 1 | # | X:     23751 | Y:     10001 | Tip Pressure:      0 | X Tilt:   31 | Y Tilt:   25 | Twist:      0 | Wacom FingerWheel:      0 | Wacom Distance:   32 | Transducer Serial Number:   595605148 | Wacom SerialHi:     1116162 | Wacom ToolType:   2058 
E: 000001.965068 27 10 70 c7 5c 00 11 27 00 00 00 1f 19 00 00 00 00 20 9c 36 80 23 02 08 11 00 0a 08
# ReportID: 16 / Tip Switch: 0 | Barrel Switch: 0 | Secondary Barrel Switch: 0 | Eraser: 0 | Invert: 1 | In Range: 1 | Wacom Sense: 1 | # | X:     23735 | Y:      9939 | Tip Pressure:      0 | X Tilt:   31 | Y Tilt:   25 | Twist:      0 | Wacom FingerWheel:      0 | Wacom Distance:   30 | Transducer Serial Number:   595605148 | Wacom SerialHi:     1116162 | Wacom ToolType:   2058 
E: 000001.972052 27 10 70 b7 5c 00 d3 26 00 00 00 1f 19 00 00 00 00 1e 9c 36 80 23 02 08 11 00 0a 08
# ReportID: 16 / Tip Switch: 0 | Barrel Switch: 0 | Secondary Barrel Switch: 0 | Eraser: 0 | Invert: 1 | In Range: 1 | Wacom Sense: 1 | # | X:     23722 | Y:      9900 | Tip Pressure:      0 | X Tilt:   31 | Y Tilt:   25 | Twist:      0 | Wacom FingerWheel:      0 | Wacom Distance:   28 | Transducer Serial Number:   595605148 | Wacom SerialHi:     1116162 | Wacom ToolType:   2058 
E: 000001.976943 27 10 70 aa 5c 00 ac 26 00 00 00 1f 19 00 00 00 00 1c 9c 36 80 23 02 08 11 00 0a 08
# ReportID: 16 / Tip Switch: 0 | Barrel Switch: 0 | Secondary Barrel Switch: 0 | Eraser: 0 | Invert: 1 | In Range: 1 | Wacom Sense: 1 | # | X:     23700 | Y:      9844 | Tip Pressure:      0 | X Tilt:   31 | Y Tilt:   25 | Twist:      0 | Wacom FingerWheel:      0 | Wacom Distance:   27 | Transducer Serial Number:   595605148 | Wacom SerialHi:     1116162 | Wacom ToolType:   2058 
E: 000001.980089 27 10 70 94 5c 00 74 26 00 00 00 1f 19 00 00 00 00 1b 9c 36 80 23 02 08 11 00 0a 08
# ReportID: 16 / Tip Switch: 0 | Barrel Switch: 0 | Secondary Barrel Switch: 0 | Eraser: 0 | Invert: 1 | In Range: 1 | Wacom Sense: 1 | # | X:     23684 | Y:      9813 | Tip Pressure:      0 | X Tilt:   31 | Y Tilt:   25 | Twist:      0 | Wacom FingerWheel:      0 | Wacom Distance:   25 | Transducer Serial Number:   595605148 | Wacom SerialHi:     1116162 | Wacom ToolType:   2058 
E: 000001.985911 27 10 70 84 5c 00 55 26 00 00 00 1f 19 00 00 00 00 19 9c 36 80 23 02 08 11 00 0a 08
# ReportID: 16 / Tip Switch: 0 | Barrel Switch: 0 | Secondary Barrel Switch: 0 | Eraser: 0 | Invert: 1 | In Range: 1 | Wacom Sense: 1 | # | X:     23659 | Y:      9771 | Tip Pressure:      0 | X Tilt:   31 | Y Tilt:   25 | Twist:      0 | Wacom FingerWheel:      0 | Wacom Distance:   23 | Transducer Serial Number:   595605148 | Wacom SerialHi:     1116162 | Wacom ToolType:   2058 
E: 000001.992927 27 10 70 6b 5c 00 2b 26 00 00 00 1f 19 00 00 00 00 17 9c 36 80 23 02 08 11 00 0a 08
# ReportID: 16 / Tip Switch: 0 | Barrel Switch: 0 | Secondary Barrel Switch: 0 | Eraser: 0 | Invert: 1 | In Range: 1 | Wacom Sense: 1 | # | X:     23641 | Y:      9748 | Tip Pressure:      0 | X Tilt:   31 | Y Tilt:   25 | Twist:      0 | Wacom FingerWheel:      0 | Wacom Distance:   20 | Transducer Serial Number:   595605148 | Wacom SerialHi:     1116162 | Wacom ToolType:   2058 
E: 000001.994932 27 10 70 59 5c 00 14 26 00 00 00 1f 19 00 00 00 00 14 9c 36 80 23 02 08 11 00 0a 08
# ReportID: 19 / Wacom Battery Level:  100 | Wacom Battery Charging: 0 | 0xff0d0452: 0 | # | Wacom TouchOnOff: 1 | # 
E: 000001.999993 9 13 64 80 00 00 00 00 00 00
# ReportID: 16 / Tip Switch: 0 | Barrel Switch: 0 | Secondary Barrel Switch: 0 | Eraser: 0 | Invert: 1 | In Range: 1 | Wacom Sense: 1 | # | X:     23612 | Y:      9718 | Tip Pressure:      0 | X Tilt:   31 | Y Tilt:   25 | Twist:      0 | Wacom FingerWheel:      0 | Wacom Distance:   19 | Transducer Serial Number:   595605148 | Wacom SerialHi:     1116162 | Wacom ToolType:   2058 
E: 000002.002050 27 10 70 3c 5c 00 f6 25 00 00 00 1f 19 00 00 00 00 13 9c 36 80 23 02 08 11 00 0a 08
# ReportID: 16 / Tip Switch: 0 | Barrel Switch: 0 | Secondary Barrel Switch: 0 | Eraser: 0 | Invert: 1 | In Range: 1 | Wacom Sense: 1 | # | X:     23593 | Y:      9703 | Tip Pressure:      0 | X Tilt:   31 | Y Tilt:   25 | Twist:      0 | Wacom FingerWheel:      0 | Wacom Distance:   17 | Transducer Serial Number:   595605148 | Wacom SerialHi:     1116162 | Wacom ToolType:   2058 
E: 000002.006932 27 10 70 29 5c 00 e7 25 00 00 00 1f 19 00 00 00 00 11 9c 36 80 23 02 08 11 00 0a 08
# ReportID: 16 / Tip Switch: 0 | Barrel Switch: 0 | Secondary Barrel Switch: 0 | Eraser: 0 | Invert: 1 | In Range: 1 | Wacom Sense: 1 | # | X:     23567 | Y:      9681 | Tip Pressure:      0 | X Tilt:   31 | Y Tilt:   25 | Twist:      0 | Wacom FingerWheel:      0 | Wacom Distance:   15 | Transducer Serial Number:   595605148 | Wacom SerialHi:     1116162 | Wacom ToolType:   2058 
E: 000002.010062 27 10 70 0f 5c 00 d1 25 00 00 00 1f 19 00 00 00 00 0f 9c 36 80 23 02 08 11 00 0a 08
# ReportID: 16 / Tip Switch: 0 | Barrel Switch: 0 | Secondary Barrel Switch: 0 | Eraser: 0 | Invert: 1 | In Range: 1 | Wacom Sense: 1 | # | X:     23554 | Y:      9666 | Tip Pressure:      0 | X Tilt:   31 | Y Tilt:   25 | Twist:      0 | Wacom FingerWheel:      0 | Wacom Distance:   14 | Transducer Serial Number:   595605148 | Wacom SerialHi:     1116162 | Wacom ToolType:   2058 
E: 000002.016077 27 10 70 02 5c 00 c2 25 00 00 00 1f 19 00 00 00 00 0e 9c 36 80 23 02 08 11 00 0a 08
# ReportID: 16 / Tip Switch: 0 | Barrel Switch: 0 | Secondary Barrel Switch: 0 | Eraser: 0 | Invert: 1 | In Range: 1 | Wacom Sense: 1 | # | X:     23544 | Y:      9648 | Tip Pressure:      0 | X Tilt:   31 | Y Tilt:   25 | Twist:      0 | Wacom FingerWheel:      0 | Wacom Distance:   13 | Transducer Serial Number:   595605148 | Wacom SerialHi:     1116162 | Wacom ToolType:   2058 
E: 000002.023063 27 10 70 f8 5b 00 b0 25 00 00 00 1f 19 00 00 00 00 0d 9c 36 80 23 02 08 11 00 0a 08
# ReportID: 16 / Tip Switch: 0 | Barrel Switch: 0 | Secondary Barrel Switch: 0 | Eraser: 0 | Invert: 1 | In Range: 1 | Wacom Sense: 1 | # | X:     23538 | Y:      9625 | Tip Pressure:      0 | X Tilt:   31 | Y Tilt:   25 | Twist:      0 | Wacom FingerWheel:      0 | Wacom Distance:   12 | Transducer Serial Number:   595605148 | Wacom SerialHi:     1116162 | Wacom ToolType:   2058 
E: 000002.025073 27 10 70 f2 5b 00 99 25 00 00 00 1f 19 00 00 00 00 0c 9c 36 80 23 02 08 11 00 0a 08
# ReportID: 16 / Tip Switch: 0 | Barrel Switch: 0 | Secondary Barrel Switch: 0 | Eraser: 0 | Invert: 1 | In Range: 1 | Wacom Sense: 1 | # | X:     23533 | Y:      9589 | Tip Pressure:      0 | X Tilt:   31 | Y Tilt:   25 | Twist:      0 | Wacom FingerWheel:      0 | Wacom Distance:   11 | Transducer Serial Number:   595605148 | Wacom SerialHi:     1116162 | Wacom ToolType:   2058 
E: 000002.031960 27 10 70 ed 5b 00 75 25 00 00 00 1f 19 00 00 00 00 0b 9c 36 80 23 02 08 11 00 0a 08
# ReportID: 16 / Tip Switch: 0 | Barrel Switch: 0 | Secondary Barrel Switch: 0 | Eraser: 0 | Invert: 1 | In Range: 1 | Wacom Sense: 1 | # | X:     23532 | Y:      9559 | Tip Pressure:      0 | X Tilt:   31 | Y Tilt:   25 | Twist:      0 | Wacom FingerWheel:      0 | Wacom Distance:   10 | Transducer Serial Number:   595605148 | Wacom SerialHi:     1116162 | Wacom ToolType:   2058 
E: 000002.036941 27 10 70 ec 5b 00 57 25 00 00 00 1f 19 00 00 00 00 0a 9c 36 80 23 02 08 11 00 0a 08
# ReportID: 16 / Tip Switch: 0 | Barrel Switch: 0 | Secondary Barrel Switch: 0 | Eraser: 0 | Invert: 1 | In Range: 1 | Wacom Sense: 1 | # | X:     23531 | Y:      9527 | Tip Pressure:      0 | X Tilt:   31 | Y Tilt:   25 | Twist:      0 | Wacom FingerWheel:      0 | Wacom Distance:   10 | Transducer Serial Number:   595605148 | Wacom SerialHi:     1116162 | Wacom ToolType:   2058 
E: 000002.040075 27 10 70 eb 5b 00 37 25 00 00 00 1f 19 00 00 00 00 0a 9c 36 80 23 02 08 11 00 0a 08
# ReportID: 16 / Tip Switch: 0 | Barrel Switch: 0 | Secondary Barrel Switch: 0 | Eraser: 0 | Invert: 1 | In Range: 1 | Wacom Sense: 1 | # | X:     23530 | Y:      9495 | Tip Pressure:      0 | X Tilt:   31 | Y Tilt:   25 | Twist:      0 | Wacom FingerWheel:      0 | Wacom Distance:    9 | Transducer Serial Number:   595605148 | Wacom SerialHi:     1116162 | Wacom ToolType:   2058 
E: 000002.046065 27 10 70 ea 5b 00 17 25 00 00 00 1f 19 00 00 00 00 09 9c 36 80 23 02 08 11 00 0a 08
# ReportID: 16 / Tip Switch: 0 | Barrel Switch: 0 | Secondary Barrel Switch: 0 | Eraser: 0 | Invert: 1 | In Range: 1 | Wacom Sense: 1 | # | X:     23528 | Y:      9464 | Tip Pressure:      0 | X Tilt:   31 | Y Tilt:   25 | Twist:      0 | Wacom FingerWheel:      0 | Wacom Distance:    8 | Transducer Serial Number:   595605148 | Wacom SerialHi:     1116162 | Wacom ToolType:   2058 
E: 000002.052934 27 10 70 e8 5b 00 f8 24 00 00 00 1f 19 00 00 00 00 08 9c 36 80 23 02 08 11 00 0a 08
# ReportID: 16 / Tip Switch: 0 | Barrel Switch: 0 | Secondary Barrel Switch: 0 | Eraser: 0 | Invert: 1 | In Range: 1 | Wacom Sense: 1 | # | X:     23525 | Y:      9421 | Tip Pressure:      0 | X Tilt:   31 | Y Tilt:   25 | Twist:      0 | Wacom FingerWheel:      0 | Wacom Distance:    6 | Transducer Serial Number:   595605148 | Wacom SerialHi:     1116162 | Wacom ToolType:   2058 
E: 000002.054909 27 10 70 e5 5b 00 cd 24 00 00 00 1f 19 00 00 00 00 06 9c 36 80 23 02 08 11 00 0a 08
# ReportID: 16 / Tip Switch: 0 | Barrel Switch: 0 | Secondary Barrel Switch: 0 | Eraser: 0 | Invert: 1 | In Range: 1 | Wacom Sense: 1 | # | X:     23520 | Y:      9397 | Tip Pressure:      0 | X Tilt:   31 | Y Tilt:   24 | Twist:      0 | Wacom FingerWheel:      0 | Wacom Distance:    5 | Transducer Serial Number:   595605148 | Wacom SerialHi:     1116162 | Wacom ToolType:   2058 
E: 000002.062066 27 10 70 e0 5b 00 b5 24 00 00 00 1f 18 00 00 00 00 05 9c 36 80 23 02 08 11 00 0a 08
# ReportID: 16 / Tip Switch: 0 | Barrel Switch: 0 | Secondary Barrel Switch: 0 | Eraser: 0 | Invert: 1 | In Range: 1 | Wacom Sense: 1 | # | X:     23509 | Y:      9364 | Tip Pressure:      0 | X Tilt:   30 | Y Tilt:   24 | Twist:      0 | Wacom FingerWheel:      0 | Wacom Distance:    3 | Transducer Serial Number:   595605148 | Wacom SerialHi:     1116162 | Wacom ToolType:   2058 
E: 000002.063940 27 10 70 d5 5b 00 94 24 00 00 00 1e 18 00 00 00 00 03 9c 36 80 23 02 08 11 00 0a 08
# ReportID: 16 / Tip Switch: 0 | Barrel Switch: 0 | Secondary Barrel Switch: 0 | Eraser: 0 | Invert: 1 | In Range: 1 | Wacom Sense: 1 | # | X:     23497 | Y:      9344 | Tip Pressure:      0 | X Tilt:   30 | Y Tilt:   24 | Twist:      0 | Wacom FingerWheel:      0 | Wacom Distance:    2 | Transducer Serial Number:   595605148 | Wacom SerialHi:     1116162 | Wacom ToolType:   2058 
E: 000002.069955 27 10 70 c9 5b 00 80 24 00 00 00 1e 18 00 00 00 00 02 9c 36 80 23 02 08 11 00 0a 08
# ReportID: 16 / Tip Switch: 0 | Barrel Switch: 0 | Secondary Barrel Switch: 0 | Eraser: 0 | Invert: 1 | In Range: 1 | Wacom Sense: 1 | # | X:     23476 | Y:      9325 | Tip Pressure:      0 | X Tilt:   30 | Y Tilt:   24 | Twist:      0 | Wacom FingerWheel:      0 | Wacom Distance:    1 | Transducer Serial Number:   595605148 | Wacom SerialHi:     1116162 | Wacom ToolType:   2058 
E: 000002.075950 27 10 70 b4 5b 00 6d 24 00 00 00 1e 18 00 00 00 00 01 9c 36 80 23 02 08 11 00 0a 08
# ReportID: 16 / Tip Switch: 0 | Barrel Switch: 0 | Secondary Barrel Switch: 0 | Eraser: 0 | Invert: 1 | In Range: 1 | Wacom Sense: 1 | # | X:     23407 | Y:      9291 | Tip Pressure:      0 | X Tilt:   30 | Y Tilt:   24 | Twist:      0 | Wacom FingerWheel:      0 | Wacom Distance:    0 | Transducer Serial Number:   595605148 | Wacom SerialHi:     1116162 | Wacom ToolType:   2058 
E: 000002.079078 27 10 70 6f 5b 00 4b 24 00 00 00 1e 18 00 00 00 00 00 9c 36 80 23 02 08 11 00 0a 08
# ReportID: 16 / Tip Switch: 0 | Barrel Switch: 0 | Secondary Barrel Switch: 0 | Eraser: 1 | Invert: 1 | In Range: 1 | Wacom Sense: 1 | # | X:     23389 | Y:      9280 | Tip Pressure:    284 | X Tilt:   30 | Y Tilt:   24 | Twist:      0 | Wacom FingerWheel:      0 | Wacom Distance:    0 | Transducer Serial Number:   595605148 | Wacom SerialHi:     1116162 | Wacom ToolType:   2058 
E: 000002.085071 27 10 78 5d 5b 00 40 24 00 1c 01 1e 18 00 00 00 00 00 9c 36 80 23 02 08 11 00 0a 08
# ReportID: 16 / Tip Switch: 0 | Barrel Switch: 0 | Secondary Barrel Switch: 0 | Eraser: 1 | Invert: 1 | In Range: 1 | Wacom Sense: 1 | # | X:     23372 | Y:      9270 | Tip Pressure:   2117 | X Tilt:   30 | Y Tilt:   24 | Twist:      0 | Wacom FingerWheel:      0 | Wacom Distance:    0 | Transducer Serial Number:   595605148 | Wacom SerialHi:     1116162 | Wacom ToolType:   2058 
E: 000002.091924 27 10 78 4c 5b 00 36 24 00 45 08 1e 18 00 00 00 00 00 9c 36 80 23 02 08 11 00 0a 08
# ReportID: 16 / Tip Switch: 0 | Barrel Switch: 0 | Secondary Barrel Switch: 0 | Eraser: 1 | Invert: 1 | In Range: 1 | Wacom Sense: 1 | # | X:     23359 | Y:      9263 | Tip Pressure:   2237 | X Tilt:   30 | Y Tilt:   24 | Twist:      0 | Wacom FingerWheel:      0 | Wacom Distance:    0 | Transducer Serial Number:   595605148 | Wacom SerialHi:     1116162 | Wacom ToolType:   2058 
E: 000002.093936 27 10 78 3f 5b 00 2f 24 00 bd 08 1e 18 00 00 00 00 00 9c 36 80 23 02 08 11 00 0a 08
# ReportID: 16 / Tip Switch: 0 | Barrel Switch: 0 | Secondary Barrel Switch: 0 | Eraser: 1 | Invert: 1 | In Range: 1 | Wacom Sense: 1 | # | X:     23332 | Y:      9247 | Tip Pressure:   2561 | X Tilt:   30 | Y Tilt:   24 | Twist:      0 | Wacom FingerWheel:      0 | Wacom Distance:    0 | Transducer Serial Number:   595605148 | Wacom SerialHi:     1116162 | Wacom ToolType:   2058 
E: 000002.099913 27 10 78 24 5b 00 1f 24 00 01 0a 1e 18 00 00 00 00 00 9c 36 80 23 02 08 11 00 0a 08
# ReportID: 16 / Tip Switch: 0 | Barrel Switch: 0 | Secondary Barrel Switch: 0 | Eraser: 1 | Invert: 1 | In Range: 1 | Wacom Sense: 1 | # | X:     23308 | Y:      9232 | Tip Pressure:   2877 | X Tilt:   30 | Y Tilt:   24 | Twist:      0 | Wacom FingerWheel:      0 | Wacom Distance:    0 | Transducer Serial Number:   595605148 | Wacom SerialHi:     1116162 | Wacom ToolType:   2058 
E: 000002.105775 27 10 78 0c 5b 00 10 24 00 3d 0b 1e 18 00 00 00 00 00 9c 36 80 23 02 08 11 00 0a 08
# ReportID: 16 / Tip Switch: 0 | Barrel Switch: 0 | Secondary Barrel Switch: 0 | Eraser: 1 | Invert: 1 | In Range: 1 | Wacom Sense: 1 | # | X:     23287 | Y:      9219 | Tip Pressure:   2993 | X Tilt:   30 | Y Tilt:   24 | Twist:      0 | Wacom FingerWheel:      0 | Wacom Distance:    0 | Transducer Serial Number:   595605148 | Wacom SerialHi:     1116162 | Wacom ToolType:   2058 
E: 000002.109013 27 10 78 f7 5a 00 03 24 00 b1 0b 1e 18 00 00 00 00 00 9c 36 80 23 02 08 11 00 0a 08
# ReportID: 16 / Tip Switch: 0 | Barrel Switch: 0 | Secondary Barrel Switch: 0 | Eraser: 1 | Invert: 1 | In Range: 1 | Wacom Sense: 1 | # | X:     23265 | Y:      9201 | Tip Pressure:   3177 | X Tilt:   30 | Y Tilt:   24 | Twist:      0 | Wacom FingerWheel:      0 | Wacom Distance:    0 | Transducer Serial Number:   595605148 | Wacom SerialHi:     1116162 | Wacom ToolType:   2058 
E: 000002.114858 27 10 78 e1 5a 00 f1 23 00 69 0c 1e 18 00 00 00 00 00 9c 36 80 23 02 08 11 00 0a 08
# ReportID: 16 / Tip Switch: 0 | Barrel Switch: 0 | Secondary Barrel Switch: 0 | Eraser: 1 | Invert: 1 | In Range: 1 | Wacom Sense: 1 | # | X:     23241 | Y:      9182 | Tip Pressure:   3329 | X Tilt:   30 | Y Tilt:   24 | Twist:      0 | Wacom FingerWheel:      0 | Wacom Distance:    0 | Transducer Serial Number:   595605148 | Wacom SerialHi:     1116162 | Wacom ToolType:   2058 
E: 000002.122011 27 10 78 c9 5a 00 de 23 00 01 0d 1e 18 00 00 00 00 00 9c 36 80 23 02 08 11 00 0a 08
# ReportID: 16 / Tip Switch: 0 | Barrel Switch: 0 | Secondary Barrel Switch: 0 | Eraser: 1 | Invert: 1 | In Range: 1 | Wacom Sense: 1 | # | X:     23217 | Y:      9162 | Tip Pressure:   3437 | X Tilt:   30 | Y Tilt:   24 | Twist:      0 | Wacom FingerWheel:      0 | Wacom Distance:    0 | Transducer Serial Number:   595605148 | Wacom SerialHi:     1116162 | Wacom ToolType:   2058 
E: 000002.123991 27 10 78 b1 5a 00 ca 23 00 6d 0d 1e 18 00 00 00 00 00 9c 36 80 23 02 08 11 00 0a 08
# ReportID: 16 / Tip Switch: 0 | Barrel Switch: 0 | Secondary Barrel Switch: 0 | Eraser: 1 | Invert: 1 | In Range: 1 | Wacom Sense: 1 | # | X:     23189 | Y:      9140 | Tip Pressure:   3541 | X Tilt:   30 | Y Tilt:   24 | Twist:      0 | Wacom FingerWheel:      0 | Wacom Distance:    1 | Transducer Serial Number:   595605148 | Wacom SerialHi:     1116162 | Wacom ToolType:   2058 
E: 000002.129932 27 10 78 95 5a 00 b4 23 00 d5 0d 1e 18 00 00 00 00 01 9c 36 80 23 02 08 11 00 0a 08
# ReportID: 16 / Tip Switch: 0 | Barrel Switch: 0 | Secondary Barrel Switch: 0 | Eraser: 1 | Invert: 1 | In Range: 1 | Wacom Sense: 1 | # | X:     23160 | Y:      9120 | Tip Pressure:   3721 | X Tilt:   30 | Y Tilt:   24 | Twist:      0 | Wacom FingerWheel:      0 | Wacom Distance:    1 | Transducer Serial Number:   595605148 | Wacom SerialHi:     1116162 | Wacom ToolType:   2058 
E: 000002.135913 27 10 78 78 5a 00 a0 23 00 89 0e 1e 18 00 00 00 00 01 9c 36 80 23 02 08 11 00 0a 08
# ReportID: 16 / Tip Switch: 0 | Barrel Switch: 0 | Secondary Barrel Switch: 0 | Eraser: 1 | Invert: 1 | In Range: 1 | Wacom Sense: 1 | # | X:     23130 | Y:      9099 | Tip Pressure:   3833 | X Tilt:   30 | Y Tilt:   24 | Twist:      0 | Wacom FingerWheel:      0 | Wacom Distance:    1 | Transducer Serial Number:   595605148 | Wacom SerialHi:     1116162 | Wacom ToolType:   2058 
E: 000002.138865 27 10 78 5a 5a 00 8b 23 00 f9 0e 1e 18 00 00 00 00 01 9c 36 80 23 02 08 11 00 0a 08
# ReportID: 16 / Tip Switch: 0 | Barrel Switch: 0 | Secondary Barrel Switch: 0 | Eraser: 1 | Invert: 1 | In Range: 1 | Wacom Sense: 1 | # | X:     23098 | Y:      9081 | Tip Pressure:   3949 | X Tilt:   30 | Y Tilt:   24 | Twist:      0 | Wacom FingerWheel:      0 | Wacom Distance:    1 | Transducer Serial Number:   595605148 | Wacom SerialHi:     1116162 | Wacom ToolType:   2058 
E: 000002.144834 27 10 78 3a 5a 00 79 23 00 6d 0f 1e 18 00 00 00 00 01 9c 36 80 23 02 08 11 00 0a 08
# ReportID: 16 / Tip Switch: 0 | Barrel Switch: 0 | Secondary Barrel Switch: 0 | Eraser: 1 | Invert: 1 | In Range: 1 | Wacom Sense: 1 | # | X:     23064 | Y:      9065 | Tip Pressure:   4069 | X Tilt:   30 | Y Tilt:   24 | Twist:      0 | Wacom FingerWheel:      0 | Wacom Distance:    2 | Transducer Serial Number:   595605148 | Wacom SerialHi:     1116162 | Wacom ToolType:   2058 
E: 000002.151991 27 10 78 18 5a 00 69 23 00 e5 0f 1e 18 00 00 00 00 02 9c 36 80 23 02 08 11 00 0a 08
# ReportID: 16 / Tip Switch: 0 | Barrel Switch: 0 | Secondary Barrel Switch: 0 | Eraser: 1 | Invert: 1 | In Range: 1 | Wacom Sense: 1 | # | X:     23027 | Y:      9050 | Tip Pressure:   4178 | X Tilt:   30 | Y Tilt:   24 | Twist:      0 | Wacom FingerWheel:      0 | Wacom Distance:    4 | Transducer Serial Number:   595605148 | Wacom SerialHi:     1116162 | Wacom ToolType:   2058 
E: 000002.153987 27 10 78 f3 59 00 5a 23 00 52 10 1e 18 00 00 00 00 04 9c 36 80 23 02 08 11 00 0a 08
# ReportID: 16 / Tip Switch: 0 | Barrel Switch: 0 | Secondary Barrel Switch: 0 | Eraser: 1 | Invert: 1 | In Range: 1 | Wacom Sense: 1 | # | X:     22988 | Y:      9036 | Tip Pressure:   4290 | X Tilt:   30 | Y Tilt:   24 | Twist:      0 | Wacom FingerWheel:      0 | Wacom Distance:    2 | Transducer Serial Number:   595605148 | Wacom SerialHi:     1116162 | Wacom ToolType:   2058 
E: 000002.159851 27 10 78 cc 59 00 4c 23 00 c2 10 1e 18 00 00 00 00 02 9c 36 80 23 02 08 11 00 0a 08
# ReportID: 16 / Tip Switch: 0 | Barrel Switch: 0 | Secondary Barrel Switch: 0 | Eraser: 1 | Invert: 1 | In Range: 1 | Wacom Sense: 1 | # | X:     22946 | Y:      9023 | Tip Pressure:   4378 | X Tilt:   30 | Y Tilt:   24 | Twist:      0 | Wacom FingerWheel:      0 | Wacom Distance:    1 | Transducer Serial Number:   595605148 | Wacom SerialHi:     1116162 | Wacom ToolType:   2058 
E: 000002.165869 27 10 78 a2 59 00 3f 23 00 1a 11 1e 18 00 00 00 00 01 9c 36 80 23 02 08 11 00 0a 08
# ReportID: 16 / Tip Switch: 0 | Barrel Switch: 0 | Secondary Barrel Switch: 0 | Eraser: 1 | Invert: 1 | In Range: 1 | Wacom Sense: 1 | # | X:     22903 | Y:      9011 | Tip Pressure:   4446 | X Tilt:   30 | Y Tilt:   24 | Twist:      0 | Wacom FingerWheel:      0 | Wacom Distance:    1 | Transducer Serial Number:   595605148 | Wacom SerialHi:     1116162 | Wacom ToolType:   2058 
E: 000002.168823 27 10 78 77 59 00 33 23 00 5e 11 1e 18 00 00 00 00 01 9c 36 80 23 02 08 11 00 0a 08
# ReportID: 16 / Tip Switch: 0 | Barrel Switch: 0 | Secondary Barrel Switch: 0 | Eraser: 1 | Invert: 1 | In Range: 1 | Wacom Sense: 1 | # | X:     22857 | Y:      9001 | Tip Pressure:   4530 | X Tilt:   30 | Y Tilt:   24 | Twist:      0 | Wacom FingerWheel:      0 | Wacom Distance:    0 | Transducer Serial Number:   595605148 | Wacom SerialHi:     1116162 | Wacom ToolType:   2058 
E: 000002.174895 27 10 78 49 59 00 29 23 00 b2 11 1e 18 00 00 00 00 00 9c 36 80 23 02 08 11 00 0a 08
# ReportID: 16 / Tip Switch: 0 | Barrel Switch: 0 | Secondary Barrel Switch: 0 | Eraser: 1 | Invert: 1 | In Range: 1 | Wacom Sense: 1 | # | X:     22809 | Y:      8992 | Tip Pressure:   4590 | X Tilt:   30 | Y Tilt:   24 | Twist:      0 | Wacom FingerWheel:      0 | Wacom Distance:    0 | Transducer Serial Number:   595605148 | Wacom SerialHi:     1116162 | Wacom ToolType:   2058 
E: 000002.181952 27 10 78 19 59 00 20 23 00 ee 11 1e 18 00 00 00 00 00 9c 36 80 23 02 08 11 00 0a 08
# ReportID: 16 / Tip Switch: 0 | Barrel Switch: 0 | Secondary Barrel Switch: 0 | Eraser: 1 | Invert: 1 | In Range: 1 | Wacom Sense: 1 | # | X:     22758 | Y:      8985 | Tip Pressure:   4634 | X Tilt:   30 | Y Tilt:   24 | Twist:      0 | Wacom FingerWheel:      0 | Wacom Distance:    0 | Transducer Serial Number:   595605148 | Wacom SerialHi:     1116162 | Wacom ToolType:   2058 
E: 000002.183867 27 10 78 e6 58 00 19 23 00 1a 12 1e 18 00 00 00 00 00 9c 36 80 23 02 08 11 00 0a 08
# ReportID: 16 / Tip Switch: 0 | Barrel Switch: 0 | Secondary Barrel Switch: 0 | Eraser: 1 | Invert: 1 | In Range: 1 | Wacom Sense: 1 | # | X:     22706 | Y:      8979 | Tip Pressure:   4654 | X Tilt:   30 | Y Tilt:   24 | Twist:      0 | Wacom FingerWheel:      0 | Wacom Distance:    0 | Transducer Serial Number:   595605148 | Wacom SerialHi:     1116162 | Wacom ToolType:   2058 
E: 000002.189947 27 10 78 b2 58 00 13 23 00 2e 12 1e 18 00 00 00 00 00 9c 36 80 23 02 08 11 00 0a 08
# ReportID: 16 / Tip Switch: 0 | Barrel Switch: 0 | Secondary Barrel Switch: 0 | Eraser: 1 | Invert: 1 | In Range: 1 | Wacom Sense: 1 | # | X:     22655 | Y:      8972 | Tip Pressure:   4670 | X Tilt:   30 | Y Tilt:   24 | Twist:      0 | Wacom FingerWheel:      0 | Wacom Distance:    0 | Transducer Serial Number:   595605148 | Wacom SerialHi:     1116162 | Wacom ToolType:   2058 
E: 000002.195941 27 10 78 7f 58 00 0c 23 00 3e 12 1e 18 00 00 00 00 00 9c 36 80 23 02 08 11 00 0a 08
# ReportID: 16 / Tip Switch: 0 | Barrel Switch: 0 | Secondary Barrel Switch: 0 | Eraser: 1 | Invert: 1 | In Range: 1 | Wacom Sense: 1 | # | X:     22603 | Y:      8967 | Tip Pressure:   4694 | X Tilt:   30 | Y Tilt:   24 | Twist:      0 | Wacom FingerWheel:      0 | Wacom Distance:    0 | Transducer Serial Number:   595605148 | Wacom SerialHi:     1116162 | Wacom ToolType:   2058 
E: 000002.198942 27 10 78 4b 58 00 07 23 00 56 12 1e 18 00 00 00 00 00 9c 36 80 23 02 08 11 00 0a 08
# ReportID: 16 / Tip Switch: 0 | Barrel Switch: 0 | Secondary Barrel Switch: 0 | Eraser: 1 | Invert: 1 | In Range: 1 | Wacom Sense: 1 | # | X:     22551 | Y:      8963 | Tip Pressure:   4730 | X Tilt:   30 | Y Tilt:   24 | Twist:      0 | Wacom FingerWheel:      0 | Wacom Distance:    0 | Transducer Serial Number:   595605148 | Wacom SerialHi:     1116162 | Wacom ToolType:   2058 
E: 000002.204938 27 10 78 17 58 00 03 23 00 7a 12 1e 18 00 00 00 00 00 9c 36 80 23 02 08 11 00 0a 08
# ReportID: 16 / Tip Switch: 0 | Barrel Switch: 0 | Secondary Barrel Switch: 0 | Eraser: 1 | Invert: 1 | In Range: 1 | Wacom Sense: 1 | # | X:     22500 | Y:      8961 | Tip Pressure:   4754 | X Tilt:   30 | Y Tilt:   24 | Twist:      0 | Wacom FingerWheel:      0 | Wacom Distance:    0 | Transducer Serial Number:   595605148 | Wacom SerialHi:     1116162 | Wacom ToolType:   2058 
E: 000002.211921 27 10 78 e4 57 00 01 23 00 92 12 1e 18 00 00 00 00 00 9c 36 80 23 02 08 11 00 0a 08
# ReportID: 16 / Tip Switch: 0 | Barrel Switch: 0 | Secondary Barrel Switch: 0 | Eraser: 1 | Invert: 1 | In Range: 1 | Wacom Sense: 1 | # | X:     22447 | Y:      8959 | Tip Pressure:   4774 | X Tilt:   30 | Y Tilt:   24 | Twist:      0 | Wacom FingerWheel:      0 | Wacom Distance:    0 | Transducer Serial Number:   595605148 | Wacom SerialHi:     1116162 | Wacom ToolType:   2058 
E: 000002.213941 27 10 78 af 57 00 ff 22 00 a6 12 1e 18 00 00 00 00 00 9c 36 80 23 02 08 11 00 0a 08
# ReportID: 16 / Tip Switch: 0 | Barrel Switch: 0 | Secondary Barrel Switch: 0 | Eraser: 1 | Invert: 1 | In Range: 1 | Wacom Sense: 1 | # | X:     22393 | Y:      8956 | Tip Pressure:   4798 | X Tilt:   30 | Y Tilt:   24 | Twist:      0 | Wacom FingerWheel:      0 | Wacom Distance:    0 | Transducer Serial Number:   595605148 | Wacom SerialHi:     1116162 | Wacom ToolType:   2058 
E: 000002.219935 27 10 78 79 57 00 fc 22 00 be 12 1e 18 00 00 00 00 00 9c 36 80 23 02 08 11 00 0a 08
# ReportID: 16 / Tip Switch: 0 | Barrel Switch: 0 | Secondary Barrel Switch: 0 | Eraser: 1 | Invert: 1 | In Range: 1 | Wacom Sense: 1 | # | X:     22337 | Y:      8956 | Tip Pressure:   4818 | X Tilt:   30 | Y Tilt:   24 | Twist:      0 | Wacom FingerWheel:      0 | Wacom Distance:    0 | Transducer Serial Number:   595605148 | Wacom SerialHi:     1116162 | Wacom ToolType:   2058 
E: 000002.225946 27 10 78 41 57 00 fc 22 00 d2 12 1e 18 00 00 00 00 00 9c 36 80 23 02 08 11 00 0a 08
# ReportID: 16 / Tip Switch: 0 | Barrel Switch: 0 | Secondary Barrel Switch: 0 | Eraser: 1 | Invert: 1 | In Range: 1 | Wacom Sense: 1 | # | X:     22279 | Y:      8956 | Tip Pressure:   4826 | X Tilt:   30 | Y Tilt:   24 | Twist:      0 | Wacom FingerWheel:      0 | Wacom Distance:    0 | Transducer Serial Number:   595605148 | Wacom SerialHi:     1116162 | Wacom ToolType:   2058 
E: 000002.228954 27 10 78 07 57 00 fc 22 00 da 12 1e 18 00 00 00 00 00 9c 36 80 23 02 08 11 00 0a 08
# ReportID: 16 / Tip Switch: 0 | Barrel Switch: 0 | Secondary Barrel Switch: 0 | Eraser: 1 | Invert: 1 | In Range: 1 | Wacom Sense: 1 | # | X:     22219 | Y:      8958 | Tip Pressure:   4838 | X Tilt:   30 | Y Tilt:   24 | Twist:      0 | Wacom FingerWheel:      0 | Wacom Distance:    0 | Transducer Serial Number:   595605148 | Wacom SerialHi:     1116162 | Wacom ToolType:   2058 
E: 000002.235030 27 10 78 cb 56 00 fe 22 00 e6 12 1e 18 00 00 00 00 00 9c 36 80 23 02 08 11 00 0a 08
# ReportID: 16 / Tip Switch: 0 | Barrel Switch: 0 | Secondary Barrel Switch: 0 | Eraser: 1 | Invert: 1 | In Range: 1 | Wacom Sense: 1 | # | X:     22159 | Y:      8963 | Tip Pressure:   4854 | X Tilt:   30 | Y Tilt:   24 | Twist:      0 | Wacom FingerWheel:      0 | Wacom Distance:    0 | Transducer Serial Number:   595605148 | Wacom SerialHi:     1116162 | Wacom ToolType:   2058 
E: 000002.238077 27 10 78 8f 56 00 03 23 00 f6 12 1e 18 00 00 00 00 00 9c 36 80 23 02 08 11 00 0a 08
# ReportID: 16 / Tip Switch: 0 | Barrel Switch: 0 | Secondary Barrel Switch: 0 | Eraser: 1 | Invert: 1 | In Range: 1 | Wacom Sense: 1 | # | X:     22097 | Y:      8969 | Tip Pressure:   4862 | X Tilt:   30 | Y Tilt:   24 | Twist:      0 | Wacom FingerWheel:      0 | Wacom Distance:    0 | Transducer Serial Number:   595605148 | Wacom SerialHi:     1116162 | Wacom ToolType:   2058 
E: 000002.243926 27 10 78 51 56 00 09 23 00 fe 12 1e 18 00 00 00 00 00 9c 36 80 23 02 08 11 00 0a 08
# ReportID: 16 / Tip Switch: 0 | Barrel Switch: 0 | Secondary Barrel Switch: 0 | Eraser: 1 | Invert: 1 | In Range: 1 | Wacom Sense: 1 | # | X:     22035 | Y:      8976 | Tip Pressure:   4866 | X Tilt:   30 | Y Tilt:   24 | Twist:      0 | Wacom FingerWheel:      0 | Wacom Distance:    0 | Transducer Serial Number:   595605148 | Wacom SerialHi:     1116162 | Wacom ToolType:   2058 
E: 000002.249873 27 10 78 13 56 00 10 23 00 02 13 1e 18 00 00 00 00 00 9c 36 80 23 02 08 11 00 0a 08
# ReportID: 16 / Tip Switch: 0 | Barrel Switch: 0 | Secondary Barrel Switch: 0 | Eraser: 1 | Invert: 1 | In Range: 1 | Wacom Sense: 1 | # | X:     21974 | Y:      8985 | Tip Pressure:   4878 | X Tilt:   30 | Y Tilt:   24 | Twist:      0 | Wacom FingerWheel:      0 | Wacom Distance:    0 | Transducer Serial Number:   595605148 | Wacom SerialHi:     1116162 | Wacom ToolType:   2058 
E: 000002.252899 27 10 78 d6 55 00 19 23 00 0e 13 1e 18 00 00 00 00 00 9c 36 80 23 02 08 11 00 0a 08
# ReportID: 16 / Tip Switch: 0 | Barrel Switch: 0 | Secondary Barrel Switch: 0 | Eraser: 1 | Invert: 1 | In Range: 1 | Wacom Sense: 1 | # | X:     21914 | Y:      8996 | Tip Pressure:   4890 | X Tilt:   30 | Y Tilt:   24 | Twist:      0 | Wacom FingerWheel:      0 | Wacom Distance:    0 | Transducer Serial Number:   595605148 | Wacom SerialHi:     1116162 | Wacom ToolType:   2058 
E: 000002.259041 27 10 78 9a 55 00 24 23 00 1a 13 1e 18 00 00 00 00 00 9c 36 80 23 02 08 11 00 0a 08
# ReportID: 16 / Tip Switch: 0 | Barrel Switch: 0 | Secondary Barrel Switch: 0 | Eraser: 1 | Invert: 1 | In Range: 1 | Wacom Sense: 1 | # | X:     21855 | Y:      9008 | Tip Pressure:   4898 | X Tilt:   31 | Y Tilt:   24 | Twist:      0 | Wacom FingerWheel:      0 | Wacom Distance:    0 | Transducer Serial Number:   595605148 | Wacom SerialHi:     1116162 | Wacom ToolType:   2058 
E: 000002.265056 27 10 78 5f 55 00 30 23 00 22 13 1f 18 00 00 00 00 00 9c 36 80 23 02 08 11 00 0a 08
# ReportID: 16 / Tip Switch: 0 | Barrel Switch: 0 | Secondary Barrel Switch: 0 | Eraser: 1 | Invert: 1 | In Range: 1 | Wacom Sense: 1 | # | X:     21796 | Y:      9022 | Tip Pressure:   4902 | X Tilt:   31 | Y Tilt:   24 | Twist:      0 | Wacom FingerWheel:      0 | Wacom Distance:    0 | Transducer Serial Number:   595605148 | Wacom SerialHi:     1116162 | Wacom ToolType:   2058 
E: 000002.267971 27 10 78 24 55 00 3e 23 00 26 13 1f 18 00 00 00 00 00 9c 36 80 23 02 08 11 00 0a 08
# ReportID: 16 / Tip Switch: 0 | Barrel Switch: 0 | Secondary Barrel Switch: 0 | Eraser: 1 | Invert: 1 | In Range: 1 | Wacom Sense: 1 | # | X:     21737 | Y:      9038 | Tip Pressure:   4902 | X Tilt:   31 | Y Tilt:   24 | Twist:      0 | Wacom FingerWheel:      0 | Wacom Distance:    0 | Transducer Serial Number:   595605148 | Wacom SerialHi:     1116162 | Wacom ToolType:   2058 
E: 000002.273945 27 10 78 e9 54 00 4e 23 00 26 13 1f 18 00 00 00 00 00 9c 36 80 23 02 08 11 00 0a 08
# ReportID: 16 / Tip Switch: 0 | Barrel Switch: 0 | Secondary Barrel Switch: 0 | Eraser: 1 | Invert: 1 | In Range: 1 | Wacom Sense: 1 | # | X:     21675 | Y:      9054 | Tip Pressure:   4910 | X Tilt:   31 | Y Tilt:   24 | Twist:      0 | Wacom FingerWheel:      0 | Wacom Distance:    0 | Transducer Serial Number:   595605148 | Wacom SerialHi:     1116162 | Wacom ToolType:   2058 
E: 000002.280072 27 10 78 ab 54 00 5e 23 00 2e 13 1f 18 00 00 00 00 00 9c 36 80 23 02 08 11 00 0a 08
# ReportID: 16 / Tip Switch: 0 | Barrel Switch: 0 | Secondary Barrel Switch: 0 | Eraser: 1 | Invert: 1 | In Range: 1 | Wacom Sense: 1 | # | X:     21614 | Y:      9071 | Tip Pressure:   4914 | X Tilt:   31 | Y Tilt:   24 | Twist:      0 | Wacom FingerWheel:      0 | Wacom Distance:    0 | Transducer Serial Number:   595605148 | Wacom SerialHi:     1116162 | Wacom ToolType:   2058 
E: 000002.282943 27 10 78 6e 54 00 6f 23 00 32 13 1f 18 00 00 00 00 00 9c 36 80 23 02 08 11 00 0a 08
# ReportID: 16 / Tip Switch: 0 | Barrel Switch: 0 | Secondary Barrel Switch: 0 | Eraser: 1 | Invert: 1 | In Range: 1 | Wacom Sense: 1 | # | X:     21553 | Y:      9089 | Tip Pressure:   4914 | X Tilt:   31 | Y Tilt:   24 | Twist:      0 | Wacom FingerWheel:      0 | Wacom Distance:    0 | Transducer Serial Number:   595605148 | Wacom SerialHi:     1116162 | Wacom ToolType:   2058 
E: 000002.288931 27 10 78 31 54 00 81 23 00 32 13 1f 18 00 00 00 00 00 9c 36 80 23 02 08 11 00 0a 08
# ReportID: 16 / Tip Switch: 0 | Barrel Switch: 0 | Secondary Barrel Switch: 0 | Eraser: 1 | Invert: 1 | In Range: 1 | Wacom Sense: 1 | # | X:     21493 | Y:      9107 | Tip Pressure:   4918 | X Tilt:   31 | Y Tilt:   24 | Twist:      0 | Wacom FingerWheel:      0 | Wacom Distance:    0 | Transducer Serial Number:   595605148 | Wacom SerialHi:     1116162 | Wacom ToolType:   2058 
E: 000002.294931 27 10 78 f5 53 00 93 23 00 36 13 1f 18 00 00 00 00 00 9c 36 80 23 02 08 11 00 0a 08
# ReportID: 16 / Tip Switch: 0 | Barrel Switch: 0 | Secondary Barrel Switch: 0 | Eraser: 1 | Invert: 1 | In Range: 1 | Wacom Sense: 1 | # | X:     21433 | Y:      9127 | Tip Pressure:   4922 | X Tilt:   31 | Y Tilt:   24 | Twist:      0 | Wacom FingerWheel:      0 | Wacom Distance:    0 | Transducer Serial Number:   595605148 | Wacom SerialHi:     1116162 | Wacom ToolType:   2058 
E: 000002.297882 27 10 78 b9 53 00 a7 23 00 3a 13 1f 18 00 00 00 00 00 9c 36 80 23 02 08 11 00 0a 08
# ReportID: 16 / Tip Switch: 0 | Barrel Switch: 0 | Secondary Barrel Switch: 0 | Eraser: 1 | Invert: 1 | In Range: 1 | Wacom Sense: 1 | # | X:     21372 | Y:      9146 | Tip Pressure:   4922 | X Tilt:   31 | Y Tilt:   24 | Twist:      0 | Wacom FingerWheel:      0 | Wacom Distance:    3 | Transducer Serial Number:   595605148 | Wacom SerialHi:     1116162 | Wacom ToolType:   2058 
E: 000002.303886 27 10 78 7c 53 00 ba 23 00 3a 13 1f 18 00 00 00 00 03 9c 36 80 23 02 08 11 00 0a 08
# ReportID: 16 / Tip Switch: 0 | Barrel Switch: 0 | Secondary Barrel Switch: 0 | Eraser: 1 | Invert: 1 | In Range: 1 | Wacom Sense: 1 | # | X:     21310 | Y:      9167 | Tip Pressure:   4922 | X Tilt:   31 | Y Tilt:   24 | Twist:      0 | Wacom FingerWheel:      0 | Wacom Distance:    1 | Transducer Serial Number:   595605148 | Wacom SerialHi:     1116162 | Wacom ToolType:   2058 
E: 000002.309934 27 10 78 3e 53 00 cf 23 00 3a 13 1f 18 00 00 00 00 01 9c 36 80 23 02 08 11 00 0a 08
# ReportID: 16 / Tip Switch: 0 | Barrel Switch: 0 | Secondary Barrel Switch: 0 | Eraser: 1 | Invert: 1 | In Range: 1 | Wacom Sense: 1 | # | X:     21247 | Y:      9188 | Tip Pressure:   4922 | X Tilt:   31 | Y Tilt:   24 | Twist:      0 | Wacom FingerWheel:      0 | Wacom Distance:    0 | Transducer Serial Number:   595605148 | Wacom SerialHi:     1116162 | Wacom ToolType:   2058 
E: 000002.312944 27 10 78 ff 52 00 e4 23 00 3a 13 1f 18 00 00 00 00 00 9c 36 80 23 02 08 11 00 0a 08
# ReportID: 16 / Tip Switch: 0 | Barrel Switch: 0 | Secondary Barrel Switch: 0 | Eraser: 1 | Invert: 1 | In Range: 1 | Wacom Sense: 1 | # | X:     21185 | Y:      9209 | Tip Pressure:   4934 | X Tilt:   31 | Y Tilt:   24 | Twist:      0 | Wacom FingerWheel:      0 | Wacom Distance:    0 | Transducer Serial Number:   595605148 | Wacom SerialHi:     1116162 | Wacom ToolType:   2058 
E: 000002.318874 27 10 78 c1 52 00 f9 23 00 46 13 1f 18 00 00 00 00 00 9c 36 80 23 02 08 11 00 0a 08
# ReportID: 16 / Tip Switch: 0 | Barrel Switch: 0 | Secondary Barrel Switch: 0 | Eraser: 1 | Invert: 1 | In Range: 1 | Wacom Sense: 1 | # | X:     21126 | Y:      9229 | Tip Pressure:   4934 | X Tilt:   31 | Y Tilt:   24 | Twist:      0 | Wacom FingerWheel:      0 | Wacom Distance:    0 | Transducer Serial Number:   595605148 | Wacom SerialHi:     1116162 | Wacom ToolType:   2058 
E: 000002.324923 27 10 78 86 52 00 0d 24 00 46 13 1f 18 00 00 00 00 00 9c 36 80 23 02 08 11 00 0a 08
# ReportID: 16 / Tip Switch: 0 | Barrel Switch: 0 | Secondary Barrel Switch: 0 | Eraser: 1 | Invert: 1 | In Range: 1 | Wacom Sense: 1 | # | X:     21068 | Y:      9250 | Tip Pressure:   4930 | X Tilt:   31 | Y Tilt:   24 | Twist:      0 | Wacom FingerWheel:      0 | Wacom Distance:    0 | Transducer Serial Number:   595605148 | Wacom SerialHi:     1116162 | Wacom ToolType:   2058 
E: 000002.327881 27 10 78 4c 52 00 22 24 00 42 13 1f 18 00 00 00 00 00 9c 36 80 23 02 08 11 00 0a 08
# ReportID: 16 / Tip Switch: 0 | Barrel Switch: 0 | Secondary Barrel Switch: 0 | Eraser: 1 | Invert: 1 | In Range: 1 | Wacom Sense: 1 | # | X:     21012 | Y:      9270 | Tip Pressure:   4930 | X Tilt:   31 | Y Tilt:   24 | Twist:      0 | Wacom FingerWheel:      0 | Wacom Distance:    0 | Transducer Serial Number:   595605148 | Wacom SerialHi:     1116162 | Wacom ToolType:   2058 
E: 000002.333858 27 10 78 14 52 00 36 24 00 42 13 1f 18 00 00 00 00 00 9c 36 80 23 02 08 11 00 0a 08
# ReportID: 16 / Tip Switch: 0 | Barrel Switch: 0 | Secondary Barrel Switch: 0 | Eraser: 1 | Invert: 1 | In Range: 1 | Wacom Sense: 1 | # | X:     20956 | Y:      9291 | Tip Pressure:   4942 | X Tilt:   31 | Y Tilt:   24 | Twist:      0 | Wacom FingerWheel:      0 | Wacom Distance:    0 | Transducer Serial Number:   595605148 | Wacom SerialHi:     1116162 | Wacom ToolType:   2058 
E: 000002.339872 27 10 78 dc 51 00 4b 24 00 4e 13 1f 18 00 00 00 00 00 9c 36 80 23 02 08 11 00 0a 08
# ReportID: 16 / Tip Switch: 0 | Barrel Switch: 0 | Secondary Barrel Switch: 0 | Eraser: 1 | Invert: 1 | In Range: 1 | Wacom Sense: 1 | # | X:     20900 | Y:      9314 | Tip Pressure:   4942 | X Tilt:   31 | Y Tilt:   24 | Twist:      0 | Wacom FingerWheel:      0 | Wacom Distance:    0 | Transducer Serial Number:   595605148 | Wacom SerialHi:     1116162 | Wacom ToolType:   2058 
E: 000002.342916 27 10 78 a4 51 00 62 24 00 4e 13 1f 18 00 00 00 00 00 9c 36 80 23 02 08 11 00 0a 08
# ReportID: 16 / Tip Switch: 0 | Barrel Switch: 0 | Secondary Barrel Switch: 0 | Eraser: 1 | Invert: 1 | In Range: 1 | Wacom Sense: 1 | # | X:     20844 | Y:      9337 | Tip Pressure:   4938 | X Tilt:   31 | Y Tilt:   24 | Twist:      0 | Wacom FingerWheel:      0 | Wacom Distance:    0 | Transducer Serial Number:   595605148 | Wacom SerialHi:     1116162 | Wacom ToolType:   2058 
E: 000002.349087 27 10 78 6c 51 00 79 24 00 4a 13 1f 18 00 00 00 00 00 9c 36 80 23 02 08 11 00 0a 08
# ReportID: 16 / Tip Switch: 0 | Barrel Switch: 0 | Secondary Barrel Switch: 0 | Eraser: 1 | Invert: 1 | In Range: 1 | Wacom Sense: 1 | # | X:     20787 | Y:      9363 | Tip Pressure:   4938 | X Tilt:   31 | Y Tilt:   24 | Twist:      0 | Wacom FingerWheel:      0 | Wacom Distance:    0 | Transducer Serial Number:   595605148 | Wacom SerialHi:     1116162 | Wacom ToolType:   2058 
E: 000002.354958 27 10 78 33 51 00 93 24 00 4a 13 1f 18 00 00 00 00 00 9c 36 80 23 02 08 11 00 0a 08
# ReportID: 16 / Tip Switch: 0 | Barrel Switch: 0 | Secondary Barrel Switch: 0 | Eraser: 1 | Invert: 1 | In Range: 1 | Wacom Sense: 1 | # | X:     20729 | Y:      9390 | Tip Pressure:   4946 | X Tilt:   31 | Y Tilt:   24 | Twist:      0 | Wacom FingerWheel:      0 | Wacom Distance:    0 | Transducer Serial Number:   595605148 | Wacom SerialHi:     1116162 | Wacom ToolType:   2058 
E: 000002.358074 27 10 78 f9 50 00 ae 24 00 52 13 1f 18 00 00 00 00 00 9c 36 80 23 02 08 11 00 0a 08
# ReportID: 16 / Tip Switch: 0 | Barrel Switch: 0 | Secondary Barrel Switch: 0 | Eraser: 1 | Invert: 1 | In Range: 1 | Wacom Sense: 1 | # | X:     20671 | Y:      9418 | Tip Pressure:   4946 | X Tilt:   32 | Y Tilt:   24 | Twist:      0 | Wacom FingerWheel:      0 | Wacom Distance:    0 | Transducer Serial Number:   595605148 | Wacom SerialHi:     1116162 | Wacom ToolType:   2058 
E: 000002.364053 27 10 78 bf 50 00 ca 24 00 52 13 20 18 00 00 00 00 00 9c 36 80 23 02 08 11 00 0a 08
# ReportID: 16 / Tip Switch: 0 | Barrel Switch: 0 | Secondary Barrel Switch: 0 | Eraser: 1 | Invert: 1 | In Range: 1 | Wacom Sense: 1 | # | X:     20613 | Y:      9447 | Tip Pressure:   4942 | X Tilt:   32 | Y Tilt:   24 | Twist:      0 | Wacom FingerWheel:      0 | Wacom Distance:    0 | Transducer Serial Number:   595605148 | Wacom SerialHi:     1116162 | Wacom ToolType:   2058 
E: 000002.369933 27 10 78 85 50 00 e7 24 00 4e 13 20 18 00 00 00 00 00 9c 36 80 23 02 08 11 00 0a 08
# ReportID: 16 / Tip Switch: 0 | Barrel Switch: 0 | Secondary Barrel Switch: 0 | Eraser: 1 | Invert: 1 | In Range: 1 | Wacom Sense: 1 | # | X:     20555 | Y:      9478 | Tip Pressure:   4942 | X Tilt:   32 | Y Tilt:   24 | Twist:      0 | Wacom FingerWheel:      0 | Wacom Distance:    0 | Transducer Serial Number:   595605148 | Wacom SerialHi:     1116162 | Wacom ToolType:   2058 
E: 000002.372983 27 10 78 4b 50 00 06 25 00 4e 13 20 18 00 00 00 00 00 9c 36 80 23 02 08 11 00 0a 08
# ReportID: 16 / Tip Switch: 0 | Barrel Switch: 0 | Secondary Barrel Switch: 0 | Eraser: 1 | Invert: 1 | In Range: 1 | Wacom Sense: 1 | # | X:     20496 | Y:      9511 | Tip Pressure:   4954 | X Tilt:   32 | Y Tilt:   24 | Twist:      0 | Wacom FingerWheel:      0 | Wacom Distance:    0 | Transducer Serial Number:   595605148 | Wacom SerialHi:     1116162 | Wacom ToolType:   2058 
E: 000002.378946 27 10 78 10 50 00 27 25 00 5a 13 20 18 00 00 00 00 00 9c 36 80 23 02 08 11 00 0a 08
# ReportID: 16 / Tip Switch: 0 | Barrel Switch: 0 | Secondary Barrel Switch: 0 | Eraser: 1 | Invert: 1 | In Range: 1 | Wacom Sense: 1 | # | X:     20435 | Y:      9546 | Tip Pressure:   4954 | X Tilt:   32 | Y Tilt:   24 | Twist:      0 | Wacom FingerWheel:      0 | Wacom Distance:    0 | Transducer Serial Number:   595605148 | Wacom SerialHi:     1116162 | Wacom ToolType:   2058 
E: 000002.385078 27 10 78 d3 4f 00 4a 25 00 5a 13 20 18 00 00 00 00 00 9c 36 80 23 02 08 11 00 0a 08
# ReportID: 16 / Tip Switch: 0 | Barrel Switch: 0 | Secondary Barrel Switch: 0 | Eraser: 1 | Invert: 1 | In Range: 1 | Wacom Sense: 1 | # | X:     20373 | Y:      9584 | Tip Pressure:   4954 | X Tilt:   32 | Y Tilt:   24 | Twist:      0 | Wacom FingerWheel:      0 | Wacom Distance:    0 | Transducer Serial Number:   595605148 | Wacom SerialHi:     1116162 | Wacom ToolType:   2058 
E: 000002.388077 27 10 78 95 4f 00 70 25 00 5a 13 20 18 00 00 00 00 00 9c 36 80 23 02 08 11 00 0a 08
# ReportID: 16 / Tip Switch: 0 | Barrel Switch: 0 | Secondary Barrel Switch: 0 | Eraser: 1 | Invert: 1 | In Range: 1 | Wacom Sense: 1 | # | X:     20308 | Y:      9620 | Tip Pressure:   4954 | X Tilt:   33 | Y Tilt:   24 | Twist:      0 | Wacom FingerWheel:      0 | Wacom Distance:    0 | Transducer Serial Number:   595605148 | Wacom SerialHi:     1116162 | Wacom ToolType:   2058 
E: 000002.394054 27 10 78 54 4f 00 94 25 00 5a 13 21 18 00 00 00 00 00 9c 36 80 23 02 08 11 00 0a 08
# ReportID: 16 / Tip Switch: 0 | Barrel Switch: 0 | Secondary Barrel Switch: 0 | Eraser: 1 | Invert: 1 | In Range: 1 | Wacom Sense: 1 | # | X:     20242 | Y:      9655 | Tip Pressure:   4954 | X Tilt:   33 | Y Tilt:   24 | Twist:      0 | Wacom FingerWheel:      0 | Wacom Distance:    0 | Transducer Serial Number:   595605148 | Wacom SerialHi:     1116162 | Wacom ToolType:   2058 
E: 000002.400043 27 10 78 12 4f 00 b7 25 00 5a 13 21 18 00 00 00 00 00 9c 36 80 23 02 08 11 00 0a 08
# ReportID: 16 / Tip Switch: 0 | Barrel Switch: 0 | Secondary Barrel Switch: 0 | Eraser: 1 | Invert: 1 | In Range: 1 | Wacom Sense: 1 | # | X:     20177 | Y:      9692 | Tip Pressure:   4958 | X Tilt:   33 | Y Tilt:   24 | Twist:      0 | Wacom FingerWheel:      0 | Wacom Distance:    0 | Transducer Serial Number:   595605148 | Wacom SerialHi:     1116162 | Wacom ToolType:   2058 
E: 000002.402976 27 10 78 d1 4e 00 dc 25 00 5e 13 21 18 00 00 00 00 00 9c 36 80 23 02 08 11 00 0a 08
# ReportID: 16 / Tip Switch: 0 | Barrel Switch: 0 | Secondary Barrel Switch: 0 | Eraser: 1 | Invert: 1 | In Range: 1 | Wacom Sense: 1 | # | X:     20111 | Y:      9730 | Tip Pressure:   4958 | X Tilt:   33 | Y Tilt:   24 | Twist:      0 | Wacom FingerWheel:      0 | Wacom Distance:    0 | Transducer Serial Number:   595605148 | Wacom SerialHi:     1116162 | Wacom ToolType:   2058 
E: 000002.409062 27 10 78 8f 4e 00 02 26 00 5e 13 21 18 00 00 00 00 00 9c 36 80 23 02 08 11 00 0a 08
# ReportID: 16 / Tip Switch: 0 | Barrel Switch: 0 | Secondary Barrel Switch: 0 | Eraser: 1 | Invert: 1 | In Range: 1 | Wacom Sense: 1 | # | X:     20045 | Y:      9772 | Tip Pressure:   4958 | X Tilt:   33 | Y Tilt:   24 | Twist:      0 | Wacom FingerWheel:      0 | Wacom Distance:    0 | Transducer Serial Number:   595605148 | Wacom SerialHi:     1116162 | Wacom ToolType:   2058 
E: 000002.412977 27 10 78 4d 4e 00 2c 26 00 5e 13 21 18 00 00 00 00 00 9c 36 80 23 02 08 11 00 0a 08
# ReportID: 16 / Tip Switch: 0 | Barrel Switch: 0 | Secondary Barrel Switch: 0 | Eraser: 1 | Invert: 1 | In Range: 1 | Wacom Sense: 1 | # | X:     19980 | Y:      9815 | Tip Pressure:   4966 | X Tilt:   33 | Y Tilt:   24 | Twist:      0 | Wacom FingerWheel:      0 | Wacom Distance:    0 | Transducer Serial Number:   595605148 | Wacom SerialHi:     1116162 | Wacom ToolType:   2058 
E: 000002.417991 27 10 78 0c 4e 00 57 26 00 66 13 21 18 00 00 00 00 00 9c 36 80 23 02 08 11 00 0a 08
# ReportID: 16 / Tip Switch: 0 | Barrel Switch: 0 | Secondary Barrel Switch: 0 | Eraser: 1 | Invert: 1 | In Range: 1 | Wacom Sense: 1 | # | X:     19916 | Y:      9859 | Tip Pressure:   4966 | X Tilt:   33 | Y Tilt:   24 | Twist:      0 | Wacom FingerWheel:      0 | Wacom Distance:    0 | Transducer Serial Number:   595605148 | Wacom SerialHi:     1116162 | Wacom ToolType:   2058 
E: 000002.424066 27 10 78 cc 4d 00 83 26 00 66 13 21 18 00 00 00 00 00 9c 36 80 23 02 08 11 00 0a 08
# ReportID: 16 / Tip Switch: 0 | Barrel Switch: 0 | Secondary Barrel Switch: 0 | Eraser: 1 | Invert: 1 | In Range: 1 | Wacom Sense: 1 | # | X:     19854 | Y:      9902 | Tip Pressure:   4962 | X Tilt:   33 | Y Tilt:   24 | Twist:      0 | Wacom FingerWheel:      0 | Wacom Distance:    0 | Transducer Serial Number:   595605148 | Wacom SerialHi:     1116162 | Wacom ToolType:   2058 
E: 000002.427050 27 10 78 8e 4d 00 ae 26 00 62 13 21 18 00 00 00 00 00 9c 36 80 23 02 08 11 00 0a 08
# ReportID: 16 / Tip Switch: 0 | Barrel Switch: 0 | Secondary Barrel Switch: 0 | Eraser: 1 | Invert: 1 | In Range: 1 | Wacom Sense: 1 | # | X:     19792 | Y:      9945 | Tip Pressure:   4962 | X Tilt:   33 | Y Tilt:   24 | Twist:      0 | Wacom FingerWheel:      0 | Wacom Distance:    0 | Transducer Serial Number:   595605148 | Wacom SerialHi:     1116162 | Wacom ToolType:   2058 
E: 000002.432932 27 10 78 50 4d 00 d9 26 00 62 13 21 18 00 00 00 00 00 9c 36 80 23 02 08 11 00 0a 08
# ReportID: 16 / Tip Switch: 0 | Barrel Switch: 0 | Secondary Barrel Switch: 0 | Eraser: 1 | Invert: 1 | In Range: 1 | Wacom Sense: 1 | # | X:     19732 | Y:      9989 | Tip Pressure:   4962 | X Tilt:   33 | Y Tilt:   24 | Twist:      0 | Wacom FingerWheel:      0 | Wacom Distance:    0 | Transducer Serial Number:   595605148 | Wacom SerialHi:     1116162 | Wacom ToolType:   2058 
E: 000002.438967 27 10 78 14 4d 00 05 27 00 62 13 21 18 00 00 00 00 00 9c 36 80 23 02 08 11 00 0a 08
# ReportID: 16 / Tip Switch: 0 | Barrel Switch: 0 | Secondary Barrel Switch: 0 | Eraser: 1 | Invert: 1 | In Range: 1 | Wacom Sense: 1 | # | X:     19669 | Y:     10034 | Tip Pressure:   4966 | X Tilt:   34 | Y Tilt:   24 | Twist:      0 | Wacom FingerWheel:      0 | Wacom Distance:    2 | Transducer Serial Number:   595605148 | Wacom SerialHi:     1116162 | Wacom ToolType:   2058 
E: 000002.443106 27 10 78 d5 4c 00 32 27 00 66 13 22 18 00 00 00 00 02 9c 36 80 23 02 08 11 00 0a 08
# ReportID: 16 / Tip Switch: 0 | Barrel Switch: 0 | Secondary Barrel Switch: 0 | Eraser: 1 | Invert: 1 | In Range: 1 | Wacom Sense: 1 | # | X:     19605 | Y:     10082 | Tip Pressure:   4966 | X Tilt:   34 | Y Tilt:   24 | Twist:      0 | Wacom FingerWheel:      0 | Wacom Distance:    0 | Transducer Serial Number:   595605148 | Wacom SerialHi:     1116162 | Wacom ToolType:   2058 
E: 000002.447941 27 10 78 95 4c 00 62 27 00 66 13 22 18 00 00 00 00 00 9c 36 80 23 02 08 11 00 0a 08
