# Pen node
#
# Recording is one vertical line with the pen tip, in the center of the tablet
# starting with strong pressure and maxing out pressure.
#
# +-------------------------------------------+
# +                                           +
# +                    |                      +
# +                    |                      +
# +                    |                      +
# +                    |                      +
# +                    |                      +
# +                    |                      +
# +                    |                      +
# +                                           +
# +-------------------------------------------+
#
# Wacom Co.,Ltd. Wacom Intuos Pro M
# 0x05, 0x01,                    // Usage Page (Generic Desktop)        0
# 0x09, 0x02,                    // Usage (Mouse)                       2
# 0xa1, 0x01,                    // Collection (Application)            4
# 0x85, 0x01,                    //  Report ID (1)                      6
# 0x09, 0x01,                    //  Usage (Pointer)                    8
# 0xa1, 0x00,                    //  Collection (Physical)              10
# 0x05, 0x09,                    //   Usage Page (Button)               12
# 0x19, 0x01,                    //   Usage Minimum (1)                 14
# 0x29, 0x03,                    //   Usage Maximum (3)                 16
# 0x15, 0x00,                    //   Logical Minimum (0)               18
# 0x25, 0x01,                    //   Logical Maximum (1)               20
# 0x75, 0x01,                    //   Report Size (1)                   22
# 0x95, 0x03,                    //   Report Count (3)                  24
# 0x81, 0x02,                    //   Input (Data,Var,Abs)              26
# 0x75, 0x01,                    //   Report Size (1)                   28
# 0x95, 0x05,                    //   Report Count (5)                  30
# 0x81, 0x03,                    //   Input (Cnst,Var,Abs)              32
# 0x05, 0x01,                    //   Usage Page (Generic Desktop)      34
# 0x09, 0x30,                    //   Usage (X)                         36
# 0x09, 0x31,                    //   Usage (Y)                         38
# 0x15, 0x81,                    //   Logical Minimum (-127)            40
# 0x25, 0x7f,                    //   Logical Maximum (127)             42
# 0x75, 0x08,                    //   Report Size (8)                   44
# 0x95, 0x02,                    //   Report Count (2)                  46
# 0x81, 0x06,                    //   Input (Data,Var,Rel)              48
# 0xc0,                          //  End Collection                     50
# 0xc0,                          // End Collection                      51
# 0x06, 0x0d, 0xff,              // Usage Page (Wacom)                  52
# 0x09, 0x01,                    // Usage (Wacom Digitizer)             55
# 0xa1, 0x01,                    // Collection (Application)            57
# 0x85, 0x10,                    //  Report ID (16)                     59
# 0x09, 0x20,                    //  Usage (Stylus)                     61
# 0xa1, 0x00,                    //  Collection (Physical)              63
# 0x09, 0x42,                    //   Usage (Tip Switch)                65
# 0x09, 0x44,                    //   Usage (Barrel Switch)             67
# 0x09, 0x5a,                    //   Usage (Secondary Barrel Switch)   69
# 0x09, 0x45,                    //   Usage (Eraser)                    71
# 0x09, 0x3c,                    //   Usage (Invert)                    73
# 0x09, 0x32,                    //   Usage (In Range)                  75
# 0x09, 0x36,                    //   Usage (Wacom Sense)               77
# 0x15, 0x00,                    //   Logical Minimum (0)               79
# 0x25, 0x01,                    //   Logical Maximum (1)               81
# 0x75, 0x01,                    //   Report Size (1)                   83
# 0x95, 0x07,                    //   Report Count (7)                  85
# 0x81, 0x02,                    //   Input (Data,Var,Abs)              87
# 0x95, 0x01,                    //   Report Count (1)                  89
# 0x81, 0x03,                    //   Input (Cnst,Var,Abs)              91
# 0x0a, 0x30, 0x01,              //   Usage (X)                         93
# 0x65, 0x11,                    //   Unit (SILinear: cm)               96
# 0x55, 0x0d,                    //   Unit Exponent (-3)                98
# 0x35, 0x00,                    //   Physical Minimum (0)              100
# 0x47, 0x80, 0x57, 0x00, 0x00,  //   Physical Maximum (22400)          102
# 0x15, 0x00,                    //   Logical Minimum (0)               107
# 0x27, 0x00, 0xaf, 0x00, 0x00,  //   Logical Maximum (44800)           109
# 0x75, 0x18,                    //   Report Size (24)                  114
# 0x95, 0x01,                    //   Report Count (1)                  116
# 0x81, 0x02,                    //   Input (Data,Var,Abs)              118
# 0x0a, 0x31, 0x01,              //   Usage (Y)                         120
# 0x47, 0xd0, 0x39, 0x00, 0x00,  //   Physical Maximum (14800)          123
# 0x27, 0xa0, 0x73, 0x00, 0x00,  //   Logical Maximum (29600)           128
# 0x81, 0x02,                    //   Input (Data,Var,Abs)              133
# 0x09, 0x30,                    //   Usage (Tip Pressure)              135
# 0x55, 0x00,                    //   Unit Exponent (0)                 137
# 0x65, 0x00,                    //   Unit (None)                       139
# 0x15, 0x00,                    //   Logical Minimum (0)               141
# 0x26, 0xff, 0x1f,              //   Logical Maximum (8191)            143
# 0x75, 0x10,                    //   Report Size (16)                  146
# 0x81, 0x02,                    //   Input (Data,Var,Abs)              148
# 0x09, 0x3d,                    //   Usage (X Tilt)                    150
# 0x09, 0x3e,                    //   Usage (Y Tilt)                    152
# 0x65, 0x14,                    //   Unit (EnglishRotation: deg)       154
# 0x55, 0x00,                    //   Unit Exponent (0)                 156
# 0x35, 0xc0,                    //   Physical Minimum (-64)            158
# 0x45, 0x3f,                    //   Physical Maximum (63)             160
# 0x15, 0xc0,                    //   Logical Minimum (-64)             162
# 0x25, 0x3f,                    //   Logical Maximum (63)              164
# 0x75, 0x08,                    //   Report Size (8)                   166
# 0x95, 0x02,                    //   Report Count (2)                  168
# 0x81, 0x02,                    //   Input (Data,Var,Abs)              170
# 0x09, 0x41,                    //   Usage (Twist)                     172
# 0x65, 0x14,                    //   Unit (EnglishRotation: deg)       174
# 0x55, 0x00,                    //   Unit Exponent (0)                 176
# 0x36, 0x4c, 0xff,              //   Physical Minimum (-180)           178
# 0x46, 0xb3, 0x00,              //   Physical Maximum (179)            181
# 0x16, 0x7c, 0xfc,              //   Logical Minimum (-900)            184
# 0x26, 0x83, 0x03,              //   Logical Maximum (899)             187
# 0x75, 0x10,                    //   Report Size (16)                  190
# 0x95, 0x01,                    //   Report Count (1)                  192
# 0x81, 0x0a,                    //   Input (Data,Var,Abs,Wrap)         194
# 0x0a, 0x03, 0x0d,              //   Usage (Wacom FingerWheel)         196
# 0x65, 0x00,                    //   Unit (None)                       199
# 0x55, 0x00,                    //   Unit Exponent (0)                 201
# 0x15, 0x00,                    //   Logical Minimum (0)               203
# 0x26, 0xff, 0x07,              //   Logical Maximum (2047)            205
# 0x75, 0x10,                    //   Report Size (16)                  208
# 0x95, 0x01,                    //   Report Count (1)                  210
# 0x81, 0x02,                    //   Input (Data,Var,Abs)              212
# 0x0a, 0x32, 0x01,              //   Usage (Wacom Distance)            214
# 0x15, 0x00,                    //   Logical Minimum (0)               217
# 0x25, 0x3f,                    //   Logical Maximum (63)              219
# 0x75, 0x08,                    //   Report Size (8)                   221
# 0x95, 0x01,                    //   Report Count (1)                  223
# 0x81, 0x02,                    //   Input (Data,Var,Abs)              225
# 0x09, 0x5b,                    //   Usage (Transducer Serial Number)  227
# 0x09, 0x5c,                    //   Usage (Wacom SerialHi)            229
# 0x17, 0x00, 0x00, 0x00, 0x80,  //   Logical Minimum (-2147483648)     231
# 0x27, 0xff, 0xff, 0xff, 0x7f,  //   Logical Maximum (2147483647)      236
# 0x75, 0x20,                    //   Report Size (32)                  241
# 0x95, 0x02,                    //   Report Count (2)                  243
# 0x81, 0x02,                    //   Input (Data,Var,Abs)              245
# 0x09, 0x77,                    //   Usage (Wacom ToolType)            247
# 0x15, 0x00,                    //   Logical Minimum (0)               249
# 0x26, 0xff, 0x0f,              //   Logical Maximum (4095)            251
# 0x75, 0x10,                    //   Report Size (16)                  254
# 0x95, 0x01,                    //   Report Count (1)                  256
# 0x81, 0x02,                    //   Input (Data,Var,Abs)              258
# 0xc0,                          //  End Collection                     260
# 0x85, 0x11,                    //  Report ID (17)                     261
# 0x09, 0x39,                    //  Usage (Wacom DigitizerFnKeys)      263
# 0xa1, 0x00,                    //  Collection (Physical)              265
# 0x1a, 0x10, 0x09,              //   Usage Minimum (2320)              267
# 0x2a, 0x17, 0x09,              //   Usage Maximum (2327)              270
# 0x15, 0x00,                    //   Logical Minimum (0)               273
# 0x25, 0x01,                    //   Logical Maximum (1)               275
# 0x75, 0x01,                    //   Report Size (1)                   277
# 0x95, 0x08,                    //   Report Count (8)                  279
# 0x81, 0x02,                    //   Input (Data,Var,Abs)              281
# 0x1a, 0x40, 0x09,              //   Usage Minimum (2368)              283
# 0x2a, 0x47, 0x09,              //   Usage Maximum (2375)              286
# 0x81, 0x02,                    //   Input (Data,Var,Abs)              289
# 0x0a, 0x95, 0x09,              //   Usage (Wacom Button Center)       291
# 0x95, 0x01,                    //   Report Count (1)                  294
# 0x81, 0x02,                    //   Input (Data,Var,Abs)              296
# 0x95, 0x07,                    //   Report Count (7)                  298
# 0x81, 0x03,                    //   Input (Cnst,Var,Abs)              300
# 0x0a, 0x38, 0x01,              //   Usage (Wacom TouchRing)           302
# 0x65, 0x14,                    //   Unit (EnglishRotation: deg)       305
# 0x55, 0x00,                    //   Unit Exponent (0)                 307
# 0x35, 0x00,                    //   Physical Minimum (0)              309
# 0x46, 0x67, 0x01,              //   Physical Maximum (359)            311
# 0x15, 0x00,                    //   Logical Minimum (0)               314
# 0x25, 0x47,                    //   Logical Maximum (71)              316
# 0x75, 0x07,                    //   Report Size (7)                   318
# 0x95, 0x01,                    //   Report Count (1)                  320
# 0x81, 0x0a,                    //   Input (Data,Var,Abs,Wrap)         322
# 0x0a, 0x39, 0x01,              //   Usage (Wacom TouchRingStatus)     324
# 0x65, 0x00,                    //   Unit (None)                       327
# 0x55, 0x00,                    //   Unit Exponent (0)                 329
# 0x25, 0x01,                    //   Logical Maximum (1)               331
# 0x75, 0x01,                    //   Report Size (1)                   333
# 0x95, 0x01,                    //   Report Count (1)                  335
# 0x81, 0x02,                    //   Input (Data,Var,Abs)              337
# 0x75, 0x08,                    //   Report Size (8)                   339
# 0x95, 0x04,                    //   Report Count (4)                  341
# 0x81, 0x03,                    //   Input (Cnst,Var,Abs)              343
# 0xc0,                          //  End Collection                     345
# 0x85, 0x13,                    //  Report ID (19)                     346
# 0x0a, 0x13, 0x10,              //  Usage (Wacom Digitizer Info)       348
# 0xa1, 0x00,                    //  Collection (Physical)              351
# 0x0a, 0x3b, 0x04,              //   Usage (Wacom Battery Level)       353
# 0x15, 0x00,                    //   Logical Minimum (0)               356
# 0x25, 0x64,                    //   Logical Maximum (100)             358
# 0x75, 0x07,                    //   Report Size (7)                   360
# 0x95, 0x01,                    //   Report Count (1)                  362
# 0x81, 0x02,                    //   Input (Data,Var,Abs)              364
# 0x0a, 0x04, 0x04,              //   Usage (Wacom Battery Charging)    366
# 0x25, 0x01,                    //   Logical Maximum (1)               369
# 0x75, 0x01,                    //   Report Size (1)                   371
# 0x81, 0x02,                    //   Input (Data,Var,Abs)              373
# 0x0a, 0x52, 0x04,              //   Usage (Vendor Usage 0x452)        375
# 0x15, 0x00,                    //   Logical Minimum (0)               378
# 0x25, 0x01,                    //   Logical Maximum (1)               380
# 0x75, 0x01,                    //   Report Size (1)                   382
# 0x95, 0x01,                    //   Report Count (1)                  384
# 0x81, 0x02,                    //   Input (Data,Var,Abs)              386
# 0x95, 0x06,                    //   Report Count (6)                  388
# 0x81, 0x03,                    //   Input (Cnst,Var,Abs)              390
# 0x0a, 0x54, 0x04,              //   Usage (Wacom TouchOnOff)          392
# 0x95, 0x01,                    //   Report Count (1)                  395
# 0x81, 0x02,                    //   Input (Data,Var,Abs)              397
# 0x75, 0x08,                    //   Report Size (8)                   399
# 0x95, 0x06,                    //   Report Count (6)                  401
# 0x81, 0x03,                    //   Input (Cnst,Var,Abs)              403
# 0xc0,                          //  End Collection                     405
# 0x09, 0x0e,                    //  Usage (Device Configuration)       406
# 0xa1, 0x02,                    //  Collection (Logical)               408
# 0x15, 0x00,                    //   Logical Minimum (0)               410
# 0x85, 0x02,                    //   Report ID (2)                     412
# 0x09, 0x01,                    //   Usage (Wacom Digitizer)           414
# 0x75, 0x08,                    //   Report Size (8)                   416
# 0x25, 0x01,                    //   Logical Maximum (1)               418
# 0x95, 0x01,                    //   Report Count (1)                  420
# 0xb1, 0x02,                    //   Feature (Data,Var,Abs)            422
# 0x85, 0x03,                    //   Report ID (3)                     424
# 0x0a, 0x03, 0x10,              //   Usage (Vendor Usage 0x1003)       426
# 0x26, 0xff, 0x00,              //   Logical Maximum (255)             429
# 0x95, 0x01,                    //   Report Count (1)                  432
# 0xb1, 0x02,                    //   Feature (Data,Var,Abs)            434
# 0x85, 0x04,                    //   Report ID (4)                     436
# 0x0a, 0x04, 0x10,              //   Usage (Vendor Usage 0x1004)       438
# 0x25, 0x01,                    //   Logical Maximum (1)               441
# 0x95, 0x01,                    //   Report Count (1)                  443
# 0xb1, 0x02,                    //   Feature (Data,Var,Abs)            445
# 0x85, 0x07,                    //   Report ID (7)                     447
# 0x0a, 0x09, 0x10,              //   Usage (Vendor Usage 0x1009)       449
# 0x25, 0x02,                    //   Logical Maximum (2)               452
# 0x95, 0x01,                    //   Report Count (1)                  454
# 0xb1, 0x02,                    //   Feature (Data,Var,Abs)            456
# 0x95, 0x01,                    //   Report Count (1)                  458
# 0xb1, 0x03,                    //   Feature (Cnst,Var,Abs)            460
# 0x0a, 0x07, 0x10,              //   Usage (Vendor Usage 0x1007)       462
# 0x09, 0x00,                    //   Usage (Vendor Usage 0x00)         465
# 0x0a, 0x08, 0x10,              //   Usage (Vendor Usage 0x1008)       467
# 0x09, 0x00,                    //   Usage (Vendor Usage 0x00)         470
# 0x09, 0x00,                    //   Usage (Vendor Usage 0x00)         472
# 0x09, 0x00,                    //   Usage (Vendor Usage 0x00)         474
# 0x27, 0xff, 0xff, 0x00, 0x00,  //   Logical Maximum (65535)           476
# 0x75, 0x10,                    //   Report Size (16)                  481
# 0x95, 0x06,                    //   Report Count (6)                  483
# 0xb1, 0x02,                    //   Feature (Data,Var,Abs)            485
# 0x75, 0x08,                    //   Report Size (8)                   487
# 0x95, 0x01,                    //   Report Count (1)                  489
# 0xb1, 0x03,                    //   Feature (Cnst,Var,Abs)            491
# 0x85, 0x0c,                    //   Report ID (12)                    493
# 0x0a, 0x30, 0x0d,              //   Usage (Wacom Offset Left)         495
# 0x0a, 0x31, 0x0d,              //   Usage (Wacom Offset Top)          498
# 0x0a, 0x32, 0x0d,              //   Usage (Wacom Offset Right)        501
# 0x0a, 0x33, 0x0d,              //   Usage (Wacom Offset Bottom)       504
# 0x65, 0x11,                    //   Unit (SILinear: cm)               507
# 0x55, 0x0d,                    //   Unit Exponent (-3)                509
# 0x75, 0x10,                    //   Report Size (16)                  511
# 0x95, 0x04,                    //   Report Count (4)                  513
# 0xb1, 0x03,                    //   Feature (Cnst,Var,Abs)            515
# 0x85, 0x0d,                    //   Report ID (13)                    517
# 0x65, 0x00,                    //   Unit (None)                       519
# 0x55, 0x00,                    //   Unit Exponent (0)                 521
# 0x0a, 0x0d, 0x10,              //   Usage (Vendor Usage 0x100d)       523
# 0x15, 0x00,                    //   Logical Minimum (0)               526
# 0x25, 0x01,                    //   Logical Maximum (1)               528
# 0x75, 0x08,                    //   Report Size (8)                   530
# 0x95, 0x01,                    //   Report Count (1)                  532
# 0xb1, 0x02,                    //   Feature (Data,Var,Abs)            534
# 0x85, 0x14,                    //   Report ID (20)                    536
# 0x0a, 0x14, 0x10,              //   Usage (Vendor Usage 0x1014)       538
# 0x26, 0xff, 0x00,              //   Logical Maximum (255)             541
# 0x95, 0x0d,                    //   Report Count (13)                 544
# 0xb1, 0x02,                    //   Feature (Data,Var,Abs)            546
# 0x85, 0x31,                    //   Report ID (49)                    548
# 0x0a, 0x31, 0x10,              //   Usage (Vendor Usage 0x1031)       550
# 0x25, 0x64,                    //   Logical Maximum (100)             553
# 0x95, 0x05,                    //   Report Count (5)                  555
# 0xb1, 0x02,                    //   Feature (Data,Var,Abs)            557
# 0x85, 0x32,                    //   Report ID (50)                    559
# 0x0a, 0x31, 0x10,              //   Usage (Vendor Usage 0x1031)       561
# 0x25, 0x64,                    //   Logical Maximum (100)             564
# 0x95, 0x01,                    //   Report Count (1)                  566
# 0xb1, 0x02,                    //   Feature (Data,Var,Abs)            568
# 0x0a, 0x32, 0x10,              //   Usage (Vendor Usage 0x1032)       570
# 0x25, 0x03,                    //   Logical Maximum (3)               573
# 0xb1, 0x02,                    //   Feature (Data,Var,Abs)            575
# 0x85, 0x34,                    //   Report ID (52)                    577
# 0x0a, 0x34, 0x10,              //   Usage (Vendor Usage 0x1034)       579
# 0x25, 0x01,                    //   Logical Maximum (1)               582
# 0x95, 0x04,                    //   Report Count (4)                  584
# 0xb1, 0x02,                    //   Feature (Data,Var,Abs)            586
# 0x85, 0x35,                    //   Report ID (53)                    588
# 0x0a, 0x35, 0x10,              //   Usage (Vendor Usage 0x1035)       590
# 0x26, 0xff, 0x00,              //   Logical Maximum (255)             593
# 0x95, 0x0a,                    //   Report Count (10)                 596
# 0xb1, 0x02,                    //   Feature (Data,Var,Abs)            598
# 0x85, 0x36,                    //   Report ID (54)                    600
# 0x0a, 0x35, 0x10,              //   Usage (Vendor Usage 0x1035)       602
# 0x26, 0xff, 0x00,              //   Logical Maximum (255)             605
# 0x96, 0x01, 0x01,              //   Report Count (257)                608
# 0xb1, 0x02,                    //   Feature (Data,Var,Abs)            611
# 0x85, 0xcc,                    //   Report ID (204)                   613
# 0x0a, 0xcc, 0x10,              //   Usage (Vendor Usage 0x10cc)       615
# 0x26, 0xff, 0x00,              //   Logical Maximum (255)             618
# 0x95, 0x02,                    //   Report Count (2)                  621
# 0xb1, 0x02,                    //   Feature (Data,Var,Abs)            623
# 0xc0,                          //  End Collection                     625
# 0x0a, 0xac, 0x10,              //  Usage (Vendor Usage 0x10ac)        626
# 0xa1, 0x02,                    //  Collection (Logical)               629
# 0x15, 0x00,                    //   Logical Minimum (0)               631
# 0x26, 0xff, 0x00,              //   Logical Maximum (255)             633
# 0x75, 0x08,                    //   Report Size (8)                   636
# 0x85, 0xac,                    //   Report ID (172)                   638
# 0x09, 0x00,                    //   Usage (Vendor Usage 0x00)         640
# 0x95, 0xbf,                    //   Report Count (191)                642
# 0x81, 0x02,                    //   Input (Data,Var,Abs)              644
# 0x85, 0x33,                    //   Report ID (51)                    646
# 0x09, 0x00,                    //   Usage (Vendor Usage 0x00)         648
# 0x95, 0x12,                    //   Report Count (18)                 650
# 0xb1, 0x02,                    //   Feature (Data,Var,Abs)            652
# 0x85, 0x64,                    //   Report ID (100)                   654
# 0x09, 0x00,                    //   Usage (Vendor Usage 0x00)         656
# 0x95, 0x0c,                    //   Report Count (12)                 658
# 0xb1, 0x02,                    //   Feature (Data,Var,Abs)            660
# 0x85, 0x15,                    //   Report ID (21)                    662
# 0x09, 0x00,                    //   Usage (Vendor Usage 0x00)         664
# 0x95, 0x0e,                    //   Report Count (14)                 666
# 0xb1, 0x02,                    //   Feature (Data,Var,Abs)            668
# 0x85, 0x12,                    //   Report ID (18)                    670
# 0x09, 0x00,                    //   Usage (Vendor Usage 0x00)         672
# 0x95, 0x04,                    //   Report Count (4)                  674
# 0xb1, 0x02,                    //   Feature (Data,Var,Abs)            676
# 0x85, 0x16,                    //   Report ID (22)                    678
# 0x09, 0x00,                    //   Usage (Vendor Usage 0x00)         680
# 0x95, 0x0e,                    //   Report Count (14)                 682
# 0xb1, 0x02,                    //   Feature (Data,Var,Abs)            684
# 0x85, 0x40,                    //   Report ID (64)                    686
# 0x09, 0x00,                    //   Usage (Vendor Usage 0x00)         688
# 0x95, 0x01,                    //   Report Count (1)                  690
# 0xb1, 0x02,                    //   Feature (Data,Var,Abs)            692
# 0x85, 0x41,                    //   Report ID (65)                    694
# 0x09, 0x00,                    //   Usage (Vendor Usage 0x00)         696
# 0x95, 0x01,                    //   Report Count (1)                  698
# 0xb1, 0x02,                    //   Feature (Data,Var,Abs)            700
# 0x85, 0x42,                    //   Report ID (66)                    702
# 0x09, 0x00,                    //   Usage (Vendor Usage 0x00)         704
# 0x95, 0x04,                    //   Report Count (4)                  706
# 0xb1, 0x02,                    //   Feature (Data,Var,Abs)            708
# 0x85, 0x43,                    //   Report ID (67)                    710
# 0x09, 0x00,                    //   Usage (Vendor Usage 0x00)         712
# 0x95, 0x0d,                    //   Report Count (13)                 714
# 0xb1, 0x02,                    //   Feature (Data,Var,Abs)            716
# 0x85, 0x44,                    //   Report ID (68)                    718
# 0x09, 0x00,                    //   Usage (Vendor Usage 0x00)         720
# 0x95, 0x3f,                    //   Report Count (63)                 722
# 0xb1, 0x02,                    //   Feature (Data,Var,Abs)            724
# 0x85, 0x45,                    //   Report ID (69)                    726
# 0x09, 0x00,                    //   Usage (Vendor Usage 0x00)         728
# 0x95, 0x20,                    //   Report Count (32)                 730
# 0xb1, 0x02,                    //   Feature (Data,Var,Abs)            732
# 0x85, 0x60,                    //   Report ID (96)                    734
# 0x09, 0x00,                    //   Usage (Vendor Usage 0x00)         736
# 0x95, 0x3f,                    //   Report Count (63)                 738
# 0xb1, 0x02,                    //   Feature (Data,Var,Abs)            740
# 0x85, 0x61,                    //   Report ID (97)                    742
# 0x09, 0x00,                    //   Usage (Vendor Usage 0x00)         744
# 0x95, 0x3e,                    //   Report Count (62)                 746
# 0xb1, 0x02,                    //   Feature (Data,Var,Abs)            748
# 0x85, 0x62,                    //   Report ID (98)                    750
# 0x09, 0x00,                    //   Usage (Vendor Usage 0x00)         752
# 0x95, 0x3e,                    //   Report Count (62)                 754
# 0xb1, 0x02,                    //   Feature (Data,Var,Abs)            756
# 0xc0,                          //  End Collection                     758
# 0x85, 0xd0,                    //  Report ID (208)                    759
# 0x09, 0x01,                    //  Usage (Wacom Digitizer)            761
# 0x96, 0x08, 0x00,              //  Report Count (8)                   763
# 0xb1, 0x02,                    //  Feature (Data,Var,Abs)             766
# 0x85, 0xd1,                    //  Report ID (209)                    768
# 0x09, 0x01,                    //  Usage (Wacom Digitizer)            770
# 0x96, 0x04, 0x01,              //  Report Count (260)                 772
# 0xb1, 0x02,                    //  Feature (Data,Var,Abs)             775
# 0x85, 0xd2,                    //  Report ID (210)                    777
# 0x09, 0x01,                    //  Usage (Wacom Digitizer)            779
# 0x96, 0x04, 0x01,              //  Report Count (260)                 781
# 0xb1, 0x02,                    //  Feature (Data,Var,Abs)             784
# 0x85, 0xd3,                    //  Report ID (211)                    786
# 0x09, 0x01,                    //  Usage (Wacom Digitizer)            788
# 0x96, 0x04, 0x00,              //  Report Count (4)                   790
# 0xb1, 0x02,                    //  Feature (Data,Var,Abs)             793
# 0x85, 0xd4,                    //  Report ID (212)                    795
# 0x09, 0x01,                    //  Usage (Wacom Digitizer)            797
# 0x96, 0x04, 0x00,              //  Report Count (4)                   799
# 0xb1, 0x02,                    //  Feature (Data,Var,Abs)             802
# 0x85, 0xd5,                    //  Report ID (213)                    804
# 0x09, 0x01,                    //  Usage (Wacom Digitizer)            806
# 0x96, 0x04, 0x00,              //  Report Count (4)                   808
# 0xb1, 0x02,                    //  Feature (Data,Var,Abs)             811
# 0x85, 0xd6,                    //  Report ID (214)                    813
# 0x09, 0x01,                    //  Usage (Wacom Digitizer)            815
# 0x96, 0x04, 0x00,              //  Report Count (4)                   817
# 0xb1, 0x02,                    //  Feature (Data,Var,Abs)             820
# 0x85, 0xd7,                    //  Report ID (215)                    822
# 0x09, 0x01,                    //  Usage (Wacom Digitizer)            824
# 0x96, 0x08, 0x00,              //  Report Count (8)                   826
# 0xb1, 0x02,                    //  Feature (Data,Var,Abs)             829
# 0x85, 0xd8,                    //  Report ID (216)                    831
# 0x09, 0x01,                    //  Usage (Wacom Digitizer)            833
# 0x96, 0x0c, 0x00,              //  Report Count (12)                  835
# 0xb1, 0x02,                    //  Feature (Data,Var,Abs)             838
# 0x85, 0xd9,                    //  Report ID (217)                    840
# 0x09, 0x01,                    //  Usage (Wacom Digitizer)            842
# 0x96, 0x00, 0x0a,              //  Report Count (2560)                844
# 0xb1, 0x02,                    //  Feature (Data,Var,Abs)             847
# 0x85, 0xda,                    //  Report ID (218)                    849
# 0x09, 0x01,                    //  Usage (Wacom Digitizer)            851
# 0x96, 0x04, 0x04,              //  Report Count (1028)                853
# 0xb1, 0x02,                    //  Feature (Data,Var,Abs)             856
# 0x85, 0xdb,                    //  Report ID (219)                    858
# 0x09, 0x01,                    //  Usage (Wacom Digitizer)            860
# 0x96, 0x06, 0x00,              //  Report Count (6)                   862
# 0xb1, 0x02,                    //  Feature (Data,Var,Abs)             865
# 0x85, 0xdc,                    //  Report ID (220)                    867
# 0x09, 0x01,                    //  Usage (Wacom Digitizer)            869
# 0x96, 0x02, 0x00,              //  Report Count (2)                   871
# 0xb1, 0x02,                    //  Feature (Data,Var,Abs)             874
# 0x85, 0xdd,                    //  Report ID (221)                    876
# 0x09, 0x01,                    //  Usage (Wacom Digitizer)            878
# 0x96, 0x04, 0x00,              //  Report Count (4)                   880
# 0xb1, 0x02,                    //  Feature (Data,Var,Abs)             883
# 0x85, 0xde,                    //  Report ID (222)                    885
# 0x09, 0x01,                    //  Usage (Wacom Digitizer)            887
# 0x96, 0x04, 0x00,              //  Report Count (4)                   889
# 0xb1, 0x02,                    //  Feature (Data,Var,Abs)             892
# 0x85, 0xdf,                    //  Report ID (223)                    894
# 0x09, 0x01,                    //  Usage (Wacom Digitizer)            896
# 0x96, 0x22, 0x00,              //  Report Count (34)                  898
# 0xb1, 0x02,                    //  Feature (Data,Var,Abs)             901
# 0x85, 0xe0,                    //  Report ID (224)                    903
# 0x09, 0x01,                    //  Usage (Wacom Digitizer)            905
# 0x96, 0x01, 0x00,              //  Report Count (1)                   907
# 0xb1, 0x02,                    //  Feature (Data,Var,Abs)             910
# 0x85, 0xe1,                    //  Report ID (225)                    912
# 0x09, 0x01,                    //  Usage (Wacom Digitizer)            914
# 0x96, 0x02, 0x00,              //  Report Count (2)                   916
# 0xb1, 0x02,                    //  Feature (Data,Var,Abs)             919
# 0x85, 0xe2,                    //  Report ID (226)                    921
# 0x09, 0x01,                    //  Usage (Wacom Digitizer)            923
# 0x96, 0x02, 0x00,              //  Report Count (2)                   925
# 0xb1, 0x02,                    //  Feature (Data,Var,Abs)             928
# 0x85, 0xe3,                    //  Report ID (227)                    930
# 0x09, 0x01,                    //  Usage (Wacom Digitizer)            932
# 0x96, 0x02, 0x00,              //  Report Count (2)                   934
# 0xb1, 0x02,                    //  Feature (Data,Var,Abs)             937
# 0x85, 0xe4,                    //  Report ID (228)                    939
# 0x09, 0x01,                    //  Usage (Wacom Digitizer)            941
# 0x96, 0xff, 0x01,              //  Report Count (511)                 943
# 0xb1, 0x02,                    //  Feature (Data,Var,Abs)             946
# 0xc0,                          // End Collection                      948
# 
R: 949 05 01 09 02 a1 01 85 01 09 01 a1 00 05 09 19 01 29 03 15 00 25 01 75 01 95 03 81 02 75 01 95 05 81 03 05 01 09 30 09 31 15 81 25 7f 75 08 95 02 81 06 c0 c0 06 0d ff 09 01 a1 01 85 10 09 20 a1 00 09 42 09 44 09 5a 09 45 09 3c 09 32 09 36 15 00 25 01 75 01 95 07 81 02 95 01 81 03 0a 30 01 65 11 55 0d 35 00 47 80 57 00 00 15 00 27 00 af 00 00 75 18 95 01 81 02 0a 31 01 47 d0 39 00 00 27 a0 73 00 00 81 02 09 30 55 00 65 00 15 00 26 ff 1f 75 10 81 02 09 3d 09 3e 65 14 55 00 35 c0 45 3f 15 c0 25 3f 75 08 95 02 81 02 09 41 65 14 55 00 36 4c ff 46 b3 00 16 7c fc 26 83 03 75 10 95 01 81 0a 0a 03 0d 65 00 55 00 15 00 26 ff 07 75 10 95 01 81 02 0a 32 01 15 00 25 3f 75 08 95 01 81 02 09 5b 09 5c 17 00 00 00 80 27 ff ff ff 7f 75 20 95 02 81 02 09 77 15 00 26 ff 0f 75 10 95 01 81 02 c0 85 11 09 39 a1 00 1a 10 09 2a 17 09 15 00 25 01 75 01 95 08 81 02 1a 40 09 2a 47 09 81 02 0a 95 09 95 01 81 02 95 07 81 03 0a 38 01 65 14 55 00 35 00 46 67 01 15 00 25 47 75 07 95 01 81 0a 0a 39 01 65 00 55 00 25 01 75 01 95 01 81 02 75 08 95 04 81 03 c0 85 13 0a 13 10 a1 00 0a 3b 04 15 00 25 64 75 07 95 01 81 02 0a 04 04 25 01 75 01 81 02 0a 52 04 15 00 25 01 75 01 95 01 81 02 95 06 81 03 0a 54 04 95 01 81 02 75 08 95 06 81 03 c0 09 0e a1 02 15 00 85 02 09 01 75 08 25 01 95 01 b1 02 85 03 0a 03 10 26 ff 00 95 01 b1 02 85 04 0a 04 10 25 01 95 01 b1 02 85 07 0a 09 10 25 02 95 01 b1 02 95 01 b1 03 0a 07 10 09 00 0a 08 10 09 00 09 00 09 00 27 ff ff 00 00 75 10 95 06 b1 02 75 08 95 01 b1 03 85 0c 0a 30 0d 0a 31 0d 0a 32 0d 0a 33 0d 65 11 55 0d 75 10 95 04 b1 03 85 0d 65 00 55 00 0a 0d 10 15 00 25 01 75 08 95 01 b1 02 85 14 0a 14 10 26 ff 00 95 0d b1 02 85 31 0a 31 10 25 64 95 05 b1 02 85 32 0a 31 10 25 64 95 01 b1 02 0a 32 10 25 03 b1 02 85 34 0a 34 10 25 01 95 04 b1 02 85 35 0a 35 10 26 ff 00 95 0a b1 02 85 36 0a 35 10 26 ff 00 96 01 01 b1 02 85 cc 0a cc 10 26 ff 00 95 02 b1 02 c0 0a ac 10 a1 02 15 00 26 ff 00 75 08 85 ac 09 00 95 bf 81 02 85 33 09 00 95 12 b1 02 85 64 09 00 95 0c b1 02 85 15 09 00 95 0e b1 02 85 12 09 00 95 04 b1 02 85 16 09 00 95 0e b1 02 85 40 09 00 95 01 b1 02 85 41 09 00 95 01 b1 02 85 42 09 00 95 04 b1 02 85 43 09 00 95 0d b1 02 85 44 09 00 95 3f b1 02 85 45 09 00 95 20 b1 02 85 60 09 00 95 3f b1 02 85 61 09 00 95 3e b1 02 85 62 09 00 95 3e b1 02 c0 85 d0 09 01 96 08 00 b1 02 85 d1 09 01 96 04 01 b1 02 85 d2 09 01 96 04 01 b1 02 85 d3 09 01 96 04 00 b1 02 85 d4 09 01 96 04 00 b1 02 85 d5 09 01 96 04 00 b1 02 85 d6 09 01 96 04 00 b1 02 85 d7 09 01 96 08 00 b1 02 85 d8 09 01 96 0c 00 b1 02 85 d9 09 01 96 00 0a b1 02 85 da 09 01 96 04 04 b1 02 85 db 09 01 96 06 00 b1 02 85 dc 09 01 96 02 00 b1 02 85 dd 09 01 96 04 00 b1 02 85 de 09 01 96 04 00 b1 02 85 df 09 01 96 22 00 b1 02 85 e0 09 01 96 01 00 b1 02 85 e1 09 01 96 02 00 b1 02 85 e2 09 01 96 02 00 b1 02 85 e3 09 01 96 02 00 b1 02 85 e4 09 01 96 ff 01 b1 02 c0
N: Wacom Co.,Ltd. Wacom Intuos Pro M
I: 3 056a 0357
# ReportID: 19 / Wacom Battery Level:  100 | Wacom Battery Charging: 0 | 0xff0d0452: 0 | # | Wacom TouchOnOff: 1 | # 
E: 000000.000000 9 13 64 80 00 00 00 00 00 00
# ReportID: 19 / Wacom Battery Level:  100 | Wacom Battery Charging: 0 | 0xff0d0452: 0 | # | Wacom TouchOnOff: 1 | # 
E: 000001.999909 9 13 64 80 00 00 00 00 00 00
# ReportID: 16 / Tip Switch: 0 | Barrel Switch: 0 | Secondary Barrel Switch: 0 | Eraser: 0 | Invert: 0 | In Range: 0 | Wacom Sense: 1 | # | X:     25207 | Y:      6478 | Tip Pressure:      0 | X Tilt:    0 | Y Tilt:    0 | Twist:      0 | Wacom FingerWheel:      0 | Wacom Distance:   63 | Transducer Serial Number:           0 | Wacom SerialHi:           0 | Wacom ToolType:      0 
E: 000002.448914 27 10 40 77 62 00 4e 19 00 00 00 00 00 00 00 00 00 3f 00 00 00 00 00 00 00 00 00 00
# ReportID: 16 / Tip Switch: 0 | Barrel Switch: 0 | Secondary Barrel Switch: 0 | Eraser: 0 | Invert: 0 | In Range: 1 | Wacom Sense: 1 | # | X:     25182 | Y:      6529 | Tip Pressure:      0 | X Tilt:   35 | Y Tilt:   12 | Twist:      0 | Wacom FingerWheel:      0 | Wacom Distance:   63 | Transducer Serial Number:   595605148 | Wacom SerialHi:     1116162 | Wacom ToolType:   2050 
E: 000002.464047 27 10 60 5e 62 00 81 19 00 00 00 23 0c 00 00 00 00 3f 9c 36 80 23 02 08 11 00 02 08
# ReportID: 16 / Tip Switch: 0 | Barrel Switch: 0 | Secondary Barrel Switch: 0 | Eraser: 0 | Invert: 0 | In Range: 0 | Wacom Sense: 1 | # | X:     25182 | Y:      6529 | Tip Pressure:      0 | X Tilt:   35 | Y Tilt:   12 | Twist:      0 | Wacom FingerWheel:      0 | Wacom Distance:   63 | Transducer Serial Number:           0 | Wacom SerialHi:           0 | Wacom ToolType:      0 
E: 000002.473062 27 10 40 5e 62 00 81 19 00 00 00 23 0c 00 00 00 00 3f 00 00 00 00 00 00 00 00 00 00
# ReportID: 16 / Tip Switch: 0 | Barrel Switch: 0 | Secondary Barrel Switch: 0 | Eraser: 0 | Invert: 0 | In Range: 0 | Wacom Sense: 1 | # | X:     25175 | Y:      6632 | Tip Pressure:      0 | X Tilt:    0 | Y Tilt:    0 | Twist:      0 | Wacom FingerWheel:      0 | Wacom Distance:   63 | Transducer Serial Number:           0 | Wacom SerialHi:           0 | Wacom ToolType:      0 
E: 000002.473948 27 10 40 57 62 00 e8 19 00 00 00 00 00 00 00 00 00 3f 00 00 00 00 00 00 00 00 00 00
# ReportID: 16 / Tip Switch: 0 | Barrel Switch: 0 | Secondary Barrel Switch: 0 | Eraser: 0 | Invert: 0 | In Range: 0 | Wacom Sense: 1 | # | X:     25170 | Y:      6670 | Tip Pressure:      0 | X Tilt:    0 | Y Tilt:    0 | Twist:      0 | Wacom FingerWheel:      0 | Wacom Distance:   63 | Transducer Serial Number:           0 | Wacom SerialHi:           0 | Wacom ToolType:      0 
E: 000002.479039 27 10 40 52 62 00 0e 1a 00 00 00 00 00 00 00 00 00 3f 00 00 00 00 00 00 00 00 00 00
# ReportID: 16 / Tip Switch: 0 | Barrel Switch: 0 | Secondary Barrel Switch: 0 | Eraser: 0 | Invert: 0 | In Range: 1 | Wacom Sense: 1 | # | X:     25166 | Y:      6702 | Tip Pressure:      0 | X Tilt:   35 | Y Tilt:   12 | Twist:      0 | Wacom FingerWheel:      0 | Wacom Distance:   63 | Transducer Serial Number:   595605148 | Wacom SerialHi:     1116162 | Wacom ToolType:   2050 
E: 000002.482025 27 10 60 4e 62 00 2e 1a 00 00 00 23 0c 00 00 00 00 3f 9c 36 80 23 02 08 11 00 02 08
# ReportID: 16 / Tip Switch: 0 | Barrel Switch: 0 | Secondary Barrel Switch: 0 | Eraser: 0 | Invert: 0 | In Range: 0 | Wacom Sense: 1 | # | X:     25166 | Y:      6702 | Tip Pressure:      0 | X Tilt:   35 | Y Tilt:   12 | Twist:      0 | Wacom FingerWheel:      0 | Wacom Distance:   63 | Transducer Serial Number:           0 | Wacom SerialHi:           0 | Wacom ToolType:      0 
E: 000002.488002 27 10 40 4e 62 00 2e 1a 00 00 00 23 0c 00 00 00 00 3f 00 00 00 00 00 00 00 00 00 00
# ReportID: 16 / Tip Switch: 0 | Barrel Switch: 0 | Secondary Barrel Switch: 0 | Eraser: 0 | Invert: 0 | In Range: 0 | Wacom Sense: 1 | # | X:     25161 | Y:      6722 | Tip Pressure:      0 | X Tilt:    0 | Y Tilt:    0 | Twist:      0 | Wacom FingerWheel:      0 | Wacom Distance:   63 | Transducer Serial Number:           0 | Wacom SerialHi:           0 | Wacom ToolType:      0 
E: 000002.488966 27 10 40 49 62 00 42 1a 00 00 00 00 00 00 00 00 00 3f 00 00 00 00 00 00 00 00 00 00
# ReportID: 16 / Tip Switch: 0 | Barrel Switch: 0 | Secondary Barrel Switch: 0 | Eraser: 0 | Invert: 0 | In Range: 0 | Wacom Sense: 1 | # | X:     25156 | Y:      6748 | Tip Pressure:      0 | X Tilt:    0 | Y Tilt:    0 | Twist:      0 | Wacom FingerWheel:      0 | Wacom Distance:   63 | Transducer Serial Number:           0 | Wacom SerialHi:           0 | Wacom ToolType:      0 
E: 000002.490965 27 10 40 44 62 00 5c 1a 00 00 00 00 00 00 00 00 00 3f 00 00 00 00 00 00 00 00 00 00
# ReportID: 16 / Tip Switch: 0 | Barrel Switch: 0 | Secondary Barrel Switch: 0 | Eraser: 0 | Invert: 0 | In Range: 1 | Wacom Sense: 1 | # | X:     25151 | Y:      6763 | Tip Pressure:      0 | X Tilt:   34 | Y Tilt:   11 | Twist:      0 | Wacom FingerWheel:      0 | Wacom Distance:   63 | Transducer Serial Number:   595605148 | Wacom SerialHi:     1116162 | Wacom ToolType:   2050 
E: 000002.496916 27 10 60 3f 62 00 6b 1a 00 00 00 22 0b 00 00 00 00 3f 9c 36 80 23 02 08 11 00 02 08
# ReportID: 16 / Tip Switch: 0 | Barrel Switch: 0 | Secondary Barrel Switch: 0 | Eraser: 0 | Invert: 0 | In Range: 0 | Wacom Sense: 1 | # | X:     25151 | Y:      6763 | Tip Pressure:      0 | X Tilt:   34 | Y Tilt:   11 | Twist:      0 | Wacom FingerWheel:      0 | Wacom Distance:   63 | Transducer Serial Number:           0 | Wacom SerialHi:           0 | Wacom ToolType:      0 
E: 000002.502926 27 10 40 3f 62 00 6b 1a 00 00 00 22 0b 00 00 00 00 3f 00 00 00 00 00 00 00 00 00 00
# ReportID: 16 / Tip Switch: 0 | Barrel Switch: 0 | Secondary Barrel Switch: 0 | Eraser: 0 | Invert: 0 | In Range: 0 | Wacom Sense: 1 | # | X:     25146 | Y:      6776 | Tip Pressure:      0 | X Tilt:    0 | Y Tilt:    0 | Twist:      0 | Wacom FingerWheel:      0 | Wacom Distance:   63 | Transducer Serial Number:           0 | Wacom SerialHi:           0 | Wacom ToolType:      0 
E: 000002.503902 27 10 40 3a 62 00 78 1a 00 00 00 00 00 00 00 00 00 3f 00 00 00 00 00 00 00 00 00 00
# ReportID: 16 / Tip Switch: 0 | Barrel Switch: 0 | Secondary Barrel Switch: 0 | Eraser: 0 | Invert: 0 | In Range: 1 | Wacom Sense: 1 | # | X:     25142 | Y:      6787 | Tip Pressure:      0 | X Tilt:   34 | Y Tilt:   11 | Twist:      0 | Wacom FingerWheel:      0 | Wacom Distance:   63 | Transducer Serial Number:   595605148 | Wacom SerialHi:     1116162 | Wacom ToolType:   2050 
E: 000002.505883 27 10 60 36 62 00 83 1a 00 00 00 22 0b 00 00 00 00 3f 9c 36 80 23 02 08 11 00 02 08
# ReportID: 16 / Tip Switch: 0 | Barrel Switch: 0 | Secondary Barrel Switch: 0 | Eraser: 0 | Invert: 0 | In Range: 1 | Wacom Sense: 1 | # | X:     25137 | Y:      6798 | Tip Pressure:      0 | X Tilt:   34 | Y Tilt:   10 | Twist:      0 | Wacom FingerWheel:      0 | Wacom Distance:   63 | Transducer Serial Number:   595605148 | Wacom SerialHi:     1116162 | Wacom ToolType:   2050 
E: 000002.511894 27 10 60 31 62 00 8e 1a 00 00 00 22 0a 00 00 00 00 3f 9c 36 80 23 02 08 11 00 02 08
# ReportID: 16 / Tip Switch: 0 | Barrel Switch: 0 | Secondary Barrel Switch: 0 | Eraser: 0 | Invert: 0 | In Range: 1 | Wacom Sense: 1 | # | X:     25133 | Y:      6805 | Tip Pressure:      0 | X Tilt:   34 | Y Tilt:   10 | Twist:      0 | Wacom FingerWheel:      0 | Wacom Distance:   63 | Transducer Serial Number:   595605148 | Wacom SerialHi:     1116162 | Wacom ToolType:   2050 
E: 000002.517895 27 10 60 2d 62 00 95 1a 00 00 00 22 0a 00 00 00 00 3f 9c 36 80 23 02 08 11 00 02 08
# ReportID: 16 / Tip Switch: 0 | Barrel Switch: 0 | Secondary Barrel Switch: 0 | Eraser: 0 | Invert: 0 | In Range: 1 | Wacom Sense: 1 | # | X:     25128 | Y:      6811 | Tip Pressure:      0 | X Tilt:   34 | Y Tilt:   10 | Twist:      0 | Wacom FingerWheel:      0 | Wacom Distance:   63 | Transducer Serial Number:   595605148 | Wacom SerialHi:     1116162 | Wacom ToolType:   2050 
E: 000002.520907 27 10 60 28 62 00 9b 1a 00 00 00 22 0a 00 00 00 00 3f 9c 36 80 23 02 08 11 00 02 08
# ReportID: 16 / Tip Switch: 0 | Barrel Switch: 0 | Secondary Barrel Switch: 0 | Eraser: 0 | Invert: 0 | In Range: 1 | Wacom Sense: 1 | # | X:     25124 | Y:      6815 | Tip Pressure:      0 | X Tilt:   34 | Y Tilt:   10 | Twist:      0 | Wacom FingerWheel:      0 | Wacom Distance:   63 | Transducer Serial Number:   595605148 | Wacom SerialHi:     1116162 | Wacom ToolType:   2050 
E: 000002.526892 27 10 60 24 62 00 9f 1a 00 00 00 22 0a 00 00 00 00 3f 9c 36 80 23 02 08 11 00 02 08
# ReportID: 16 / Tip Switch: 0 | Barrel Switch: 0 | Secondary Barrel Switch: 0 | Eraser: 0 | Invert: 0 | In Range: 1 | Wacom Sense: 1 | # | X:     25120 | Y:      6817 | Tip Pressure:      0 | X Tilt:   34 | Y Tilt:   10 | Twist:      0 | Wacom FingerWheel:      0 | Wacom Distance:   63 | Transducer Serial Number:   595605148 | Wacom SerialHi:     1116162 | Wacom ToolType:   2050 
E: 000002.532883 27 10 60 20 62 00 a1 1a 00 00 00 22 0a 00 00 00 00 3f 9c 36 80 23 02 08 11 00 02 08
# ReportID: 16 / Tip Switch: 0 | Barrel Switch: 0 | Secondary Barrel Switch: 0 | Eraser: 0 | Invert: 0 | In Range: 1 | Wacom Sense: 1 | # | X:     25116 | Y:      6817 | Tip Pressure:      0 | X Tilt:   34 | Y Tilt:   10 | Twist:      0 | Wacom FingerWheel:      0 | Wacom Distance:   63 | Transducer Serial Number:   595605148 | Wacom SerialHi:     1116162 | Wacom ToolType:   2050 
E: 000002.535873 27 10 60 1c 62 00 a1 1a 00 00 00 22 0a 00 00 00 00 3f 9c 36 80 23 02 08 11 00 02 08
# ReportID: 16 / Tip Switch: 0 | Barrel Switch: 0 | Secondary Barrel Switch: 0 | Eraser: 0 | Invert: 0 | In Range: 1 | Wacom Sense: 1 | # | X:     25113 | Y:      6815 | Tip Pressure:      0 | X Tilt:   34 | Y Tilt:    9 | Twist:      0 | Wacom FingerWheel:      0 | Wacom Distance:   63 | Transducer Serial Number:   595605148 | Wacom SerialHi:     1116162 | Wacom ToolType:   2050 
E: 000002.541871 27 10 60 19 62 00 9f 1a 00 00 00 22 09 00 00 00 00 3f 9c 36 80 23 02 08 11 00 02 08
# ReportID: 16 / Tip Switch: 0 | Barrel Switch: 0 | Secondary Barrel Switch: 0 | Eraser: 0 | Invert: 0 | In Range: 1 | Wacom Sense: 1 | # | X:     25111 | Y:      6809 | Tip Pressure:      0 | X Tilt:   34 | Y Tilt:    9 | Twist:      0 | Wacom FingerWheel:      0 | Wacom Distance:   63 | Transducer Serial Number:   595605148 | Wacom SerialHi:     1116162 | Wacom ToolType:   2050 
E: 000002.547915 27 10 60 17 62 00 99 1a 00 00 00 22 09 00 00 00 00 3f 9c 36 80 23 02 08 11 00 02 08
# ReportID: 16 / Tip Switch: 0 | Barrel Switch: 0 | Secondary Barrel Switch: 0 | Eraser: 0 | Invert: 0 | In Range: 1 | Wacom Sense: 1 | # | X:     25110 | Y:      6801 | Tip Pressure:      0 | X Tilt:   34 | Y Tilt:    9 | Twist:      0 | Wacom FingerWheel:      0 | Wacom Distance:   63 | Transducer Serial Number:   595605148 | Wacom SerialHi:     1116162 | Wacom ToolType:   2050 
E: 000002.550914 27 10 60 16 62 00 91 1a 00 00 00 22 09 00 00 00 00 3f 9c 36 80 23 02 08 11 00 02 08
# ReportID: 16 / Tip Switch: 0 | Barrel Switch: 0 | Secondary Barrel Switch: 0 | Eraser: 0 | Invert: 0 | In Range: 1 | Wacom Sense: 1 | # | X:     25110 | Y:      6790 | Tip Pressure:      0 | X Tilt:   34 | Y Tilt:    9 | Twist:      0 | Wacom FingerWheel:      0 | Wacom Distance:   63 | Transducer Serial Number:   595605148 | Wacom SerialHi:     1116162 | Wacom ToolType:   2050 
E: 000002.556900 27 10 60 16 62 00 86 1a 00 00 00 22 09 00 00 00 00 3f 9c 36 80 23 02 08 11 00 02 08
# ReportID: 16 / Tip Switch: 0 | Barrel Switch: 0 | Secondary Barrel Switch: 0 | Eraser: 0 | Invert: 0 | In Range: 1 | Wacom Sense: 1 | # | X:     25110 | Y:      6777 | Tip Pressure:      0 | X Tilt:   34 | Y Tilt:    9 | Twist:      0 | Wacom FingerWheel:      0 | Wacom Distance:   63 | Transducer Serial Number:   595605148 | Wacom SerialHi:     1116162 | Wacom ToolType:   2050 
E: 000002.562886 27 10 60 16 62 00 79 1a 00 00 00 22 09 00 00 00 00 3f 9c 36 80 23 02 08 11 00 02 08
# ReportID: 16 / Tip Switch: 0 | Barrel Switch: 0 | Secondary Barrel Switch: 0 | Eraser: 0 | Invert: 0 | In Range: 1 | Wacom Sense: 1 | # | X:     25108 | Y:      6772 | Tip Pressure:      0 | X Tilt:   34 | Y Tilt:    9 | Twist:      0 | Wacom FingerWheel:      0 | Wacom Distance:   63 | Transducer Serial Number:   595605148 | Wacom SerialHi:     1116162 | Wacom ToolType:   2050 
E: 000002.565937 27 10 60 14 62 00 74 1a 00 00 00 22 09 00 00 00 00 3f 9c 36 80 23 02 08 11 00 02 08
# ReportID: 16 / Tip Switch: 0 | Barrel Switch: 0 | Secondary Barrel Switch: 0 | Eraser: 0 | Invert: 0 | In Range: 1 | Wacom Sense: 1 | # | X:     25103 | Y:      6754 | Tip Pressure:      0 | X Tilt:   34 | Y Tilt:    9 | Twist:      0 | Wacom FingerWheel:      0 | Wacom Distance:   62 | Transducer Serial Number:   595605148 | Wacom SerialHi:     1116162 | Wacom ToolType:   2050 
E: 000002.572117 27 10 60 0f 62 00 62 1a 00 00 00 22 09 00 00 00 00 3e 9c 36 80 23 02 08 11 00 02 08
# ReportID: 16 / Tip Switch: 0 | Barrel Switch: 0 | Secondary Barrel Switch: 0 | Eraser: 0 | Invert: 0 | In Range: 1 | Wacom Sense: 1 | # | X:     25103 | Y:      6728 | Tip Pressure:      0 | X Tilt:   34 | Y Tilt:    9 | Twist:      0 | Wacom FingerWheel:      0 | Wacom Distance:   62 | Transducer Serial Number:   595605148 | Wacom SerialHi:     1116162 | Wacom ToolType:   2050 
E: 000002.577914 27 10 60 0f 62 00 48 1a 00 00 00 22 09 00 00 00 00 3e 9c 36 80 23 02 08 11 00 02 08
# ReportID: 16 / Tip Switch: 0 | Barrel Switch: 0 | Secondary Barrel Switch: 0 | Eraser: 0 | Invert: 0 | In Range: 1 | Wacom Sense: 1 | # | X:     25104 | Y:      6696 | Tip Pressure:      0 | X Tilt:   34 | Y Tilt:    9 | Twist:      0 | Wacom FingerWheel:      0 | Wacom Distance:   61 | Transducer Serial Number:   595605148 | Wacom SerialHi:     1116162 | Wacom ToolType:   2050 
E: 000002.580889 27 10 60 10 62 00 28 1a 00 00 00 22 09 00 00 00 00 3d 9c 36 80 23 02 08 11 00 02 08
# ReportID: 16 / Tip Switch: 0 | Barrel Switch: 0 | Secondary Barrel Switch: 0 | Eraser: 0 | Invert: 0 | In Range: 1 | Wacom Sense: 1 | # | X:     25106 | Y:      6657 | Tip Pressure:      0 | X Tilt:   34 | Y Tilt:    9 | Twist:      0 | Wacom FingerWheel:      0 | Wacom Distance:   61 | Transducer Serial Number:   595605148 | Wacom SerialHi:     1116162 | Wacom ToolType:   2050 
E: 000002.586924 27 10 60 12 62 00 01 1a 00 00 00 22 09 00 00 00 00 3d 9c 36 80 23 02 08 11 00 02 08
# ReportID: 16 / Tip Switch: 0 | Barrel Switch: 0 | Secondary Barrel Switch: 0 | Eraser: 0 | Invert: 0 | In Range: 1 | Wacom Sense: 1 | # | X:     25109 | Y:      6617 | Tip Pressure:      0 | X Tilt:   34 | Y Tilt:    9 | Twist:      0 | Wacom FingerWheel:      0 | Wacom Distance:   60 | Transducer Serial Number:   595605148 | Wacom SerialHi:     1116162 | Wacom ToolType:   2050 
E: 000002.592883 27 10 60 15 62 00 d9 19 00 00 00 22 09 00 00 00 00 3c 9c 36 80 23 02 08 11 00 02 08
# ReportID: 16 / Tip Switch: 0 | Barrel Switch: 0 | Secondary Barrel Switch: 0 | Eraser: 0 | Invert: 0 | In Range: 1 | Wacom Sense: 1 | # | X:     25113 | Y:      6556 | Tip Pressure:      0 | X Tilt:   34 | Y Tilt:    9 | Twist:      0 | Wacom FingerWheel:      0 | Wacom Distance:   59 | Transducer Serial Number:   595605148 | Wacom SerialHi:     1116162 | Wacom ToolType:   2050 
E: 000002.595895 27 10 60 19 62 00 9c 19 00 00 00 22 09 00 00 00 00 3b 9c 36 80 23 02 08 11 00 02 08
# ReportID: 16 / Tip Switch: 0 | Barrel Switch: 0 | Secondary Barrel Switch: 0 | Eraser: 0 | Invert: 0 | In Range: 1 | Wacom Sense: 1 | # | X:     25118 | Y:      6504 | Tip Pressure:      0 | X Tilt:   34 | Y Tilt:    8 | Twist:      0 | Wacom FingerWheel:      0 | Wacom Distance:   59 | Transducer Serial Number:   595605148 | Wacom SerialHi:     1116162 | Wacom ToolType:   2050 
E: 000002.601941 27 10 60 1e 62 00 68 19 00 00 00 22 08 00 00 00 00 3b 9c 36 80 23 02 08 11 00 02 08
# ReportID: 16 / Tip Switch: 0 | Barrel Switch: 0 | Secondary Barrel Switch: 0 | Eraser: 0 | Invert: 0 | In Range: 1 | Wacom Sense: 1 | # | X:     25123 | Y:      6451 | Tip Pressure:      0 | X Tilt:   34 | Y Tilt:    8 | Twist:      0 | Wacom FingerWheel:      0 | Wacom Distance:   58 | Transducer Serial Number:   595605148 | Wacom SerialHi:     1116162 | Wacom ToolType:   2050 
E: 000002.607950 27 10 60 23 62 00 33 19 00 00 00 22 08 00 00 00 00 3a 9c 36 80 23 02 08 11 00 02 08
# ReportID: 16 / Tip Switch: 0 | Barrel Switch: 0 | Secondary Barrel Switch: 0 | Eraser: 0 | Invert: 0 | In Range: 1 | Wacom Sense: 1 | # | X:     25129 | Y:      6399 | Tip Pressure:      0 | X Tilt:   34 | Y Tilt:    8 | Twist:      0 | Wacom FingerWheel:      0 | Wacom Distance:   58 | Transducer Serial Number:   595605148 | Wacom SerialHi:     1116162 | Wacom ToolType:   2050 
E: 000002.610901 27 10 60 29 62 00 ff 18 00 00 00 22 08 00 00 00 00 3a 9c 36 80 23 02 08 11 00 02 08
# ReportID: 16 / Tip Switch: 0 | Barrel Switch: 0 | Secondary Barrel Switch: 0 | Eraser: 0 | Invert: 0 | In Range: 1 | Wacom Sense: 1 | # | X:     25135 | Y:      6343 | Tip Pressure:      0 | X Tilt:   34 | Y Tilt:    8 | Twist:      0 | Wacom FingerWheel:      0 | Wacom Distance:   57 | Transducer Serial Number:   595605148 | Wacom SerialHi:     1116162 | Wacom ToolType:   2050 
E: 000002.616900 27 10 60 2f 62 00 c7 18 00 00 00 22 08 00 00 00 00 39 9c 36 80 23 02 08 11 00 02 08
# ReportID: 16 / Tip Switch: 0 | Barrel Switch: 0 | Secondary Barrel Switch: 0 | Eraser: 0 | Invert: 0 | In Range: 1 | Wacom Sense: 1 | # | X:     25141 | Y:      6286 | Tip Pressure:      0 | X Tilt:   34 | Y Tilt:    8 | Twist:      0 | Wacom FingerWheel:      0 | Wacom Distance:   57 | Transducer Serial Number:   595605148 | Wacom SerialHi:     1116162 | Wacom ToolType:   2050 
E: 000002.622950 27 10 60 35 62 00 8e 18 00 00 00 22 08 00 00 00 00 39 9c 36 80 23 02 08 11 00 02 08
# ReportID: 16 / Tip Switch: 0 | Barrel Switch: 0 | Secondary Barrel Switch: 0 | Eraser: 0 | Invert: 0 | In Range: 1 | Wacom Sense: 1 | # | X:     25147 | Y:      6229 | Tip Pressure:      0 | X Tilt:   34 | Y Tilt:    8 | Twist:      0 | Wacom FingerWheel:      0 | Wacom Distance:   57 | Transducer Serial Number:   595605148 | Wacom SerialHi:     1116162 | Wacom ToolType:   2050 
E: 000002.626021 27 10 60 3b 62 00 55 18 00 00 00 22 08 00 00 00 00 39 9c 36 80 23 02 08 11 00 02 08
# ReportID: 16 / Tip Switch: 0 | Barrel Switch: 0 | Secondary Barrel Switch: 0 | Eraser: 0 | Invert: 0 | In Range: 1 | Wacom Sense: 1 | # | X:     25153 | Y:      6174 | Tip Pressure:      0 | X Tilt:   34 | Y Tilt:    8 | Twist:      0 | Wacom FingerWheel:      0 | Wacom Distance:   57 | Transducer Serial Number:   595605148 | Wacom SerialHi:     1116162 | Wacom ToolType:   2050 
E: 000002.631911 27 10 60 41 62 00 1e 18 00 00 00 22 08 00 00 00 00 39 9c 36 80 23 02 08 11 00 02 08
# ReportID: 16 / Tip Switch: 0 | Barrel Switch: 0 | Secondary Barrel Switch: 0 | Eraser: 0 | Invert: 0 | In Range: 1 | Wacom Sense: 1 | # | X:     25158 | Y:      6120 | Tip Pressure:      0 | X Tilt:   34 | Y Tilt:    8 | Twist:      0 | Wacom FingerWheel:      0 | Wacom Distance:   56 | Transducer Serial Number:   595605148 | Wacom SerialHi:     1116162 | Wacom ToolType:   2050 
E: 000002.637929 27 10 60 46 62 00 e8 17 00 00 00 22 08 00 00 00 00 38 9c 36 80 23 02 08 11 00 02 08
# ReportID: 16 / Tip Switch: 0 | Barrel Switch: 0 | Secondary Barrel Switch: 0 | Eraser: 0 | Invert: 0 | In Range: 1 | Wacom Sense: 1 | # | X:     25162 | Y:      6069 | Tip Pressure:      0 | X Tilt:   34 | Y Tilt:    8 | Twist:      0 | Wacom FingerWheel:      0 | Wacom Distance:   56 | Transducer Serial Number:   595605148 | Wacom SerialHi:     1116162 | Wacom ToolType:   2050 
E: 000002.640932 27 10 60 4a 62 00 b5 17 00 00 00 22 08 00 00 00 00 38 9c 36 80 23 02 08 11 00 02 08
# ReportID: 16 / Tip Switch: 0 | Barrel Switch: 0 | Secondary Barrel Switch: 0 | Eraser: 0 | Invert: 0 | In Range: 1 | Wacom Sense: 1 | # | X:     25169 | Y:      5991 | Tip Pressure:      0 | X Tilt:   34 | Y Tilt:    8 | Twist:      0 | Wacom FingerWheel:      0 | Wacom Distance:   55 | Transducer Serial Number:   595605148 | Wacom SerialHi:     1116162 | Wacom ToolType:   2050 
E: 000002.646884 27 10 60 51 62 00 67 17 00 00 00 22 08 00 00 00 00 37 9c 36 80 23 02 08 11 00 02 08
# ReportID: 16 / Tip Switch: 0 | Barrel Switch: 0 | Secondary Barrel Switch: 0 | Eraser: 0 | Invert: 0 | In Range: 1 | Wacom Sense: 1 | # | X:     25171 | Y:      5949 | Tip Pressure:      0 | X Tilt:   34 | Y Tilt:    8 | Twist:      0 | Wacom FingerWheel:      0 | Wacom Distance:   54 | Transducer Serial Number:   595605148 | Wacom SerialHi:     1116162 | Wacom ToolType:   2050 
E: 000002.652864 27 10 60 53 62 00 3d 17 00 00 00 22 08 00 00 00 00 36 9c 36 80 23 02 08 11 00 02 08
# ReportID: 16 / Tip Switch: 0 | Barrel Switch: 0 | Secondary Barrel Switch: 0 | Eraser: 0 | Invert: 0 | In Range: 1 | Wacom Sense: 1 | # | X:     25172 | Y:      5909 | Tip Pressure:      0 | X Tilt:   34 | Y Tilt:    8 | Twist:      0 | Wacom FingerWheel:      0 | Wacom Distance:   54 | Transducer Serial Number:   595605148 | Wacom SerialHi:     1116162 | Wacom ToolType:   2050 
E: 000002.655943 27 10 60 54 62 00 15 17 00 00 00 22 08 00 00 00 00 36 9c 36 80 23 02 08 11 00 02 08
# ReportID: 16 / Tip Switch: 0 | Barrel Switch: 0 | Secondary Barrel Switch: 0 | Eraser: 0 | Invert: 0 | In Range: 1 | Wacom Sense: 1 | # | X:     25173 | Y:      5873 | Tip Pressure:      0 | X Tilt:   34 | Y Tilt:    8 | Twist:      0 | Wacom FingerWheel:      0 | Wacom Distance:   53 | Transducer Serial Number:   595605148 | Wacom SerialHi:     1116162 | Wacom ToolType:   2050 
E: 000002.661900 27 10 60 55 62 00 f1 16 00 00 00 22 08 00 00 00 00 35 9c 36 80 23 02 08 11 00 02 08
# ReportID: 16 / Tip Switch: 0 | Barrel Switch: 0 | Secondary Barrel Switch: 0 | Eraser: 0 | Invert: 0 | In Range: 1 | Wacom Sense: 1 | # | X:     25173 | Y:      5842 | Tip Pressure:      0 | X Tilt:   34 | Y Tilt:    8 | Twist:      0 | Wacom FingerWheel:      0 | Wacom Distance:   52 | Transducer Serial Number:   595605148 | Wacom SerialHi:     1116162 | Wacom ToolType:   2050 
E: 000002.668031 27 10 60 55 62 00 d2 16 00 00 00 22 08 00 00 00 00 34 9c 36 80 23 02 08 11 00 02 08
# ReportID: 16 / Tip Switch: 0 | Barrel Switch: 0 | Secondary Barrel Switch: 0 | Eraser: 0 | Invert: 0 | In Range: 1 | Wacom Sense: 1 | # | X:     25173 | Y:      5796 | Tip Pressure:      0 | X Tilt:   34 | Y Tilt:    8 | Twist:      0 | Wacom FingerWheel:      0 | Wacom Distance:   51 | Transducer Serial Number:   595605148 | Wacom SerialHi:     1116162 | Wacom ToolType:   2050 
E: 000002.670929 27 10 60 55 62 00 a4 16 00 00 00 22 08 00 00 00 00 33 9c 36 80 23 02 08 11 00 02 08
# ReportID: 16 / Tip Switch: 0 | Barrel Switch: 0 | Secondary Barrel Switch: 0 | Eraser: 0 | Invert: 0 | In Range: 1 | Wacom Sense: 1 | # | X:     25173 | Y:      5771 | Tip Pressure:      0 | X Tilt:   34 | Y Tilt:    8 | Twist:      0 | Wacom FingerWheel:      0 | Wacom Distance:   50 | Transducer Serial Number:   595605148 | Wacom SerialHi:     1116162 | Wacom ToolType:   2050 
E: 000002.677060 27 10 60 55 62 00 8b 16 00 00 00 22 08 00 00 00 00 32 9c 36 80 23 02 08 11 00 02 08
# ReportID: 16 / Tip Switch: 0 | Barrel Switch: 0 | Secondary Barrel Switch: 0 | Eraser: 0 | Invert: 0 | In Range: 1 | Wacom Sense: 1 | # | X:     25172 | Y:      5748 | Tip Pressure:      0 | X Tilt:   34 | Y Tilt:    8 | Twist:      0 | Wacom FingerWheel:      0 | Wacom Distance:   49 | Transducer Serial Number:   595605148 | Wacom SerialHi:     1116162 | Wacom ToolType:   2050 
E: 000002.680116 27 10 60 54 62 00 74 16 00 00 00 22 08 00 00 00 00 31 9c 36 80 23 02 08 11 00 02 08
# ReportID: 16 / Tip Switch: 0 | Barrel Switch: 0 | Secondary Barrel Switch: 0 | Eraser: 0 | Invert: 0 | In Range: 1 | Wacom Sense: 1 | # | X:     25172 | Y:      5725 | Tip Pressure:      0 | X Tilt:   34 | Y Tilt:    8 | Twist:      0 | Wacom FingerWheel:      0 | Wacom Distance:   49 | Transducer Serial Number:   595605148 | Wacom SerialHi:     1116162 | Wacom ToolType:   2050 
E: 000002.686015 27 10 60 54 62 00 5d 16 00 00 00 22 08 00 00 00 00 31 9c 36 80 23 02 08 11 00 02 08
# ReportID: 16 / Tip Switch: 0 | Barrel Switch: 0 | Secondary Barrel Switch: 0 | Eraser: 0 | Invert: 0 | In Range: 1 | Wacom Sense: 1 | # | X:     25171 | Y:      5692 | Tip Pressure:      0 | X Tilt:   34 | Y Tilt:    8 | Twist:      0 | Wacom FingerWheel:      0 | Wacom Distance:   47 | Transducer Serial Number:   595605148 | Wacom SerialHi:     1116162 | Wacom ToolType:   2050 
E: 000002.691899 27 10 60 53 62 00 3c 16 00 00 00 22 08 00 00 00 00 2f 9c 36 80 23 02 08 11 00 02 08
# ReportID: 16 / Tip Switch: 0 | Barrel Switch: 0 | Secondary Barrel Switch: 0 | Eraser: 0 | Invert: 0 | In Range: 1 | Wacom Sense: 1 | # | X:     25171 | Y:      5672 | Tip Pressure:      0 | X Tilt:   34 | Y Tilt:    8 | Twist:      0 | Wacom FingerWheel:      0 | Wacom Distance:   46 | Transducer Serial Number:   595605148 | Wacom SerialHi:     1116162 | Wacom ToolType:   2050 
E: 000002.694900 27 10 60 53 62 00 28 16 00 00 00 22 08 00 00 00 00 2e 9c 36 80 23 02 08 11 00 02 08
# ReportID: 16 / Tip Switch: 0 | Barrel Switch: 0 | Secondary Barrel Switch: 0 | Eraser: 0 | Invert: 0 | In Range: 1 | Wacom Sense: 1 | # | X:     25170 | Y:      5652 | Tip Pressure:      0 | X Tilt:   34 | Y Tilt:    8 | Twist:      0 | Wacom FingerWheel:      0 | Wacom Distance:   45 | Transducer Serial Number:   595605148 | Wacom SerialHi:     1116162 | Wacom ToolType:   2050 
E: 000002.701106 27 10 60 52 62 00 14 16 00 00 00 22 08 00 00 00 00 2d 9c 36 80 23 02 08 11 00 02 08
# ReportID: 16 / Tip Switch: 0 | Barrel Switch: 0 | Secondary Barrel Switch: 0 | Eraser: 0 | Invert: 0 | In Range: 1 | Wacom Sense: 1 | # | X:     25169 | Y:      5632 | Tip Pressure:      0 | X Tilt:   34 | Y Tilt:    9 | Twist:      0 | Wacom FingerWheel:      0 | Wacom Distance:   44 | Transducer Serial Number:   595605148 | Wacom SerialHi:     1116162 | Wacom ToolType:   2050 
E: 000002.707939 27 10 60 51 62 00 00 16 00 00 00 22 09 00 00 00 00 2c 9c 36 80 23 02 08 11 00 02 08
# ReportID: 16 / Tip Switch: 0 | Barrel Switch: 0 | Secondary Barrel Switch: 0 | Eraser: 0 | Invert: 0 | In Range: 1 | Wacom Sense: 1 | # | X:     25168 | Y:      5603 | Tip Pressure:      0 | X Tilt:   35 | Y Tilt:    9 | Twist:      0 | Wacom FingerWheel:      0 | Wacom Distance:   43 | Transducer Serial Number:   595605148 | Wacom SerialHi:     1116162 | Wacom ToolType:   2050 
E: 000002.710017 27 10 60 50 62 00 e3 15 00 00 00 23 09 00 00 00 00 2b 9c 36 80 23 02 08 11 00 02 08
# ReportID: 16 / Tip Switch: 0 | Barrel Switch: 0 | Secondary Barrel Switch: 0 | Eraser: 0 | Invert: 0 | In Range: 1 | Wacom Sense: 1 | # | X:     25166 | Y:      5582 | Tip Pressure:      0 | X Tilt:   35 | Y Tilt:    9 | Twist:      0 | Wacom FingerWheel:      0 | Wacom Distance:   42 | Transducer Serial Number:   595605148 | Wacom SerialHi:     1116162 | Wacom ToolType:   2050 
E: 000002.716936 27 10 60 4e 62 00 ce 15 00 00 00 23 09 00 00 00 00 2a 9c 36 80 23 02 08 11 00 02 08
# ReportID: 16 / Tip Switch: 0 | Barrel Switch: 0 | Secondary Barrel Switch: 0 | Eraser: 0 | Invert: 0 | In Range: 1 | Wacom Sense: 1 | # | X:     25164 | Y:      5561 | Tip Pressure:      0 | X Tilt:   35 | Y Tilt:    9 | Twist:      0 | Wacom FingerWheel:      0 | Wacom Distance:   41 | Transducer Serial Number:   595605148 | Wacom SerialHi:     1116162 | Wacom ToolType:   2050 
E: 000002.722023 27 10 60 4c 62 00 b9 15 00 00 00 23 09 00 00 00 00 29 9c 36 80 23 02 08 11 00 02 08
# ReportID: 16 / Tip Switch: 0 | Barrel Switch: 0 | Secondary Barrel Switch: 0 | Eraser: 0 | Invert: 0 | In Range: 1 | Wacom Sense: 1 | # | X:     25163 | Y:      5538 | Tip Pressure:      0 | X Tilt:   35 | Y Tilt:    9 | Twist:      0 | Wacom FingerWheel:      0 | Wacom Distance:   40 | Transducer Serial Number:   595605148 | Wacom SerialHi:     1116162 | Wacom ToolType:   2050 
E: 000002.725017 27 10 60 4b 62 00 a2 15 00 00 00 23 09 00 00 00 00 28 9c 36 80 23 02 08 11 00 02 08
# ReportID: 16 / Tip Switch: 0 | Barrel Switch: 0 | Secondary Barrel Switch: 0 | Eraser: 0 | Invert: 0 | In Range: 1 | Wacom Sense: 1 | # | X:     25160 | Y:      5503 | Tip Pressure:      0 | X Tilt:   35 | Y Tilt:    9 | Twist:      0 | Wacom FingerWheel:      0 | Wacom Distance:   38 | Transducer Serial Number:   595605148 | Wacom SerialHi:     1116162 | Wacom ToolType:   2050 
E: 000002.730921 27 10 60 48 62 00 7f 15 00 00 00 23 09 00 00 00 00 26 9c 36 80 23 02 08 11 00 02 08
# ReportID: 16 / Tip Switch: 0 | Barrel Switch: 0 | Secondary Barrel Switch: 0 | Eraser: 0 | Invert: 0 | In Range: 1 | Wacom Sense: 1 | # | X:     25158 | Y:      5478 | Tip Pressure:      0 | X Tilt:   35 | Y Tilt:    9 | Twist:      0 | Wacom FingerWheel:      0 | Wacom Distance:   37 | Transducer Serial Number:   595605148 | Wacom SerialHi:     1116162 | Wacom ToolType:   2050 
E: 000002.737968 27 10 60 46 62 00 66 15 00 00 00 23 09 00 00 00 00 25 9c 36 80 23 02 08 11 00 02 08
# ReportID: 16 / Tip Switch: 0 | Barrel Switch: 0 | Secondary Barrel Switch: 0 | Eraser: 0 | Invert: 0 | In Range: 1 | Wacom Sense: 1 | # | X:     25156 | Y:      5453 | Tip Pressure:      0 | X Tilt:   35 | Y Tilt:    9 | Twist:      0 | Wacom FingerWheel:      0 | Wacom Distance:   38 | Transducer Serial Number:   595605148 | Wacom SerialHi:     1116162 | Wacom ToolType:   2050 
E: 000002.740028 27 10 60 44 62 00 4d 15 00 00 00 23 09 00 00 00 00 26 9c 36 80 23 02 08 11 00 02 08
# ReportID: 16 / Tip Switch: 0 | Barrel Switch: 0 | Secondary Barrel Switch: 0 | Eraser: 0 | Invert: 0 | In Range: 1 | Wacom Sense: 1 | # | X:     25154 | Y:      5428 | Tip Pressure:      0 | X Tilt:   35 | Y Tilt:    9 | Twist:      0 | Wacom FingerWheel:      0 | Wacom Distance:   37 | Transducer Serial Number:   595605148 | Wacom SerialHi:     1116162 | Wacom ToolType:   2050 
E: 000002.747048 27 10 60 42 62 00 34 15 00 00 00 23 09 00 00 00 00 25 9c 36 80 23 02 08 11 00 02 08
# ReportID: 16 / Tip Switch: 0 | Barrel Switch: 0 | Secondary Barrel Switch: 0 | Eraser: 0 | Invert: 0 | In Range: 1 | Wacom Sense: 1 | # | X:     25152 | Y:      5403 | Tip Pressure:      0 | X Tilt:   35 | Y Tilt:    9 | Twist:      0 | Wacom FingerWheel:      0 | Wacom Distance:   36 | Transducer Serial Number:   595605148 | Wacom SerialHi:     1116162 | Wacom ToolType:   2050 
E: 000002.752019 27 10 60 40 62 00 1b 15 00 00 00 23 09 00 00 00 00 24 9c 36 80 23 02 08 11 00 02 08
# ReportID: 16 / Tip Switch: 0 | Barrel Switch: 0 | Secondary Barrel Switch: 0 | Eraser: 0 | Invert: 0 | In Range: 1 | Wacom Sense: 1 | # | X:     25148 | Y:      5364 | Tip Pressure:      0 | X Tilt:   35 | Y Tilt:    9 | Twist:      0 | Wacom FingerWheel:      0 | Wacom Distance:   35 | Transducer Serial Number:   595605148 | Wacom SerialHi:     1116162 | Wacom ToolType:   2050 
E: 000002.755069 27 10 60 3c 62 00 f4 14 00 00 00 23 09 00 00 00 00 23 9c 36 80 23 02 08 11 00 02 08
# ReportID: 16 / Tip Switch: 0 | Barrel Switch: 0 | Secondary Barrel Switch: 0 | Eraser: 0 | Invert: 0 | In Range: 1 | Wacom Sense: 1 | # | X:     25148 | Y:      5340 | Tip Pressure:      0 | X Tilt:   35 | Y Tilt:    9 | Twist:      0 | Wacom FingerWheel:      0 | Wacom Distance:   35 | Transducer Serial Number:   595605148 | Wacom SerialHi:     1116162 | Wacom ToolType:   2050 
E: 000002.761120 27 10 60 3c 62 00 dc 14 00 00 00 23 09 00 00 00 00 23 9c 36 80 23 02 08 11 00 02 08
# ReportID: 16 / Tip Switch: 0 | Barrel Switch: 0 | Secondary Barrel Switch: 0 | Eraser: 0 | Invert: 0 | In Range: 1 | Wacom Sense: 1 | # | X:     25149 | Y:      5315 | Tip Pressure:      0 | X Tilt:   35 | Y Tilt:    9 | Twist:      0 | Wacom FingerWheel:      0 | Wacom Distance:   34 | Transducer Serial Number:   595605148 | Wacom SerialHi:     1116162 | Wacom ToolType:   2050 
E: 000002.768089 27 10 60 3d 62 00 c3 14 00 00 00 23 09 00 00 00 00 22 9c 36 80 23 02 08 11 00 02 08
# ReportID: 16 / Tip Switch: 0 | Barrel Switch: 0 | Secondary Barrel Switch: 0 | Eraser: 0 | Invert: 0 | In Range: 1 | Wacom Sense: 1 | # | X:     25150 | Y:      5291 | Tip Pressure:      0 | X Tilt:   35 | Y Tilt:    9 | Twist:      0 | Wacom FingerWheel:      0 | Wacom Distance:   33 | Transducer Serial Number:   595605148 | Wacom SerialHi:     1116162 | Wacom ToolType:   2050 
E: 000002.770030 27 10 60 3e 62 00 ab 14 00 00 00 23 09 00 00 00 00 21 9c 36 80 23 02 08 11 00 02 08
# ReportID: 16 / Tip Switch: 0 | Barrel Switch: 0 | Secondary Barrel Switch: 0 | Eraser: 0 | Invert: 0 | In Range: 1 | Wacom Sense: 1 | # | X:     25154 | Y:      5257 | Tip Pressure:      0 | X Tilt:   35 | Y Tilt:    9 | Twist:      0 | Wacom FingerWheel:      0 | Wacom Distance:   31 | Transducer Serial Number:   595605148 | Wacom SerialHi:     1116162 | Wacom ToolType:   2050 
E: 000002.776951 27 10 60 42 62 00 89 14 00 00 00 23 09 00 00 00 00 1f 9c 36 80 23 02 08 11 00 02 08
# ReportID: 16 / Tip Switch: 0 | Barrel Switch: 0 | Secondary Barrel Switch: 0 | Eraser: 0 | Invert: 0 | In Range: 1 | Wacom Sense: 1 | # | X:     25157 | Y:      5237 | Tip Pressure:      0 | X Tilt:   35 | Y Tilt:    9 | Twist:      0 | Wacom FingerWheel:      0 | Wacom Distance:   30 | Transducer Serial Number:   595605148 | Wacom SerialHi:     1116162 | Wacom ToolType:   2050 
E: 000002.782116 27 10 60 45 62 00 75 14 00 00 00 23 09 00 00 00 00 1e 9c 36 80 23 02 08 11 00 02 08
# ReportID: 16 / Tip Switch: 0 | Barrel Switch: 0 | Secondary Barrel Switch: 0 | Eraser: 0 | Invert: 0 | In Range: 1 | Wacom Sense: 1 | # | X:     25160 | Y:      5220 | Tip Pressure:      0 | X Tilt:   35 | Y Tilt:    9 | Twist:      0 | Wacom FingerWheel:      0 | Wacom Distance:   29 | Transducer Serial Number:   595605148 | Wacom SerialHi:     1116162 | Wacom ToolType:   2050 
E: 000002.785013 27 10 60 48 62 00 64 14 00 00 00 23 09 00 00 00 00 1d 9c 36 80 23 02 08 11 00 02 08
# ReportID: 16 / Tip Switch: 0 | Barrel Switch: 0 | Secondary Barrel Switch: 0 | Eraser: 0 | Invert: 0 | In Range: 1 | Wacom Sense: 1 | # | X:     25165 | Y:      5196 | Tip Pressure:      0 | X Tilt:   35 | Y Tilt:   10 | Twist:      0 | Wacom FingerWheel:      0 | Wacom Distance:   27 | Transducer Serial Number:   595605148 | Wacom SerialHi:     1116162 | Wacom ToolType:   2050 
E: 000002.791076 27 10 60 4d 62 00 4c 14 00 00 00 23 0a 00 00 00 00 1b 9c 36 80 23 02 08 11 00 02 08
# ReportID: 16 / Tip Switch: 0 | Barrel Switch: 0 | Secondary Barrel Switch: 0 | Eraser: 0 | Invert: 0 | In Range: 1 | Wacom Sense: 1 | # | X:     25168 | Y:      5188 | Tip Pressure:      0 | X Tilt:   35 | Y Tilt:   10 | Twist:      0 | Wacom FingerWheel:      0 | Wacom Distance:   24 | Transducer Serial Number:   595605148 | Wacom SerialHi:     1116162 | Wacom ToolType:   2050 
E: 000002.798089 27 10 60 50 62 00 44 14 00 00 00 23 0a 00 00 00 00 18 9c 36 80 23 02 08 11 00 02 08
# ReportID: 16 / Tip Switch: 0 | Barrel Switch: 0 | Secondary Barrel Switch: 0 | Eraser: 0 | Invert: 0 | In Range: 1 | Wacom Sense: 1 | # | X:     25171 | Y:      5180 | Tip Pressure:      0 | X Tilt:   35 | Y Tilt:   10 | Twist:      0 | Wacom FingerWheel:      0 | Wacom Distance:   22 | Transducer Serial Number:   595605148 | Wacom SerialHi:     1116162 | Wacom ToolType:   2050 
E: 000002.800091 27 10 60 53 62 00 3c 14 00 00 00 23 0a 00 00 00 00 16 9c 36 80 23 02 08 11 00 02 08
# ReportID: 16 / Tip Switch: 0 | Barrel Switch: 0 | Secondary Barrel Switch: 0 | Eraser: 0 | Invert: 0 | In Range: 1 | Wacom Sense: 1 | # | X:     25172 | Y:      5181 | Tip Pressure:      0 | X Tilt:   35 | Y Tilt:   10 | Twist:      0 | Wacom FingerWheel:      0 | Wacom Distance:   20 | Transducer Serial Number:   595605148 | Wacom SerialHi:     1116162 | Wacom ToolType:   2050 
E: 000002.807079 27 10 60 54 62 00 3d 14 00 00 00 23 0a 00 00 00 00 14 9c 36 80 23 02 08 11 00 02 08
# ReportID: 16 / Tip Switch: 0 | Barrel Switch: 0 | Secondary Barrel Switch: 0 | Eraser: 0 | Invert: 0 | In Range: 1 | Wacom Sense: 1 | # | X:     25173 | Y:      5189 | Tip Pressure:      0 | X Tilt:   35 | Y Tilt:   10 | Twist:      0 | Wacom FingerWheel:      0 | Wacom Distance:   18 | Transducer Serial Number:   595605148 | Wacom SerialHi:     1116162 | Wacom ToolType:   2050 
E: 000002.812077 27 10 60 55 62 00 45 14 00 00 00 23 0a 00 00 00 00 12 9c 36 80 23 02 08 11 00 02 08
# ReportID: 16 / Tip Switch: 0 | Barrel Switch: 0 | Secondary Barrel Switch: 0 | Eraser: 0 | Invert: 0 | In Range: 1 | Wacom Sense: 1 | # | X:     25173 | Y:      5199 | Tip Pressure:      0 | X Tilt:   35 | Y Tilt:   10 | Twist:      0 | Wacom FingerWheel:      0 | Wacom Distance:   16 | Transducer Serial Number:   595605148 | Wacom SerialHi:     1116162 | Wacom ToolType:   2050 
E: 000002.815021 27 10 60 55 62 00 4f 14 00 00 00 23 0a 00 00 00 00 10 9c 36 80 23 02 08 11 00 02 08
# ReportID: 16 / Tip Switch: 0 | Barrel Switch: 0 | Secondary Barrel Switch: 0 | Eraser: 0 | Invert: 0 | In Range: 1 | Wacom Sense: 1 | # | X:     25175 | Y:      5220 | Tip Pressure:      0 | X Tilt:   35 | Y Tilt:   10 | Twist:      0 | Wacom FingerWheel:      0 | Wacom Distance:   13 | Transducer Serial Number:   595605148 | Wacom SerialHi:     1116162 | Wacom ToolType:   2050 
E: 000002.821083 27 10 60 57 62 00 64 14 00 00 00 23 0a 00 00 00 00 0d 9c 36 80 23 02 08 11 00 02 08
# ReportID: 16 / Tip Switch: 0 | Barrel Switch: 0 | Secondary Barrel Switch: 0 | Eraser: 0 | Invert: 0 | In Range: 1 | Wacom Sense: 1 | # | X:     25181 | Y:      5247 | Tip Pressure:      0 | X Tilt:   35 | Y Tilt:   10 | Twist:      0 | Wacom FingerWheel:      0 | Wacom Distance:   11 | Transducer Serial Number:   595605148 | Wacom SerialHi:     1116162 | Wacom ToolType:   2050 
E: 000002.828088 27 10 60 5d 62 00 7f 14 00 00 00 23 0a 00 00 00 00 0b 9c 36 80 23 02 08 11 00 02 08
# ReportID: 16 / Tip Switch: 0 | Barrel Switch: 1 | Secondary Barrel Switch: 0 | Eraser: 0 | Invert: 0 | In Range: 1 | Wacom Sense: 1 | # | X:     25191 | Y:      5296 | Tip Pressure:      0 | X Tilt:   35 | Y Tilt:   10 | Twist:      0 | Wacom FingerWheel:      0 | Wacom Distance:   10 | Transducer Serial Number:   595605148 | Wacom SerialHi:     1116162 | Wacom ToolType:   2050 
E: 000002.830128 27 10 62 67 62 00 b0 14 00 00 00 23 0a 00 00 00 00 0a 9c 36 80 23 02 08 11 00 02 08
# ReportID: 16 / Tip Switch: 1 | Barrel Switch: 1 | Secondary Barrel Switch: 0 | Eraser: 0 | Invert: 0 | In Range: 1 | Wacom Sense: 1 | # | X:     25184 | Y:      5296 | Tip Pressure:   1040 | X Tilt:   35 | Y Tilt:   10 | Twist:      0 | Wacom FingerWheel:      0 | Wacom Distance:   10 | Transducer Serial Number:   595605148 | Wacom SerialHi:     1116162 | Wacom ToolType:   2050 
E: 000002.837022 27 10 63 60 62 00 b0 14 00 10 04 23 0a 00 00 00 00 0a 9c 36 80 23 02 08 11 00 02 08
# ReportID: 16 / Tip Switch: 1 | Barrel Switch: 1 | Secondary Barrel Switch: 0 | Eraser: 0 | Invert: 0 | In Range: 1 | Wacom Sense: 1 | # | X:     25181 | Y:      5295 | Tip Pressure:   2893 | X Tilt:   35 | Y Tilt:   10 | Twist:      0 | Wacom FingerWheel:      0 | Wacom Distance:   10 | Transducer Serial Number:   595605148 | Wacom SerialHi:     1116162 | Wacom ToolType:   2050 
E: 000002.842038 27 10 63 5d 62 00 af 14 00 4d 0b 23 0a 00 00 00 00 0a 9c 36 80 23 02 08 11 00 02 08
# ReportID: 16 / Tip Switch: 1 | Barrel Switch: 1 | Secondary Barrel Switch: 0 | Eraser: 0 | Invert: 0 | In Range: 1 | Wacom Sense: 1 | # | X:     25179 | Y:      5295 | Tip Pressure:   2981 | X Tilt:   35 | Y Tilt:   10 | Twist:      0 | Wacom FingerWheel:      0 | Wacom Distance:   10 | Transducer Serial Number:   595605148 | Wacom SerialHi:     1116162 | Wacom ToolType:   2050 
E: 000002.845035 27 10 63 5b 62 00 af 14 00 a5 0b 23 0a 00 00 00 00 0a 9c 36 80 23 02 08 11 00 02 08
# ReportID: 16 / Tip Switch: 1 | Barrel Switch: 1 | Secondary Barrel Switch: 0 | Eraser: 0 | Invert: 0 | In Range: 1 | Wacom Sense: 1 | # | X:     25175 | Y:      5296 | Tip Pressure:   3025 | X Tilt:   35 | Y Tilt:   10 | Twist:      0 | Wacom FingerWheel:      0 | Wacom Distance:   10 | Transducer Serial Number:   595605148 | Wacom SerialHi:     1116162 | Wacom ToolType:   2050 
E: 000002.851054 27 10 63 57 62 00 b0 14 00 d1 0b 23 0a 00 00 00 00 0a 9c 36 80 23 02 08 11 00 02 08
# ReportID: 16 / Tip Switch: 1 | Barrel Switch: 1 | Secondary Barrel Switch: 0 | Eraser: 0 | Invert: 0 | In Range: 1 | Wacom Sense: 1 | # | X:     25174 | Y:      5296 | Tip Pressure:   3049 | X Tilt:   35 | Y Tilt:   10 | Twist:      0 | Wacom FingerWheel:      0 | Wacom Distance:   10 | Transducer Serial Number:   595605148 | Wacom SerialHi:     1116162 | Wacom ToolType:   2050 
E: 000002.854100 27 10 63 56 62 00 b0 14 00 e9 0b 23 0a 00 00 00 00 0a 9c 36 80 23 02 08 11 00 02 08
# ReportID: 16 / Tip Switch: 1 | Barrel Switch: 1 | Secondary Barrel Switch: 0 | Eraser: 0 | Invert: 0 | In Range: 1 | Wacom Sense: 1 | # | X:     25173 | Y:      5298 | Tip Pressure:   3145 | X Tilt:   35 | Y Tilt:   10 | Twist:      0 | Wacom FingerWheel:      0 | Wacom Distance:   10 | Transducer Serial Number:   595605148 | Wacom SerialHi:     1116162 | Wacom ToolType:   2050 
E: 000002.860003 27 10 63 55 62 00 b2 14 00 49 0c 23 0a 00 00 00 00 0a 9c 36 80 23 02 08 11 00 02 08
# ReportID: 16 / Tip Switch: 1 | Barrel Switch: 1 | Secondary Barrel Switch: 0 | Eraser: 0 | Invert: 0 | In Range: 1 | Wacom Sense: 1 | # | X:     25172 | Y:      5300 | Tip Pressure:   3345 | X Tilt:   35 | Y Tilt:   10 | Twist:      0 | Wacom FingerWheel:      0 | Wacom Distance:   10 | Transducer Serial Number:   595605148 | Wacom SerialHi:     1116162 | Wacom ToolType:   2050 
E: 000002.867117 27 10 63 54 62 00 b4 14 00 11 0d 23 0a 00 00 00 00 0a 9c 36 80 23 02 08 11 00 02 08
# ReportID: 16 / Tip Switch: 1 | Barrel Switch: 1 | Secondary Barrel Switch: 0 | Eraser: 0 | Invert: 0 | In Range: 1 | Wacom Sense: 1 | # | X:     25171 | Y:      5302 | Tip Pressure:   3449 | X Tilt:   35 | Y Tilt:   10 | Twist:      0 | Wacom FingerWheel:      0 | Wacom Distance:   10 | Transducer Serial Number:   595605148 | Wacom SerialHi:     1116162 | Wacom ToolType:   2050 
E: 000002.869167 27 10 63 53 62 00 b6 14 00 79 0d 23 0a 00 00 00 00 0a 9c 36 80 23 02 08 11 00 02 08
# ReportID: 16 / Tip Switch: 1 | Barrel Switch: 1 | Secondary Barrel Switch: 0 | Eraser: 0 | Invert: 0 | In Range: 1 | Wacom Sense: 1 | # | X:     25170 | Y:      5307 | Tip Pressure:   3641 | X Tilt:   35 | Y Tilt:   10 | Twist:      0 | Wacom FingerWheel:      0 | Wacom Distance:   10 | Transducer Serial Number:   595605148 | Wacom SerialHi:     1116162 | Wacom ToolType:   2050 
E: 000002.875075 27 10 63 52 62 00 bb 14 00 39 0e 23 0a 00 00 00 00 0a 9c 36 80 23 02 08 11 00 02 08
# ReportID: 16 / Tip Switch: 1 | Barrel Switch: 1 | Secondary Barrel Switch: 0 | Eraser: 0 | Invert: 0 | In Range: 1 | Wacom Sense: 1 | # | X:     25167 | Y:      5314 | Tip Pressure:   3785 | X Tilt:   35 | Y Tilt:   10 | Twist:      0 | Wacom FingerWheel:      0 | Wacom Distance:   10 | Transducer Serial Number:   595605148 | Wacom SerialHi:     1116162 | Wacom ToolType:   2050 
E: 000002.881036 27 10 63 4f 62 00 c2 14 00 c9 0e 23 0a 00 00 00 00 0a 9c 36 80 23 02 08 11 00 02 08
# ReportID: 16 / Tip Switch: 1 | Barrel Switch: 1 | Secondary Barrel Switch: 0 | Eraser: 0 | Invert: 0 | In Range: 1 | Wacom Sense: 1 | # | X:     25162 | Y:      5327 | Tip Pressure:   3869 | X Tilt:   35 | Y Tilt:   10 | Twist:      0 | Wacom FingerWheel:      0 | Wacom Distance:   10 | Transducer Serial Number:   595605148 | Wacom SerialHi:     1116162 | Wacom ToolType:   2050 
E: 000002.884042 27 10 63 4a 62 00 cf 14 00 1d 0f 23 0a 00 00 00 00 0a 9c 36 80 23 02 08 11 00 02 08
# ReportID: 16 / Tip Switch: 1 | Barrel Switch: 1 | Secondary Barrel Switch: 0 | Eraser: 0 | Invert: 0 | In Range: 1 | Wacom Sense: 1 | # | X:     25157 | Y:      5343 | Tip Pressure:   3929 | X Tilt:   35 | Y Tilt:   10 | Twist:      0 | Wacom FingerWheel:      0 | Wacom Distance:   10 | Transducer Serial Number:   595605148 | Wacom SerialHi:     1116162 | Wacom ToolType:   2050 
E: 000002.890167 27 10 63 45 62 00 df 14 00 59 0f 23 0a 00 00 00 00 0a 9c 36 80 23 02 08 11 00 02 08
# ReportID: 16 / Tip Switch: 1 | Barrel Switch: 1 | Secondary Barrel Switch: 0 | Eraser: 0 | Invert: 0 | In Range: 1 | Wacom Sense: 1 | # | X:     25150 | Y:      5364 | Tip Pressure:   4053 | X Tilt:   35 | Y Tilt:   10 | Twist:      0 | Wacom FingerWheel:      0 | Wacom Distance:    9 | Transducer Serial Number:   595605148 | Wacom SerialHi:     1116162 | Wacom ToolType:   2050 
E: 000002.897001 27 10 63 3e 62 00 f4 14 00 d5 0f 23 0a 00 00 00 00 09 9c 36 80 23 02 08 11 00 02 08
# ReportID: 16 / Tip Switch: 1 | Barrel Switch: 1 | Secondary Barrel Switch: 0 | Eraser: 0 | Invert: 0 | In Range: 1 | Wacom Sense: 1 | # | X:     25144 | Y:      5389 | Tip Pressure:   4230 | X Tilt:   35 | Y Tilt:   10 | Twist:      0 | Wacom FingerWheel:      0 | Wacom Distance:   10 | Transducer Serial Number:   595605148 | Wacom SerialHi:     1116162 | Wacom ToolType:   2050 
E: 000002.898978 27 10 63 38 62 00 0d 15 00 86 10 23 0a 00 00 00 00 0a 9c 36 80 23 02 08 11 00 02 08
# ReportID: 16 / Tip Switch: 1 | Barrel Switch: 1 | Secondary Barrel Switch: 0 | Eraser: 0 | Invert: 0 | In Range: 1 | Wacom Sense: 1 | # | X:     25138 | Y:      5414 | Tip Pressure:   4338 | X Tilt:   35 | Y Tilt:   10 | Twist:      0 | Wacom FingerWheel:      0 | Wacom Distance:    9 | Transducer Serial Number:   595605148 | Wacom SerialHi:     1116162 | Wacom ToolType:   2050 
E: 000002.904966 27 10 63 32 62 00 26 15 00 f2 10 23 0a 00 00 00 00 09 9c 36 80 23 02 08 11 00 02 08
# ReportID: 16 / Tip Switch: 1 | Barrel Switch: 1 | Secondary Barrel Switch: 0 | Eraser: 0 | Invert: 0 | In Range: 1 | Wacom Sense: 1 | # | X:     25133 | Y:      5442 | Tip Pressure:   4426 | X Tilt:   35 | Y Tilt:   10 | Twist:      0 | Wacom FingerWheel:      0 | Wacom Distance:    9 | Transducer Serial Number:   595605148 | Wacom SerialHi:     1116162 | Wacom ToolType:   2050 
E: 000002.911014 27 10 63 2d 62 00 42 15 00 4a 11 23 0a 00 00 00 00 09 9c 36 80 23 02 08 11 00 02 08
# ReportID: 16 / Tip Switch: 1 | Barrel Switch: 1 | Secondary Barrel Switch: 0 | Eraser: 0 | Invert: 0 | In Range: 1 | Wacom Sense: 1 | # | X:     25130 | Y:      5471 | Tip Pressure:   4490 | X Tilt:   35 | Y Tilt:   10 | Twist:      0 | Wacom FingerWheel:      0 | Wacom Distance:    9 | Transducer Serial Number:   595605148 | Wacom SerialHi:     1116162 | Wacom ToolType:   2050 
E: 000002.913973 27 10 63 2a 62 00 5f 15 00 8a 11 23 0a 00 00 00 00 09 9c 36 80 23 02 08 11 00 02 08
# ReportID: 16 / Tip Switch: 1 | Barrel Switch: 1 | Secondary Barrel Switch: 0 | Eraser: 0 | Invert: 0 | In Range: 1 | Wacom Sense: 1 | # | X:     25127 | Y:      5500 | Tip Pressure:   4570 | X Tilt:   35 | Y Tilt:   10 | Twist:      0 | Wacom FingerWheel:      0 | Wacom Distance:    9 | Transducer Serial Number:   595605148 | Wacom SerialHi:     1116162 | Wacom ToolType:   2050 
E: 000002.919981 27 10 63 27 62 00 7c 15 00 da 11 23 0a 00 00 00 00 09 9c 36 80 23 02 08 11 00 02 08
# ReportID: 16 / Tip Switch: 1 | Barrel Switch: 1 | Secondary Barrel Switch: 0 | Eraser: 0 | Invert: 0 | In Range: 1 | Wacom Sense: 1 | # | X:     25126 | Y:      5533 | Tip Pressure:   4642 | X Tilt:   35 | Y Tilt:   10 | Twist:      0 | Wacom FingerWheel:      0 | Wacom Distance:    9 | Transducer Serial Number:   595605148 | Wacom SerialHi:     1116162 | Wacom ToolType:   2050 
E: 000002.926980 27 10 63 26 62 00 9d 15 00 22 12 23 0a 00 00 00 00 09 9c 36 80 23 02 08 11 00 02 08
# ReportID: 16 / Tip Switch: 1 | Barrel Switch: 1 | Secondary Barrel Switch: 0 | Eraser: 0 | Invert: 0 | In Range: 1 | Wacom Sense: 1 | # | X:     25125 | Y:      5566 | Tip Pressure:   4718 | X Tilt:   35 | Y Tilt:   10 | Twist:      0 | Wacom FingerWheel:      0 | Wacom Distance:    9 | Transducer Serial Number:   595605148 | Wacom SerialHi:     1116162 | Wacom ToolType:   2050 
E: 000002.928998 27 10 63 25 62 00 be 15 00 6e 12 23 0a 00 00 00 00 09 9c 36 80 23 02 08 11 00 02 08
# ReportID: 16 / Tip Switch: 1 | Barrel Switch: 1 | Secondary Barrel Switch: 0 | Eraser: 0 | Invert: 0 | In Range: 1 | Wacom Sense: 1 | # | X:     25125 | Y:      5603 | Tip Pressure:   4778 | X Tilt:   35 | Y Tilt:   10 | Twist:      0 | Wacom FingerWheel:      0 | Wacom Distance:    9 | Transducer Serial Number:   595605148 | Wacom SerialHi:     1116162 | Wacom ToolType:   2050 
E: 000002.934973 27 10 63 25 62 00 e3 15 00 aa 12 23 0a 00 00 00 00 09 9c 36 80 23 02 08 11 00 02 08
# ReportID: 16 / Tip Switch: 1 | Barrel Switch: 1 | Secondary Barrel Switch: 0 | Eraser: 0 | Invert: 0 | In Range: 1 | Wacom Sense: 1 | # | X:     25124 | Y:      5645 | Tip Pressure:   4878 | X Tilt:   35 | Y Tilt:   10 | Twist:      0 | Wacom FingerWheel:      0 | Wacom Distance:    9 | Transducer Serial Number:   595605148 | Wacom SerialHi:     1116162 | Wacom ToolType:   2050 
E: 000002.940962 27 10 63 24 62 00 0d 16 00 0e 13 23 0a 00 00 00 00 09 9c 36 80 23 02 08 11 00 02 08
# ReportID: 16 / Tip Switch: 1 | Barrel Switch: 1 | Secondary Barrel Switch: 0 | Eraser: 0 | Invert: 0 | In Range: 1 | Wacom Sense: 1 | # | X:     25123 | Y:      5693 | Tip Pressure:   4938 | X Tilt:   35 | Y Tilt:   10 | Twist:      0 | Wacom FingerWheel:      0 | Wacom Distance:    9 | Transducer Serial Number:   595605148 | Wacom SerialHi:     1116162 | Wacom ToolType:   2050 
E: 000002.943952 27 10 63 23 62 00 3d 16 00 4a 13 23 0a 00 00 00 00 09 9c 36 80 23 02 08 11 00 02 08
# ReportID: 16 / Tip Switch: 1 | Barrel Switch: 1 | Secondary Barrel Switch: 0 | Eraser: 0 | Invert: 0 | In Range: 1 | Wacom Sense: 1 | # | X:     25120 | Y:      5749 | Tip Pressure:   5038 | X Tilt:   35 | Y Tilt:   10 | Twist:      0 | Wacom FingerWheel:      0 | Wacom Distance:    9 | Transducer Serial Number:   595605148 | Wacom SerialHi:     1116162 | Wacom ToolType:   2050 
E: 000002.949930 27 10 63 20 62 00 75 16 00 ae 13 23 0a 00 00 00 00 09 9c 36 80 23 02 08 11 00 02 08
# ReportID: 16 / Tip Switch: 1 | Barrel Switch: 1 | Secondary Barrel Switch: 0 | Eraser: 0 | Invert: 0 | In Range: 1 | Wacom Sense: 1 | # | X:     25116 | Y:      5811 | Tip Pressure:   5114 | X Tilt:   35 | Y Tilt:   10 | Twist:      0 | Wacom FingerWheel:      0 | Wacom Distance:    9 | Transducer Serial Number:   595605148 | Wacom SerialHi:     1116162 | Wacom ToolType:   2050 
E: 000002.956936 27 10 63 1c 62 00 b3 16 00 fa 13 23 0a 00 00 00 00 09 9c 36 80 23 02 08 11 00 02 08
# ReportID: 16 / Tip Switch: 1 | Barrel Switch: 1 | Secondary Barrel Switch: 0 | Eraser: 0 | Invert: 0 | In Range: 1 | Wacom Sense: 1 | # | X:     25109 | Y:      5880 | Tip Pressure:   5190 | X Tilt:   35 | Y Tilt:   10 | Twist:      0 | Wacom FingerWheel:      0 | Wacom Distance:    9 | Transducer Serial Number:   595605148 | Wacom SerialHi:     1116162 | Wacom ToolType:   2050 
E: 000002.958918 27 10 63 15 62 00 f8 16 00 46 14 23 0a 00 00 00 00 09 9c 36 80 23 02 08 11 00 02 08
# ReportID: 16 / Tip Switch: 1 | Barrel Switch: 1 | Secondary Barrel Switch: 0 | Eraser: 0 | Invert: 0 | In Range: 1 | Wacom Sense: 1 | # | X:     25102 | Y:      5955 | Tip Pressure:   5278 | X Tilt:   35 | Y Tilt:   10 | Twist:      0 | Wacom FingerWheel:      0 | Wacom Distance:    9 | Transducer Serial Number:   595605148 | Wacom SerialHi:     1116162 | Wacom ToolType:   2050 
E: 000002.964885 27 10 63 0e 62 00 43 17 00 9e 14 23 0a 00 00 00 00 09 9c 36 80 23 02 08 11 00 02 08
# ReportID: 16 / Tip Switch: 1 | Barrel Switch: 1 | Secondary Barrel Switch: 0 | Eraser: 0 | Invert: 0 | In Range: 1 | Wacom Sense: 1 | # | X:     25092 | Y:      6039 | Tip Pressure:   5338 | X Tilt:   35 | Y Tilt:   10 | Twist:      0 | Wacom FingerWheel:      0 | Wacom Distance:    9 | Transducer Serial Number:   595605148 | Wacom SerialHi:     1116162 | Wacom ToolType:   2050 
E: 000002.970930 27 10 63 04 62 00 97 17 00 da 14 23 0a 00 00 00 00 09 9c 36 80 23 02 08 11 00 02 08
# ReportID: 16 / Tip Switch: 1 | Barrel Switch: 1 | Secondary Barrel Switch: 0 | Eraser: 0 | Invert: 0 | In Range: 1 | Wacom Sense: 1 | # | X:     25080 | Y:      6130 | Tip Pressure:   5374 | X Tilt:   35 | Y Tilt:   10 | Twist:      0 | Wacom FingerWheel:      0 | Wacom Distance:    9 | Transducer Serial Number:   595605148 | Wacom SerialHi:     1116162 | Wacom ToolType:   2050 
E: 000002.973915 27 10 63 f8 61 00 f2 17 00 fe 14 23 0a 00 00 00 00 09 9c 36 80 23 02 08 11 00 02 08
# ReportID: 16 / Tip Switch: 1 | Barrel Switch: 1 | Secondary Barrel Switch: 0 | Eraser: 0 | Invert: 0 | In Range: 1 | Wacom Sense: 1 | # | X:     25067 | Y:      6228 | Tip Pressure:   5418 | X Tilt:   35 | Y Tilt:   10 | Twist:      0 | Wacom FingerWheel:      0 | Wacom Distance:    9 | Transducer Serial Number:   595605148 | Wacom SerialHi:     1116162 | Wacom ToolType:   2050 
E: 000002.980943 27 10 63 eb 61 00 54 18 00 2a 15 23 0a 00 00 00 00 09 9c 36 80 23 02 08 11 00 02 08
# ReportID: 16 / Tip Switch: 1 | Barrel Switch: 1 | Secondary Barrel Switch: 0 | Eraser: 0 | Invert: 0 | In Range: 1 | Wacom Sense: 1 | # | X:     25052 | Y:      6330 | Tip Pressure:   5462 | X Tilt:   35 | Y Tilt:   10 | Twist:      0 | Wacom FingerWheel:      0 | Wacom Distance:    9 | Transducer Serial Number:   595605148 | Wacom SerialHi:     1116162 | Wacom ToolType:   2050 
E: 000002.986899 27 10 63 dc 61 00 ba 18 00 56 15 23 0a 00 00 00 00 09 9c 36 80 23 02 08 11 00 02 08
# ReportID: 16 / Tip Switch: 1 | Barrel Switch: 1 | Secondary Barrel Switch: 0 | Eraser: 0 | Invert: 0 | In Range: 1 | Wacom Sense: 1 | # | X:     25029 | Y:      6486 | Tip Pressure:   5494 | X Tilt:   35 | Y Tilt:   10 | Twist:      0 | Wacom FingerWheel:      0 | Wacom Distance:    9 | Transducer Serial Number:   595605148 | Wacom SerialHi:     1116162 | Wacom ToolType:   2050 
E: 000002.988901 27 10 63 c5 61 00 56 19 00 76 15 23 0a 00 00 00 00 09 9c 36 80 23 02 08 11 00 02 08
# ReportID: 16 / Tip Switch: 1 | Barrel Switch: 1 | Secondary Barrel Switch: 0 | Eraser: 0 | Invert: 0 | In Range: 1 | Wacom Sense: 1 | # | X:     25004 | Y:      6647 | Tip Pressure:   5530 | X Tilt:   35 | Y Tilt:   10 | Twist:      0 | Wacom FingerWheel:      0 | Wacom Distance:    9 | Transducer Serial Number:   595605148 | Wacom SerialHi:     1116162 | Wacom ToolType:   2050 
E: 000002.994946 27 10 63 ac 61 00 f7 19 00 9a 15 23 0a 00 00 00 00 09 9c 36 80 23 02 08 11 00 02 08
# ReportID: 16 / Tip Switch: 1 | Barrel Switch: 1 | Secondary Barrel Switch: 0 | Eraser: 0 | Invert: 0 | In Range: 1 | Wacom Sense: 1 | # | X:     24979 | Y:      6811 | Tip Pressure:   5586 | X Tilt:   35 | Y Tilt:   10 | Twist:      0 | Wacom FingerWheel:      0 | Wacom Distance:    9 | Transducer Serial Number:   595605148 | Wacom SerialHi:     1116162 | Wacom ToolType:   2050 
E: 000003.000939 27 10 63 93 61 00 9b 1a 00 d2 15 23 0a 00 00 00 00 09 9c 36 80 23 02 08 11 00 02 08
# ReportID: 16 / Tip Switch: 1 | Barrel Switch: 1 | Secondary Barrel Switch: 0 | Eraser: 0 | Invert: 0 | In Range: 1 | Wacom Sense: 1 | # | X:     24964 | Y:      6927 | Tip Pressure:   5642 | X Tilt:   35 | Y Tilt:   10 | Twist:      0 | Wacom FingerWheel:      0 | Wacom Distance:    9 | Transducer Serial Number:   595605148 | Wacom SerialHi:     1116162 | Wacom ToolType:   2050 
E: 000003.003899 27 10 63 84 61 00 0f 1b 00 0a 16 23 0a 00 00 00 00 09 9c 36 80 23 02 08 11 00 02 08
# ReportID: 16 / Tip Switch: 1 | Barrel Switch: 1 | Secondary Barrel Switch: 0 | Eraser: 0 | Invert: 0 | In Range: 1 | Wacom Sense: 1 | # | X:     24947 | Y:      7040 | Tip Pressure:   5686 | X Tilt:   35 | Y Tilt:   10 | Twist:      0 | Wacom FingerWheel:      0 | Wacom Distance:    9 | Transducer Serial Number:   595605148 | Wacom SerialHi:     1116162 | Wacom ToolType:   2050 
E: 000003.010903 27 10 63 73 61 00 80 1b 00 36 16 23 0a 00 00 00 00 09 9c 36 80 23 02 08 11 00 02 08
# ReportID: 16 / Tip Switch: 1 | Barrel Switch: 1 | Secondary Barrel Switch: 0 | Eraser: 0 | Invert: 0 | In Range: 1 | Wacom Sense: 1 | # | X:     24933 | Y:      7159 | Tip Pressure:   5734 | X Tilt:   35 | Y Tilt:   10 | Twist:      0 | Wacom FingerWheel:      0 | Wacom Distance:    9 | Transducer Serial Number:   595605148 | Wacom SerialHi:     1116162 | Wacom ToolType:   2050 
E: 000003.015900 27 10 63 65 61 00 f7 1b 00 66 16 23 0a 00 00 00 00 09 9c 36 80 23 02 08 11 00 02 08
# ReportID: 16 / Tip Switch: 1 | Barrel Switch: 1 | Secondary Barrel Switch: 0 | Eraser: 0 | Invert: 0 | In Range: 1 | Wacom Sense: 1 | # | X:     24918 | Y:      7265 | Tip Pressure:   5806 | X Tilt:   35 | Y Tilt:    9 | Twist:      0 | Wacom FingerWheel:      0 | Wacom Distance:    9 | Transducer Serial Number:   595605148 | Wacom SerialHi:     1116162 | Wacom ToolType:   2050 
E: 000003.019938 27 10 63 56 61 00 61 1c 00 ae 16 23 09 00 00 00 00 09 9c 36 80 23 02 08 11 00 02 08
# ReportID: 16 / Tip Switch: 1 | Barrel Switch: 1 | Secondary Barrel Switch: 0 | Eraser: 0 | Invert: 0 | In Range: 1 | Wacom Sense: 1 | # | X:     24908 | Y:      7370 | Tip Pressure:   5846 | X Tilt:   35 | Y Tilt:    9 | Twist:      0 | Wacom FingerWheel:      0 | Wacom Distance:    9 | Transducer Serial Number:   595605148 | Wacom SerialHi:     1116162 | Wacom ToolType:   2050 
E: 000003.024903 27 10 63 4c 61 00 ca 1c 00 d6 16 23 09 00 00 00 00 09 9c 36 80 23 02 08 11 00 02 08
# ReportID: 16 / Tip Switch: 1 | Barrel Switch: 1 | Secondary Barrel Switch: 0 | Eraser: 0 | Invert: 0 | In Range: 1 | Wacom Sense: 1 | # | X:     24897 | Y:      7480 | Tip Pressure:   5902 | X Tilt:   35 | Y Tilt:    9 | Twist:      0 | Wacom FingerWheel:      0 | Wacom Distance:    9 | Transducer Serial Number:   595605148 | Wacom SerialHi:     1116162 | Wacom ToolType:   2050 
E: 000003.027901 27 10 63 41 61 00 38 1d 00 0e 17 23 09 00 00 00 00 09 9c 36 80 23 02 08 11 00 02 08
# ReportID: 16 / Tip Switch: 1 | Barrel Switch: 1 | Secondary Barrel Switch: 0 | Eraser: 0 | Invert: 0 | In Range: 1 | Wacom Sense: 1 | # | X:     24892 | Y:      7587 | Tip Pressure:   5942 | X Tilt:   35 | Y Tilt:    9 | Twist:      0 | Wacom FingerWheel:      0 | Wacom Distance:    9 | Transducer Serial Number:   595605148 | Wacom SerialHi:     1116162 | Wacom ToolType:   2050 
E: 000003.033950 27 10 63 3c 61 00 a3 1d 00 36 17 23 09 00 00 00 00 09 9c 36 80 23 02 08 11 00 02 08
# ReportID: 16 / Tip Switch: 1 | Barrel Switch: 1 | Secondary Barrel Switch: 0 | Eraser: 0 | Invert: 0 | In Range: 1 | Wacom Sense: 1 | # | X:     24885 | Y:      7699 | Tip Pressure:   5986 | X Tilt:   35 | Y Tilt:    9 | Twist:      0 | Wacom FingerWheel:      0 | Wacom Distance:    9 | Transducer Serial Number:   595605148 | Wacom SerialHi:     1116162 | Wacom ToolType:   2050 
E: 000003.040966 27 10 63 35 61 00 13 1e 00 62 17 23 09 00 00 00 00 09 9c 36 80 23 02 08 11 00 02 08
# ReportID: 16 / Tip Switch: 1 | Barrel Switch: 1 | Secondary Barrel Switch: 0 | Eraser: 0 | Invert: 0 | In Range: 1 | Wacom Sense: 1 | # | X:     24878 | Y:      7815 | Tip Pressure:   6046 | X Tilt:   35 | Y Tilt:    9 | Twist:      0 | Wacom FingerWheel:      0 | Wacom Distance:    9 | Transducer Serial Number:   595605148 | Wacom SerialHi:     1116162 | Wacom ToolType:   2050 
E: 000003.042923 27 10 63 2e 61 00 87 1e 00 9e 17 23 09 00 00 00 00 09 9c 36 80 23 02 08 11 00 02 08
# ReportID: 16 / Tip Switch: 1 | Barrel Switch: 1 | Secondary Barrel Switch: 0 | Eraser: 0 | Invert: 0 | In Range: 1 | Wacom Sense: 1 | # | X:     24873 | Y:      7927 | Tip Pressure:   6098 | X Tilt:   35 | Y Tilt:    9 | Twist:      0 | Wacom FingerWheel:      0 | Wacom Distance:    9 | Transducer Serial Number:   595605148 | Wacom SerialHi:     1116162 | Wacom ToolType:   2050 
E: 000003.049938 27 10 63 29 61 00 f7 1e 00 d2 17 23 09 00 00 00 00 09 9c 36 80 23 02 08 11 00 02 08
# ReportID: 16 / Tip Switch: 1 | Barrel Switch: 1 | Secondary Barrel Switch: 0 | Eraser: 0 | Invert: 0 | In Range: 1 | Wacom Sense: 1 | # | X:     24867 | Y:      8041 | Tip Pressure:   6130 | X Tilt:   35 | Y Tilt:    9 | Twist:      0 | Wacom FingerWheel:      0 | Wacom Distance:    9 | Transducer Serial Number:   595605148 | Wacom SerialHi:     1116162 | Wacom ToolType:   2050 
E: 000003.055021 27 10 63 23 61 00 69 1f 00 f2 17 23 09 00 00 00 00 09 9c 36 80 23 02 08 11 00 02 08
# ReportID: 16 / Tip Switch: 1 | Barrel Switch: 1 | Secondary Barrel Switch: 0 | Eraser: 0 | Invert: 0 | In Range: 1 | Wacom Sense: 1 | # | X:     24867 | Y:      8164 | Tip Pressure:   6175 | X Tilt:   35 | Y Tilt:    9 | Twist:      0 | Wacom FingerWheel:      0 | Wacom Distance:    9 | Transducer Serial Number:   595605148 | Wacom SerialHi:     1116162 | Wacom ToolType:   2050 
E: 000003.057912 27 10 63 23 61 00 e4 1f 00 1f 18 23 09 00 00 00 00 09 9c 36 80 23 02 08 11 00 02 08
# ReportID: 16 / Tip Switch: 1 | Barrel Switch: 1 | Secondary Barrel Switch: 0 | Eraser: 0 | Invert: 0 | In Range: 1 | Wacom Sense: 1 | # | X:     24863 | Y:      8283 | Tip Pressure:   6219 | X Tilt:   35 | Y Tilt:    9 | Twist:      0 | Wacom FingerWheel:      0 | Wacom Distance:    9 | Transducer Serial Number:   595605148 | Wacom SerialHi:     1116162 | Wacom ToolType:   2050 
E: 000003.064141 27 10 63 1f 61 00 5b 20 00 4b 18 23 09 00 00 00 00 09 9c 36 80 23 02 08 11 00 02 08
# ReportID: 16 / Tip Switch: 1 | Barrel Switch: 1 | Secondary Barrel Switch: 0 | Eraser: 0 | Invert: 0 | In Range: 1 | Wacom Sense: 1 | # | X:     24857 | Y:      8401 | Tip Pressure:   6263 | X Tilt:   35 | Y Tilt:    8 | Twist:      0 | Wacom FingerWheel:      0 | Wacom Distance:    9 | Transducer Serial Number:   595605148 | Wacom SerialHi:     1116162 | Wacom ToolType:   2050 
E: 000003.070992 27 10 63 19 61 00 d1 20 00 77 18 23 08 00 00 00 00 09 9c 36 80 23 02 08 11 00 02 08
# ReportID: 16 / Tip Switch: 1 | Barrel Switch: 1 | Secondary Barrel Switch: 0 | Eraser: 0 | Invert: 0 | In Range: 1 | Wacom Sense: 1 | # | X:     24851 | Y:      8518 | Tip Pressure:   6279 | X Tilt:   35 | Y Tilt:    8 | Twist:      0 | Wacom FingerWheel:      0 | Wacom Distance:    9 | Transducer Serial Number:   595605148 | Wacom SerialHi:     1116162 | Wacom ToolType:   2050 
E: 000003.072928 27 10 63 13 61 00 46 21 00 87 18 23 08 00 00 00 00 09 9c 36 80 23 02 08 11 00 02 08
# ReportID: 16 / Tip Switch: 1 | Barrel Switch: 1 | Secondary Barrel Switch: 0 | Eraser: 0 | Invert: 0 | In Range: 1 | Wacom Sense: 1 | # | X:     24848 | Y:      8642 | Tip Pressure:   6315 | X Tilt:   35 | Y Tilt:    8 | Twist:      0 | Wacom FingerWheel:      0 | Wacom Distance:    9 | Transducer Serial Number:   595605148 | Wacom SerialHi:     1116162 | Wacom ToolType:   2050 
E: 000003.080023 27 10 63 10 61 00 c2 21 00 ab 18 23 08 00 00 00 00 09 9c 36 80 23 02 08 11 00 02 08
# ReportID: 16 / Tip Switch: 1 | Barrel Switch: 1 | Secondary Barrel Switch: 0 | Eraser: 0 | Invert: 0 | In Range: 1 | Wacom Sense: 1 | # | X:     24846 | Y:      8768 | Tip Pressure:   6391 | X Tilt:   35 | Y Tilt:    8 | Twist:      0 | Wacom FingerWheel:      0 | Wacom Distance:    9 | Transducer Serial Number:   595605148 | Wacom SerialHi:     1116162 | Wacom ToolType:   2050 
E: 000003.085160 27 10 63 0e 61 00 40 22 00 f7 18 23 08 00 00 00 00 09 9c 36 80 23 02 08 11 00 02 08
# ReportID: 16 / Tip Switch: 1 | Barrel Switch: 1 | Secondary Barrel Switch: 0 | Eraser: 0 | Invert: 0 | In Range: 1 | Wacom Sense: 1 | # | X:     24841 | Y:      8887 | Tip Pressure:   6431 | X Tilt:   35 | Y Tilt:    7 | Twist:      0 | Wacom FingerWheel:      0 | Wacom Distance:    9 | Transducer Serial Number:   595605148 | Wacom SerialHi:     1116162 | Wacom ToolType:   2050 
E: 000003.088068 27 10 63 09 61 00 b7 22 00 1f 19 23 07 00 00 00 00 09 9c 36 80 23 02 08 11 00 02 08
