# Pen node
#
# Recording is one ~5cm CCW circle with the pen tip at light pressure
#
# Wacom Co.,Ltd. Wacom Intuos Pro M
# 0x05, 0x01,                    // Usage Page (Generic Desktop)        0
# 0x09, 0x02,                    // Usage (Mouse)                       2
# 0xa1, 0x01,                    // Collection (Application)            4
# 0x85, 0x01,                    //  Report ID (1)                      6
# 0x09, 0x01,                    //  Usage (Pointer)                    8
# 0xa1, 0x00,                    //  Collection (Physical)              10
# 0x05, 0x09,                    //   Usage Page (Button)               12
# 0x19, 0x01,                    //   Usage Minimum (1)                 14
# 0x29, 0x03,                    //   Usage Maximum (3)                 16
# 0x15, 0x00,                    //   Logical Minimum (0)               18
# 0x25, 0x01,                    //   Logical Maximum (1)               20
# 0x75, 0x01,                    //   Report Size (1)                   22
# 0x95, 0x03,                    //   Report Count (3)                  24
# 0x81, 0x02,                    //   Input (Data,Var,Abs)              26
# 0x75, 0x01,                    //   Report Size (1)                   28
# 0x95, 0x05,                    //   Report Count (5)                  30
# 0x81, 0x03,                    //   Input (Cnst,Var,Abs)              32
# 0x05, 0x01,                    //   Usage Page (Generic Desktop)      34
# 0x09, 0x30,                    //   Usage (X)                         36
# 0x09, 0x31,                    //   Usage (Y)                         38
# 0x15, 0x81,                    //   Logical Minimum (-127)            40
# 0x25, 0x7f,                    //   Logical Maximum (127)             42
# 0x75, 0x08,                    //   Report Size (8)                   44
# 0x95, 0x02,                    //   Report Count (2)                  46
# 0x81, 0x06,                    //   Input (Data,Var,Rel)              48
# 0xc0,                          //  End Collection                     50
# 0xc0,                          // End Collection                      51
# 0x06, 0x0d, 0xff,              // Usage Page (Wacom)                  52
# 0x09, 0x01,                    // Usage (Wacom Digitizer)             55
# 0xa1, 0x01,                    // Collection (Application)            57
# 0x85, 0x10,                    //  Report ID (16)                     59
# 0x09, 0x20,                    //  Usage (Stylus)                     61
# 0xa1, 0x00,                    //  Collection (Physical)              63
# 0x09, 0x42,                    //   Usage (Tip Switch)                65
# 0x09, 0x44,                    //   Usage (Barrel Switch)             67
# 0x09, 0x5a,                    //   Usage (Secondary Barrel Switch)   69
# 0x09, 0x45,                    //   Usage (Eraser)                    71
# 0x09, 0x3c,                    //   Usage (Invert)                    73
# 0x09, 0x32,                    //   Usage (In Range)                  75
# 0x09, 0x36,                    //   Usage (Wacom Sense)               77
# 0x15, 0x00,                    //   Logical Minimum (0)               79
# 0x25, 0x01,                    //   Logical Maximum (1)               81
# 0x75, 0x01,                    //   Report Size (1)                   83
# 0x95, 0x07,                    //   Report Count (7)                  85
# 0x81, 0x02,                    //   Input (Data,Var,Abs)              87
# 0x95, 0x01,                    //   Report Count (1)                  89
# 0x81, 0x03,                    //   Input (Cnst,Var,Abs)              91
# 0x0a, 0x30, 0x01,              //   Usage (X)                         93
# 0x65, 0x11,                    //   Unit (SILinear: cm)               96
# 0x55, 0x0d,                    //   Unit Exponent (-3)                98
# 0x35, 0x00,                    //   Physical Minimum (0)              100
# 0x47, 0x80, 0x57, 0x00, 0x00,  //   Physical Maximum (22400)          102
# 0x15, 0x00,                    //   Logical Minimum (0)               107
# 0x27, 0x00, 0xaf, 0x00, 0x00,  //   Logical Maximum (44800)           109
# 0x75, 0x18,                    //   Report Size (24)                  114
# 0x95, 0x01,                    //   Report Count (1)                  116
# 0x81, 0x02,                    //   Input (Data,Var,Abs)              118
# 0x0a, 0x31, 0x01,              //   Usage (Y)                         120
# 0x47, 0xd0, 0x39, 0x00, 0x00,  //   Physical Maximum (14800)          123
# 0x27, 0xa0, 0x73, 0x00, 0x00,  //   Logical Maximum (29600)           128
# 0x81, 0x02,                    //   Input (Data,Var,Abs)              133
# 0x09, 0x30,                    //   Usage (Tip Pressure)              135
# 0x55, 0x00,                    //   Unit Exponent (0)                 137
# 0x65, 0x00,                    //   Unit (None)                       139
# 0x15, 0x00,                    //   Logical Minimum (0)               141
# 0x26, 0xff, 0x1f,              //   Logical Maximum (8191)            143
# 0x75, 0x10,                    //   Report Size (16)                  146
# 0x81, 0x02,                    //   Input (Data,Var,Abs)              148
# 0x09, 0x3d,                    //   Usage (X Tilt)                    150
# 0x09, 0x3e,                    //   Usage (Y Tilt)                    152
# 0x65, 0x14,                    //   Unit (EnglishRotation: deg)       154
# 0x55, 0x00,                    //   Unit Exponent (0)                 156
# 0x35, 0xc0,                    //   Physical Minimum (-64)            158
# 0x45, 0x3f,                    //   Physical Maximum (63)             160
# 0x15, 0xc0,                    //   Logical Minimum (-64)             162
# 0x25, 0x3f,                    //   Logical Maximum (63)              164
# 0x75, 0x08,                    //   Report Size (8)                   166
# 0x95, 0x02,                    //   Report Count (2)                  168
# 0x81, 0x02,                    //   Input (Data,Var,Abs)              170
# 0x09, 0x41,                    //   Usage (Twist)                     172
# 0x65, 0x14,                    //   Unit (EnglishRotation: deg)       174
# 0x55, 0x00,                    //   Unit Exponent (0)                 176
# 0x36, 0x4c, 0xff,              //   Physical Minimum (-180)           178
# 0x46, 0xb3, 0x00,              //   Physical Maximum (179)            181
# 0x16, 0x7c, 0xfc,              //   Logical Minimum (-900)            184
# 0x26, 0x83, 0x03,              //   Logical Maximum (899)             187
# 0x75, 0x10,                    //   Report Size (16)                  190
# 0x95, 0x01,                    //   Report Count (1)                  192
# 0x81, 0x0a,                    //   Input (Data,Var,Abs,Wrap)         194
# 0x0a, 0x03, 0x0d,              //   Usage (Wacom FingerWheel)         196
# 0x65, 0x00,                    //   Unit (None)                       199
# 0x55, 0x00,                    //   Unit Exponent (0)                 201
# 0x15, 0x00,                    //   Logical Minimum (0)               203
# 0x26, 0xff, 0x07,              //   Logical Maximum (2047)            205
# 0x75, 0x10,                    //   Report Size (16)                  208
# 0x95, 0x01,                    //   Report Count (1)                  210
# 0x81, 0x02,                    //   Input (Data,Var,Abs)              212
# 0x0a, 0x32, 0x01,              //   Usage (Wacom Distance)            214
# 0x15, 0x00,                    //   Logical Minimum (0)               217
# 0x25, 0x3f,                    //   Logical Maximum (63)              219
# 0x75, 0x08,                    //   Report Size (8)                   221
# 0x95, 0x01,                    //   Report Count (1)                  223
# 0x81, 0x02,                    //   Input (Data,Var,Abs)              225
# 0x09, 0x5b,                    //   Usage (Transducer Serial Number)  227
# 0x09, 0x5c,                    //   Usage (Wacom SerialHi)            229
# 0x17, 0x00, 0x00, 0x00, 0x80,  //   Logical Minimum (-2147483648)     231
# 0x27, 0xff, 0xff, 0xff, 0x7f,  //   Logical Maximum (2147483647)      236
# 0x75, 0x20,                    //   Report Size (32)                  241
# 0x95, 0x02,                    //   Report Count (2)                  243
# 0x81, 0x02,                    //   Input (Data,Var,Abs)              245
# 0x09, 0x77,                    //   Usage (Wacom ToolType)            247
# 0x15, 0x00,                    //   Logical Minimum (0)               249
# 0x26, 0xff, 0x0f,              //   Logical Maximum (4095)            251
# 0x75, 0x10,                    //   Report Size (16)                  254
# 0x95, 0x01,                    //   Report Count (1)                  256
# 0x81, 0x02,                    //   Input (Data,Var,Abs)              258
# 0xc0,                          //  End Collection                     260
# 0x85, 0x11,                    //  Report ID (17)                     261
# 0x09, 0x39,                    //  Usage (Wacom DigitizerFnKeys)      263
# 0xa1, 0x00,                    //  Collection (Physical)              265
# 0x1a, 0x10, 0x09,              //   Usage Minimum (2320)              267
# 0x2a, 0x17, 0x09,              //   Usage Maximum (2327)              270
# 0x15, 0x00,                    //   Logical Minimum (0)               273
# 0x25, 0x01,                    //   Logical Maximum (1)               275
# 0x75, 0x01,                    //   Report Size (1)                   277
# 0x95, 0x08,                    //   Report Count (8)                  279
# 0x81, 0x02,                    //   Input (Data,Var,Abs)              281
# 0x1a, 0x40, 0x09,              //   Usage Minimum (2368)              283
# 0x2a, 0x47, 0x09,              //   Usage Maximum (2375)              286
# 0x81, 0x02,                    //   Input (Data,Var,Abs)              289
# 0x0a, 0x95, 0x09,              //   Usage (Wacom Button Center)       291
# 0x95, 0x01,                    //   Report Count (1)                  294
# 0x81, 0x02,                    //   Input (Data,Var,Abs)              296
# 0x95, 0x07,                    //   Report Count (7)                  298
# 0x81, 0x03,                    //   Input (Cnst,Var,Abs)              300
# 0x0a, 0x38, 0x01,              //   Usage (Wacom TouchRing)           302
# 0x65, 0x14,                    //   Unit (EnglishRotation: deg)       305
# 0x55, 0x00,                    //   Unit Exponent (0)                 307
# 0x35, 0x00,                    //   Physical Minimum (0)              309
# 0x46, 0x67, 0x01,              //   Physical Maximum (359)            311
# 0x15, 0x00,                    //   Logical Minimum (0)               314
# 0x25, 0x47,                    //   Logical Maximum (71)              316
# 0x75, 0x07,                    //   Report Size (7)                   318
# 0x95, 0x01,                    //   Report Count (1)                  320
# 0x81, 0x0a,                    //   Input (Data,Var,Abs,Wrap)         322
# 0x0a, 0x39, 0x01,              //   Usage (Wacom TouchRingStatus)     324
# 0x65, 0x00,                    //   Unit (None)                       327
# 0x55, 0x00,                    //   Unit Exponent (0)                 329
# 0x25, 0x01,                    //   Logical Maximum (1)               331
# 0x75, 0x01,                    //   Report Size (1)                   333
# 0x95, 0x01,                    //   Report Count (1)                  335
# 0x81, 0x02,                    //   Input (Data,Var,Abs)              337
# 0x75, 0x08,                    //   Report Size (8)                   339
# 0x95, 0x04,                    //   Report Count (4)                  341
# 0x81, 0x03,                    //   Input (Cnst,Var,Abs)              343
# 0xc0,                          //  End Collection                     345
# 0x85, 0x13,                    //  Report ID (19)                     346
# 0x0a, 0x13, 0x10,              //  Usage (Wacom Digitizer Info)       348
# 0xa1, 0x00,                    //  Collection (Physical)              351
# 0x0a, 0x3b, 0x04,              //   Usage (Wacom Battery Level)       353
# 0x15, 0x00,                    //   Logical Minimum (0)               356
# 0x25, 0x64,                    //   Logical Maximum (100)             358
# 0x75, 0x07,                    //   Report Size (7)                   360
# 0x95, 0x01,                    //   Report Count (1)                  362
# 0x81, 0x02,                    //   Input (Data,Var,Abs)              364
# 0x0a, 0x04, 0x04,              //   Usage (Wacom Battery Charging)    366
# 0x25, 0x01,                    //   Logical Maximum (1)               369
# 0x75, 0x01,                    //   Report Size (1)                   371
# 0x81, 0x02,                    //   Input (Data,Var,Abs)              373
# 0x0a, 0x52, 0x04,              //   Usage (Vendor Usage 0x452)        375
# 0x15, 0x00,                    //   Logical Minimum (0)               378
# 0x25, 0x01,                    //   Logical Maximum (1)               380
# 0x75, 0x01,                    //   Report Size (1)                   382
# 0x95, 0x01,                    //   Report Count (1)                  384
# 0x81, 0x02,                    //   Input (Data,Var,Abs)              386
# 0x95, 0x06,                    //   Report Count (6)                  388
# 0x81, 0x03,                    //   Input (Cnst,Var,Abs)              390
# 0x0a, 0x54, 0x04,              //   Usage (Wacom TouchOnOff)          392
# 0x95, 0x01,                    //   Report Count (1)                  395
# 0x81, 0x02,                    //   Input (Data,Var,Abs)              397
# 0x75, 0x08,                    //   Report Size (8)                   399
# 0x95, 0x06,                    //   Report Count (6)                  401
# 0x81, 0x03,                    //   Input (Cnst,Var,Abs)              403
# 0xc0,                          //  End Collection                     405
# 0x09, 0x0e,                    //  Usage (Device Configuration)       406
# 0xa1, 0x02,                    //  Collection (Logical)               408
# 0x15, 0x00,                    //   Logical Minimum (0)               410
# 0x85, 0x02,                    //   Report ID (2)                     412
# 0x09, 0x01,                    //   Usage (Wacom Digitizer)           414
# 0x75, 0x08,                    //   Report Size (8)                   416
# 0x25, 0x01,                    //   Logical Maximum (1)               418
# 0x95, 0x01,                    //   Report Count (1)                  420
# 0xb1, 0x02,                    //   Feature (Data,Var,Abs)            422
# 0x85, 0x03,                    //   Report ID (3)                     424
# 0x0a, 0x03, 0x10,              //   Usage (Vendor Usage 0x1003)       426
# 0x26, 0xff, 0x00,              //   Logical Maximum (255)             429
# 0x95, 0x01,                    //   Report Count (1)                  432
# 0xb1, 0x02,                    //   Feature (Data,Var,Abs)            434
# 0x85, 0x04,                    //   Report ID (4)                     436
# 0x0a, 0x04, 0x10,              //   Usage (Vendor Usage 0x1004)       438
# 0x25, 0x01,                    //   Logical Maximum (1)               441
# 0x95, 0x01,                    //   Report Count (1)                  443
# 0xb1, 0x02,                    //   Feature (Data,Var,Abs)            445
# 0x85, 0x07,                    //   Report ID (7)                     447
# 0x0a, 0x09, 0x10,              //   Usage (Vendor Usage 0x1009)       449
# 0x25, 0x02,                    //   Logical Maximum (2)               452
# 0x95, 0x01,                    //   Report Count (1)                  454
# 0xb1, 0x02,                    //   Feature (Data,Var,Abs)            456
# 0x95, 0x01,                    //   Report Count (1)                  458
# 0xb1, 0x03,                    //   Feature (Cnst,Var,Abs)            460
# 0x0a, 0x07, 0x10,              //   Usage (Vendor Usage 0x1007)       462
# 0x09, 0x00,                    //   Usage (Vendor Usage 0x00)         465
# 0x0a, 0x08, 0x10,              //   Usage (Vendor Usage 0x1008)       467
# 0x09, 0x00,                    //   Usage (Vendor Usage 0x00)         470
# 0x09, 0x00,                    //   Usage (Vendor Usage 0x00)         472
# 0x09, 0x00,                    //   Usage (Vendor Usage 0x00)         474
# 0x27, 0xff, 0xff, 0x00, 0x00,  //   Logical Maximum (65535)           476
# 0x75, 0x10,                    //   Report Size (16)                  481
# 0x95, 0x06,                    //   Report Count (6)                  483
# 0xb1, 0x02,                    //   Feature (Data,Var,Abs)            485
# 0x75, 0x08,                    //   Report Size (8)                   487
# 0x95, 0x01,                    //   Report Count (1)                  489
# 0xb1, 0x03,                    //   Feature (Cnst,Var,Abs)            491
# 0x85, 0x0c,                    //   Report ID (12)                    493
# 0x0a, 0x30, 0x0d,              //   Usage (Wacom Offset Left)         495
# 0x0a, 0x31, 0x0d,              //   Usage (Wacom Offset Top)          498
# 0x0a, 0x32, 0x0d,              //   Usage (Wacom Offset Right)        501
# 0x0a, 0x33, 0x0d,              //   Usage (Wacom Offset Bottom)       504
# 0x65, 0x11,                    //   Unit (SILinear: cm)               507
# 0x55, 0x0d,                    //   Unit Exponent (-3)                509
# 0x75, 0x10,                    //   Report Size (16)                  511
# 0x95, 0x04,                    //   Report Count (4)                  513
# 0xb1, 0x03,                    //   Feature (Cnst,Var,Abs)            515
# 0x85, 0x0d,                    //   Report ID (13)                    517
# 0x65, 0x00,                    //   Unit (None)                       519
# 0x55, 0x00,                    //   Unit Exponent (0)                 521
# 0x0a, 0x0d, 0x10,              //   Usage (Vendor Usage 0x100d)       523
# 0x15, 0x00,                    //   Logical Minimum (0)               526
# 0x25, 0x01,                    //   Logical Maximum (1)               528
# 0x75, 0x08,                    //   Report Size (8)                   530
# 0x95, 0x01,                    //   Report Count (1)                  532
# 0xb1, 0x02,                    //   Feature (Data,Var,Abs)            534
# 0x85, 0x14,                    //   Report ID (20)                    536
# 0x0a, 0x14, 0x10,              //   Usage (Vendor Usage 0x1014)       538
# 0x26, 0xff, 0x00,              //   Logical Maximum (255)             541
# 0x95, 0x0d,                    //   Report Count (13)                 544
# 0xb1, 0x02,                    //   Feature (Data,Var,Abs)            546
# 0x85, 0x31,                    //   Report ID (49)                    548
# 0x0a, 0x31, 0x10,              //   Usage (Vendor Usage 0x1031)       550
# 0x25, 0x64,                    //   Logical Maximum (100)             553
# 0x95, 0x05,                    //   Report Count (5)                  555
# 0xb1, 0x02,                    //   Feature (Data,Var,Abs)            557
# 0x85, 0x32,                    //   Report ID (50)                    559
# 0x0a, 0x31, 0x10,              //   Usage (Vendor Usage 0x1031)       561
# 0x25, 0x64,                    //   Logical Maximum (100)             564
# 0x95, 0x01,                    //   Report Count (1)                  566
# 0xb1, 0x02,                    //   Feature (Data,Var,Abs)            568
# 0x0a, 0x32, 0x10,              //   Usage (Vendor Usage 0x1032)       570
# 0x25, 0x03,                    //   Logical Maximum (3)               573
# 0xb1, 0x02,                    //   Feature (Data,Var,Abs)            575
# 0x85, 0x34,                    //   Report ID (52)                    577
# 0x0a, 0x34, 0x10,              //   Usage (Vendor Usage 0x1034)       579
# 0x25, 0x01,                    //   Logical Maximum (1)               582
# 0x95, 0x04,                    //   Report Count (4)                  584
# 0xb1, 0x02,                    //   Feature (Data,Var,Abs)            586
# 0x85, 0x35,                    //   Report ID (53)                    588
# 0x0a, 0x35, 0x10,              //   Usage (Vendor Usage 0x1035)       590
# 0x26, 0xff, 0x00,              //   Logical Maximum (255)             593
# 0x95, 0x0a,                    //   Report Count (10)                 596
# 0xb1, 0x02,                    //   Feature (Data,Var,Abs)            598
# 0x85, 0x36,                    //   Report ID (54)                    600
# 0x0a, 0x35, 0x10,              //   Usage (Vendor Usage 0x1035)       602
# 0x26, 0xff, 0x00,              //   Logical Maximum (255)             605
# 0x96, 0x01, 0x01,              //   Report Count (257)                608
# 0xb1, 0x02,                    //   Feature (Data,Var,Abs)            611
# 0x85, 0xcc,                    //   Report ID (204)                   613
# 0x0a, 0xcc, 0x10,              //   Usage (Vendor Usage 0x10cc)       615
# 0x26, 0xff, 0x00,              //   Logical Maximum (255)             618
# 0x95, 0x02,                    //   Report Count (2)                  621
# 0xb1, 0x02,                    //   Feature (Data,Var,Abs)            623
# 0xc0,                          //  End Collection                     625
# 0x0a, 0xac, 0x10,              //  Usage (Vendor Usage 0x10ac)        626
# 0xa1, 0x02,                    //  Collection (Logical)               629
# 0x15, 0x00,                    //   Logical Minimum (0)               631
# 0x26, 0xff, 0x00,              //   Logical Maximum (255)             633
# 0x75, 0x08,                    //   Report Size (8)                   636
# 0x85, 0xac,                    //   Report ID (172)                   638
# 0x09, 0x00,                    //   Usage (Vendor Usage 0x00)         640
# 0x95, 0xbf,                    //   Report Count (191)                642
# 0x81, 0x02,                    //   Input (Data,Var,Abs)              644
# 0x85, 0x33,                    //   Report ID (51)                    646
# 0x09, 0x00,                    //   Usage (Vendor Usage 0x00)         648
# 0x95, 0x12,                    //   Report Count (18)                 650
# 0xb1, 0x02,                    //   Feature (Data,Var,Abs)            652
# 0x85, 0x64,                    //   Report ID (100)                   654
# 0x09, 0x00,                    //   Usage (Vendor Usage 0x00)         656
# 0x95, 0x0c,                    //   Report Count (12)                 658
# 0xb1, 0x02,                    //   Feature (Data,Var,Abs)            660
# 0x85, 0x15,                    //   Report ID (21)                    662
# 0x09, 0x00,                    //   Usage (Vendor Usage 0x00)         664
# 0x95, 0x0e,                    //   Report Count (14)                 666
# 0xb1, 0x02,                    //   Feature (Data,Var,Abs)            668
# 0x85, 0x12,                    //   Report ID (18)                    670
# 0x09, 0x00,                    //   Usage (Vendor Usage 0x00)         672
# 0x95, 0x04,                    //   Report Count (4)                  674
# 0xb1, 0x02,                    //   Feature (Data,Var,Abs)            676
# 0x85, 0x16,                    //   Report ID (22)                    678
# 0x09, 0x00,                    //   Usage (Vendor Usage 0x00)         680
# 0x95, 0x0e,                    //   Report Count (14)                 682
# 0xb1, 0x02,                    //   Feature (Data,Var,Abs)            684
# 0x85, 0x40,                    //   Report ID (64)                    686
# 0x09, 0x00,                    //   Usage (Vendor Usage 0x00)         688
# 0x95, 0x01,                    //   Report Count (1)                  690
# 0xb1, 0x02,                    //   Feature (Data,Var,Abs)            692
# 0x85, 0x41,                    //   Report ID (65)                    694
# 0x09, 0x00,                    //   Usage (Vendor Usage 0x00)         696
# 0x95, 0x01,                    //   Report Count (1)                  698
# 0xb1, 0x02,                    //   Feature (Data,Var,Abs)            700
# 0x85, 0x42,                    //   Report ID (66)                    702
# 0x09, 0x00,                    //   Usage (Vendor Usage 0x00)         704
# 0x95, 0x04,                    //   Report Count (4)                  706
# 0xb1, 0x02,                    //   Feature (Data,Var,Abs)            708
# 0x85, 0x43,                    //   Report ID (67)                    710
# 0x09, 0x00,                    //   Usage (Vendor Usage 0x00)         712
# 0x95, 0x0d,                    //   Report Count (13)                 714
# 0xb1, 0x02,                    //   Feature (Data,Var,Abs)            716
# 0x85, 0x44,                    //   Report ID (68)                    718
# 0x09, 0x00,                    //   Usage (Vendor Usage 0x00)         720
# 0x95, 0x3f,                    //   Report Count (63)                 722
# 0xb1, 0x02,                    //   Feature (Data,Var,Abs)            724
# 0x85, 0x45,                    //   Report ID (69)                    726
# 0x09, 0x00,                    //   Usage (Vendor Usage 0x00)         728
# 0x95, 0x20,                    //   Report Count (32)                 730
# 0xb1, 0x02,                    //   Feature (Data,Var,Abs)            732
# 0x85, 0x60,                    //   Report ID (96)                    734
# 0x09, 0x00,                    //   Usage (Vendor Usage 0x00)         736
# 0x95, 0x3f,                    //   Report Count (63)                 738
# 0xb1, 0x02,                    //   Feature (Data,Var,Abs)            740
# 0x85, 0x61,                    //   Report ID (97)                    742
# 0x09, 0x00,                    //   Usage (Vendor Usage 0x00)         744
# 0x95, 0x3e,                    //   Report Count (62)                 746
# 0xb1, 0x02,                    //   Feature (Data,Var,Abs)            748
# 0x85, 0x62,                    //   Report ID (98)                    750
# 0x09, 0x00,                    //   Usage (Vendor Usage 0x00)         752
# 0x95, 0x3e,                    //   Report Count (62)                 754
# 0xb1, 0x02,                    //   Feature (Data,Var,Abs)            756
# 0xc0,                          //  End Collection                     758
# 0x85, 0xd0,                    //  Report ID (208)                    759
# 0x09, 0x01,                    //  Usage (Wacom Digitizer)            761
# 0x96, 0x08, 0x00,              //  Report Count (8)                   763
# 0xb1, 0x02,                    //  Feature (Data,Var,Abs)             766
# 0x85, 0xd1,                    //  Report ID (209)                    768
# 0x09, 0x01,                    //  Usage (Wacom Digitizer)            770
# 0x96, 0x04, 0x01,              //  Report Count (260)                 772
# 0xb1, 0x02,                    //  Feature (Data,Var,Abs)             775
# 0x85, 0xd2,                    //  Report ID (210)                    777
# 0x09, 0x01,                    //  Usage (Wacom Digitizer)            779
# 0x96, 0x04, 0x01,              //  Report Count (260)                 781
# 0xb1, 0x02,                    //  Feature (Data,Var,Abs)             784
# 0x85, 0xd3,                    //  Report ID (211)                    786
# 0x09, 0x01,                    //  Usage (Wacom Digitizer)            788
# 0x96, 0x04, 0x00,              //  Report Count (4)                   790
# 0xb1, 0x02,                    //  Feature (Data,Var,Abs)             793
# 0x85, 0xd4,                    //  Report ID (212)                    795
# 0x09, 0x01,                    //  Usage (Wacom Digitizer)            797
# 0x96, 0x04, 0x00,              //  Report Count (4)                   799
# 0xb1, 0x02,                    //  Feature (Data,Var,Abs)             802
# 0x85, 0xd5,                    //  Report ID (213)                    804
# 0x09, 0x01,                    //  Usage (Wacom Digitizer)            806
# 0x96, 0x04, 0x00,              //  Report Count (4)                   808
# 0xb1, 0x02,                    //  Feature (Data,Var,Abs)             811
# 0x85, 0xd6,                    //  Report ID (214)                    813
# 0x09, 0x01,                    //  Usage (Wacom Digitizer)            815
# 0x96, 0x04, 0x00,              //  Report Count (4)                   817
# 0xb1, 0x02,                    //  Feature (Data,Var,Abs)             820
# 0x85, 0xd7,                    //  Report ID (215)                    822
# 0x09, 0x01,                    //  Usage (Wacom Digitizer)            824
# 0x96, 0x08, 0x00,              //  Report Count (8)                   826
# 0xb1, 0x02,                    //  Feature (Data,Var,Abs)             829
# 0x85, 0xd8,                    //  Report ID (216)                    831
# 0x09, 0x01,                    //  Usage (Wacom Digitizer)            833
# 0x96, 0x0c, 0x00,              //  Report Count (12)                  835
# 0xb1, 0x02,                    //  Feature (Data,Var,Abs)             838
# 0x85, 0xd9,                    //  Report ID (217)                    840
# 0x09, 0x01,                    //  Usage (Wacom Digitizer)            842
# 0x96, 0x00, 0x0a,              //  Report Count (2560)                844
# 0xb1, 0x02,                    //  Feature (Data,Var,Abs)             847
# 0x85, 0xda,                    //  Report ID (218)                    849
# 0x09, 0x01,                    //  Usage (Wacom Digitizer)            851
# 0x96, 0x04, 0x04,              //  Report Count (1028)                853
# 0xb1, 0x02,                    //  Feature (Data,Var,Abs)             856
# 0x85, 0xdb,                    //  Report ID (219)                    858
# 0x09, 0x01,                    //  Usage (Wacom Digitizer)            860
# 0x96, 0x06, 0x00,              //  Report Count (6)                   862
# 0xb1, 0x02,                    //  Feature (Data,Var,Abs)             865
# 0x85, 0xdc,                    //  Report ID (220)                    867
# 0x09, 0x01,                    //  Usage (Wacom Digitizer)            869
# 0x96, 0x02, 0x00,              //  Report Count (2)                   871
# 0xb1, 0x02,                    //  Feature (Data,Var,Abs)             874
# 0x85, 0xdd,                    //  Report ID (221)                    876
# 0x09, 0x01,                    //  Usage (Wacom Digitizer)            878
# 0x96, 0x04, 0x00,              //  Report Count (4)                   880
# 0xb1, 0x02,                    //  Feature (Data,Var,Abs)             883
# 0x85, 0xde,                    //  Report ID (222)                    885
# 0x09, 0x01,                    //  Usage (Wacom Digitizer)            887
# 0x96, 0x04, 0x00,              //  Report Count (4)                   889
# 0xb1, 0x02,                    //  Feature (Data,Var,Abs)             892
# 0x85, 0xdf,                    //  Report ID (223)                    894
# 0x09, 0x01,                    //  Usage (Wacom Digitizer)            896
# 0x96, 0x22, 0x00,              //  Report Count (34)                  898
# 0xb1, 0x02,                    //  Feature (Data,Var,Abs)             901
# 0x85, 0xe0,                    //  Report ID (224)                    903
# 0x09, 0x01,                    //  Usage (Wacom Digitizer)            905
# 0x96, 0x01, 0x00,              //  Report Count (1)                   907
# 0xb1, 0x02,                    //  Feature (Data,Var,Abs)             910
# 0x85, 0xe1,                    //  Report ID (225)                    912
# 0x09, 0x01,                    //  Usage (Wacom Digitizer)            914
# 0x96, 0x02, 0x00,              //  Report Count (2)                   916
# 0xb1, 0x02,                    //  Feature (Data,Var,Abs)             919
# 0x85, 0xe2,                    //  Report ID (226)                    921
# 0x09, 0x01,                    //  Usage (Wacom Digitizer)            923
# 0x96, 0x02, 0x00,              //  Report Count (2)                   925
# 0xb1, 0x02,                    //  Feature (Data,Var,Abs)             928
# 0x85, 0xe3,                    //  Report ID (227)                    930
# 0x09, 0x01,                    //  Usage (Wacom Digitizer)            932
# 0x96, 0x02, 0x00,              //  Report Count (2)                   934
# 0xb1, 0x02,                    //  Feature (Data,Var,Abs)             937
# 0x85, 0xe4,                    //  Report ID (228)                    939
# 0x09, 0x01,                    //  Usage (Wacom Digitizer)            941
# 0x96, 0xff, 0x01,              //  Report Count (511)                 943
# 0xb1, 0x02,                    //  Feature (Data,Var,Abs)             946
# 0xc0,                          // End Collection                      948
# 
R: 949 05 01 09 02 a1 01 85 01 09 01 a1 00 05 09 19 01 29 03 15 00 25 01 75 01 95 03 81 02 75 01 95 05 81 03 05 01 09 30 09 31 15 81 25 7f 75 08 95 02 81 06 c0 c0 06 0d ff 09 01 a1 01 85 10 09 20 a1 00 09 42 09 44 09 5a 09 45 09 3c 09 32 09 36 15 00 25 01 75 01 95 07 81 02 95 01 81 03 0a 30 01 65 11 55 0d 35 00 47 80 57 00 00 15 00 27 00 af 00 00 75 18 95 01 81 02 0a 31 01 47 d0 39 00 00 27 a0 73 00 00 81 02 09 30 55 00 65 00 15 00 26 ff 1f 75 10 81 02 09 3d 09 3e 65 14 55 00 35 c0 45 3f 15 c0 25 3f 75 08 95 02 81 02 09 41 65 14 55 00 36 4c ff 46 b3 00 16 7c fc 26 83 03 75 10 95 01 81 0a 0a 03 0d 65 00 55 00 15 00 26 ff 07 75 10 95 01 81 02 0a 32 01 15 00 25 3f 75 08 95 01 81 02 09 5b 09 5c 17 00 00 00 80 27 ff ff ff 7f 75 20 95 02 81 02 09 77 15 00 26 ff 0f 75 10 95 01 81 02 c0 85 11 09 39 a1 00 1a 10 09 2a 17 09 15 00 25 01 75 01 95 08 81 02 1a 40 09 2a 47 09 81 02 0a 95 09 95 01 81 02 95 07 81 03 0a 38 01 65 14 55 00 35 00 46 67 01 15 00 25 47 75 07 95 01 81 0a 0a 39 01 65 00 55 00 25 01 75 01 95 01 81 02 75 08 95 04 81 03 c0 85 13 0a 13 10 a1 00 0a 3b 04 15 00 25 64 75 07 95 01 81 02 0a 04 04 25 01 75 01 81 02 0a 52 04 15 00 25 01 75 01 95 01 81 02 95 06 81 03 0a 54 04 95 01 81 02 75 08 95 06 81 03 c0 09 0e a1 02 15 00 85 02 09 01 75 08 25 01 95 01 b1 02 85 03 0a 03 10 26 ff 00 95 01 b1 02 85 04 0a 04 10 25 01 95 01 b1 02 85 07 0a 09 10 25 02 95 01 b1 02 95 01 b1 03 0a 07 10 09 00 0a 08 10 09 00 09 00 09 00 27 ff ff 00 00 75 10 95 06 b1 02 75 08 95 01 b1 03 85 0c 0a 30 0d 0a 31 0d 0a 32 0d 0a 33 0d 65 11 55 0d 75 10 95 04 b1 03 85 0d 65 00 55 00 0a 0d 10 15 00 25 01 75 08 95 01 b1 02 85 14 0a 14 10 26 ff 00 95 0d b1 02 85 31 0a 31 10 25 64 95 05 b1 02 85 32 0a 31 10 25 64 95 01 b1 02 0a 32 10 25 03 b1 02 85 34 0a 34 10 25 01 95 04 b1 02 85 35 0a 35 10 26 ff 00 95 0a b1 02 85 36 0a 35 10 26 ff 00 96 01 01 b1 02 85 cc 0a cc 10 26 ff 00 95 02 b1 02 c0 0a ac 10 a1 02 15 00 26 ff 00 75 08 85 ac 09 00 95 bf 81 02 85 33 09 00 95 12 b1 02 85 64 09 00 95 0c b1 02 85 15 09 00 95 0e b1 02 85 12 09 00 95 04 b1 02 85 16 09 00 95 0e b1 02 85 40 09 00 95 01 b1 02 85 41 09 00 95 01 b1 02 85 42 09 00 95 04 b1 02 85 43 09 00 95 0d b1 02 85 44 09 00 95 3f b1 02 85 45 09 00 95 20 b1 02 85 60 09 00 95 3f b1 02 85 61 09 00 95 3e b1 02 85 62 09 00 95 3e b1 02 c0 85 d0 09 01 96 08 00 b1 02 85 d1 09 01 96 04 01 b1 02 85 d2 09 01 96 04 01 b1 02 85 d3 09 01 96 04 00 b1 02 85 d4 09 01 96 04 00 b1 02 85 d5 09 01 96 04 00 b1 02 85 d6 09 01 96 04 00 b1 02 85 d7 09 01 96 08 00 b1 02 85 d8 09 01 96 0c 00 b1 02 85 d9 09 01 96 00 0a b1 02 85 da 09 01 96 04 04 b1 02 85 db 09 01 96 06 00 b1 02 85 dc 09 01 96 02 00 b1 02 85 dd 09 01 96 04 00 b1 02 85 de 09 01 96 04 00 b1 02 85 df 09 01 96 22 00 b1 02 85 e0 09 01 96 01 00 b1 02 85 e1 09 01 96 02 00 b1 02 85 e2 09 01 96 02 00 b1 02 85 e3 09 01 96 02 00 b1 02 85 e4 09 01 96 ff 01 b1 02 c0
N: Wacom Co.,Ltd. Wacom Intuos Pro M
I: 3 056a 0357
# ReportID: 19 / Wacom Battery Level:  100 | Wacom Battery Charging: 0 | 0xff0d0452: 0 | # | Wacom TouchOnOff: 1 | # 
E: 000000.000000 9 13 64 80 00 00 00 00 00 00
# ReportID: 19 / Wacom Battery Level:  100 | Wacom Battery Charging: 0 | 0xff0d0452: 0 | # | Wacom TouchOnOff: 1 | # 
E: 000001.999850 9 13 64 80 00 00 00 00 00 00
# ReportID: 16 / Tip Switch: 0 | Barrel Switch: 0 | Secondary Barrel Switch: 0 | Eraser: 0 | Invert: 0 | In Range: 0 | Wacom Sense: 1 | # | X:     21257 | Y:     10724 | Tip Pressure:      0 | X Tilt:    0 | Y Tilt:    0 | Twist:      0 | Wacom FingerWheel:      0 | Wacom Distance:   63 | Transducer Serial Number:           0 | Wacom SerialHi:           0 | Wacom ToolType:      0 
E: 000002.119976 27 10 40 09 53 00 e4 29 00 00 00 00 00 00 00 00 00 3f 00 00 00 00 00 00 00 00 00 00
# ReportID: 16 / Tip Switch: 0 | Barrel Switch: 0 | Secondary Barrel Switch: 0 | Eraser: 0 | Invert: 0 | In Range: 0 | Wacom Sense: 1 | # | X:     21289 | Y:     10812 | Tip Pressure:      0 | X Tilt:    0 | Y Tilt:    0 | Twist:      0 | Wacom FingerWheel:      0 | Wacom Distance:   63 | Transducer Serial Number:           0 | Wacom SerialHi:           0 | Wacom ToolType:      0 
E: 000002.126024 27 10 40 29 53 00 3c 2a 00 00 00 00 00 00 00 00 00 3f 00 00 00 00 00 00 00 00 00 00
# ReportID: 16 / Tip Switch: 0 | Barrel Switch: 0 | Secondary Barrel Switch: 0 | Eraser: 0 | Invert: 0 | In Range: 0 | Wacom Sense: 1 | # | X:     21248 | Y:     10625 | Tip Pressure:      0 | X Tilt:    0 | Y Tilt:    0 | Twist:      0 | Wacom FingerWheel:      0 | Wacom Distance:   63 | Transducer Serial Number:           0 | Wacom SerialHi:           0 | Wacom ToolType:      0 
E: 000002.135017 27 10 40 00 53 00 81 29 00 00 00 00 00 00 00 00 00 3f 00 00 00 00 00 00 00 00 00 00
# ReportID: 16 / Tip Switch: 0 | Barrel Switch: 0 | Secondary Barrel Switch: 0 | Eraser: 0 | Invert: 0 | In Range: 1 | Wacom Sense: 1 | # | X:     21347 | Y:     10731 | Tip Pressure:      0 | X Tilt:   21 | Y Tilt:   14 | Twist:      0 | Wacom FingerWheel:      0 | Wacom Distance:   63 | Transducer Serial Number:   595605148 | Wacom SerialHi:     1116162 | Wacom ToolType:   2050 
E: 000002.146976 27 10 60 63 53 00 eb 29 00 00 00 15 0e 00 00 00 00 3f 9c 36 80 23 02 08 11 00 02 08
# ReportID: 16 / Tip Switch: 0 | Barrel Switch: 0 | Secondary Barrel Switch: 0 | Eraser: 0 | Invert: 0 | In Range: 0 | Wacom Sense: 1 | # | X:     21347 | Y:     10731 | Tip Pressure:      0 | X Tilt:   21 | Y Tilt:   14 | Twist:      0 | Wacom FingerWheel:      0 | Wacom Distance:   63 | Transducer Serial Number:           0 | Wacom SerialHi:           0 | Wacom ToolType:      0 
E: 000002.156959 27 10 40 63 53 00 eb 29 00 00 00 15 0e 00 00 00 00 3f 00 00 00 00 00 00 00 00 00 00
# ReportID: 16 / Tip Switch: 0 | Barrel Switch: 0 | Secondary Barrel Switch: 0 | Eraser: 0 | Invert: 0 | In Range: 0 | Wacom Sense: 1 | # | X:     21412 | Y:     10744 | Tip Pressure:      0 | X Tilt:    0 | Y Tilt:    0 | Twist:      0 | Wacom FingerWheel:      0 | Wacom Distance:   63 | Transducer Serial Number:           0 | Wacom SerialHi:           0 | Wacom ToolType:      0 
E: 000002.159062 27 10 40 a4 53 00 f8 29 00 00 00 00 00 00 00 00 00 3f 00 00 00 00 00 00 00 00 00 00
# ReportID: 16 / Tip Switch: 0 | Barrel Switch: 0 | Secondary Barrel Switch: 0 | Eraser: 0 | Invert: 0 | In Range: 0 | Wacom Sense: 1 | # | X:     21450 | Y:     10748 | Tip Pressure:      0 | X Tilt:    0 | Y Tilt:    0 | Twist:      0 | Wacom FingerWheel:      0 | Wacom Distance:   63 | Transducer Serial Number:           0 | Wacom SerialHi:           0 | Wacom ToolType:      0 
E: 000002.162011 27 10 40 ca 53 00 fc 29 00 00 00 00 00 00 00 00 00 3f 00 00 00 00 00 00 00 00 00 00
# ReportID: 16 / Tip Switch: 0 | Barrel Switch: 0 | Secondary Barrel Switch: 0 | Eraser: 0 | Invert: 0 | In Range: 1 | Wacom Sense: 1 | # | X:     21476 | Y:     10732 | Tip Pressure:      0 | X Tilt:   25 | Y Tilt:   18 | Twist:      0 | Wacom FingerWheel:      0 | Wacom Distance:   63 | Transducer Serial Number:   595605148 | Wacom SerialHi:     1116162 | Wacom ToolType:   2050 
E: 000002.168004 27 10 60 e4 53 00 ec 29 00 00 00 19 12 00 00 00 00 3f 9c 36 80 23 02 08 11 00 02 08
# ReportID: 16 / Tip Switch: 0 | Barrel Switch: 0 | Secondary Barrel Switch: 0 | Eraser: 0 | Invert: 0 | In Range: 0 | Wacom Sense: 1 | # | X:     21476 | Y:     10732 | Tip Pressure:      0 | X Tilt:   25 | Y Tilt:   18 | Twist:      0 | Wacom FingerWheel:      0 | Wacom Distance:   63 | Transducer Serial Number:           0 | Wacom SerialHi:           0 | Wacom ToolType:      0 
E: 000002.170993 27 10 40 e4 53 00 ec 29 00 00 00 19 12 00 00 00 00 3f 00 00 00 00 00 00 00 00 00 00
# ReportID: 16 / Tip Switch: 0 | Barrel Switch: 0 | Secondary Barrel Switch: 0 | Eraser: 0 | Invert: 0 | In Range: 0 | Wacom Sense: 1 | # | X:     21503 | Y:     10735 | Tip Pressure:      0 | X Tilt:    0 | Y Tilt:    0 | Twist:      0 | Wacom FingerWheel:      0 | Wacom Distance:   63 | Transducer Serial Number:           0 | Wacom SerialHi:           0 | Wacom ToolType:      0 
E: 000002.173000 27 10 40 ff 53 00 ef 29 00 00 00 00 00 00 00 00 00 3f 00 00 00 00 00 00 00 00 00 00
# ReportID: 16 / Tip Switch: 0 | Barrel Switch: 0 | Secondary Barrel Switch: 0 | Eraser: 0 | Invert: 0 | In Range: 0 | Wacom Sense: 1 | # | X:     21525 | Y:     10745 | Tip Pressure:      0 | X Tilt:    0 | Y Tilt:    0 | Twist:      0 | Wacom FingerWheel:      0 | Wacom Distance:   63 | Transducer Serial Number:           0 | Wacom SerialHi:           0 | Wacom ToolType:      0 
E: 000002.177966 27 10 40 15 54 00 f9 29 00 00 00 00 00 00 00 00 00 3f 00 00 00 00 00 00 00 00 00 00
# ReportID: 16 / Tip Switch: 0 | Barrel Switch: 0 | Secondary Barrel Switch: 0 | Eraser: 0 | Invert: 0 | In Range: 1 | Wacom Sense: 1 | # | X:     21545 | Y:     10751 | Tip Pressure:      0 | X Tilt:   28 | Y Tilt:   22 | Twist:      0 | Wacom FingerWheel:      0 | Wacom Distance:   63 | Transducer Serial Number:   595605148 | Wacom SerialHi:     1116162 | Wacom ToolType:   2050 
E: 000002.183005 27 10 60 29 54 00 ff 29 00 00 00 1c 16 00 00 00 00 3f 9c 36 80 23 02 08 11 00 02 08
# ReportID: 16 / Tip Switch: 0 | Barrel Switch: 0 | Secondary Barrel Switch: 0 | Eraser: 0 | Invert: 0 | In Range: 0 | Wacom Sense: 1 | # | X:     21545 | Y:     10751 | Tip Pressure:      0 | X Tilt:   28 | Y Tilt:   22 | Twist:      0 | Wacom FingerWheel:      0 | Wacom Distance:   63 | Transducer Serial Number:           0 | Wacom SerialHi:           0 | Wacom ToolType:      0 
E: 000002.185879 27 10 40 29 54 00 ff 29 00 00 00 1c 16 00 00 00 00 3f 00 00 00 00 00 00 00 00 00 00
# ReportID: 16 / Tip Switch: 0 | Barrel Switch: 0 | Secondary Barrel Switch: 0 | Eraser: 0 | Invert: 0 | In Range: 0 | Wacom Sense: 1 | # | X:     21562 | Y:     10753 | Tip Pressure:      0 | X Tilt:    0 | Y Tilt:    0 | Twist:      0 | Wacom FingerWheel:      0 | Wacom Distance:   63 | Transducer Serial Number:           0 | Wacom SerialHi:           0 | Wacom ToolType:      0 
E: 000002.186833 27 10 40 3a 54 00 01 2a 00 00 00 00 00 00 00 00 00 3f 00 00 00 00 00 00 00 00 00 00
# ReportID: 16 / Tip Switch: 0 | Barrel Switch: 0 | Secondary Barrel Switch: 0 | Eraser: 0 | Invert: 0 | In Range: 0 | Wacom Sense: 1 | # | X:     21576 | Y:     10756 | Tip Pressure:      0 | X Tilt:    0 | Y Tilt:    0 | Twist:      0 | Wacom FingerWheel:      0 | Wacom Distance:   63 | Transducer Serial Number:           0 | Wacom SerialHi:           0 | Wacom ToolType:      0 
E: 000002.191899 27 10 40 48 54 00 04 2a 00 00 00 00 00 00 00 00 00 3f 00 00 00 00 00 00 00 00 00 00
# ReportID: 16 / Tip Switch: 0 | Barrel Switch: 0 | Secondary Barrel Switch: 0 | Eraser: 0 | Invert: 0 | In Range: 1 | Wacom Sense: 1 | # | X:     21586 | Y:     10760 | Tip Pressure:      0 | X Tilt:   30 | Y Tilt:   26 | Twist:      0 | Wacom FingerWheel:      0 | Wacom Distance:   63 | Transducer Serial Number:   595605148 | Wacom SerialHi:     1116162 | Wacom ToolType:   2050 
E: 000002.197873 27 10 60 52 54 00 08 2a 00 00 00 1e 1a 00 00 00 00 3f 9c 36 80 23 02 08 11 00 02 08
# ReportID: 16 / Tip Switch: 0 | Barrel Switch: 0 | Secondary Barrel Switch: 0 | Eraser: 0 | Invert: 0 | In Range: 0 | Wacom Sense: 1 | # | X:     21586 | Y:     10760 | Tip Pressure:      0 | X Tilt:   30 | Y Tilt:   26 | Twist:      0 | Wacom FingerWheel:      0 | Wacom Distance:   63 | Transducer Serial Number:           0 | Wacom SerialHi:           0 | Wacom ToolType:      0 
E: 000002.200870 27 10 40 52 54 00 08 2a 00 00 00 1e 1a 00 00 00 00 3f 00 00 00 00 00 00 00 00 00 00
# ReportID: 16 / Tip Switch: 0 | Barrel Switch: 0 | Secondary Barrel Switch: 0 | Eraser: 0 | Invert: 0 | In Range: 0 | Wacom Sense: 1 | # | X:     21592 | Y:     10766 | Tip Pressure:      0 | X Tilt:    0 | Y Tilt:    0 | Twist:      0 | Wacom FingerWheel:      0 | Wacom Distance:   63 | Transducer Serial Number:           0 | Wacom SerialHi:           0 | Wacom ToolType:      0 
E: 000002.201861 27 10 40 58 54 00 0e 2a 00 00 00 00 00 00 00 00 00 3f 00 00 00 00 00 00 00 00 00 00
# ReportID: 16 / Tip Switch: 0 | Barrel Switch: 0 | Secondary Barrel Switch: 0 | Eraser: 0 | Invert: 0 | In Range: 0 | Wacom Sense: 1 | # | X:     21593 | Y:     10770 | Tip Pressure:      0 | X Tilt:    0 | Y Tilt:    0 | Twist:      0 | Wacom FingerWheel:      0 | Wacom Distance:   63 | Transducer Serial Number:           0 | Wacom SerialHi:           0 | Wacom ToolType:      0 
E: 000002.206856 27 10 40 59 54 00 12 2a 00 00 00 00 00 00 00 00 00 3f 00 00 00 00 00 00 00 00 00 00
# ReportID: 16 / Tip Switch: 0 | Barrel Switch: 0 | Secondary Barrel Switch: 0 | Eraser: 0 | Invert: 0 | In Range: 1 | Wacom Sense: 1 | # | X:     21590 | Y:     10778 | Tip Pressure:      0 | X Tilt:   31 | Y Tilt:   28 | Twist:      0 | Wacom FingerWheel:      0 | Wacom Distance:   63 | Transducer Serial Number:   595605148 | Wacom SerialHi:     1116162 | Wacom ToolType:   2050 
E: 000002.212859 27 10 60 56 54 00 1a 2a 00 00 00 1f 1c 00 00 00 00 3f 9c 36 80 23 02 08 11 00 02 08
# ReportID: 16 / Tip Switch: 0 | Barrel Switch: 0 | Secondary Barrel Switch: 0 | Eraser: 0 | Invert: 0 | In Range: 1 | Wacom Sense: 1 | # | X:     21583 | Y:     10790 | Tip Pressure:      0 | X Tilt:   32 | Y Tilt:   28 | Twist:      0 | Wacom FingerWheel:      0 | Wacom Distance:   63 | Transducer Serial Number:   595605148 | Wacom SerialHi:     1116162 | Wacom ToolType:   2050 
E: 000002.216964 27 10 60 4f 54 00 26 2a 00 00 00 20 1c 00 00 00 00 3f 9c 36 80 23 02 08 11 00 02 08
# ReportID: 16 / Tip Switch: 0 | Barrel Switch: 0 | Secondary Barrel Switch: 0 | Eraser: 0 | Invert: 0 | In Range: 1 | Wacom Sense: 1 | # | X:     21573 | Y:     10801 | Tip Pressure:      0 | X Tilt:   32 | Y Tilt:   29 | Twist:      0 | Wacom FingerWheel:      0 | Wacom Distance:   63 | Transducer Serial Number:   595605148 | Wacom SerialHi:     1116162 | Wacom ToolType:   2050 
E: 000002.222003 27 10 60 45 54 00 31 2a 00 00 00 20 1d 00 00 00 00 3f 9c 36 80 23 02 08 11 00 02 08
# ReportID: 16 / Tip Switch: 0 | Barrel Switch: 0 | Secondary Barrel Switch: 0 | Eraser: 0 | Invert: 0 | In Range: 1 | Wacom Sense: 1 | # | X:     21560 | Y:     10814 | Tip Pressure:      0 | X Tilt:   32 | Y Tilt:   29 | Twist:      0 | Wacom FingerWheel:      0 | Wacom Distance:   63 | Transducer Serial Number:   595605148 | Wacom SerialHi:     1116162 | Wacom ToolType:   2050 
E: 000002.225008 27 10 60 38 54 00 3e 2a 00 00 00 20 1d 00 00 00 00 3f 9c 36 80 23 02 08 11 00 02 08
# ReportID: 16 / Tip Switch: 0 | Barrel Switch: 0 | Secondary Barrel Switch: 0 | Eraser: 0 | Invert: 0 | In Range: 1 | Wacom Sense: 1 | # | X:     21545 | Y:     10828 | Tip Pressure:      0 | X Tilt:   33 | Y Tilt:   29 | Twist:      0 | Wacom FingerWheel:      0 | Wacom Distance:   63 | Transducer Serial Number:   595605148 | Wacom SerialHi:     1116162 | Wacom ToolType:   2050 
E: 000002.231012 27 10 60 29 54 00 4c 2a 00 00 00 21 1d 00 00 00 00 3f 9c 36 80 23 02 08 11 00 02 08
# ReportID: 16 / Tip Switch: 0 | Barrel Switch: 0 | Secondary Barrel Switch: 0 | Eraser: 0 | Invert: 0 | In Range: 1 | Wacom Sense: 1 | # | X:     21529 | Y:     10842 | Tip Pressure:      0 | X Tilt:   33 | Y Tilt:   29 | Twist:      0 | Wacom FingerWheel:      0 | Wacom Distance:   63 | Transducer Serial Number:   595605148 | Wacom SerialHi:     1116162 | Wacom ToolType:   2050 
E: 000002.236950 27 10 60 19 54 00 5a 2a 00 00 00 21 1d 00 00 00 00 3f 9c 36 80 23 02 08 11 00 02 08
# ReportID: 16 / Tip Switch: 0 | Barrel Switch: 0 | Secondary Barrel Switch: 0 | Eraser: 0 | Invert: 0 | In Range: 1 | Wacom Sense: 1 | # | X:     21512 | Y:     10857 | Tip Pressure:      0 | X Tilt:   33 | Y Tilt:   29 | Twist:      0 | Wacom FingerWheel:      0 | Wacom Distance:   63 | Transducer Serial Number:   595605148 | Wacom SerialHi:     1116162 | Wacom ToolType:   2050 
E: 000002.239858 27 10 60 08 54 00 69 2a 00 00 00 21 1d 00 00 00 00 3f 9c 36 80 23 02 08 11 00 02 08
# ReportID: 16 / Tip Switch: 0 | Barrel Switch: 0 | Secondary Barrel Switch: 0 | Eraser: 0 | Invert: 0 | In Range: 1 | Wacom Sense: 1 | # | X:     21493 | Y:     10874 | Tip Pressure:      0 | X Tilt:   34 | Y Tilt:   30 | Twist:      0 | Wacom FingerWheel:      0 | Wacom Distance:   63 | Transducer Serial Number:   595605148 | Wacom SerialHi:     1116162 | Wacom ToolType:   2050 
E: 000002.246036 27 10 60 f5 53 00 7a 2a 00 00 00 22 1e 00 00 00 00 3f 9c 36 80 23 02 08 11 00 02 08
# ReportID: 16 / Tip Switch: 0 | Barrel Switch: 0 | Secondary Barrel Switch: 0 | Eraser: 0 | Invert: 0 | In Range: 1 | Wacom Sense: 1 | # | X:     21482 | Y:     10898 | Tip Pressure:      0 | X Tilt:   34 | Y Tilt:   30 | Twist:      0 | Wacom FingerWheel:      0 | Wacom Distance:   63 | Transducer Serial Number:   595605148 | Wacom SerialHi:     1116162 | Wacom ToolType:   2050 
E: 000002.251988 27 10 60 ea 53 00 92 2a 00 00 00 22 1e 00 00 00 00 3f 9c 36 80 23 02 08 11 00 02 08
# ReportID: 16 / Tip Switch: 0 | Barrel Switch: 0 | Secondary Barrel Switch: 0 | Eraser: 0 | Invert: 0 | In Range: 1 | Wacom Sense: 1 | # | X:     21463 | Y:     10920 | Tip Pressure:      0 | X Tilt:   34 | Y Tilt:   30 | Twist:      0 | Wacom FingerWheel:      0 | Wacom Distance:   63 | Transducer Serial Number:   595605148 | Wacom SerialHi:     1116162 | Wacom ToolType:   2050 
E: 000002.254948 27 10 60 d7 53 00 a8 2a 00 00 00 22 1e 00 00 00 00 3f 9c 36 80 23 02 08 11 00 02 08
# ReportID: 16 / Tip Switch: 0 | Barrel Switch: 0 | Secondary Barrel Switch: 0 | Eraser: 0 | Invert: 0 | In Range: 1 | Wacom Sense: 1 | # | X:     21441 | Y:     10943 | Tip Pressure:      0 | X Tilt:   35 | Y Tilt:   30 | Twist:      0 | Wacom FingerWheel:      0 | Wacom Distance:   63 | Transducer Serial Number:   595605148 | Wacom SerialHi:     1116162 | Wacom ToolType:   2050 
E: 000002.260996 27 10 60 c1 53 00 bf 2a 00 00 00 23 1e 00 00 00 00 3f 9c 36 80 23 02 08 11 00 02 08
# ReportID: 16 / Tip Switch: 0 | Barrel Switch: 0 | Secondary Barrel Switch: 0 | Eraser: 0 | Invert: 0 | In Range: 1 | Wacom Sense: 1 | # | X:     21417 | Y:     10969 | Tip Pressure:      0 | X Tilt:   35 | Y Tilt:   30 | Twist:      0 | Wacom FingerWheel:      0 | Wacom Distance:   63 | Transducer Serial Number:   595605148 | Wacom SerialHi:     1116162 | Wacom ToolType:   2050 
E: 000002.267018 27 10 60 a9 53 00 d9 2a 00 00 00 23 1e 00 00 00 00 3f 9c 36 80 23 02 08 11 00 02 08
# ReportID: 16 / Tip Switch: 0 | Barrel Switch: 0 | Secondary Barrel Switch: 0 | Eraser: 0 | Invert: 0 | In Range: 1 | Wacom Sense: 1 | # | X:     21390 | Y:     10991 | Tip Pressure:      0 | X Tilt:   35 | Y Tilt:   30 | Twist:      0 | Wacom FingerWheel:      0 | Wacom Distance:   63 | Transducer Serial Number:   595605148 | Wacom SerialHi:     1116162 | Wacom ToolType:   2050 
E: 000002.270859 27 10 60 8e 53 00 ef 2a 00 00 00 23 1e 00 00 00 00 3f 9c 36 80 23 02 08 11 00 02 08
# ReportID: 16 / Tip Switch: 0 | Barrel Switch: 0 | Secondary Barrel Switch: 0 | Eraser: 0 | Invert: 0 | In Range: 1 | Wacom Sense: 1 | # | X:     21362 | Y:     11008 | Tip Pressure:      0 | X Tilt:   35 | Y Tilt:   31 | Twist:      0 | Wacom FingerWheel:      0 | Wacom Distance:   63 | Transducer Serial Number:   595605148 | Wacom SerialHi:     1116162 | Wacom ToolType:   2050 
E: 000002.276021 27 10 60 72 53 00 00 2b 00 00 00 23 1f 00 00 00 00 3f 9c 36 80 23 02 08 11 00 02 08
# ReportID: 16 / Tip Switch: 0 | Barrel Switch: 0 | Secondary Barrel Switch: 0 | Eraser: 0 | Invert: 0 | In Range: 1 | Wacom Sense: 1 | # | X:     21334 | Y:     11023 | Tip Pressure:      0 | X Tilt:   35 | Y Tilt:   31 | Twist:      0 | Wacom FingerWheel:      0 | Wacom Distance:   63 | Transducer Serial Number:   595605148 | Wacom SerialHi:     1116162 | Wacom ToolType:   2050 
E: 000002.281996 27 10 60 56 53 00 0f 2b 00 00 00 23 1f 00 00 00 00 3f 9c 36 80 23 02 08 11 00 02 08
# ReportID: 16 / Tip Switch: 0 | Barrel Switch: 0 | Secondary Barrel Switch: 0 | Eraser: 0 | Invert: 0 | In Range: 1 | Wacom Sense: 1 | # | X:     21305 | Y:     11038 | Tip Pressure:      0 | X Tilt:   35 | Y Tilt:   31 | Twist:      0 | Wacom FingerWheel:      0 | Wacom Distance:   63 | Transducer Serial Number:   595605148 | Wacom SerialHi:     1116162 | Wacom ToolType:   2050 
E: 000002.284985 27 10 60 39 53 00 1e 2b 00 00 00 23 1f 00 00 00 00 3f 9c 36 80 23 02 08 11 00 02 08
# ReportID: 16 / Tip Switch: 0 | Barrel Switch: 0 | Secondary Barrel Switch: 0 | Eraser: 0 | Invert: 0 | In Range: 1 | Wacom Sense: 1 | # | X:     21276 | Y:     11049 | Tip Pressure:      0 | X Tilt:   35 | Y Tilt:   31 | Twist:      0 | Wacom FingerWheel:      0 | Wacom Distance:   63 | Transducer Serial Number:   595605148 | Wacom SerialHi:     1116162 | Wacom ToolType:   2050 
E: 000002.290959 27 10 60 1c 53 00 29 2b 00 00 00 23 1f 00 00 00 00 3f 9c 36 80 23 02 08 11 00 02 08
# ReportID: 16 / Tip Switch: 0 | Barrel Switch: 0 | Secondary Barrel Switch: 0 | Eraser: 0 | Invert: 0 | In Range: 1 | Wacom Sense: 1 | # | X:     21250 | Y:     11055 | Tip Pressure:      0 | X Tilt:   35 | Y Tilt:   31 | Twist:      0 | Wacom FingerWheel:      0 | Wacom Distance:   63 | Transducer Serial Number:   595605148 | Wacom SerialHi:     1116162 | Wacom ToolType:   2050 
E: 000002.297024 27 10 60 02 53 00 2f 2b 00 00 00 23 1f 00 00 00 00 3f 9c 36 80 23 02 08 11 00 02 08
# ReportID: 16 / Tip Switch: 0 | Barrel Switch: 0 | Secondary Barrel Switch: 0 | Eraser: 0 | Invert: 0 | In Range: 1 | Wacom Sense: 1 | # | X:     21226 | Y:     11058 | Tip Pressure:      0 | X Tilt:   35 | Y Tilt:   31 | Twist:      0 | Wacom FingerWheel:      0 | Wacom Distance:   63 | Transducer Serial Number:   595605148 | Wacom SerialHi:     1116162 | Wacom ToolType:   2050 
E: 000002.299959 27 10 60 ea 52 00 32 2b 00 00 00 23 1f 00 00 00 00 3f 9c 36 80 23 02 08 11 00 02 08
# ReportID: 16 / Tip Switch: 0 | Barrel Switch: 0 | Secondary Barrel Switch: 0 | Eraser: 0 | Invert: 0 | In Range: 1 | Wacom Sense: 1 | # | X:     21208 | Y:     11059 | Tip Pressure:      0 | X Tilt:   35 | Y Tilt:   31 | Twist:      0 | Wacom FingerWheel:      0 | Wacom Distance:   63 | Transducer Serial Number:   595605148 | Wacom SerialHi:     1116162 | Wacom ToolType:   2050 
E: 000002.306004 27 10 60 d8 52 00 33 2b 00 00 00 23 1f 00 00 00 00 3f 9c 36 80 23 02 08 11 00 02 08
# ReportID: 16 / Tip Switch: 0 | Barrel Switch: 0 | Secondary Barrel Switch: 0 | Eraser: 0 | Invert: 0 | In Range: 1 | Wacom Sense: 1 | # | X:     21195 | Y:     11055 | Tip Pressure:      0 | X Tilt:   35 | Y Tilt:   31 | Twist:      0 | Wacom FingerWheel:      0 | Wacom Distance:   63 | Transducer Serial Number:   595605148 | Wacom SerialHi:     1116162 | Wacom ToolType:   2050 
E: 000002.312942 27 10 60 cb 52 00 2f 2b 00 00 00 23 1f 00 00 00 00 3f 9c 36 80 23 02 08 11 00 02 08
# ReportID: 16 / Tip Switch: 0 | Barrel Switch: 0 | Secondary Barrel Switch: 0 | Eraser: 0 | Invert: 0 | In Range: 1 | Wacom Sense: 1 | # | X:     21187 | Y:     11047 | Tip Pressure:      0 | X Tilt:   35 | Y Tilt:   31 | Twist:      0 | Wacom FingerWheel:      0 | Wacom Distance:   63 | Transducer Serial Number:   595605148 | Wacom SerialHi:     1116162 | Wacom ToolType:   2050 
E: 000002.314875 27 10 60 c3 52 00 27 2b 00 00 00 23 1f 00 00 00 00 3f 9c 36 80 23 02 08 11 00 02 08
# ReportID: 16 / Tip Switch: 0 | Barrel Switch: 0 | Secondary Barrel Switch: 0 | Eraser: 0 | Invert: 0 | In Range: 1 | Wacom Sense: 1 | # | X:     21183 | Y:     11037 | Tip Pressure:      0 | X Tilt:   35 | Y Tilt:   31 | Twist:      0 | Wacom FingerWheel:      0 | Wacom Distance:   63 | Transducer Serial Number:   595605148 | Wacom SerialHi:     1116162 | Wacom ToolType:   2050 
E: 000002.321074 27 10 60 bf 52 00 1d 2b 00 00 00 23 1f 00 00 00 00 3f 9c 36 80 23 02 08 11 00 02 08
# ReportID: 16 / Tip Switch: 0 | Barrel Switch: 0 | Secondary Barrel Switch: 0 | Eraser: 0 | Invert: 0 | In Range: 1 | Wacom Sense: 1 | # | X:     21186 | Y:     11023 | Tip Pressure:      0 | X Tilt:   35 | Y Tilt:   31 | Twist:      0 | Wacom FingerWheel:      0 | Wacom Distance:   63 | Transducer Serial Number:   595605148 | Wacom SerialHi:     1116162 | Wacom ToolType:   2050 
E: 000002.327070 27 10 60 c2 52 00 0f 2b 00 00 00 23 1f 00 00 00 00 3f 9c 36 80 23 02 08 11 00 02 08
# ReportID: 16 / Tip Switch: 0 | Barrel Switch: 0 | Secondary Barrel Switch: 0 | Eraser: 0 | Invert: 0 | In Range: 1 | Wacom Sense: 1 | # | X:     21193 | Y:     11008 | Tip Pressure:      0 | X Tilt:   35 | Y Tilt:   31 | Twist:      0 | Wacom FingerWheel:      0 | Wacom Distance:   63 | Transducer Serial Number:   595605148 | Wacom SerialHi:     1116162 | Wacom ToolType:   2050 
E: 000002.330014 27 10 60 c9 52 00 00 2b 00 00 00 23 1f 00 00 00 00 3f 9c 36 80 23 02 08 11 00 02 08
# ReportID: 16 / Tip Switch: 0 | Barrel Switch: 0 | Secondary Barrel Switch: 0 | Eraser: 0 | Invert: 0 | In Range: 1 | Wacom Sense: 1 | # | X:     21207 | Y:     10995 | Tip Pressure:      0 | X Tilt:   35 | Y Tilt:   31 | Twist:      0 | Wacom FingerWheel:      0 | Wacom Distance:   63 | Transducer Serial Number:   595605148 | Wacom SerialHi:     1116162 | Wacom ToolType:   2050 
E: 000002.336067 27 10 60 d7 52 00 f3 2a 00 00 00 23 1f 00 00 00 00 3f 9c 36 80 23 02 08 11 00 02 08
# ReportID: 16 / Tip Switch: 0 | Barrel Switch: 0 | Secondary Barrel Switch: 0 | Eraser: 0 | Invert: 0 | In Range: 1 | Wacom Sense: 1 | # | X:     21224 | Y:     10978 | Tip Pressure:      0 | X Tilt:   35 | Y Tilt:   31 | Twist:      0 | Wacom FingerWheel:      0 | Wacom Distance:   63 | Transducer Serial Number:   595605148 | Wacom SerialHi:     1116162 | Wacom ToolType:   2050 
E: 000002.342051 27 10 60 e8 52 00 e2 2a 00 00 00 23 1f 00 00 00 00 3f 9c 36 80 23 02 08 11 00 02 08
# ReportID: 16 / Tip Switch: 0 | Barrel Switch: 0 | Secondary Barrel Switch: 0 | Eraser: 0 | Invert: 0 | In Range: 1 | Wacom Sense: 1 | # | X:     21247 | Y:     10958 | Tip Pressure:      0 | X Tilt:   35 | Y Tilt:   31 | Twist:      0 | Wacom FingerWheel:      0 | Wacom Distance:   63 | Transducer Serial Number:   595605148 | Wacom SerialHi:     1116162 | Wacom ToolType:   2050 
E: 000002.345051 27 10 60 ff 52 00 ce 2a 00 00 00 23 1f 00 00 00 00 3f 9c 36 80 23 02 08 11 00 02 08
# ReportID: 16 / Tip Switch: 0 | Barrel Switch: 0 | Secondary Barrel Switch: 0 | Eraser: 0 | Invert: 0 | In Range: 1 | Wacom Sense: 1 | # | X:     21274 | Y:     10938 | Tip Pressure:      0 | X Tilt:   35 | Y Tilt:   31 | Twist:      0 | Wacom FingerWheel:      0 | Wacom Distance:   63 | Transducer Serial Number:   595605148 | Wacom SerialHi:     1116162 | Wacom ToolType:   2050 
E: 000002.352081 27 10 60 1a 53 00 ba 2a 00 00 00 23 1f 00 00 00 00 3f 9c 36 80 23 02 08 11 00 02 08
# ReportID: 16 / Tip Switch: 0 | Barrel Switch: 0 | Secondary Barrel Switch: 0 | Eraser: 0 | Invert: 0 | In Range: 1 | Wacom Sense: 1 | # | X:     21304 | Y:     10919 | Tip Pressure:      0 | X Tilt:   35 | Y Tilt:   31 | Twist:      0 | Wacom FingerWheel:      0 | Wacom Distance:   63 | Transducer Serial Number:   595605148 | Wacom SerialHi:     1116162 | Wacom ToolType:   2050 
E: 000002.356956 27 10 60 38 53 00 a7 2a 00 00 00 23 1f 00 00 00 00 3f 9c 36 80 23 02 08 11 00 02 08
# ReportID: 16 / Tip Switch: 0 | Barrel Switch: 0 | Secondary Barrel Switch: 0 | Eraser: 0 | Invert: 0 | In Range: 1 | Wacom Sense: 1 | # | X:     21340 | Y:     10899 | Tip Pressure:      0 | X Tilt:   35 | Y Tilt:   31 | Twist:      0 | Wacom FingerWheel:      0 | Wacom Distance:   63 | Transducer Serial Number:   595605148 | Wacom SerialHi:     1116162 | Wacom ToolType:   2050 
E: 000002.360016 27 10 60 5c 53 00 93 2a 00 00 00 23 1f 00 00 00 00 3f 9c 36 80 23 02 08 11 00 02 08
# ReportID: 16 / Tip Switch: 0 | Barrel Switch: 0 | Secondary Barrel Switch: 0 | Eraser: 0 | Invert: 0 | In Range: 1 | Wacom Sense: 1 | # | X:     21379 | Y:     10880 | Tip Pressure:      0 | X Tilt:   35 | Y Tilt:   32 | Twist:      0 | Wacom FingerWheel:      0 | Wacom Distance:   63 | Transducer Serial Number:   595605148 | Wacom SerialHi:     1116162 | Wacom ToolType:   2050 
E: 000002.366017 27 10 60 83 53 00 80 2a 00 00 00 23 20 00 00 00 00 3f 9c 36 80 23 02 08 11 00 02 08
# ReportID: 16 / Tip Switch: 0 | Barrel Switch: 0 | Secondary Barrel Switch: 0 | Eraser: 0 | Invert: 0 | In Range: 1 | Wacom Sense: 1 | # | X:     21423 | Y:     10862 | Tip Pressure:      0 | X Tilt:   35 | Y Tilt:   32 | Twist:      0 | Wacom FingerWheel:      0 | Wacom Distance:   63 | Transducer Serial Number:   595605148 | Wacom SerialHi:     1116162 | Wacom ToolType:   2050 
E: 000002.371859 27 10 60 af 53 00 6e 2a 00 00 00 23 20 00 00 00 00 3f 9c 36 80 23 02 08 11 00 02 08
# ReportID: 16 / Tip Switch: 0 | Barrel Switch: 0 | Secondary Barrel Switch: 0 | Eraser: 0 | Invert: 0 | In Range: 1 | Wacom Sense: 1 | # | X:     21472 | Y:     10845 | Tip Pressure:      0 | X Tilt:   35 | Y Tilt:   32 | Twist:      0 | Wacom FingerWheel:      0 | Wacom Distance:   63 | Transducer Serial Number:   595605148 | Wacom SerialHi:     1116162 | Wacom ToolType:   2050 
E: 000002.375854 27 10 60 e0 53 00 5d 2a 00 00 00 23 20 00 00 00 00 3f 9c 36 80 23 02 08 11 00 02 08
# ReportID: 16 / Tip Switch: 0 | Barrel Switch: 0 | Secondary Barrel Switch: 0 | Eraser: 0 | Invert: 0 | In Range: 1 | Wacom Sense: 1 | # | X:     21523 | Y:     10829 | Tip Pressure:      0 | X Tilt:   35 | Y Tilt:   32 | Twist:      0 | Wacom FingerWheel:      0 | Wacom Distance:   63 | Transducer Serial Number:   595605148 | Wacom SerialHi:     1116162 | Wacom ToolType:   2050 
E: 000002.380956 27 10 60 13 54 00 4d 2a 00 00 00 23 20 00 00 00 00 3f 9c 36 80 23 02 08 11 00 02 08
# ReportID: 16 / Tip Switch: 0 | Barrel Switch: 0 | Secondary Barrel Switch: 0 | Eraser: 0 | Invert: 0 | In Range: 1 | Wacom Sense: 1 | # | X:     21602 | Y:     10806 | Tip Pressure:      0 | X Tilt:   35 | Y Tilt:   32 | Twist:      0 | Wacom FingerWheel:      0 | Wacom Distance:   62 | Transducer Serial Number:   595605148 | Wacom SerialHi:     1116162 | Wacom ToolType:   2050 
E: 000002.386996 27 10 60 62 54 00 36 2a 00 00 00 23 20 00 00 00 00 3e 9c 36 80 23 02 08 11 00 02 08
# ReportID: 16 / Tip Switch: 0 | Barrel Switch: 0 | Secondary Barrel Switch: 0 | Eraser: 0 | Invert: 0 | In Range: 1 | Wacom Sense: 1 | # | X:     21662 | Y:     10798 | Tip Pressure:      0 | X Tilt:   35 | Y Tilt:   32 | Twist:      0 | Wacom FingerWheel:      0 | Wacom Distance:   62 | Transducer Serial Number:   595605148 | Wacom SerialHi:     1116162 | Wacom ToolType:   2050 
E: 000002.390042 27 10 60 9e 54 00 2e 2a 00 00 00 23 20 00 00 00 00 3e 9c 36 80 23 02 08 11 00 02 08
# ReportID: 16 / Tip Switch: 0 | Barrel Switch: 0 | Secondary Barrel Switch: 0 | Eraser: 0 | Invert: 0 | In Range: 1 | Wacom Sense: 1 | # | X:     21723 | Y:     10793 | Tip Pressure:      0 | X Tilt:   35 | Y Tilt:   32 | Twist:      0 | Wacom FingerWheel:      0 | Wacom Distance:   61 | Transducer Serial Number:   595605148 | Wacom SerialHi:     1116162 | Wacom ToolType:   2050 
E: 000002.396056 27 10 60 db 54 00 29 2a 00 00 00 23 20 00 00 00 00 3d 9c 36 80 23 02 08 11 00 02 08
# ReportID: 16 / Tip Switch: 0 | Barrel Switch: 0 | Secondary Barrel Switch: 0 | Eraser: 0 | Invert: 0 | In Range: 1 | Wacom Sense: 1 | # | X:     21786 | Y:     10792 | Tip Pressure:      0 | X Tilt:   35 | Y Tilt:   32 | Twist:      0 | Wacom FingerWheel:      0 | Wacom Distance:   61 | Transducer Serial Number:   595605148 | Wacom SerialHi:     1116162 | Wacom ToolType:   2050 
E: 000002.400935 27 10 60 1a 55 00 28 2a 00 00 00 23 20 00 00 00 00 3d 9c 36 80 23 02 08 11 00 02 08
# ReportID: 16 / Tip Switch: 0 | Barrel Switch: 0 | Secondary Barrel Switch: 0 | Eraser: 0 | Invert: 0 | In Range: 1 | Wacom Sense: 1 | # | X:     21851 | Y:     10793 | Tip Pressure:      0 | X Tilt:   35 | Y Tilt:   32 | Twist:      0 | Wacom FingerWheel:      0 | Wacom Distance:   60 | Transducer Serial Number:   595605148 | Wacom SerialHi:     1116162 | Wacom ToolType:   2050 
E: 000002.404932 27 10 60 5b 55 00 29 2a 00 00 00 23 20 00 00 00 00 3c 9c 36 80 23 02 08 11 00 02 08
# ReportID: 16 / Tip Switch: 0 | Barrel Switch: 0 | Secondary Barrel Switch: 0 | Eraser: 0 | Invert: 0 | In Range: 1 | Wacom Sense: 1 | # | X:     21918 | Y:     10794 | Tip Pressure:      0 | X Tilt:   35 | Y Tilt:   32 | Twist:      0 | Wacom FingerWheel:      0 | Wacom Distance:   60 | Transducer Serial Number:   595605148 | Wacom SerialHi:     1116162 | Wacom ToolType:   2050 
E: 000002.411067 27 10 60 9e 55 00 2a 2a 00 00 00 23 20 00 00 00 00 3c 9c 36 80 23 02 08 11 00 02 08
# ReportID: 16 / Tip Switch: 0 | Barrel Switch: 0 | Secondary Barrel Switch: 0 | Eraser: 0 | Invert: 0 | In Range: 1 | Wacom Sense: 1 | # | X:     22018 | Y:     10802 | Tip Pressure:      0 | X Tilt:   35 | Y Tilt:   32 | Twist:      0 | Wacom FingerWheel:      0 | Wacom Distance:   59 | Transducer Serial Number:   595605148 | Wacom SerialHi:     1116162 | Wacom ToolType:   2050 
E: 000002.414073 27 10 60 02 56 00 32 2a 00 00 00 23 20 00 00 00 00 3b 9c 36 80 23 02 08 11 00 02 08
# ReportID: 16 / Tip Switch: 0 | Barrel Switch: 0 | Secondary Barrel Switch: 0 | Eraser: 0 | Invert: 0 | In Range: 1 | Wacom Sense: 1 | # | X:     22090 | Y:     10807 | Tip Pressure:      0 | X Tilt:   35 | Y Tilt:   32 | Twist:      0 | Wacom FingerWheel:      0 | Wacom Distance:   59 | Transducer Serial Number:   595605148 | Wacom SerialHi:     1116162 | Wacom ToolType:   2050 
E: 000002.421014 27 10 60 4a 56 00 37 2a 00 00 00 23 20 00 00 00 00 3b 9c 36 80 23 02 08 11 00 02 08
# ReportID: 16 / Tip Switch: 0 | Barrel Switch: 0 | Secondary Barrel Switch: 0 | Eraser: 0 | Invert: 0 | In Range: 1 | Wacom Sense: 1 | # | X:     22163 | Y:     10810 | Tip Pressure:      0 | X Tilt:   35 | Y Tilt:   32 | Twist:      0 | Wacom FingerWheel:      0 | Wacom Distance:   59 | Transducer Serial Number:   595605148 | Wacom SerialHi:     1116162 | Wacom ToolType:   2050 
E: 000002.426021 27 10 60 93 56 00 3a 2a 00 00 00 23 20 00 00 00 00 3b 9c 36 80 23 02 08 11 00 02 08
# ReportID: 16 / Tip Switch: 0 | Barrel Switch: 0 | Secondary Barrel Switch: 0 | Eraser: 0 | Invert: 0 | In Range: 1 | Wacom Sense: 1 | # | X:     22238 | Y:     10814 | Tip Pressure:      0 | X Tilt:   34 | Y Tilt:   32 | Twist:      0 | Wacom FingerWheel:      0 | Wacom Distance:   58 | Transducer Serial Number:   595605148 | Wacom SerialHi:     1116162 | Wacom ToolType:   2050 
E: 000002.430064 27 10 60 de 56 00 3e 2a 00 00 00 22 20 00 00 00 00 3a 9c 36 80 23 02 08 11 00 02 08
# ReportID: 16 / Tip Switch: 0 | Barrel Switch: 0 | Secondary Barrel Switch: 0 | Eraser: 0 | Invert: 0 | In Range: 1 | Wacom Sense: 1 | # | X:     22315 | Y:     10819 | Tip Pressure:      0 | X Tilt:   34 | Y Tilt:   32 | Twist:      0 | Wacom FingerWheel:      0 | Wacom Distance:   58 | Transducer Serial Number:   595605148 | Wacom SerialHi:     1116162 | Wacom ToolType:   2050 
E: 000002.435022 27 10 60 2b 57 00 43 2a 00 00 00 22 20 00 00 00 00 3a 9c 36 80 23 02 08 11 00 02 08
# ReportID: 16 / Tip Switch: 0 | Barrel Switch: 0 | Secondary Barrel Switch: 0 | Eraser: 0 | Invert: 0 | In Range: 1 | Wacom Sense: 1 | # | X:     22391 | Y:     10824 | Tip Pressure:      0 | X Tilt:   34 | Y Tilt:   32 | Twist:      0 | Wacom FingerWheel:      0 | Wacom Distance:   57 | Transducer Serial Number:   595605148 | Wacom SerialHi:     1116162 | Wacom ToolType:   2050 
E: 000002.440900 27 10 60 77 57 00 48 2a 00 00 00 22 20 00 00 00 00 39 9c 36 80 23 02 08 11 00 02 08
# ReportID: 16 / Tip Switch: 0 | Barrel Switch: 0 | Secondary Barrel Switch: 0 | Eraser: 0 | Invert: 0 | In Range: 1 | Wacom Sense: 1 | # | X:     22468 | Y:     10829 | Tip Pressure:      0 | X Tilt:   34 | Y Tilt:   32 | Twist:      0 | Wacom FingerWheel:      0 | Wacom Distance:   56 | Transducer Serial Number:   595605148 | Wacom SerialHi:     1116162 | Wacom ToolType:   2050 
E: 000002.444994 27 10 60 c4 57 00 4d 2a 00 00 00 22 20 00 00 00 00 38 9c 36 80 23 02 08 11 00 02 08
# ReportID: 16 / Tip Switch: 0 | Barrel Switch: 0 | Secondary Barrel Switch: 0 | Eraser: 0 | Invert: 0 | In Range: 1 | Wacom Sense: 1 | # | X:     22544 | Y:     10834 | Tip Pressure:      0 | X Tilt:   34 | Y Tilt:   32 | Twist:      0 | Wacom FingerWheel:      0 | Wacom Distance:   56 | Transducer Serial Number:   595605148 | Wacom SerialHi:     1116162 | Wacom ToolType:   2050 
E: 000002.449954 27 10 60 10 58 00 52 2a 00 00 00 22 20 00 00 00 00 38 9c 36 80 23 02 08 11 00 02 08
# ReportID: 16 / Tip Switch: 0 | Barrel Switch: 0 | Secondary Barrel Switch: 0 | Eraser: 0 | Invert: 0 | In Range: 1 | Wacom Sense: 1 | # | X:     22658 | Y:     10841 | Tip Pressure:      0 | X Tilt:   34 | Y Tilt:   32 | Twist:      0 | Wacom FingerWheel:      0 | Wacom Distance:   55 | Transducer Serial Number:   595605148 | Wacom SerialHi:     1116162 | Wacom ToolType:   2050 
E: 000002.456024 27 10 60 82 58 00 59 2a 00 00 00 22 20 00 00 00 00 37 9c 36 80 23 02 08 11 00 02 08
# ReportID: 16 / Tip Switch: 0 | Barrel Switch: 0 | Secondary Barrel Switch: 0 | Eraser: 0 | Invert: 0 | In Range: 1 | Wacom Sense: 1 | # | X:     22729 | Y:     10848 | Tip Pressure:      0 | X Tilt:   34 | Y Tilt:   32 | Twist:      0 | Wacom FingerWheel:      0 | Wacom Distance:   55 | Transducer Serial Number:   595605148 | Wacom SerialHi:     1116162 | Wacom ToolType:   2050 
E: 000002.458815 27 10 60 c9 58 00 60 2a 00 00 00 22 20 00 00 00 00 37 9c 36 80 23 02 08 11 00 02 08
# ReportID: 16 / Tip Switch: 0 | Barrel Switch: 0 | Secondary Barrel Switch: 0 | Eraser: 0 | Invert: 0 | In Range: 1 | Wacom Sense: 1 | # | X:     22798 | Y:     10855 | Tip Pressure:      0 | X Tilt:   34 | Y Tilt:   32 | Twist:      0 | Wacom FingerWheel:      0 | Wacom Distance:   54 | Transducer Serial Number:   595605148 | Wacom SerialHi:     1116162 | Wacom ToolType:   2050 
E: 000002.464815 27 10 60 0e 59 00 67 2a 00 00 00 22 20 00 00 00 00 36 9c 36 80 23 02 08 11 00 02 08
# ReportID: 16 / Tip Switch: 0 | Barrel Switch: 0 | Secondary Barrel Switch: 0 | Eraser: 0 | Invert: 0 | In Range: 1 | Wacom Sense: 1 | # | X:     22866 | Y:     10863 | Tip Pressure:      0 | X Tilt:   34 | Y Tilt:   32 | Twist:      0 | Wacom FingerWheel:      0 | Wacom Distance:   53 | Transducer Serial Number:   595605148 | Wacom SerialHi:     1116162 | Wacom ToolType:   2050 
E: 000002.470994 27 10 60 52 59 00 6f 2a 00 00 00 22 20 00 00 00 00 35 9c 36 80 23 02 08 11 00 02 08
# ReportID: 16 / Tip Switch: 0 | Barrel Switch: 0 | Secondary Barrel Switch: 0 | Eraser: 0 | Invert: 0 | In Range: 1 | Wacom Sense: 1 | # | X:     22931 | Y:     10869 | Tip Pressure:      0 | X Tilt:   34 | Y Tilt:   32 | Twist:      0 | Wacom FingerWheel:      0 | Wacom Distance:   53 | Transducer Serial Number:   595605148 | Wacom SerialHi:     1116162 | Wacom ToolType:   2050 
E: 000002.473933 27 10 60 93 59 00 75 2a 00 00 00 22 20 00 00 00 00 35 9c 36 80 23 02 08 11 00 02 08
# ReportID: 16 / Tip Switch: 0 | Barrel Switch: 0 | Secondary Barrel Switch: 0 | Eraser: 0 | Invert: 0 | In Range: 1 | Wacom Sense: 1 | # | X:     22994 | Y:     10874 | Tip Pressure:      0 | X Tilt:   34 | Y Tilt:   32 | Twist:      0 | Wacom FingerWheel:      0 | Wacom Distance:   53 | Transducer Serial Number:   595605148 | Wacom SerialHi:     1116162 | Wacom ToolType:   2050 
E: 000002.479987 27 10 60 d2 59 00 7a 2a 00 00 00 22 20 00 00 00 00 35 9c 36 80 23 02 08 11 00 02 08
# ReportID: 16 / Tip Switch: 0 | Barrel Switch: 0 | Secondary Barrel Switch: 0 | Eraser: 0 | Invert: 0 | In Range: 1 | Wacom Sense: 1 | # | X:     23055 | Y:     10877 | Tip Pressure:      0 | X Tilt:   34 | Y Tilt:   32 | Twist:      0 | Wacom FingerWheel:      0 | Wacom Distance:   52 | Transducer Serial Number:   595605148 | Wacom SerialHi:     1116162 | Wacom ToolType:   2050 
E: 000002.486822 27 10 60 0f 5a 00 7d 2a 00 00 00 22 20 00 00 00 00 34 9c 36 80 23 02 08 11 00 02 08
# ReportID: 16 / Tip Switch: 0 | Barrel Switch: 0 | Secondary Barrel Switch: 0 | Eraser: 0 | Invert: 0 | In Range: 1 | Wacom Sense: 1 | # | X:     23112 | Y:     10878 | Tip Pressure:      0 | X Tilt:   34 | Y Tilt:   32 | Twist:      0 | Wacom FingerWheel:      0 | Wacom Distance:   52 | Transducer Serial Number:   595605148 | Wacom SerialHi:     1116162 | Wacom ToolType:   2050 
E: 000002.488958 27 10 60 48 5a 00 7e 2a 00 00 00 22 20 00 00 00 00 34 9c 36 80 23 02 08 11 00 02 08
# ReportID: 16 / Tip Switch: 0 | Barrel Switch: 0 | Secondary Barrel Switch: 0 | Eraser: 0 | Invert: 0 | In Range: 1 | Wacom Sense: 1 | # | X:     23198 | Y:     10879 | Tip Pressure:      0 | X Tilt:   34 | Y Tilt:   32 | Twist:      0 | Wacom FingerWheel:      0 | Wacom Distance:   51 | Transducer Serial Number:   595605148 | Wacom SerialHi:     1116162 | Wacom ToolType:   2050 
E: 000002.496041 27 10 60 9e 5a 00 7f 2a 00 00 00 22 20 00 00 00 00 33 9c 36 80 23 02 08 11 00 02 08
# ReportID: 16 / Tip Switch: 0 | Barrel Switch: 0 | Secondary Barrel Switch: 0 | Eraser: 0 | Invert: 0 | In Range: 1 | Wacom Sense: 1 | # | X:     23248 | Y:     10876 | Tip Pressure:      0 | X Tilt:   34 | Y Tilt:   33 | Twist:      0 | Wacom FingerWheel:      0 | Wacom Distance:   51 | Transducer Serial Number:   595605148 | Wacom SerialHi:     1116162 | Wacom ToolType:   2050 
E: 000002.501054 27 10 60 d0 5a 00 7c 2a 00 00 00 22 21 00 00 00 00 33 9c 36 80 23 02 08 11 00 02 08
# ReportID: 16 / Tip Switch: 0 | Barrel Switch: 0 | Secondary Barrel Switch: 0 | Eraser: 0 | Invert: 0 | In Range: 1 | Wacom Sense: 1 | # | X:     23295 | Y:     10870 | Tip Pressure:      0 | X Tilt:   34 | Y Tilt:   33 | Twist:      0 | Wacom FingerWheel:      0 | Wacom Distance:   50 | Transducer Serial Number:   595605148 | Wacom SerialHi:     1116162 | Wacom ToolType:   2050 
E: 000002.503952 27 10 60 ff 5a 00 76 2a 00 00 00 22 21 00 00 00 00 32 9c 36 80 23 02 08 11 00 02 08
# ReportID: 16 / Tip Switch: 0 | Barrel Switch: 0 | Secondary Barrel Switch: 0 | Eraser: 0 | Invert: 0 | In Range: 1 | Wacom Sense: 1 | # | X:     23339 | Y:     10862 | Tip Pressure:      0 | X Tilt:   34 | Y Tilt:   33 | Twist:      0 | Wacom FingerWheel:      0 | Wacom Distance:   50 | Transducer Serial Number:   595605148 | Wacom SerialHi:     1116162 | Wacom ToolType:   2050 
E: 000002.510009 27 10 60 2b 5b 00 6e 2a 00 00 00 22 21 00 00 00 00 32 9c 36 80 23 02 08 11 00 02 08
# ReportID: 16 / Tip Switch: 0 | Barrel Switch: 0 | Secondary Barrel Switch: 0 | Eraser: 0 | Invert: 0 | In Range: 1 | Wacom Sense: 1 | # | X:     23381 | Y:     10850 | Tip Pressure:      0 | X Tilt:   34 | Y Tilt:   33 | Twist:      0 | Wacom FingerWheel:      0 | Wacom Distance:   49 | Transducer Serial Number:   595605148 | Wacom SerialHi:     1116162 | Wacom ToolType:   2050 
E: 000002.517067 27 10 60 55 5b 00 62 2a 00 00 00 22 21 00 00 00 00 31 9c 36 80 23 02 08 11 00 02 08
# ReportID: 16 / Tip Switch: 0 | Barrel Switch: 0 | Secondary Barrel Switch: 0 | Eraser: 0 | Invert: 0 | In Range: 1 | Wacom Sense: 1 | # | X:     23421 | Y:     10835 | Tip Pressure:      0 | X Tilt:   34 | Y Tilt:   33 | Twist:      0 | Wacom FingerWheel:      0 | Wacom Distance:   48 | Transducer Serial Number:   595605148 | Wacom SerialHi:     1116162 | Wacom ToolType:   2050 
E: 000002.520047 27 10 60 7d 5b 00 53 2a 00 00 00 22 21 00 00 00 00 30 9c 36 80 23 02 08 11 00 02 08
# ReportID: 16 / Tip Switch: 0 | Barrel Switch: 0 | Secondary Barrel Switch: 0 | Eraser: 0 | Invert: 0 | In Range: 1 | Wacom Sense: 1 | # | X:     23481 | Y:     10811 | Tip Pressure:      0 | X Tilt:   34 | Y Tilt:   33 | Twist:      0 | Wacom FingerWheel:      0 | Wacom Distance:   47 | Transducer Serial Number:   595605148 | Wacom SerialHi:     1116162 | Wacom ToolType:   2050 
E: 000002.525004 27 10 60 b9 5b 00 3b 2a 00 00 00 22 21 00 00 00 00 2f 9c 36 80 23 02 08 11 00 02 08
# ReportID: 16 / Tip Switch: 0 | Barrel Switch: 0 | Secondary Barrel Switch: 0 | Eraser: 0 | Invert: 0 | In Range: 1 | Wacom Sense: 1 | # | X:     23518 | Y:     10787 | Tip Pressure:      0 | X Tilt:   34 | Y Tilt:   33 | Twist:      0 | Wacom FingerWheel:      0 | Wacom Distance:   46 | Transducer Serial Number:   595605148 | Wacom SerialHi:     1116162 | Wacom ToolType:   2050 
E: 000002.531035 27 10 60 de 5b 00 23 2a 00 00 00 22 21 00 00 00 00 2e 9c 36 80 23 02 08 11 00 02 08
# ReportID: 16 / Tip Switch: 0 | Barrel Switch: 0 | Secondary Barrel Switch: 0 | Eraser: 0 | Invert: 0 | In Range: 1 | Wacom Sense: 1 | # | X:     23555 | Y:     10762 | Tip Pressure:      0 | X Tilt:   34 | Y Tilt:   33 | Twist:      0 | Wacom FingerWheel:      0 | Wacom Distance:   45 | Transducer Serial Number:   595605148 | Wacom SerialHi:     1116162 | Wacom ToolType:   2050 
E: 000002.534071 27 10 60 03 5c 00 0a 2a 00 00 00 22 21 00 00 00 00 2d 9c 36 80 23 02 08 11 00 02 08
# ReportID: 16 / Tip Switch: 0 | Barrel Switch: 0 | Secondary Barrel Switch: 0 | Eraser: 0 | Invert: 0 | In Range: 1 | Wacom Sense: 1 | # | X:     23608 | Y:     10721 | Tip Pressure:      0 | X Tilt:   34 | Y Tilt:   33 | Twist:      0 | Wacom FingerWheel:      0 | Wacom Distance:   43 | Transducer Serial Number:   595605148 | Wacom SerialHi:     1116162 | Wacom ToolType:   2050 
E: 000002.540068 27 10 60 38 5c 00 e1 29 00 00 00 22 21 00 00 00 00 2b 9c 36 80 23 02 08 11 00 02 08
# ReportID: 16 / Tip Switch: 0 | Barrel Switch: 0 | Secondary Barrel Switch: 0 | Eraser: 0 | Invert: 0 | In Range: 1 | Wacom Sense: 1 | # | X:     23642 | Y:     10691 | Tip Pressure:      0 | X Tilt:   34 | Y Tilt:   33 | Twist:      0 | Wacom FingerWheel:      0 | Wacom Distance:   42 | Transducer Serial Number:   595605148 | Wacom SerialHi:     1116162 | Wacom ToolType:   2050 
E: 000002.545997 27 10 60 5a 5c 00 c3 29 00 00 00 22 21 00 00 00 00 2a 9c 36 80 23 02 08 11 00 02 08
# ReportID: 16 / Tip Switch: 0 | Barrel Switch: 0 | Secondary Barrel Switch: 0 | Eraser: 0 | Invert: 0 | In Range: 1 | Wacom Sense: 1 | # | X:     23676 | Y:     10660 | Tip Pressure:      0 | X Tilt:   34 | Y Tilt:   33 | Twist:      0 | Wacom FingerWheel:      0 | Wacom Distance:   40 | Transducer Serial Number:   595605148 | Wacom SerialHi:     1116162 | Wacom ToolType:   2050 
E: 000002.550011 27 10 60 7c 5c 00 a4 29 00 00 00 22 21 00 00 00 00 28 9c 36 80 23 02 08 11 00 02 08
# ReportID: 16 / Tip Switch: 0 | Barrel Switch: 0 | Secondary Barrel Switch: 0 | Eraser: 0 | Invert: 0 | In Range: 1 | Wacom Sense: 1 | # | X:     23724 | Y:     10614 | Tip Pressure:      0 | X Tilt:   34 | Y Tilt:   33 | Twist:      0 | Wacom FingerWheel:      0 | Wacom Distance:   38 | Transducer Serial Number:   595605148 | Wacom SerialHi:     1116162 | Wacom ToolType:   2050 
E: 000002.556001 27 10 60 ac 5c 00 76 29 00 00 00 22 21 00 00 00 00 26 9c 36 80 23 02 08 11 00 02 08
# ReportID: 16 / Tip Switch: 0 | Barrel Switch: 0 | Secondary Barrel Switch: 0 | Eraser: 0 | Invert: 0 | In Range: 1 | Wacom Sense: 1 | # | X:     23756 | Y:     10581 | Tip Pressure:      0 | X Tilt:   34 | Y Tilt:   33 | Twist:      0 | Wacom FingerWheel:      0 | Wacom Distance:   36 | Transducer Serial Number:   595605148 | Wacom SerialHi:     1116162 | Wacom ToolType:   2050 
E: 000002.561059 27 10 60 cc 5c 00 55 29 00 00 00 22 21 00 00 00 00 24 9c 36 80 23 02 08 11 00 02 08
# ReportID: 16 / Tip Switch: 0 | Barrel Switch: 0 | Secondary Barrel Switch: 0 | Eraser: 0 | Invert: 0 | In Range: 1 | Wacom Sense: 1 | # | X:     23787 | Y:     10547 | Tip Pressure:      0 | X Tilt:   34 | Y Tilt:   33 | Twist:      0 | Wacom FingerWheel:      0 | Wacom Distance:   36 | Transducer Serial Number:   595605148 | Wacom SerialHi:     1116162 | Wacom ToolType:   2050 
E: 000002.563952 27 10 60 eb 5c 00 33 29 00 00 00 22 21 00 00 00 00 24 9c 36 80 23 02 08 11 00 02 08
# ReportID: 16 / Tip Switch: 0 | Barrel Switch: 0 | Secondary Barrel Switch: 0 | Eraser: 0 | Invert: 0 | In Range: 1 | Wacom Sense: 1 | # | X:     23834 | Y:     10497 | Tip Pressure:      0 | X Tilt:   34 | Y Tilt:   33 | Twist:      0 | Wacom FingerWheel:      0 | Wacom Distance:   34 | Transducer Serial Number:   595605148 | Wacom SerialHi:     1116162 | Wacom ToolType:   2050 
E: 000002.569862 27 10 60 1a 5d 00 01 29 00 00 00 22 21 00 00 00 00 22 9c 36 80 23 02 08 11 00 02 08
# ReportID: 16 / Tip Switch: 0 | Barrel Switch: 0 | Secondary Barrel Switch: 0 | Eraser: 0 | Invert: 0 | In Range: 1 | Wacom Sense: 1 | # | X:     23862 | Y:     10464 | Tip Pressure:      0 | X Tilt:   34 | Y Tilt:   33 | Twist:      0 | Wacom FingerWheel:      0 | Wacom Distance:   32 | Transducer Serial Number:   595605148 | Wacom SerialHi:     1116162 | Wacom ToolType:   2050 
E: 000002.574900 27 10 60 36 5d 00 e0 28 00 00 00 22 21 00 00 00 00 20 9c 36 80 23 02 08 11 00 02 08
# ReportID: 16 / Tip Switch: 0 | Barrel Switch: 0 | Secondary Barrel Switch: 0 | Eraser: 0 | Invert: 0 | In Range: 1 | Wacom Sense: 1 | # | X:     23902 | Y:     10415 | Tip Pressure:      0 | X Tilt:   34 | Y Tilt:   33 | Twist:      0 | Wacom FingerWheel:      0 | Wacom Distance:   30 | Transducer Serial Number:   595605148 | Wacom SerialHi:     1116162 | Wacom ToolType:   2050 
E: 000002.579938 27 10 60 5e 5d 00 af 28 00 00 00 22 21 00 00 00 00 1e 9c 36 80 23 02 08 11 00 02 08
# ReportID: 16 / Tip Switch: 0 | Barrel Switch: 0 | Secondary Barrel Switch: 0 | Eraser: 0 | Invert: 0 | In Range: 1 | Wacom Sense: 1 | # | X:     23925 | Y:     10386 | Tip Pressure:      0 | X Tilt:   34 | Y Tilt:   33 | Twist:      0 | Wacom FingerWheel:      0 | Wacom Distance:   29 | Transducer Serial Number:   595605148 | Wacom SerialHi:     1116162 | Wacom ToolType:   2050 
E: 000002.585006 27 10 60 75 5d 00 92 28 00 00 00 22 21 00 00 00 00 1d 9c 36 80 23 02 08 11 00 02 08
# ReportID: 16 / Tip Switch: 0 | Barrel Switch: 0 | Secondary Barrel Switch: 0 | Eraser: 0 | Invert: 0 | In Range: 1 | Wacom Sense: 1 | # | X:     23945 | Y:     10357 | Tip Pressure:      0 | X Tilt:   33 | Y Tilt:   33 | Twist:      0 | Wacom FingerWheel:      0 | Wacom Distance:   28 | Transducer Serial Number:   595605148 | Wacom SerialHi:     1116162 | Wacom ToolType:   2050 
E: 000002.587876 27 10 60 89 5d 00 75 28 00 00 00 21 21 00 00 00 00 1c 9c 36 80 23 02 08 11 00 02 08
# ReportID: 16 / Tip Switch: 0 | Barrel Switch: 0 | Secondary Barrel Switch: 0 | Eraser: 0 | Invert: 0 | In Range: 1 | Wacom Sense: 1 | # | X:     23973 | Y:     10316 | Tip Pressure:      0 | X Tilt:   33 | Y Tilt:   32 | Twist:      0 | Wacom FingerWheel:      0 | Wacom Distance:   27 | Transducer Serial Number:   595605148 | Wacom SerialHi:     1116162 | Wacom ToolType:   2050 
E: 000002.593873 27 10 60 a5 5d 00 4c 28 00 00 00 21 20 00 00 00 00 1b 9c 36 80 23 02 08 11 00 02 08
# ReportID: 16 / Tip Switch: 0 | Barrel Switch: 0 | Secondary Barrel Switch: 0 | Eraser: 0 | Invert: 0 | In Range: 1 | Wacom Sense: 1 | # | X:     23988 | Y:     10290 | Tip Pressure:      0 | X Tilt:   33 | Y Tilt:   32 | Twist:      0 | Wacom FingerWheel:      0 | Wacom Distance:   25 | Transducer Serial Number:   595605148 | Wacom SerialHi:     1116162 | Wacom ToolType:   2050 
E: 000002.600029 27 10 60 b4 5d 00 32 28 00 00 00 21 20 00 00 00 00 19 9c 36 80 23 02 08 11 00 02 08
# ReportID: 16 / Tip Switch: 0 | Barrel Switch: 0 | Secondary Barrel Switch: 0 | Eraser: 0 | Invert: 0 | In Range: 1 | Wacom Sense: 1 | # | X:     24002 | Y:     10265 | Tip Pressure:      0 | X Tilt:   33 | Y Tilt:   32 | Twist:      0 | Wacom FingerWheel:      0 | Wacom Distance:   24 | Transducer Serial Number:   595605148 | Wacom SerialHi:     1116162 | Wacom ToolType:   2050 
E: 000002.603891 27 10 60 c2 5d 00 19 28 00 00 00 21 20 00 00 00 00 18 9c 36 80 23 02 08 11 00 02 08
# ReportID: 16 / Tip Switch: 0 | Barrel Switch: 0 | Secondary Barrel Switch: 0 | Eraser: 0 | Invert: 0 | In Range: 1 | Wacom Sense: 1 | # | X:     24023 | Y:     10226 | Tip Pressure:      0 | X Tilt:   33 | Y Tilt:   32 | Twist:      0 | Wacom FingerWheel:      0 | Wacom Distance:   22 | Transducer Serial Number:   595605148 | Wacom SerialHi:     1116162 | Wacom ToolType:   2050 
E: 000002.609058 27 10 60 d7 5d 00 f2 27 00 00 00 21 20 00 00 00 00 16 9c 36 80 23 02 08 11 00 02 08
# ReportID: 16 / Tip Switch: 0 | Barrel Switch: 0 | Secondary Barrel Switch: 0 | Eraser: 0 | Invert: 0 | In Range: 1 | Wacom Sense: 1 | # | X:     24035 | Y:     10201 | Tip Pressure:      0 | X Tilt:   33 | Y Tilt:   32 | Twist:      0 | Wacom FingerWheel:      0 | Wacom Distance:   21 | Transducer Serial Number:   595605148 | Wacom SerialHi:     1116162 | Wacom ToolType:   2050 
E: 000002.615029 27 10 60 e3 5d 00 d9 27 00 00 00 21 20 00 00 00 00 15 9c 36 80 23 02 08 11 00 02 08
# ReportID: 16 / Tip Switch: 0 | Barrel Switch: 0 | Secondary Barrel Switch: 0 | Eraser: 0 | Invert: 0 | In Range: 1 | Wacom Sense: 1 | # | X:     24046 | Y:     10178 | Tip Pressure:      0 | X Tilt:   33 | Y Tilt:   32 | Twist:      0 | Wacom FingerWheel:      0 | Wacom Distance:   20 | Transducer Serial Number:   595605148 | Wacom SerialHi:     1116162 | Wacom ToolType:   2050 
E: 000002.618051 27 10 60 ee 5d 00 c2 27 00 00 00 21 20 00 00 00 00 14 9c 36 80 23 02 08 11 00 02 08
# ReportID: 16 / Tip Switch: 0 | Barrel Switch: 0 | Secondary Barrel Switch: 0 | Eraser: 0 | Invert: 0 | In Range: 1 | Wacom Sense: 1 | # | X:     24060 | Y:     10145 | Tip Pressure:      0 | X Tilt:   33 | Y Tilt:   32 | Twist:      0 | Wacom FingerWheel:      0 | Wacom Distance:   19 | Transducer Serial Number:   595605148 | Wacom SerialHi:     1116162 | Wacom ToolType:   2050 
E: 000002.624080 27 10 60 fc 5d 00 a1 27 00 00 00 21 20 00 00 00 00 13 9c 36 80 23 02 08 11 00 02 08
# ReportID: 16 / Tip Switch: 0 | Barrel Switch: 0 | Secondary Barrel Switch: 0 | Eraser: 0 | Invert: 0 | In Range: 1 | Wacom Sense: 1 | # | X:     24066 | Y:     10127 | Tip Pressure:      0 | X Tilt:   33 | Y Tilt:   32 | Twist:      0 | Wacom FingerWheel:      0 | Wacom Distance:   18 | Transducer Serial Number:   595605148 | Wacom SerialHi:     1116162 | Wacom ToolType:   2050 
E: 000002.630108 27 10 60 02 5e 00 8f 27 00 00 00 21 20 00 00 00 00 12 9c 36 80 23 02 08 11 00 02 08
# ReportID: 16 / Tip Switch: 0 | Barrel Switch: 0 | Secondary Barrel Switch: 0 | Eraser: 0 | Invert: 0 | In Range: 1 | Wacom Sense: 1 | # | X:     24071 | Y:     10109 | Tip Pressure:      0 | X Tilt:   33 | Y Tilt:   32 | Twist:      0 | Wacom FingerWheel:      0 | Wacom Distance:   17 | Transducer Serial Number:   595605148 | Wacom SerialHi:     1116162 | Wacom ToolType:   2050 
E: 000002.634065 27 10 60 07 5e 00 7d 27 00 00 00 21 20 00 00 00 00 11 9c 36 80 23 02 08 11 00 02 08
# ReportID: 16 / Tip Switch: 0 | Barrel Switch: 0 | Secondary Barrel Switch: 0 | Eraser: 0 | Invert: 0 | In Range: 1 | Wacom Sense: 1 | # | X:     24075 | Y:     10092 | Tip Pressure:      0 | X Tilt:   32 | Y Tilt:   32 | Twist:      0 | Wacom FingerWheel:      0 | Wacom Distance:   16 | Transducer Serial Number:   595605148 | Wacom SerialHi:     1116162 | Wacom ToolType:   2050 
E: 000002.638932 27 10 60 0b 5e 00 6c 27 00 00 00 20 20 00 00 00 00 10 9c 36 80 23 02 08 11 00 02 08
# ReportID: 16 / Tip Switch: 0 | Barrel Switch: 0 | Secondary Barrel Switch: 0 | Eraser: 0 | Invert: 0 | In Range: 1 | Wacom Sense: 1 | # | X:     24077 | Y:     10070 | Tip Pressure:      0 | X Tilt:   32 | Y Tilt:   31 | Twist:      0 | Wacom FingerWheel:      0 | Wacom Distance:   15 | Transducer Serial Number:   595605148 | Wacom SerialHi:     1116162 | Wacom ToolType:   2050 
E: 000002.644867 27 10 60 0d 5e 00 56 27 00 00 00 20 1f 00 00 00 00 0f 9c 36 80 23 02 08 11 00 02 08
# ReportID: 16 / Tip Switch: 0 | Barrel Switch: 0 | Secondary Barrel Switch: 0 | Eraser: 0 | Invert: 0 | In Range: 1 | Wacom Sense: 1 | # | X:     24074 | Y:     10056 | Tip Pressure:      0 | X Tilt:   32 | Y Tilt:   31 | Twist:      0 | Wacom FingerWheel:      0 | Wacom Distance:   14 | Transducer Serial Number:   595605148 | Wacom SerialHi:     1116162 | Wacom ToolType:   2050 
E: 000002.648005 27 10 60 0a 5e 00 48 27 00 00 00 20 1f 00 00 00 00 0e 9c 36 80 23 02 08 11 00 02 08
# ReportID: 16 / Tip Switch: 0 | Barrel Switch: 0 | Secondary Barrel Switch: 0 | Eraser: 0 | Invert: 0 | In Range: 1 | Wacom Sense: 1 | # | X:     24058 | Y:      9996 | Tip Pressure:      0 | X Tilt:   32 | Y Tilt:   31 | Twist:      0 | Wacom FingerWheel:      0 | Wacom Distance:   13 | Transducer Serial Number:   595605148 | Wacom SerialHi:     1116162 | Wacom ToolType:   2050 
E: 000002.653940 27 10 60 fa 5d 00 0c 27 00 00 00 20 1f 00 00 00 00 0d 9c 36 80 23 02 08 11 00 02 08
# ReportID: 16 / Tip Switch: 1 | Barrel Switch: 0 | Secondary Barrel Switch: 0 | Eraser: 0 | Invert: 0 | In Range: 1 | Wacom Sense: 1 | # | X:     24047 | Y:      9988 | Tip Pressure:    768 | X Tilt:   32 | Y Tilt:   31 | Twist:      0 | Wacom FingerWheel:      0 | Wacom Distance:   13 | Transducer Serial Number:   595605148 | Wacom SerialHi:     1116162 | Wacom ToolType:   2050 
E: 000002.659869 27 10 61 ef 5d 00 04 27 00 00 03 20 1f 00 00 00 00 0d 9c 36 80 23 02 08 11 00 02 08
# ReportID: 16 / Tip Switch: 1 | Barrel Switch: 0 | Secondary Barrel Switch: 0 | Eraser: 0 | Invert: 0 | In Range: 1 | Wacom Sense: 1 | # | X:     24038 | Y:      9978 | Tip Pressure:   1336 | X Tilt:   32 | Y Tilt:   31 | Twist:      0 | Wacom FingerWheel:      0 | Wacom Distance:   13 | Transducer Serial Number:   595605148 | Wacom SerialHi:     1116162 | Wacom ToolType:   2050 
E: 000002.663862 27 10 61 e6 5d 00 fa 26 00 38 05 20 1f 00 00 00 00 0d 9c 36 80 23 02 08 11 00 02 08
# ReportID: 16 / Tip Switch: 1 | Barrel Switch: 0 | Secondary Barrel Switch: 0 | Eraser: 0 | Invert: 0 | In Range: 1 | Wacom Sense: 1 | # | X:     24030 | Y:      9968 | Tip Pressure:   1384 | X Tilt:   32 | Y Tilt:   31 | Twist:      0 | Wacom FingerWheel:      0 | Wacom Distance:   13 | Transducer Serial Number:   595605148 | Wacom SerialHi:     1116162 | Wacom ToolType:   2050 
E: 000002.668811 27 10 61 de 5d 00 f0 26 00 68 05 20 1f 00 00 00 00 0d 9c 36 80 23 02 08 11 00 02 08
# ReportID: 16 / Tip Switch: 1 | Barrel Switch: 0 | Secondary Barrel Switch: 0 | Eraser: 0 | Invert: 0 | In Range: 1 | Wacom Sense: 1 | # | X:     24013 | Y:      9949 | Tip Pressure:   1420 | X Tilt:   32 | Y Tilt:   31 | Twist:      0 | Wacom FingerWheel:      0 | Wacom Distance:   13 | Transducer Serial Number:   595605148 | Wacom SerialHi:     1116162 | Wacom ToolType:   2050 
E: 000002.675826 27 10 61 cd 5d 00 dd 26 00 8c 05 20 1f 00 00 00 00 0d 9c 36 80 23 02 08 11 00 02 08
# ReportID: 16 / Tip Switch: 1 | Barrel Switch: 0 | Secondary Barrel Switch: 0 | Eraser: 0 | Invert: 0 | In Range: 1 | Wacom Sense: 1 | # | X:     23999 | Y:      9928 | Tip Pressure:   1448 | X Tilt:   32 | Y Tilt:   31 | Twist:      0 | Wacom FingerWheel:      0 | Wacom Distance:   13 | Transducer Serial Number:   595605148 | Wacom SerialHi:     1116162 | Wacom ToolType:   2050 
E: 000002.677796 27 10 61 bf 5d 00 c8 26 00 a8 05 20 1f 00 00 00 00 0d 9c 36 80 23 02 08 11 00 02 08
# ReportID: 16 / Tip Switch: 1 | Barrel Switch: 0 | Secondary Barrel Switch: 0 | Eraser: 0 | Invert: 0 | In Range: 1 | Wacom Sense: 1 | # | X:     23986 | Y:      9905 | Tip Pressure:   1492 | X Tilt:   32 | Y Tilt:   31 | Twist:      0 | Wacom FingerWheel:      0 | Wacom Distance:   13 | Transducer Serial Number:   595605148 | Wacom SerialHi:     1116162 | Wacom ToolType:   2050 
E: 000002.683954 27 10 61 b2 5d 00 b1 26 00 d4 05 20 1f 00 00 00 00 0d 9c 36 80 23 02 08 11 00 02 08
# ReportID: 16 / Tip Switch: 1 | Barrel Switch: 0 | Secondary Barrel Switch: 0 | Eraser: 0 | Invert: 0 | In Range: 1 | Wacom Sense: 1 | # | X:     23970 | Y:      9882 | Tip Pressure:   1564 | X Tilt:   32 | Y Tilt:   31 | Twist:      0 | Wacom FingerWheel:      0 | Wacom Distance:   13 | Transducer Serial Number:   595605148 | Wacom SerialHi:     1116162 | Wacom ToolType:   2050 
E: 000002.690968 27 10 61 a2 5d 00 9a 26 00 1c 06 20 1f 00 00 00 00 0d 9c 36 80 23 02 08 11 00 02 08
# ReportID: 16 / Tip Switch: 1 | Barrel Switch: 0 | Secondary Barrel Switch: 0 | Eraser: 0 | Invert: 0 | In Range: 1 | Wacom Sense: 1 | # | X:     23953 | Y:      9857 | Tip Pressure:   1620 | X Tilt:   32 | Y Tilt:   31 | Twist:      0 | Wacom FingerWheel:      0 | Wacom Distance:   13 | Transducer Serial Number:   595605148 | Wacom SerialHi:     1116162 | Wacom ToolType:   2050 
E: 000002.693955 27 10 61 91 5d 00 81 26 00 54 06 20 1f 00 00 00 00 0d 9c 36 80 23 02 08 11 00 02 08
# ReportID: 16 / Tip Switch: 1 | Barrel Switch: 0 | Secondary Barrel Switch: 0 | Eraser: 0 | Invert: 0 | In Range: 1 | Wacom Sense: 1 | # | X:     23931 | Y:      9832 | Tip Pressure:   1644 | X Tilt:   32 | Y Tilt:   31 | Twist:      0 | Wacom FingerWheel:      0 | Wacom Distance:   13 | Transducer Serial Number:   595605148 | Wacom SerialHi:     1116162 | Wacom ToolType:   2050 
E: 000002.698894 27 10 61 7b 5d 00 68 26 00 6c 06 20 1f 00 00 00 00 0d 9c 36 80 23 02 08 11 00 02 08
# ReportID: 16 / Tip Switch: 1 | Barrel Switch: 0 | Secondary Barrel Switch: 0 | Eraser: 0 | Invert: 0 | In Range: 1 | Wacom Sense: 1 | # | X:     23906 | Y:      9807 | Tip Pressure:   1704 | X Tilt:   32 | Y Tilt:   31 | Twist:      0 | Wacom FingerWheel:      0 | Wacom Distance:   13 | Transducer Serial Number:   595605148 | Wacom SerialHi:     1116162 | Wacom ToolType:   2050 
E: 000002.704844 27 10 61 62 5d 00 4f 26 00 a8 06 20 1f 00 00 00 00 0d 9c 36 80 23 02 08 11 00 02 08
# ReportID: 16 / Tip Switch: 1 | Barrel Switch: 0 | Secondary Barrel Switch: 0 | Eraser: 0 | Invert: 0 | In Range: 1 | Wacom Sense: 1 | # | X:     23877 | Y:      9782 | Tip Pressure:   1820 | X Tilt:   32 | Y Tilt:   31 | Twist:      0 | Wacom FingerWheel:      0 | Wacom Distance:   13 | Transducer Serial Number:   595605148 | Wacom SerialHi:     1116162 | Wacom ToolType:   2050 
E: 000002.707842 27 10 61 45 5d 00 36 26 00 1c 07 20 1f 00 00 00 00 0d 9c 36 80 23 02 08 11 00 02 08
# ReportID: 16 / Tip Switch: 1 | Barrel Switch: 0 | Secondary Barrel Switch: 0 | Eraser: 0 | Invert: 0 | In Range: 1 | Wacom Sense: 1 | # | X:     23843 | Y:      9757 | Tip Pressure:   1916 | X Tilt:   32 | Y Tilt:   31 | Twist:      0 | Wacom FingerWheel:      0 | Wacom Distance:   13 | Transducer Serial Number:   595605148 | Wacom SerialHi:     1116162 | Wacom ToolType:   2050 
E: 000002.714844 27 10 61 23 5d 00 1d 26 00 7c 07 20 1f 00 00 00 00 0d 9c 36 80 23 02 08 11 00 02 08
# ReportID: 16 / Tip Switch: 1 | Barrel Switch: 0 | Secondary Barrel Switch: 0 | Eraser: 0 | Invert: 0 | In Range: 1 | Wacom Sense: 1 | # | X:     23806 | Y:      9734 | Tip Pressure:   1972 | X Tilt:   32 | Y Tilt:   31 | Twist:      0 | Wacom FingerWheel:      0 | Wacom Distance:   13 | Transducer Serial Number:   595605148 | Wacom SerialHi:     1116162 | Wacom ToolType:   2050 
E: 000002.719841 27 10 61 fe 5c 00 06 26 00 b4 07 20 1f 00 00 00 00 0d 9c 36 80 23 02 08 11 00 02 08
# ReportID: 16 / Tip Switch: 1 | Barrel Switch: 0 | Secondary Barrel Switch: 0 | Eraser: 0 | Invert: 0 | In Range: 1 | Wacom Sense: 1 | # | X:     23764 | Y:      9712 | Tip Pressure:   2012 | X Tilt:   32 | Y Tilt:   31 | Twist:      0 | Wacom FingerWheel:      0 | Wacom Distance:   13 | Transducer Serial Number:   595605148 | Wacom SerialHi:     1116162 | Wacom ToolType:   2050 
E: 000002.723851 27 10 61 d4 5c 00 f0 25 00 dc 07 20 1f 00 00 00 00 0d 9c 36 80 23 02 08 11 00 02 08
# ReportID: 16 / Tip Switch: 1 | Barrel Switch: 0 | Secondary Barrel Switch: 0 | Eraser: 0 | Invert: 0 | In Range: 1 | Wacom Sense: 1 | # | X:     23721 | Y:      9691 | Tip Pressure:   2028 | X Tilt:   32 | Y Tilt:   31 | Twist:      0 | Wacom FingerWheel:      0 | Wacom Distance:   13 | Transducer Serial Number:   595605148 | Wacom SerialHi:     1116162 | Wacom ToolType:   2050 
E: 000002.728805 27 10 61 a9 5c 00 db 25 00 ec 07 20 1f 00 00 00 00 0d 9c 36 80 23 02 08 11 00 02 08
# ReportID: 16 / Tip Switch: 1 | Barrel Switch: 0 | Secondary Barrel Switch: 0 | Eraser: 0 | Invert: 0 | In Range: 1 | Wacom Sense: 1 | # | X:     23675 | Y:      9672 | Tip Pressure:   2089 | X Tilt:   32 | Y Tilt:   31 | Twist:      0 | Wacom FingerWheel:      0 | Wacom Distance:   13 | Transducer Serial Number:   595605148 | Wacom SerialHi:     1116162 | Wacom ToolType:   2050 
E: 000002.734842 27 10 61 7b 5c 00 c8 25 00 29 08 20 1f 00 00 00 00 0d 9c 36 80 23 02 08 11 00 02 08
# ReportID: 16 / Tip Switch: 1 | Barrel Switch: 0 | Secondary Barrel Switch: 0 | Eraser: 0 | Invert: 0 | In Range: 1 | Wacom Sense: 1 | # | X:     23629 | Y:      9653 | Tip Pressure:   2161 | X Tilt:   32 | Y Tilt:   31 | Twist:      0 | Wacom FingerWheel:      0 | Wacom Distance:   13 | Transducer Serial Number:   595605148 | Wacom SerialHi:     1116162 | Wacom ToolType:   2050 
E: 000002.737842 27 10 61 4d 5c 00 b5 25 00 71 08 20 1f 00 00 00 00 0d 9c 36 80 23 02 08 11 00 02 08
# ReportID: 16 / Tip Switch: 1 | Barrel Switch: 0 | Secondary Barrel Switch: 0 | Eraser: 0 | Invert: 0 | In Range: 1 | Wacom Sense: 1 | # | X:     23583 | Y:      9636 | Tip Pressure:   2237 | X Tilt:   32 | Y Tilt:   31 | Twist:      0 | Wacom FingerWheel:      0 | Wacom Distance:   13 | Transducer Serial Number:   595605148 | Wacom SerialHi:     1116162 | Wacom ToolType:   2050 
E: 000002.743842 27 10 61 1f 5c 00 a4 25 00 bd 08 20 1f 00 00 00 00 0d 9c 36 80 23 02 08 11 00 02 08
# ReportID: 16 / Tip Switch: 1 | Barrel Switch: 0 | Secondary Barrel Switch: 0 | Eraser: 0 | Invert: 0 | In Range: 1 | Wacom Sense: 1 | # | X:     23537 | Y:      9620 | Tip Pressure:   2321 | X Tilt:   32 | Y Tilt:   31 | Twist:      0 | Wacom FingerWheel:      0 | Wacom Distance:   13 | Transducer Serial Number:   595605148 | Wacom SerialHi:     1116162 | Wacom ToolType:   2050 
E: 000002.749815 27 10 61 f1 5b 00 94 25 00 11 09 20 1f 00 00 00 00 0d 9c 36 80 23 02 08 11 00 02 08
# ReportID: 16 / Tip Switch: 1 | Barrel Switch: 0 | Secondary Barrel Switch: 0 | Eraser: 0 | Invert: 0 | In Range: 1 | Wacom Sense: 1 | # | X:     23493 | Y:      9604 | Tip Pressure:   2369 | X Tilt:   32 | Y Tilt:   31 | Twist:      0 | Wacom FingerWheel:      0 | Wacom Distance:   13 | Transducer Serial Number:   595605148 | Wacom SerialHi:     1116162 | Wacom ToolType:   2050 
E: 000002.753828 27 10 61 c5 5b 00 84 25 00 41 09 20 1f 00 00 00 00 0d 9c 36 80 23 02 08 11 00 02 08
# ReportID: 16 / Tip Switch: 1 | Barrel Switch: 0 | Secondary Barrel Switch: 0 | Eraser: 0 | Invert: 0 | In Range: 1 | Wacom Sense: 1 | # | X:     23447 | Y:      9590 | Tip Pressure:   2445 | X Tilt:   32 | Y Tilt:   31 | Twist:      0 | Wacom FingerWheel:      0 | Wacom Distance:   13 | Transducer Serial Number:   595605148 | Wacom SerialHi:     1116162 | Wacom ToolType:   2050 
E: 000002.758841 27 10 61 97 5b 00 76 25 00 8d 09 20 1f 00 00 00 00 0d 9c 36 80 23 02 08 11 00 02 08
# ReportID: 16 / Tip Switch: 1 | Barrel Switch: 0 | Secondary Barrel Switch: 0 | Eraser: 0 | Invert: 0 | In Range: 1 | Wacom Sense: 1 | # | X:     23401 | Y:      9576 | Tip Pressure:   2477 | X Tilt:   32 | Y Tilt:   31 | Twist:      0 | Wacom FingerWheel:      0 | Wacom Distance:   14 | Transducer Serial Number:   595605148 | Wacom SerialHi:     1116162 | Wacom ToolType:   2050 
E: 000002.762844 27 10 61 69 5b 00 68 25 00 ad 09 20 1f 00 00 00 00 0e 9c 36 80 23 02 08 11 00 02 08
