# Touch node
#
# Recording is three vertical movements with one finger
#
# +-------------------------------------------+
# +                                           +
# +   |               |                  |    +
# +   |               |                  |    +
# +   |               |                  |    +
# +   |               |                  |    +
# +   |               |                  |    +
# +   |               |                  |    +
# +   |               |                  |    +
# +                                           +
# +-------------------------------------------+
#
# Wacom Co.,Ltd. Wacom Intuos Pro M
# 0x06, 0x00, 0xff,              // Usage Page (Vendor Defined Page 1)  0
# 0x09, 0x05,                    // Usage (Vendor Usage 0x05)           3
# 0xa1, 0x01,                    // Collection (Application)            5
# 0x85, 0x21,                    //  Report ID (33)                     7
# 0x09, 0x54,                    //  Usage (Vendor Usage 0x54)          9
# 0x15, 0x00,                    //  Logical Minimum (0)                11
# 0x26, 0xff, 0x00,              //  Logical Maximum (255)              13
# 0x75, 0x08,                    //  Report Size (8)                    16
# 0x95, 0x01,                    //  Report Count (1)                   18
# 0x81, 0x02,                    //  Input (Data,Var,Abs)               20
# 0x09, 0x22,                    //  Usage (Vendor Usage 0x22)          22
# 0xa1, 0x02,                    //  Collection (Logical)               24
# 0x09, 0x51,                    //   Usage (Vendor Usage 0x51)         26
# 0x65, 0x00,                    //   Unit (None)                       28
# 0x55, 0x00,                    //   Unit Exponent (0)                 30
# 0x15, 0x00,                    //   Logical Minimum (0)               32
# 0x26, 0xff, 0x00,              //   Logical Maximum (255)             34
# 0x75, 0x08,                    //   Report Size (8)                   37
# 0x95, 0x01,                    //   Report Count (1)                  39
# 0x81, 0x02,                    //   Input (Data,Var,Abs)              41
# 0x09, 0x42,                    //   Usage (Vendor Usage 0x42)         43
# 0x15, 0x00,                    //   Logical Minimum (0)               45
# 0x25, 0x01,                    //   Logical Maximum (1)               47
# 0x75, 0x01,                    //   Report Size (1)                   49
# 0x95, 0x01,                    //   Report Count (1)                  51
# 0x81, 0x02,                    //   Input (Data,Var,Abs)              53
# 0x95, 0x07,                    //   Report Count (7)                  55
# 0x81, 0x03,                    //   Input (Cnst,Var,Abs)              57
# 0x0a, 0x30, 0x01,              //   Usage (Vendor Usage 0x130)        59
# 0x65, 0x11,                    //   Unit (SILinear: cm)               62
# 0x55, 0x0d,                    //   Unit Exponent (-3)                64
# 0x35, 0x00,                    //   Physical Minimum (0)              66
# 0x46, 0x80, 0x57,              //   Physical Maximum (22400)          68
# 0x15, 0x00,                    //   Logical Minimum (0)               71
# 0x26, 0x00, 0x23,              //   Logical Maximum (8960)            73
# 0x75, 0x10,                    //   Report Size (16)                  76
# 0x95, 0x01,                    //   Report Count (1)                  78
# 0x81, 0x02,                    //   Input (Data,Var,Abs)              80
# 0x0a, 0x31, 0x01,              //   Usage (Vendor Usage 0x131)        82
# 0x46, 0xd0, 0x39,              //   Physical Maximum (14800)          85
# 0x26, 0x20, 0x17,              //   Logical Maximum (5920)            88
# 0x81, 0x02,                    //   Input (Data,Var,Abs)              91
# 0x09, 0x48,                    //   Usage (Vendor Usage 0x48)         93
# 0x46, 0xbe, 0x08,              //   Physical Maximum (2238)           95
# 0x26, 0x29, 0x00,              //   Logical Maximum (41)              98
# 0x75, 0x08,                    //   Report Size (8)                   101
# 0x95, 0x01,                    //   Report Count (1)                  103
# 0x81, 0x02,                    //   Input (Data,Var,Abs)              105
# 0x09, 0x49,                    //   Usage (Vendor Usage 0x49)         107
# 0x46, 0xc9, 0x05,              //   Physical Maximum (1481)           109
# 0x26, 0x1f, 0x00,              //   Logical Maximum (31)              112
# 0x81, 0x02,                    //   Input (Data,Var,Abs)              115
# 0xc0,                          //  End Collection                     117
# 0x09, 0x22,                    //  Usage (Vendor Usage 0x22)          118
# 0xa1, 0x02,                    //  Collection (Logical)               120
# 0x09, 0x51,                    //   Usage (Vendor Usage 0x51)         122
# 0x65, 0x00,                    //   Unit (None)                       124
# 0x55, 0x00,                    //   Unit Exponent (0)                 126
# 0x15, 0x00,                    //   Logical Minimum (0)               128
# 0x26, 0xff, 0x00,              //   Logical Maximum (255)             130
# 0x75, 0x08,                    //   Report Size (8)                   133
# 0x95, 0x01,                    //   Report Count (1)                  135
# 0x81, 0x02,                    //   Input (Data,Var,Abs)              137
# 0x09, 0x42,                    //   Usage (Vendor Usage 0x42)         139
# 0x15, 0x00,                    //   Logical Minimum (0)               141
# 0x25, 0x01,                    //   Logical Maximum (1)               143
# 0x75, 0x01,                    //   Report Size (1)                   145
# 0x95, 0x01,                    //   Report Count (1)                  147
# 0x81, 0x02,                    //   Input (Data,Var,Abs)              149
# 0x95, 0x07,                    //   Report Count (7)                  151
# 0x81, 0x03,                    //   Input (Cnst,Var,Abs)              153
# 0x0a, 0x30, 0x01,              //   Usage (Vendor Usage 0x130)        155
# 0x65, 0x11,                    //   Unit (SILinear: cm)               158
# 0x55, 0x0d,                    //   Unit Exponent (-3)                160
# 0x35, 0x00,                    //   Physical Minimum (0)              162
# 0x46, 0x80, 0x57,              //   Physical Maximum (22400)          164
# 0x15, 0x00,                    //   Logical Minimum (0)               167
# 0x26, 0x00, 0x23,              //   Logical Maximum (8960)            169
# 0x75, 0x10,                    //   Report Size (16)                  172
# 0x95, 0x01,                    //   Report Count (1)                  174
# 0x81, 0x02,                    //   Input (Data,Var,Abs)              176
# 0x0a, 0x31, 0x01,              //   Usage (Vendor Usage 0x131)        178
# 0x46, 0xd0, 0x39,              //   Physical Maximum (14800)          181
# 0x26, 0x20, 0x17,              //   Logical Maximum (5920)            184
# 0x81, 0x02,                    //   Input (Data,Var,Abs)              187
# 0x09, 0x48,                    //   Usage (Vendor Usage 0x48)         189
# 0x46, 0xbe, 0x08,              //   Physical Maximum (2238)           191
# 0x26, 0x29, 0x00,              //   Logical Maximum (41)              194
# 0x75, 0x08,                    //   Report Size (8)                   197
# 0x95, 0x01,                    //   Report Count (1)                  199
# 0x81, 0x02,                    //   Input (Data,Var,Abs)              201
# 0x09, 0x49,                    //   Usage (Vendor Usage 0x49)         203
# 0x46, 0xc9, 0x05,              //   Physical Maximum (1481)           205
# 0x26, 0x1f, 0x00,              //   Logical Maximum (31)              208
# 0x81, 0x02,                    //   Input (Data,Var,Abs)              211
# 0xc0,                          //  End Collection                     213
# 0x09, 0x22,                    //  Usage (Vendor Usage 0x22)          214
# 0xa1, 0x02,                    //  Collection (Logical)               216
# 0x09, 0x51,                    //   Usage (Vendor Usage 0x51)         218
# 0x65, 0x00,                    //   Unit (None)                       220
# 0x55, 0x00,                    //   Unit Exponent (0)                 222
# 0x15, 0x00,                    //   Logical Minimum (0)               224
# 0x26, 0xff, 0x00,              //   Logical Maximum (255)             226
# 0x75, 0x08,                    //   Report Size (8)                   229
# 0x95, 0x01,                    //   Report Count (1)                  231
# 0x81, 0x02,                    //   Input (Data,Var,Abs)              233
# 0x09, 0x42,                    //   Usage (Vendor Usage 0x42)         235
# 0x15, 0x00,                    //   Logical Minimum (0)               237
# 0x25, 0x01,                    //   Logical Maximum (1)               239
# 0x75, 0x01,                    //   Report Size (1)                   241
# 0x95, 0x01,                    //   Report Count (1)                  243
# 0x81, 0x02,                    //   Input (Data,Var,Abs)              245
# 0x95, 0x07,                    //   Report Count (7)                  247
# 0x81, 0x03,                    //   Input (Cnst,Var,Abs)              249
# 0x0a, 0x30, 0x01,              //   Usage (Vendor Usage 0x130)        251
# 0x65, 0x11,                    //   Unit (SILinear: cm)               254
# 0x55, 0x0d,                    //   Unit Exponent (-3)                256
# 0x35, 0x00,                    //   Physical Minimum (0)              258
# 0x46, 0x80, 0x57,              //   Physical Maximum (22400)          260
# 0x15, 0x00,                    //   Logical Minimum (0)               263
# 0x26, 0x00, 0x23,              //   Logical Maximum (8960)            265
# 0x75, 0x10,                    //   Report Size (16)                  268
# 0x95, 0x01,                    //   Report Count (1)                  270
# 0x81, 0x02,                    //   Input (Data,Var,Abs)              272
# 0x0a, 0x31, 0x01,              //   Usage (Vendor Usage 0x131)        274
# 0x46, 0xd0, 0x39,              //   Physical Maximum (14800)          277
# 0x26, 0x20, 0x17,              //   Logical Maximum (5920)            280
# 0x81, 0x02,                    //   Input (Data,Var,Abs)              283
# 0x09, 0x48,                    //   Usage (Vendor Usage 0x48)         285
# 0x46, 0xbe, 0x08,              //   Physical Maximum (2238)           287
# 0x26, 0x29, 0x00,              //   Logical Maximum (41)              290
# 0x75, 0x08,                    //   Report Size (8)                   293
# 0x95, 0x01,                    //   Report Count (1)                  295
# 0x81, 0x02,                    //   Input (Data,Var,Abs)              297
# 0x09, 0x49,                    //   Usage (Vendor Usage 0x49)         299
# 0x46, 0xc9, 0x05,              //   Physical Maximum (1481)           301
# 0x26, 0x1f, 0x00,              //   Logical Maximum (31)              304
# 0x81, 0x02,                    //   Input (Data,Var,Abs)              307
# 0xc0,                          //  End Collection                     309
# 0x09, 0x22,                    //  Usage (Vendor Usage 0x22)          310
# 0xa1, 0x02,                    //  Collection (Logical)               312
# 0x09, 0x51,                    //   Usage (Vendor Usage 0x51)         314
# 0x65, 0x00,                    //   Unit (None)                       316
# 0x55, 0x00,                    //   Unit Exponent (0)                 318
# 0x15, 0x00,                    //   Logical Minimum (0)               320
# 0x26, 0xff, 0x00,              //   Logical Maximum (255)             322
# 0x75, 0x08,                    //   Report Size (8)                   325
# 0x95, 0x01,                    //   Report Count (1)                  327
# 0x81, 0x02,                    //   Input (Data,Var,Abs)              329
# 0x09, 0x42,                    //   Usage (Vendor Usage 0x42)         331
# 0x15, 0x00,                    //   Logical Minimum (0)               333
# 0x25, 0x01,                    //   Logical Maximum (1)               335
# 0x75, 0x01,                    //   Report Size (1)                   337
# 0x95, 0x01,                    //   Report Count (1)                  339
# 0x81, 0x02,                    //   Input (Data,Var,Abs)              341
# 0x95, 0x07,                    //   Report Count (7)                  343
# 0x81, 0x03,                    //   Input (Cnst,Var,Abs)              345
# 0x0a, 0x30, 0x01,              //   Usage (Vendor Usage 0x130)        347
# 0x65, 0x11,                    //   Unit (SILinear: cm)               350
# 0x55, 0x0d,                    //   Unit Exponent (-3)                352
# 0x35, 0x00,                    //   Physical Minimum (0)              354
# 0x46, 0x80, 0x57,              //   Physical Maximum (22400)          356
# 0x15, 0x00,                    //   Logical Minimum (0)               359
# 0x26, 0x00, 0x23,              //   Logical Maximum (8960)            361
# 0x75, 0x10,                    //   Report Size (16)                  364
# 0x95, 0x01,                    //   Report Count (1)                  366
# 0x81, 0x02,                    //   Input (Data,Var,Abs)              368
# 0x0a, 0x31, 0x01,              //   Usage (Vendor Usage 0x131)        370
# 0x46, 0xd0, 0x39,              //   Physical Maximum (14800)          373
# 0x26, 0x20, 0x17,              //   Logical Maximum (5920)            376
# 0x81, 0x02,                    //   Input (Data,Var,Abs)              379
# 0x09, 0x48,                    //   Usage (Vendor Usage 0x48)         381
# 0x46, 0xbe, 0x08,              //   Physical Maximum (2238)           383
# 0x26, 0x29, 0x00,              //   Logical Maximum (41)              386
# 0x75, 0x08,                    //   Report Size (8)                   389
# 0x95, 0x01,                    //   Report Count (1)                  391
# 0x81, 0x02,                    //   Input (Data,Var,Abs)              393
# 0x09, 0x49,                    //   Usage (Vendor Usage 0x49)         395
# 0x46, 0xc9, 0x05,              //   Physical Maximum (1481)           397
# 0x26, 0x1f, 0x00,              //   Logical Maximum (31)              400
# 0x81, 0x02,                    //   Input (Data,Var,Abs)              403
# 0xc0,                          //  End Collection                     405
# 0x09, 0x22,                    //  Usage (Vendor Usage 0x22)          406
# 0xa1, 0x02,                    //  Collection (Logical)               408
# 0x09, 0x51,                    //   Usage (Vendor Usage 0x51)         410
# 0x65, 0x00,                    //   Unit (None)                       412
# 0x55, 0x00,                    //   Unit Exponent (0)                 414
# 0x15, 0x00,                    //   Logical Minimum (0)               416
# 0x26, 0xff, 0x00,              //   Logical Maximum (255)             418
# 0x75, 0x08,                    //   Report Size (8)                   421
# 0x95, 0x01,                    //   Report Count (1)                  423
# 0x81, 0x02,                    //   Input (Data,Var,Abs)              425
# 0x09, 0x42,                    //   Usage (Vendor Usage 0x42)         427
# 0x15, 0x00,                    //   Logical Minimum (0)               429
# 0x25, 0x01,                    //   Logical Maximum (1)               431
# 0x75, 0x01,                    //   Report Size (1)                   433
# 0x95, 0x01,                    //   Report Count (1)                  435
# 0x81, 0x02,                    //   Input (Data,Var,Abs)              437
# 0x95, 0x07,                    //   Report Count (7)                  439
# 0x81, 0x03,                    //   Input (Cnst,Var,Abs)              441
# 0x0a, 0x30, 0x01,              //   Usage (Vendor Usage 0x130)        443
# 0x65, 0x11,                    //   Unit (SILinear: cm)               446
# 0x55, 0x0d,                    //   Unit Exponent (-3)                448
# 0x35, 0x00,                    //   Physical Minimum (0)              450
# 0x46, 0x80, 0x57,              //   Physical Maximum (22400)          452
# 0x15, 0x00,                    //   Logical Minimum (0)               455
# 0x26, 0x00, 0x23,              //   Logical Maximum (8960)            457
# 0x75, 0x10,                    //   Report Size (16)                  460
# 0x95, 0x01,                    //   Report Count (1)                  462
# 0x81, 0x02,                    //   Input (Data,Var,Abs)              464
# 0x0a, 0x31, 0x01,              //   Usage (Vendor Usage 0x131)        466
# 0x46, 0xd0, 0x39,              //   Physical Maximum (14800)          469
# 0x26, 0x20, 0x17,              //   Logical Maximum (5920)            472
# 0x81, 0x02,                    //   Input (Data,Var,Abs)              475
# 0x09, 0x48,                    //   Usage (Vendor Usage 0x48)         477
# 0x46, 0xbe, 0x08,              //   Physical Maximum (2238)           479
# 0x26, 0x29, 0x00,              //   Logical Maximum (41)              482
# 0x75, 0x08,                    //   Report Size (8)                   485
# 0x95, 0x01,                    //   Report Count (1)                  487
# 0x81, 0x02,                    //   Input (Data,Var,Abs)              489
# 0x09, 0x49,                    //   Usage (Vendor Usage 0x49)         491
# 0x46, 0xc9, 0x05,              //   Physical Maximum (1481)           493
# 0x26, 0x1f, 0x00,              //   Logical Maximum (31)              496
# 0x81, 0x02,                    //   Input (Data,Var,Abs)              499
# 0xc0,                          //  End Collection                     501
# 0x09, 0x56,                    //  Usage (Vendor Usage 0x56)          502
# 0x15, 0x00,                    //  Logical Minimum (0)                504
# 0x27, 0xff, 0xff, 0x00, 0x00,  //  Logical Maximum (65535)            506
# 0x75, 0x10,                    //  Report Size (16)                   511
# 0x95, 0x01,                    //  Report Count (1)                   513
# 0x81, 0x02,                    //  Input (Data,Var,Abs)               515
# 0x09, 0x0e,                    //  Usage (Vendor Usage 0x0e)          517
# 0xa1, 0x02,                    //  Collection (Logical)               519
# 0x15, 0x00,                    //   Logical Minimum (0)               521
# 0x25, 0x01,                    //   Logical Maximum (1)               523
# 0x75, 0x08,                    //   Report Size (8)                   525
# 0x85, 0x22,                    //   Report ID (34)                    527
# 0x0a, 0x0d, 0x10,              //   Usage (Vendor Usage 0x100d)       529
# 0x95, 0x01,                    //   Report Count (1)                  532
# 0xb1, 0x00,                    //   Feature (Data,Arr,Abs)            534
# 0x85, 0x23,                    //   Report ID (35)                    536
# 0x09, 0x55,                    //   Usage (Vendor Usage 0x55)         538
# 0x26, 0xff, 0x00,              //   Logical Maximum (255)             540
# 0x95, 0x01,                    //   Report Count (1)                  543
# 0xb1, 0x02,                    //   Feature (Data,Var,Abs)            545
# 0xc0,                          //  End Collection                     547
# 0xc0,                          // End Collection                      548
# 
R: 549 06 00 ff 09 05 a1 01 85 21 09 54 15 00 26 ff 00 75 08 95 01 81 02 09 22 a1 02 09 51 65 00 55 00 15 00 26 ff 00 75 08 95 01 81 02 09 42 15 00 25 01 75 01 95 01 81 02 95 07 81 03 0a 30 01 65 11 55 0d 35 00 46 80 57 15 00 26 00 23 75 10 95 01 81 02 0a 31 01 46 d0 39 26 20 17 81 02 09 48 46 be 08 26 29 00 75 08 95 01 81 02 09 49 46 c9 05 26 1f 00 81 02 c0 09 22 a1 02 09 51 65 00 55 00 15 00 26 ff 00 75 08 95 01 81 02 09 42 15 00 25 01 75 01 95 01 81 02 95 07 81 03 0a 30 01 65 11 55 0d 35 00 46 80 57 15 00 26 00 23 75 10 95 01 81 02 0a 31 01 46 d0 39 26 20 17 81 02 09 48 46 be 08 26 29 00 75 08 95 01 81 02 09 49 46 c9 05 26 1f 00 81 02 c0 09 22 a1 02 09 51 65 00 55 00 15 00 26 ff 00 75 08 95 01 81 02 09 42 15 00 25 01 75 01 95 01 81 02 95 07 81 03 0a 30 01 65 11 55 0d 35 00 46 80 57 15 00 26 00 23 75 10 95 01 81 02 0a 31 01 46 d0 39 26 20 17 81 02 09 48 46 be 08 26 29 00 75 08 95 01 81 02 09 49 46 c9 05 26 1f 00 81 02 c0 09 22 a1 02 09 51 65 00 55 00 15 00 26 ff 00 75 08 95 01 81 02 09 42 15 00 25 01 75 01 95 01 81 02 95 07 81 03 0a 30 01 65 11 55 0d 35 00 46 80 57 15 00 26 00 23 75 10 95 01 81 02 0a 31 01 46 d0 39 26 20 17 81 02 09 48 46 be 08 26 29 00 75 08 95 01 81 02 09 49 46 c9 05 26 1f 00 81 02 c0 09 22 a1 02 09 51 65 00 55 00 15 00 26 ff 00 75 08 95 01 81 02 09 42 15 00 25 01 75 01 95 01 81 02 95 07 81 03 0a 30 01 65 11 55 0d 35 00 46 80 57 15 00 26 00 23 75 10 95 01 81 02 0a 31 01 46 d0 39 26 20 17 81 02 09 48 46 be 08 26 29 00 75 08 95 01 81 02 09 49 46 c9 05 26 1f 00 81 02 c0 09 56 15 00 27 ff ff 00 00 75 10 95 01 81 02 09 0e a1 02 15 00 25 01 75 08 85 22 0a 0d 10 95 01 b1 00 85 23 09 55 26 ff 00 95 01 b1 02 c0 c0
N: Wacom Co.,Ltd. Wacom Intuos Pro M
I: 3 056a 0357
# ReportID: 33 / 0xff000054:    1 
#              | 0xff000051:    1 | 0xff000042: 1 | # | 0xff000130:    982 | 0xff000131:   1408 | 0xff000048:    3 | 0xff000049:    3 
#              | 0xff000051:    0 | 0xff000042: 0 | # | 0xff000130:      0 | 0xff000131:      0 | 0xff000048:    0 | 0xff000049:    0 
#              | 0xff000051:    0 | 0xff000042: 0 | # | 0xff000130:      0 | 0xff000131:      0 | 0xff000048:    0 | 0xff000049:    0 
#              | 0xff000051:    0 | 0xff000042: 0 | # | 0xff000130:      0 | 0xff000131:      0 | 0xff000048:    0 | 0xff000049:    0 
#              | 0xff000051:    0 | 0xff000042: 0 | # | 0xff000130:      0 | 0xff000131:      0 | 0xff000048:    0 | 0xff000049:    0 | 0xff000056:  52384 
E: 000000.000000 44 21 01 01 01 d6 03 80 05 03 03 00 00 00 00 00 00 00 00 00 00 00 00 00 00 00 00 00 00 00 00 00 00 00 00 00 00 00 00 00 00 00 00 a0 cc
# ReportID: 33 / 0xff000054:    1 
#              | 0xff000051:    1 | 0xff000042: 1 | # | 0xff000130:    982 | 0xff000131:   1408 | 0xff000048:    2 | 0xff000049:    2 
#              | 0xff000051:    0 | 0xff000042: 0 | # | 0xff000130:      0 | 0xff000131:      0 | 0xff000048:    0 | 0xff000049:    0 
#              | 0xff000051:    0 | 0xff000042: 0 | # | 0xff000130:      0 | 0xff000131:      0 | 0xff000048:    0 | 0xff000049:    0 
#              | 0xff000051:    0 | 0xff000042: 0 | # | 0xff000130:      0 | 0xff000131:      0 | 0xff000048:    0 | 0xff000049:    0 
#              | 0xff000051:    0 | 0xff000042: 0 | # | 0xff000130:      0 | 0xff000131:      0 | 0xff000048:    0 | 0xff000049:    0 | 0xff000056:  52484 
E: 000000.009982 44 21 01 01 01 d6 03 80 05 02 02 00 00 00 00 00 00 00 00 00 00 00 00 00 00 00 00 00 00 00 00 00 00 00 00 00 00 00 00 00 00 00 00 04 cd
# ReportID: 33 / 0xff000054:    1 
#              | 0xff000051:    1 | 0xff000042: 1 | # | 0xff000130:    987 | 0xff000131:   1419 | 0xff000048:    2 | 0xff000049:    2 
#              | 0xff000051:    0 | 0xff000042: 0 | # | 0xff000130:      0 | 0xff000131:      0 | 0xff000048:    0 | 0xff000049:    0 
#              | 0xff000051:    0 | 0xff000042: 0 | # | 0xff000130:      0 | 0xff000131:      0 | 0xff000048:    0 | 0xff000049:    0 
#              | 0xff000051:    0 | 0xff000042: 0 | # | 0xff000130:      0 | 0xff000131:      0 | 0xff000048:    0 | 0xff000049:    0 
#              | 0xff000051:    0 | 0xff000042: 0 | # | 0xff000130:      0 | 0xff000131:      0 | 0xff000048:    0 | 0xff000049:    0 | 0xff000056:  52584 
E: 000000.020071 44 21 01 01 01 db 03 8b 05 02 02 00 00 00 00 00 00 00 00 00 00 00 00 00 00 00 00 00 00 00 00 00 00 00 00 00 00 00 00 00 00 00 00 68 cd
# ReportID: 33 / 0xff000054:    1 
#              | 0xff000051:    1 | 0xff000042: 1 | # | 0xff000130:    997 | 0xff000131:   1442 | 0xff000048:    3 | 0xff000049:    3 
#              | 0xff000051:    0 | 0xff000042: 0 | # | 0xff000130:      0 | 0xff000131:      0 | 0xff000048:    0 | 0xff000049:    0 
#              | 0xff000051:    0 | 0xff000042: 0 | # | 0xff000130:      0 | 0xff000131:      0 | 0xff000048:    0 | 0xff000049:    0 
#              | 0xff000051:    0 | 0xff000042: 0 | # | 0xff000130:      0 | 0xff000131:      0 | 0xff000048:    0 | 0xff000049:    0 
#              | 0xff000051:    0 | 0xff000042: 0 | # | 0xff000130:      0 | 0xff000131:      0 | 0xff000048:    0 | 0xff000049:    0 | 0xff000056:  52684 
E: 000000.030039 44 21 01 01 01 e5 03 a2 05 03 03 00 00 00 00 00 00 00 00 00 00 00 00 00 00 00 00 00 00 00 00 00 00 00 00 00 00 00 00 00 00 00 00 cc cd
# ReportID: 33 / 0xff000054:    1 
#              | 0xff000051:    1 | 0xff000042: 1 | # | 0xff000130:   1005 | 0xff000131:   1477 | 0xff000048:    3 | 0xff000049:    3 
#              | 0xff000051:    0 | 0xff000042: 0 | # | 0xff000130:      0 | 0xff000131:      0 | 0xff000048:    0 | 0xff000049:    0 
#              | 0xff000051:    0 | 0xff000042: 0 | # | 0xff000130:      0 | 0xff000131:      0 | 0xff000048:    0 | 0xff000049:    0 
#              | 0xff000051:    0 | 0xff000042: 0 | # | 0xff000130:      0 | 0xff000131:      0 | 0xff000048:    0 | 0xff000049:    0 
#              | 0xff000051:    0 | 0xff000042: 0 | # | 0xff000130:      0 | 0xff000131:      0 | 0xff000048:    0 | 0xff000049:    0 | 0xff000056:  52784 
E: 000000.040102 44 21 01 01 01 ed 03 c5 05 03 03 00 00 00 00 00 00 00 00 00 00 00 00 00 00 00 00 00 00 00 00 00 00 00 00 00 00 00 00 00 00 00 00 30 ce
# ReportID: 33 / 0xff000054:    1 
#              | 0xff000051:    1 | 0xff000042: 1 | # | 0xff000130:   1010 | 0xff000131:   1516 | 0xff000048:    3 | 0xff000049:    3 
#              | 0xff000051:    0 | 0xff000042: 0 | # | 0xff000130:      0 | 0xff000131:      0 | 0xff000048:    0 | 0xff000049:    0 
#              | 0xff000051:    0 | 0xff000042: 0 | # | 0xff000130:      0 | 0xff000131:      0 | 0xff000048:    0 | 0xff000049:    0 
#              | 0xff000051:    0 | 0xff000042: 0 | # | 0xff000130:      0 | 0xff000131:      0 | 0xff000048:    0 | 0xff000049:    0 
#              | 0xff000051:    0 | 0xff000042: 0 | # | 0xff000130:      0 | 0xff000131:      0 | 0xff000048:    0 | 0xff000049:    0 | 0xff000056:  52884 
E: 000000.050122 44 21 01 01 01 f2 03 ec 05 03 03 00 00 00 00 00 00 00 00 00 00 00 00 00 00 00 00 00 00 00 00 00 00 00 00 00 00 00 00 00 00 00 00 94 ce
# ReportID: 33 / 0xff000054:    1 
#              | 0xff000051:    1 | 0xff000042: 1 | # | 0xff000130:   1011 | 0xff000131:   1560 | 0xff000048:    3 | 0xff000049:    3 
#              | 0xff000051:    0 | 0xff000042: 0 | # | 0xff000130:      0 | 0xff000131:      0 | 0xff000048:    0 | 0xff000049:    0 
#              | 0xff000051:    0 | 0xff000042: 0 | # | 0xff000130:      0 | 0xff000131:      0 | 0xff000048:    0 | 0xff000049:    0 
#              | 0xff000051:    0 | 0xff000042: 0 | # | 0xff000130:      0 | 0xff000131:      0 | 0xff000048:    0 | 0xff000049:    0 
#              | 0xff000051:    0 | 0xff000042: 0 | # | 0xff000130:      0 | 0xff000131:      0 | 0xff000048:    0 | 0xff000049:    0 | 0xff000056:  52984 
E: 000000.059967 44 21 01 01 01 f3 03 18 06 03 03 00 00 00 00 00 00 00 00 00 00 00 00 00 00 00 00 00 00 00 00 00 00 00 00 00 00 00 00 00 00 00 00 f8 ce
# ReportID: 33 / 0xff000054:    1 
#              | 0xff000051:    1 | 0xff000042: 1 | # | 0xff000130:   1010 | 0xff000131:   1613 | 0xff000048:    3 | 0xff000049:    3 
#              | 0xff000051:    0 | 0xff000042: 0 | # | 0xff000130:      0 | 0xff000131:      0 | 0xff000048:    0 | 0xff000049:    0 
#              | 0xff000051:    0 | 0xff000042: 0 | # | 0xff000130:      0 | 0xff000131:      0 | 0xff000048:    0 | 0xff000049:    0 
#              | 0xff000051:    0 | 0xff000042: 0 | # | 0xff000130:      0 | 0xff000131:      0 | 0xff000048:    0 | 0xff000049:    0 
#              | 0xff000051:    0 | 0xff000042: 0 | # | 0xff000130:      0 | 0xff000131:      0 | 0xff000048:    0 | 0xff000049:    0 | 0xff000056:  53084 
E: 000000.069917 44 21 01 01 01 f2 03 4d 06 03 03 00 00 00 00 00 00 00 00 00 00 00 00 00 00 00 00 00 00 00 00 00 00 00 00 00 00 00 00 00 00 00 00 5c cf
# ReportID: 33 / 0xff000054:    1 
#              | 0xff000051:    1 | 0xff000042: 1 | # | 0xff000130:   1007 | 0xff000131:   1678 | 0xff000048:    3 | 0xff000049:    3 
#              | 0xff000051:    0 | 0xff000042: 0 | # | 0xff000130:      0 | 0xff000131:      0 | 0xff000048:    0 | 0xff000049:    0 
#              | 0xff000051:    0 | 0xff000042: 0 | # | 0xff000130:      0 | 0xff000131:      0 | 0xff000048:    0 | 0xff000049:    0 
#              | 0xff000051:    0 | 0xff000042: 0 | # | 0xff000130:      0 | 0xff000131:      0 | 0xff000048:    0 | 0xff000049:    0 
#              | 0xff000051:    0 | 0xff000042: 0 | # | 0xff000130:      0 | 0xff000131:      0 | 0xff000048:    0 | 0xff000049:    0 | 0xff000056:  53184 
E: 000000.080113 44 21 01 01 01 ef 03 8e 06 03 03 00 00 00 00 00 00 00 00 00 00 00 00 00 00 00 00 00 00 00 00 00 00 00 00 00 00 00 00 00 00 00 00 c0 cf
# ReportID: 33 / 0xff000054:    1 
#              | 0xff000051:    1 | 0xff000042: 1 | # | 0xff000130:   1001 | 0xff000131:   1752 | 0xff000048:    3 | 0xff000049:    3 
#              | 0xff000051:    0 | 0xff000042: 0 | # | 0xff000130:      0 | 0xff000131:      0 | 0xff000048:    0 | 0xff000049:    0 
#              | 0xff000051:    0 | 0xff000042: 0 | # | 0xff000130:      0 | 0xff000131:      0 | 0xff000048:    0 | 0xff000049:    0 
#              | 0xff000051:    0 | 0xff000042: 0 | # | 0xff000130:      0 | 0xff000131:      0 | 0xff000048:    0 | 0xff000049:    0 
#              | 0xff000051:    0 | 0xff000042: 0 | # | 0xff000130:      0 | 0xff000131:      0 | 0xff000048:    0 | 0xff000049:    0 | 0xff000056:  53284 
E: 000000.090051 44 21 01 01 01 e9 03 d8 06 03 03 00 00 00 00 00 00 00 00 00 00 00 00 00 00 00 00 00 00 00 00 00 00 00 00 00 00 00 00 00 00 00 00 24 d0
# ReportID: 33 / 0xff000054:    1 
#              | 0xff000051:    1 | 0xff000042: 1 | # | 0xff000130:    993 | 0xff000131:   1835 | 0xff000048:    2 | 0xff000049:    3 
#              | 0xff000051:    0 | 0xff000042: 0 | # | 0xff000130:      0 | 0xff000131:      0 | 0xff000048:    0 | 0xff000049:    0 
#              | 0xff000051:    0 | 0xff000042: 0 | # | 0xff000130:      0 | 0xff000131:      0 | 0xff000048:    0 | 0xff000049:    0 
#              | 0xff000051:    0 | 0xff000042: 0 | # | 0xff000130:      0 | 0xff000131:      0 | 0xff000048:    0 | 0xff000049:    0 
#              | 0xff000051:    0 | 0xff000042: 0 | # | 0xff000130:      0 | 0xff000131:      0 | 0xff000048:    0 | 0xff000049:    0 | 0xff000056:  53384 
E: 000000.100120 44 21 01 01 01 e1 03 2b 07 02 03 00 00 00 00 00 00 00 00 00 00 00 00 00 00 00 00 00 00 00 00 00 00 00 00 00 00 00 00 00 00 00 00 88 d0
# ReportID: 33 / 0xff000054:    1 
#              | 0xff000051:    1 | 0xff000042: 1 | # | 0xff000130:    984 | 0xff000131:   1923 | 0xff000048:    3 | 0xff000049:    3 
#              | 0xff000051:    0 | 0xff000042: 0 | # | 0xff000130:      0 | 0xff000131:      0 | 0xff000048:    0 | 0xff000049:    0 
#              | 0xff000051:    0 | 0xff000042: 0 | # | 0xff000130:      0 | 0xff000131:      0 | 0xff000048:    0 | 0xff000049:    0 
#              | 0xff000051:    0 | 0xff000042: 0 | # | 0xff000130:      0 | 0xff000131:      0 | 0xff000048:    0 | 0xff000049:    0 
#              | 0xff000051:    0 | 0xff000042: 0 | # | 0xff000130:      0 | 0xff000131:      0 | 0xff000048:    0 | 0xff000049:    0 | 0xff000056:  53484 
E: 000000.109977 44 21 01 01 01 d8 03 83 07 03 03 00 00 00 00 00 00 00 00 00 00 00 00 00 00 00 00 00 00 00 00 00 00 00 00 00 00 00 00 00 00 00 00 ec d0
# ReportID: 33 / 0xff000054:    1 
#              | 0xff000051:    1 | 0xff000042: 1 | # | 0xff000130:    974 | 0xff000131:   2018 | 0xff000048:    3 | 0xff000049:    3 
#              | 0xff000051:    0 | 0xff000042: 0 | # | 0xff000130:      0 | 0xff000131:      0 | 0xff000048:    0 | 0xff000049:    0 
#              | 0xff000051:    0 | 0xff000042: 0 | # | 0xff000130:      0 | 0xff000131:      0 | 0xff000048:    0 | 0xff000049:    0 
#              | 0xff000051:    0 | 0xff000042: 0 | # | 0xff000130:      0 | 0xff000131:      0 | 0xff000048:    0 | 0xff000049:    0 
#              | 0xff000051:    0 | 0xff000042: 0 | # | 0xff000130:      0 | 0xff000131:      0 | 0xff000048:    0 | 0xff000049:    0 | 0xff000056:  53584 
E: 000000.120037 44 21 01 01 01 ce 03 e2 07 03 03 00 00 00 00 00 00 00 00 00 00 00 00 00 00 00 00 00 00 00 00 00 00 00 00 00 00 00 00 00 00 00 00 50 d1
# ReportID: 33 / 0xff000054:    1 
#              | 0xff000051:    1 | 0xff000042: 1 | # | 0xff000130:    965 | 0xff000131:   2119 | 0xff000048:    2 | 0xff000049:    3 
#              | 0xff000051:    0 | 0xff000042: 0 | # | 0xff000130:      0 | 0xff000131:      0 | 0xff000048:    0 | 0xff000049:    0 
#              | 0xff000051:    0 | 0xff000042: 0 | # | 0xff000130:      0 | 0xff000131:      0 | 0xff000048:    0 | 0xff000049:    0 
#              | 0xff000051:    0 | 0xff000042: 0 | # | 0xff000130:      0 | 0xff000131:      0 | 0xff000048:    0 | 0xff000049:    0 
#              | 0xff000051:    0 | 0xff000042: 0 | # | 0xff000130:      0 | 0xff000131:      0 | 0xff000048:    0 | 0xff000049:    0 | 0xff000056:  53684 
E: 000000.130121 44 21 01 01 01 c5 03 47 08 02 03 00 00 00 00 00 00 00 00 00 00 00 00 00 00 00 00 00 00 00 00 00 00 00 00 00 00 00 00 00 00 00 00 b4 d1
# ReportID: 33 / 0xff000054:    1 
#              | 0xff000051:    1 | 0xff000042: 1 | # | 0xff000130:    954 | 0xff000131:   2229 | 0xff000048:    3 | 0xff000049:    3 
#              | 0xff000051:    0 | 0xff000042: 0 | # | 0xff000130:      0 | 0xff000131:      0 | 0xff000048:    0 | 0xff000049:    0 
#              | 0xff000051:    0 | 0xff000042: 0 | # | 0xff000130:      0 | 0xff000131:      0 | 0xff000048:    0 | 0xff000049:    0 
#              | 0xff000051:    0 | 0xff000042: 0 | # | 0xff000130:      0 | 0xff000131:      0 | 0xff000048:    0 | 0xff000049:    0 
#              | 0xff000051:    0 | 0xff000042: 0 | # | 0xff000130:      0 | 0xff000131:      0 | 0xff000048:    0 | 0xff000049:    0 | 0xff000056:  53784 
E: 000000.140036 44 21 01 01 01 ba 03 b5 08 03 03 00 00 00 00 00 00 00 00 00 00 00 00 00 00 00 00 00 00 00 00 00 00 00 00 00 00 00 00 00 00 00 00 18 d2
# ReportID: 33 / 0xff000054:    1 
#              | 0xff000051:    1 | 0xff000042: 1 | # | 0xff000130:    942 | 0xff000131:   2336 | 0xff000048:    3 | 0xff000049:    3 
#              | 0xff000051:    0 | 0xff000042: 0 | # | 0xff000130:      0 | 0xff000131:      0 | 0xff000048:    0 | 0xff000049:    0 
#              | 0xff000051:    0 | 0xff000042: 0 | # | 0xff000130:      0 | 0xff000131:      0 | 0xff000048:    0 | 0xff000049:    0 
#              | 0xff000051:    0 | 0xff000042: 0 | # | 0xff000130:      0 | 0xff000131:      0 | 0xff000048:    0 | 0xff000049:    0 
#              | 0xff000051:    0 | 0xff000042: 0 | # | 0xff000130:      0 | 0xff000131:      0 | 0xff000048:    0 | 0xff000049:    0 | 0xff000056:  53884 
E: 000000.150040 44 21 01 01 01 ae 03 20 09 03 03 00 00 00 00 00 00 00 00 00 00 00 00 00 00 00 00 00 00 00 00 00 00 00 00 00 00 00 00 00 00 00 00 7c d2
# ReportID: 33 / 0xff000054:    1 
#              | 0xff000051:    1 | 0xff000042: 1 | # | 0xff000130:    931 | 0xff000131:   2452 | 0xff000048:    3 | 0xff000049:    3 
#              | 0xff000051:    0 | 0xff000042: 0 | # | 0xff000130:      0 | 0xff000131:      0 | 0xff000048:    0 | 0xff000049:    0 
#              | 0xff000051:    0 | 0xff000042: 0 | # | 0xff000130:      0 | 0xff000131:      0 | 0xff000048:    0 | 0xff000049:    0 
#              | 0xff000051:    0 | 0xff000042: 0 | # | 0xff000130:      0 | 0xff000131:      0 | 0xff000048:    0 | 0xff000049:    0 
#              | 0xff000051:    0 | 0xff000042: 0 | # | 0xff000130:      0 | 0xff000131:      0 | 0xff000048:    0 | 0xff000049:    0 | 0xff000056:  53984 
E: 000000.160041 44 21 01 01 01 a3 03 94 09 03 03 00 00 00 00 00 00 00 00 00 00 00 00 00 00 00 00 00 00 00 00 00 00 00 00 00 00 00 00 00 00 00 00 e0 d2
# ReportID: 33 / 0xff000054:    1 
#              | 0xff000051:    1 | 0xff000042: 1 | # | 0xff000130:    921 | 0xff000131:   2575 | 0xff000048:    3 | 0xff000049:    3 
#              | 0xff000051:    0 | 0xff000042: 0 | # | 0xff000130:      0 | 0xff000131:      0 | 0xff000048:    0 | 0xff000049:    0 
#              | 0xff000051:    0 | 0xff000042: 0 | # | 0xff000130:      0 | 0xff000131:      0 | 0xff000048:    0 | 0xff000049:    0 
#              | 0xff000051:    0 | 0xff000042: 0 | # | 0xff000130:      0 | 0xff000131:      0 | 0xff000048:    0 | 0xff000049:    0 
#              | 0xff000051:    0 | 0xff000042: 0 | # | 0xff000130:      0 | 0xff000131:      0 | 0xff000048:    0 | 0xff000049:    0 | 0xff000056:  54084 
E: 000000.170030 44 21 01 01 01 99 03 0f 0a 03 03 00 00 00 00 00 00 00 00 00 00 00 00 00 00 00 00 00 00 00 00 00 00 00 00 00 00 00 00 00 00 00 00 44 d3
# ReportID: 33 / 0xff000054:    1 
#              | 0xff000051:    1 | 0xff000042: 1 | # | 0xff000130:    911 | 0xff000131:   2703 | 0xff000048:    3 | 0xff000049:    3 
#              | 0xff000051:    0 | 0xff000042: 0 | # | 0xff000130:      0 | 0xff000131:      0 | 0xff000048:    0 | 0xff000049:    0 
#              | 0xff000051:    0 | 0xff000042: 0 | # | 0xff000130:      0 | 0xff000131:      0 | 0xff000048:    0 | 0xff000049:    0 
#              | 0xff000051:    0 | 0xff000042: 0 | # | 0xff000130:      0 | 0xff000131:      0 | 0xff000048:    0 | 0xff000049:    0 
#              | 0xff000051:    0 | 0xff000042: 0 | # | 0xff000130:      0 | 0xff000131:      0 | 0xff000048:    0 | 0xff000049:    0 | 0xff000056:  54184 
E: 000000.180055 44 21 01 01 01 8f 03 8f 0a 03 03 00 00 00 00 00 00 00 00 00 00 00 00 00 00 00 00 00 00 00 00 00 00 00 00 00 00 00 00 00 00 00 00 a8 d3
# ReportID: 33 / 0xff000054:    1 
#              | 0xff000051:    1 | 0xff000042: 1 | # | 0xff000130:    900 | 0xff000131:   2842 | 0xff000048:    3 | 0xff000049:    3 
#              | 0xff000051:    0 | 0xff000042: 0 | # | 0xff000130:      0 | 0xff000131:      0 | 0xff000048:    0 | 0xff000049:    0 
#              | 0xff000051:    0 | 0xff000042: 0 | # | 0xff000130:      0 | 0xff000131:      0 | 0xff000048:    0 | 0xff000049:    0 
#              | 0xff000051:    0 | 0xff000042: 0 | # | 0xff000130:      0 | 0xff000131:      0 | 0xff000048:    0 | 0xff000049:    0 
#              | 0xff000051:    0 | 0xff000042: 0 | # | 0xff000130:      0 | 0xff000131:      0 | 0xff000048:    0 | 0xff000049:    0 | 0xff000056:  54284 
E: 000000.190136 44 21 01 01 01 84 03 1a 0b 03 03 00 00 00 00 00 00 00 00 00 00 00 00 00 00 00 00 00 00 00 00 00 00 00 00 00 00 00 00 00 00 00 00 0c d4
# ReportID: 33 / 0xff000054:    1 
#              | 0xff000051:    1 | 0xff000042: 1 | # | 0xff000130:    899 | 0xff000131:   2970 | 0xff000048:    3 | 0xff000049:    3 
#              | 0xff000051:    0 | 0xff000042: 0 | # | 0xff000130:      0 | 0xff000131:      0 | 0xff000048:    0 | 0xff000049:    0 
#              | 0xff000051:    0 | 0xff000042: 0 | # | 0xff000130:      0 | 0xff000131:      0 | 0xff000048:    0 | 0xff000049:    0 
#              | 0xff000051:    0 | 0xff000042: 0 | # | 0xff000130:      0 | 0xff000131:      0 | 0xff000048:    0 | 0xff000049:    0 
#              | 0xff000051:    0 | 0xff000042: 0 | # | 0xff000130:      0 | 0xff000131:      0 | 0xff000048:    0 | 0xff000049:    0 | 0xff000056:  54384 
E: 000000.200094 44 21 01 01 01 83 03 9a 0b 03 03 00 00 00 00 00 00 00 00 00 00 00 00 00 00 00 00 00 00 00 00 00 00 00 00 00 00 00 00 00 00 00 00 70 d4
# ReportID: 33 / 0xff000054:    1 
#              | 0xff000051:    1 | 0xff000042: 1 | # | 0xff000130:    897 | 0xff000131:   3101 | 0xff000048:    3 | 0xff000049:    3 
#              | 0xff000051:    0 | 0xff000042: 0 | # | 0xff000130:      0 | 0xff000131:      0 | 0xff000048:    0 | 0xff000049:    0 
#              | 0xff000051:    0 | 0xff000042: 0 | # | 0xff000130:      0 | 0xff000131:      0 | 0xff000048:    0 | 0xff000049:    0 
#              | 0xff000051:    0 | 0xff000042: 0 | # | 0xff000130:      0 | 0xff000131:      0 | 0xff000048:    0 | 0xff000049:    0 
#              | 0xff000051:    0 | 0xff000042: 0 | # | 0xff000130:      0 | 0xff000131:      0 | 0xff000048:    0 | 0xff000049:    0 | 0xff000056:  54484 
E: 000000.210121 44 21 01 01 01 81 03 1d 0c 03 03 00 00 00 00 00 00 00 00 00 00 00 00 00 00 00 00 00 00 00 00 00 00 00 00 00 00 00 00 00 00 00 00 d4 d4
# ReportID: 33 / 0xff000054:    1 
#              | 0xff000051:    1 | 0xff000042: 1 | # | 0xff000130:    893 | 0xff000131:   3245 | 0xff000048:    3 | 0xff000049:    3 
#              | 0xff000051:    0 | 0xff000042: 0 | # | 0xff000130:      0 | 0xff000131:      0 | 0xff000048:    0 | 0xff000049:    0 
#              | 0xff000051:    0 | 0xff000042: 0 | # | 0xff000130:      0 | 0xff000131:      0 | 0xff000048:    0 | 0xff000049:    0 
#              | 0xff000051:    0 | 0xff000042: 0 | # | 0xff000130:      0 | 0xff000131:      0 | 0xff000048:    0 | 0xff000049:    0 
#              | 0xff000051:    0 | 0xff000042: 0 | # | 0xff000130:      0 | 0xff000131:      0 | 0xff000048:    0 | 0xff000049:    0 | 0xff000056:  54584 
E: 000000.223047 44 21 01 01 01 7d 03 ad 0c 03 03 00 00 00 00 00 00 00 00 00 00 00 00 00 00 00 00 00 00 00 00 00 00 00 00 00 00 00 00 00 00 00 00 38 d5
# ReportID: 33 / 0xff000054:    1 
#              | 0xff000051:    1 | 0xff000042: 1 | # | 0xff000130:    894 | 0xff000131:   3390 | 0xff000048:    3 | 0xff000049:    3 
#              | 0xff000051:    0 | 0xff000042: 0 | # | 0xff000130:      0 | 0xff000131:      0 | 0xff000048:    0 | 0xff000049:    0 
#              | 0xff000051:    0 | 0xff000042: 0 | # | 0xff000130:      0 | 0xff000131:      0 | 0xff000048:    0 | 0xff000049:    0 
#              | 0xff000051:    0 | 0xff000042: 0 | # | 0xff000130:      0 | 0xff000131:      0 | 0xff000048:    0 | 0xff000049:    0 
#              | 0xff000051:    0 | 0xff000042: 0 | # | 0xff000130:      0 | 0xff000131:      0 | 0xff000048:    0 | 0xff000049:    0 | 0xff000056:  54684 
E: 000000.230128 44 21 01 01 01 7e 03 3e 0d 03 03 00 00 00 00 00 00 00 00 00 00 00 00 00 00 00 00 00 00 00 00 00 00 00 00 00 00 00 00 00 00 00 00 9c d5
# ReportID: 33 / 0xff000054:    1 
#              | 0xff000051:    1 | 0xff000042: 1 | # | 0xff000130:    903 | 0xff000131:   3533 | 0xff000048:    3 | 0xff000049:    3 
#              | 0xff000051:    0 | 0xff000042: 0 | # | 0xff000130:      0 | 0xff000131:      0 | 0xff000048:    0 | 0xff000049:    0 
#              | 0xff000051:    0 | 0xff000042: 0 | # | 0xff000130:      0 | 0xff000131:      0 | 0xff000048:    0 | 0xff000049:    0 
#              | 0xff000051:    0 | 0xff000042: 0 | # | 0xff000130:      0 | 0xff000131:      0 | 0xff000048:    0 | 0xff000049:    0 
#              | 0xff000051:    0 | 0xff000042: 0 | # | 0xff000130:      0 | 0xff000131:      0 | 0xff000048:    0 | 0xff000049:    0 | 0xff000056:  54784 
E: 000000.243041 44 21 01 01 01 87 03 cd 0d 03 03 00 00 00 00 00 00 00 00 00 00 00 00 00 00 00 00 00 00 00 00 00 00 00 00 00 00 00 00 00 00 00 00 00 d6
# ReportID: 33 / 0xff000054:    1 
#              | 0xff000051:    1 | 0xff000042: 1 | # | 0xff000130:    909 | 0xff000131:   3667 | 0xff000048:    3 | 0xff000049:    3 
#              | 0xff000051:    0 | 0xff000042: 0 | # | 0xff000130:      0 | 0xff000131:      0 | 0xff000048:    0 | 0xff000049:    0 
#              | 0xff000051:    0 | 0xff000042: 0 | # | 0xff000130:      0 | 0xff000131:      0 | 0xff000048:    0 | 0xff000049:    0 
#              | 0xff000051:    0 | 0xff000042: 0 | # | 0xff000130:      0 | 0xff000131:      0 | 0xff000048:    0 | 0xff000049:    0 
#              | 0xff000051:    0 | 0xff000042: 0 | # | 0xff000130:      0 | 0xff000131:      0 | 0xff000048:    0 | 0xff000049:    0 | 0xff000056:  54884 
E: 000000.252990 44 21 01 01 01 8d 03 53 0e 03 03 00 00 00 00 00 00 00 00 00 00 00 00 00 00 00 00 00 00 00 00 00 00 00 00 00 00 00 00 00 00 00 00 64 d6
# ReportID: 33 / 0xff000054:    1 
#              | 0xff000051:    1 | 0xff000042: 1 | # | 0xff000130:    916 | 0xff000131:   3803 | 0xff000048:    3 | 0xff000049:    3 
#              | 0xff000051:    0 | 0xff000042: 0 | # | 0xff000130:      0 | 0xff000131:      0 | 0xff000048:    0 | 0xff000049:    0 
#              | 0xff000051:    0 | 0xff000042: 0 | # | 0xff000130:      0 | 0xff000131:      0 | 0xff000048:    0 | 0xff000049:    0 
#              | 0xff000051:    0 | 0xff000042: 0 | # | 0xff000130:      0 | 0xff000131:      0 | 0xff000048:    0 | 0xff000049:    0 
#              | 0xff000051:    0 | 0xff000042: 0 | # | 0xff000130:      0 | 0xff000131:      0 | 0xff000048:    0 | 0xff000049:    0 | 0xff000056:  54984 
E: 000000.263035 44 21 01 01 01 94 03 db 0e 03 03 00 00 00 00 00 00 00 00 00 00 00 00 00 00 00 00 00 00 00 00 00 00 00 00 00 00 00 00 00 00 00 00 c8 d6
# ReportID: 33 / 0xff000054:    1 
#              | 0xff000051:    1 | 0xff000042: 1 | # | 0xff000130:    923 | 0xff000131:   3936 | 0xff000048:    3 | 0xff000049:    3 
#              | 0xff000051:    0 | 0xff000042: 0 | # | 0xff000130:      0 | 0xff000131:      0 | 0xff000048:    0 | 0xff000049:    0 
#              | 0xff000051:    0 | 0xff000042: 0 | # | 0xff000130:      0 | 0xff000131:      0 | 0xff000048:    0 | 0xff000049:    0 
#              | 0xff000051:    0 | 0xff000042: 0 | # | 0xff000130:      0 | 0xff000131:      0 | 0xff000048:    0 | 0xff000049:    0 
#              | 0xff000051:    0 | 0xff000042: 0 | # | 0xff000130:      0 | 0xff000131:      0 | 0xff000048:    0 | 0xff000049:    0 | 0xff000056:  55084 
E: 000000.273042 44 21 01 01 01 9b 03 60 0f 03 03 00 00 00 00 00 00 00 00 00 00 00 00 00 00 00 00 00 00 00 00 00 00 00 00 00 00 00 00 00 00 00 00 2c d7
# ReportID: 33 / 0xff000054:    1 
#              | 0xff000051:    1 | 0xff000042: 1 | # | 0xff000130:    928 | 0xff000131:   4054 | 0xff000048:    3 | 0xff000049:    3 
#              | 0xff000051:    0 | 0xff000042: 0 | # | 0xff000130:      0 | 0xff000131:      0 | 0xff000048:    0 | 0xff000049:    0 
#              | 0xff000051:    0 | 0xff000042: 0 | # | 0xff000130:      0 | 0xff000131:      0 | 0xff000048:    0 | 0xff000049:    0 
#              | 0xff000051:    0 | 0xff000042: 0 | # | 0xff000130:      0 | 0xff000131:      0 | 0xff000048:    0 | 0xff000049:    0 
#              | 0xff000051:    0 | 0xff000042: 0 | # | 0xff000130:      0 | 0xff000131:      0 | 0xff000048:    0 | 0xff000049:    0 | 0xff000056:  55184 
E: 000000.283046 44 21 01 01 01 a0 03 d6 0f 03 03 00 00 00 00 00 00 00 00 00 00 00 00 00 00 00 00 00 00 00 00 00 00 00 00 00 00 00 00 00 00 00 00 90 d7
# ReportID: 33 / 0xff000054:    1 
#              | 0xff000051:    1 | 0xff000042: 1 | # | 0xff000130:    931 | 0xff000131:   4168 | 0xff000048:    3 | 0xff000049:    3 
#              | 0xff000051:    0 | 0xff000042: 0 | # | 0xff000130:      0 | 0xff000131:      0 | 0xff000048:    0 | 0xff000049:    0 
#              | 0xff000051:    0 | 0xff000042: 0 | # | 0xff000130:      0 | 0xff000131:      0 | 0xff000048:    0 | 0xff000049:    0 
#              | 0xff000051:    0 | 0xff000042: 0 | # | 0xff000130:      0 | 0xff000131:      0 | 0xff000048:    0 | 0xff000049:    0 
#              | 0xff000051:    0 | 0xff000042: 0 | # | 0xff000130:      0 | 0xff000131:      0 | 0xff000048:    0 | 0xff000049:    0 | 0xff000056:  55284 
E: 000000.293114 44 21 01 01 01 a3 03 48 10 03 03 00 00 00 00 00 00 00 00 00 00 00 00 00 00 00 00 00 00 00 00 00 00 00 00 00 00 00 00 00 00 00 00 f4 d7
# ReportID: 33 / 0xff000054:    1 
#              | 0xff000051:    1 | 0xff000042: 1 | # | 0xff000130:    935 | 0xff000131:   4278 | 0xff000048:    2 | 0xff000049:    3 
#              | 0xff000051:    0 | 0xff000042: 0 | # | 0xff000130:      0 | 0xff000131:      0 | 0xff000048:    0 | 0xff000049:    0 
#              | 0xff000051:    0 | 0xff000042: 0 | # | 0xff000130:      0 | 0xff000131:      0 | 0xff000048:    0 | 0xff000049:    0 
#              | 0xff000051:    0 | 0xff000042: 0 | # | 0xff000130:      0 | 0xff000131:      0 | 0xff000048:    0 | 0xff000049:    0 
#              | 0xff000051:    0 | 0xff000042: 0 | # | 0xff000130:      0 | 0xff000131:      0 | 0xff000048:    0 | 0xff000049:    0 | 0xff000056:  55384 
E: 000000.303113 44 21 01 01 01 a7 03 b6 10 02 03 00 00 00 00 00 00 00 00 00 00 00 00 00 00 00 00 00 00 00 00 00 00 00 00 00 00 00 00 00 00 00 00 58 d8
# ReportID: 33 / 0xff000054:    1 
#              | 0xff000051:    1 | 0xff000042: 1 | # | 0xff000130:    937 | 0xff000131:   4380 | 0xff000048:    2 | 0xff000049:    3 
#              | 0xff000051:    0 | 0xff000042: 0 | # | 0xff000130:      0 | 0xff000131:      0 | 0xff000048:    0 | 0xff000049:    0 
#              | 0xff000051:    0 | 0xff000042: 0 | # | 0xff000130:      0 | 0xff000131:      0 | 0xff000048:    0 | 0xff000049:    0 
#              | 0xff000051:    0 | 0xff000042: 0 | # | 0xff000130:      0 | 0xff000131:      0 | 0xff000048:    0 | 0xff000049:    0 
#              | 0xff000051:    0 | 0xff000042: 0 | # | 0xff000130:      0 | 0xff000131:      0 | 0xff000048:    0 | 0xff000049:    0 | 0xff000056:  55484 
E: 000000.313046 44 21 01 01 01 a9 03 1c 11 02 03 00 00 00 00 00 00 00 00 00 00 00 00 00 00 00 00 00 00 00 00 00 00 00 00 00 00 00 00 00 00 00 00 bc d8
# ReportID: 33 / 0xff000054:    1 
#              | 0xff000051:    1 | 0xff000042: 1 | # | 0xff000130:    938 | 0xff000131:   4482 | 0xff000048:    2 | 0xff000049:    3 
#              | 0xff000051:    0 | 0xff000042: 0 | # | 0xff000130:      0 | 0xff000131:      0 | 0xff000048:    0 | 0xff000049:    0 
#              | 0xff000051:    0 | 0xff000042: 0 | # | 0xff000130:      0 | 0xff000131:      0 | 0xff000048:    0 | 0xff000049:    0 
#              | 0xff000051:    0 | 0xff000042: 0 | # | 0xff000130:      0 | 0xff000131:      0 | 0xff000048:    0 | 0xff000049:    0 
#              | 0xff000051:    0 | 0xff000042: 0 | # | 0xff000130:      0 | 0xff000131:      0 | 0xff000048:    0 | 0xff000049:    0 | 0xff000056:  55584 
E: 000000.322998 44 21 01 01 01 aa 03 82 11 02 03 00 00 00 00 00 00 00 00 00 00 00 00 00 00 00 00 00 00 00 00 00 00 00 00 00 00 00 00 00 00 00 00 20 d9
# ReportID: 33 / 0xff000054:    1 
#              | 0xff000051:    1 | 0xff000042: 1 | # | 0xff000130:    938 | 0xff000131:   4579 | 0xff000048:    2 | 0xff000049:    3 
#              | 0xff000051:    0 | 0xff000042: 0 | # | 0xff000130:      0 | 0xff000131:      0 | 0xff000048:    0 | 0xff000049:    0 
#              | 0xff000051:    0 | 0xff000042: 0 | # | 0xff000130:      0 | 0xff000131:      0 | 0xff000048:    0 | 0xff000049:    0 
#              | 0xff000051:    0 | 0xff000042: 0 | # | 0xff000130:      0 | 0xff000131:      0 | 0xff000048:    0 | 0xff000049:    0 
#              | 0xff000051:    0 | 0xff000042: 0 | # | 0xff000130:      0 | 0xff000131:      0 | 0xff000048:    0 | 0xff000049:    0 | 0xff000056:  55684 
E: 000000.333008 44 21 01 01 01 aa 03 e3 11 02 03 00 00 00 00 00 00 00 00 00 00 00 00 00 00 00 00 00 00 00 00 00 00 00 00 00 00 00 00 00 00 00 00 84 d9
# ReportID: 33 / 0xff000054:    1 
#              | 0xff000051:    1 | 0xff000042: 1 | # | 0xff000130:    938 | 0xff000131:   4667 | 0xff000048:    2 | 0xff000049:    3 
#              | 0xff000051:    0 | 0xff000042: 0 | # | 0xff000130:      0 | 0xff000131:      0 | 0xff000048:    0 | 0xff000049:    0 
#              | 0xff000051:    0 | 0xff000042: 0 | # | 0xff000130:      0 | 0xff000131:      0 | 0xff000048:    0 | 0xff000049:    0 
#              | 0xff000051:    0 | 0xff000042: 0 | # | 0xff000130:      0 | 0xff000131:      0 | 0xff000048:    0 | 0xff000049:    0 
#              | 0xff000051:    0 | 0xff000042: 0 | # | 0xff000130:      0 | 0xff000131:      0 | 0xff000048:    0 | 0xff000049:    0 | 0xff000056:  55784 
E: 000000.342891 44 21 01 01 01 aa 03 3b 12 02 03 00 00 00 00 00 00 00 00 00 00 00 00 00 00 00 00 00 00 00 00 00 00 00 00 00 00 00 00 00 00 00 00 e8 d9
# ReportID: 33 / 0xff000054:    1 
#              | 0xff000051:    1 | 0xff000042: 1 | # | 0xff000130:    939 | 0xff000131:   4746 | 0xff000048:    2 | 0xff000049:    3 
#              | 0xff000051:    0 | 0xff000042: 0 | # | 0xff000130:      0 | 0xff000131:      0 | 0xff000048:    0 | 0xff000049:    0 
#              | 0xff000051:    0 | 0xff000042: 0 | # | 0xff000130:      0 | 0xff000131:      0 | 0xff000048:    0 | 0xff000049:    0 
#              | 0xff000051:    0 | 0xff000042: 0 | # | 0xff000130:      0 | 0xff000131:      0 | 0xff000048:    0 | 0xff000049:    0 
#              | 0xff000051:    0 | 0xff000042: 0 | # | 0xff000130:      0 | 0xff000131:      0 | 0xff000048:    0 | 0xff000049:    0 | 0xff000056:  55884 
E: 000000.352978 44 21 01 01 01 ab 03 8a 12 02 03 00 00 00 00 00 00 00 00 00 00 00 00 00 00 00 00 00 00 00 00 00 00 00 00 00 00 00 00 00 00 00 00 4c da
# ReportID: 33 / 0xff000054:    1 
#              | 0xff000051:    1 | 0xff000042: 1 | # | 0xff000130:    939 | 0xff000131:   4818 | 0xff000048:    3 | 0xff000049:    3 
#              | 0xff000051:    0 | 0xff000042: 0 | # | 0xff000130:      0 | 0xff000131:      0 | 0xff000048:    0 | 0xff000049:    0 
#              | 0xff000051:    0 | 0xff000042: 0 | # | 0xff000130:      0 | 0xff000131:      0 | 0xff000048:    0 | 0xff000049:    0 
#              | 0xff000051:    0 | 0xff000042: 0 | # | 0xff000130:      0 | 0xff000131:      0 | 0xff000048:    0 | 0xff000049:    0 
#              | 0xff000051:    0 | 0xff000042: 0 | # | 0xff000130:      0 | 0xff000131:      0 | 0xff000048:    0 | 0xff000049:    0 | 0xff000056:  55984 
E: 000000.362905 44 21 01 01 01 ab 03 d2 12 03 03 00 00 00 00 00 00 00 00 00 00 00 00 00 00 00 00 00 00 00 00 00 00 00 00 00 00 00 00 00 00 00 00 b0 da
# ReportID: 33 / 0xff000054:    1 
#              | 0xff000051:    1 | 0xff000042: 1 | # | 0xff000130:    938 | 0xff000131:   4886 | 0xff000048:    3 | 0xff000049:    3 
#              | 0xff000051:    0 | 0xff000042: 0 | # | 0xff000130:      0 | 0xff000131:      0 | 0xff000048:    0 | 0xff000049:    0 
#              | 0xff000051:    0 | 0xff000042: 0 | # | 0xff000130:      0 | 0xff000131:      0 | 0xff000048:    0 | 0xff000049:    0 
#              | 0xff000051:    0 | 0xff000042: 0 | # | 0xff000130:      0 | 0xff000131:      0 | 0xff000048:    0 | 0xff000049:    0 
#              | 0xff000051:    0 | 0xff000042: 0 | # | 0xff000130:      0 | 0xff000131:      0 | 0xff000048:    0 | 0xff000049:    0 | 0xff000056:  56084 
E: 000000.372878 44 21 01 01 01 aa 03 16 13 03 03 00 00 00 00 00 00 00 00 00 00 00 00 00 00 00 00 00 00 00 00 00 00 00 00 00 00 00 00 00 00 00 00 14 db
# ReportID: 33 / 0xff000054:    1 
#              | 0xff000051:    1 | 0xff000042: 1 | # | 0xff000130:    938 | 0xff000131:   4945 | 0xff000048:    3 | 0xff000049:    3 
#              | 0xff000051:    0 | 0xff000042: 0 | # | 0xff000130:      0 | 0xff000131:      0 | 0xff000048:    0 | 0xff000049:    0 
#              | 0xff000051:    0 | 0xff000042: 0 | # | 0xff000130:      0 | 0xff000131:      0 | 0xff000048:    0 | 0xff000049:    0 
#              | 0xff000051:    0 | 0xff000042: 0 | # | 0xff000130:      0 | 0xff000131:      0 | 0xff000048:    0 | 0xff000049:    0 
#              | 0xff000051:    0 | 0xff000042: 0 | # | 0xff000130:      0 | 0xff000131:      0 | 0xff000048:    0 | 0xff000049:    0 | 0xff000056:  56184 
E: 000000.382863 44 21 01 01 01 aa 03 51 13 03 03 00 00 00 00 00 00 00 00 00 00 00 00 00 00 00 00 00 00 00 00 00 00 00 00 00 00 00 00 00 00 00 00 78 db
# ReportID: 33 / 0xff000054:    1 
#              | 0xff000051:    1 | 0xff000042: 1 | # | 0xff000130:    938 | 0xff000131:   5001 | 0xff000048:    3 | 0xff000049:    3 
#              | 0xff000051:    0 | 0xff000042: 0 | # | 0xff000130:      0 | 0xff000131:      0 | 0xff000048:    0 | 0xff000049:    0 
#              | 0xff000051:    0 | 0xff000042: 0 | # | 0xff000130:      0 | 0xff000131:      0 | 0xff000048:    0 | 0xff000049:    0 
#              | 0xff000051:    0 | 0xff000042: 0 | # | 0xff000130:      0 | 0xff000131:      0 | 0xff000048:    0 | 0xff000049:    0 
#              | 0xff000051:    0 | 0xff000042: 0 | # | 0xff000130:      0 | 0xff000131:      0 | 0xff000048:    0 | 0xff000049:    0 | 0xff000056:  56284 
E: 000000.392883 44 21 01 01 01 aa 03 89 13 03 03 00 00 00 00 00 00 00 00 00 00 00 00 00 00 00 00 00 00 00 00 00 00 00 00 00 00 00 00 00 00 00 00 dc db
# ReportID: 33 / 0xff000054:    1 
#              | 0xff000051:    1 | 0xff000042: 1 | # | 0xff000130:    938 | 0xff000131:   5051 | 0xff000048:    3 | 0xff000049:    3 
#              | 0xff000051:    0 | 0xff000042: 0 | # | 0xff000130:      0 | 0xff000131:      0 | 0xff000048:    0 | 0xff000049:    0 
#              | 0xff000051:    0 | 0xff000042: 0 | # | 0xff000130:      0 | 0xff000131:      0 | 0xff000048:    0 | 0xff000049:    0 
#              | 0xff000051:    0 | 0xff000042: 0 | # | 0xff000130:      0 | 0xff000131:      0 | 0xff000048:    0 | 0xff000049:    0 
#              | 0xff000051:    0 | 0xff000042: 0 | # | 0xff000130:      0 | 0xff000131:      0 | 0xff000048:    0 | 0xff000049:    0 | 0xff000056:  56384 
E: 000000.402950 44 21 01 01 01 aa 03 bb 13 03 03 00 00 00 00 00 00 00 00 00 00 00 00 00 00 00 00 00 00 00 00 00 00 00 00 00 00 00 00 00 00 00 00 40 dc
# ReportID: 33 / 0xff000054:    1 
#              | 0xff000051:    1 | 0xff000042: 1 | # | 0xff000130:    940 | 0xff000131:   5094 | 0xff000048:    3 | 0xff000049:    3 
#              | 0xff000051:    0 | 0xff000042: 0 | # | 0xff000130:      0 | 0xff000131:      0 | 0xff000048:    0 | 0xff000049:    0 
#              | 0xff000051:    0 | 0xff000042: 0 | # | 0xff000130:      0 | 0xff000131:      0 | 0xff000048:    0 | 0xff000049:    0 
#              | 0xff000051:    0 | 0xff000042: 0 | # | 0xff000130:      0 | 0xff000131:      0 | 0xff000048:    0 | 0xff000049:    0 
#              | 0xff000051:    0 | 0xff000042: 0 | # | 0xff000130:      0 | 0xff000131:      0 | 0xff000048:    0 | 0xff000049:    0 | 0xff000056:  56484 
E: 000000.412905 44 21 01 01 01 ac 03 e6 13 03 03 00 00 00 00 00 00 00 00 00 00 00 00 00 00 00 00 00 00 00 00 00 00 00 00 00 00 00 00 00 00 00 00 a4 dc
# ReportID: 33 / 0xff000054:    1 
#              | 0xff000051:    1 | 0xff000042: 1 | # | 0xff000130:    942 | 0xff000131:   5128 | 0xff000048:    2 | 0xff000049:    3 
#              | 0xff000051:    0 | 0xff000042: 0 | # | 0xff000130:      0 | 0xff000131:      0 | 0xff000048:    0 | 0xff000049:    0 
#              | 0xff000051:    0 | 0xff000042: 0 | # | 0xff000130:      0 | 0xff000131:      0 | 0xff000048:    0 | 0xff000049:    0 
#              | 0xff000051:    0 | 0xff000042: 0 | # | 0xff000130:      0 | 0xff000131:      0 | 0xff000048:    0 | 0xff000049:    0 
#              | 0xff000051:    0 | 0xff000042: 0 | # | 0xff000130:      0 | 0xff000131:      0 | 0xff000048:    0 | 0xff000049:    0 | 0xff000056:  56584 
E: 000000.423120 44 21 01 01 01 ae 03 08 14 02 03 00 00 00 00 00 00 00 00 00 00 00 00 00 00 00 00 00 00 00 00 00 00 00 00 00 00 00 00 00 00 00 00 08 dd
# ReportID: 33 / 0xff000054:    1 
#              | 0xff000051:    1 | 0xff000042: 1 | # | 0xff000130:    945 | 0xff000131:   5160 | 0xff000048:    2 | 0xff000049:    3 
#              | 0xff000051:    0 | 0xff000042: 0 | # | 0xff000130:      0 | 0xff000131:      0 | 0xff000048:    0 | 0xff000049:    0 
#              | 0xff000051:    0 | 0xff000042: 0 | # | 0xff000130:      0 | 0xff000131:      0 | 0xff000048:    0 | 0xff000049:    0 
#              | 0xff000051:    0 | 0xff000042: 0 | # | 0xff000130:      0 | 0xff000131:      0 | 0xff000048:    0 | 0xff000049:    0 
#              | 0xff000051:    0 | 0xff000042: 0 | # | 0xff000130:      0 | 0xff000131:      0 | 0xff000048:    0 | 0xff000049:    0 | 0xff000056:  56684 
E: 000000.433133 44 21 01 01 01 b1 03 28 14 02 03 00 00 00 00 00 00 00 00 00 00 00 00 00 00 00 00 00 00 00 00 00 00 00 00 00 00 00 00 00 00 00 00 6c dd
# ReportID: 33 / 0xff000054:    1 
#              | 0xff000051:    1 | 0xff000042: 1 | # | 0xff000130:    949 | 0xff000131:   5186 | 0xff000048:    3 | 0xff000049:    3 
#              | 0xff000051:    0 | 0xff000042: 0 | # | 0xff000130:      0 | 0xff000131:      0 | 0xff000048:    0 | 0xff000049:    0 
#              | 0xff000051:    0 | 0xff000042: 0 | # | 0xff000130:      0 | 0xff000131:      0 | 0xff000048:    0 | 0xff000049:    0 
#              | 0xff000051:    0 | 0xff000042: 0 | # | 0xff000130:      0 | 0xff000131:      0 | 0xff000048:    0 | 0xff000049:    0 
#              | 0xff000051:    0 | 0xff000042: 0 | # | 0xff000130:      0 | 0xff000131:      0 | 0xff000048:    0 | 0xff000049:    0 | 0xff000056:  56784 
E: 000000.442880 44 21 01 01 01 b5 03 42 14 03 03 00 00 00 00 00 00 00 00 00 00 00 00 00 00 00 00 00 00 00 00 00 00 00 00 00 00 00 00 00 00 00 00 d0 dd
# ReportID: 33 / 0xff000054:    1 
#              | 0xff000051:    1 | 0xff000042: 1 | # | 0xff000130:    950 | 0xff000131:   5208 | 0xff000048:    3 | 0xff000049:    3 
#              | 0xff000051:    0 | 0xff000042: 0 | # | 0xff000130:      0 | 0xff000131:      0 | 0xff000048:    0 | 0xff000049:    0 
#              | 0xff000051:    0 | 0xff000042: 0 | # | 0xff000130:      0 | 0xff000131:      0 | 0xff000048:    0 | 0xff000049:    0 
#              | 0xff000051:    0 | 0xff000042: 0 | # | 0xff000130:      0 | 0xff000131:      0 | 0xff000048:    0 | 0xff000049:    0 
#              | 0xff000051:    0 | 0xff000042: 0 | # | 0xff000130:      0 | 0xff000131:      0 | 0xff000048:    0 | 0xff000049:    0 | 0xff000056:  56884 
E: 000000.452868 44 21 01 01 01 b6 03 58 14 03 03 00 00 00 00 00 00 00 00 00 00 00 00 00 00 00 00 00 00 00 00 00 00 00 00 00 00 00 00 00 00 00 00 34 de
# ReportID: 33 / 0xff000054:    1 
#              | 0xff000051:    1 | 0xff000042: 1 | # | 0xff000130:    952 | 0xff000131:   5222 | 0xff000048:    3 | 0xff000049:    3 
#              | 0xff000051:    0 | 0xff000042: 0 | # | 0xff000130:      0 | 0xff000131:      0 | 0xff000048:    0 | 0xff000049:    0 
#              | 0xff000051:    0 | 0xff000042: 0 | # | 0xff000130:      0 | 0xff000131:      0 | 0xff000048:    0 | 0xff000049:    0 
#              | 0xff000051:    0 | 0xff000042: 0 | # | 0xff000130:      0 | 0xff000131:      0 | 0xff000048:    0 | 0xff000049:    0 
#              | 0xff000051:    0 | 0xff000042: 0 | # | 0xff000130:      0 | 0xff000131:      0 | 0xff000048:    0 | 0xff000049:    0 | 0xff000056:  56984 
E: 000000.462874 44 21 01 01 01 b8 03 66 14 03 03 00 00 00 00 00 00 00 00 00 00 00 00 00 00 00 00 00 00 00 00 00 00 00 00 00 00 00 00 00 00 00 00 98 de
# ReportID: 33 / 0xff000054:    1 
#              | 0xff000051:    1 | 0xff000042: 1 | # | 0xff000130:    953 | 0xff000131:   5232 | 0xff000048:    3 | 0xff000049:    3 
#              | 0xff000051:    0 | 0xff000042: 0 | # | 0xff000130:      0 | 0xff000131:      0 | 0xff000048:    0 | 0xff000049:    0 
#              | 0xff000051:    0 | 0xff000042: 0 | # | 0xff000130:      0 | 0xff000131:      0 | 0xff000048:    0 | 0xff000049:    0 
#              | 0xff000051:    0 | 0xff000042: 0 | # | 0xff000130:      0 | 0xff000131:      0 | 0xff000048:    0 | 0xff000049:    0 
#              | 0xff000051:    0 | 0xff000042: 0 | # | 0xff000130:      0 | 0xff000131:      0 | 0xff000048:    0 | 0xff000049:    0 | 0xff000056:  57084 
E: 000000.472860 44 21 01 01 01 b9 03 70 14 03 03 00 00 00 00 00 00 00 00 00 00 00 00 00 00 00 00 00 00 00 00 00 00 00 00 00 00 00 00 00 00 00 00 fc de
# ReportID: 33 / 0xff000054:    1 
#              | 0xff000051:    1 | 0xff000042: 1 | # | 0xff000130:    954 | 0xff000131:   5237 | 0xff000048:    3 | 0xff000049:    3 
#              | 0xff000051:    0 | 0xff000042: 0 | # | 0xff000130:      0 | 0xff000131:      0 | 0xff000048:    0 | 0xff000049:    0 
#              | 0xff000051:    0 | 0xff000042: 0 | # | 0xff000130:      0 | 0xff000131:      0 | 0xff000048:    0 | 0xff000049:    0 
#              | 0xff000051:    0 | 0xff000042: 0 | # | 0xff000130:      0 | 0xff000131:      0 | 0xff000048:    0 | 0xff000049:    0 
#              | 0xff000051:    0 | 0xff000042: 0 | # | 0xff000130:      0 | 0xff000131:      0 | 0xff000048:    0 | 0xff000049:    0 | 0xff000056:  57184 
E: 000000.482857 44 21 01 01 01 ba 03 75 14 03 03 00 00 00 00 00 00 00 00 00 00 00 00 00 00 00 00 00 00 00 00 00 00 00 00 00 00 00 00 00 00 00 00 60 df
# ReportID: 33 / 0xff000054:    1 
#              | 0xff000051:    1 | 0xff000042: 1 | # | 0xff000130:    954 | 0xff000131:   5240 | 0xff000048:    3 | 0xff000049:    3 
#              | 0xff000051:    0 | 0xff000042: 0 | # | 0xff000130:      0 | 0xff000131:      0 | 0xff000048:    0 | 0xff000049:    0 
#              | 0xff000051:    0 | 0xff000042: 0 | # | 0xff000130:      0 | 0xff000131:      0 | 0xff000048:    0 | 0xff000049:    0 
#              | 0xff000051:    0 | 0xff000042: 0 | # | 0xff000130:      0 | 0xff000131:      0 | 0xff000048:    0 | 0xff000049:    0 
#              | 0xff000051:    0 | 0xff000042: 0 | # | 0xff000130:      0 | 0xff000131:      0 | 0xff000048:    0 | 0xff000049:    0 | 0xff000056:  57284 
E: 000000.492861 44 21 01 01 01 ba 03 78 14 03 03 00 00 00 00 00 00 00 00 00 00 00 00 00 00 00 00 00 00 00 00 00 00 00 00 00 00 00 00 00 00 00 00 c4 df
# ReportID: 33 / 0xff000054:    1 
#              | 0xff000051:    1 | 0xff000042: 1 | # | 0xff000130:    955 | 0xff000131:   5241 | 0xff000048:    3 | 0xff000049:    3 
#              | 0xff000051:    0 | 0xff000042: 0 | # | 0xff000130:      0 | 0xff000131:      0 | 0xff000048:    0 | 0xff000049:    0 
#              | 0xff000051:    0 | 0xff000042: 0 | # | 0xff000130:      0 | 0xff000131:      0 | 0xff000048:    0 | 0xff000049:    0 
#              | 0xff000051:    0 | 0xff000042: 0 | # | 0xff000130:      0 | 0xff000131:      0 | 0xff000048:    0 | 0xff000049:    0 
#              | 0xff000051:    0 | 0xff000042: 0 | # | 0xff000130:      0 | 0xff000131:      0 | 0xff000048:    0 | 0xff000049:    0 | 0xff000056:  57384 
E: 000000.502898 44 21 01 01 01 bb 03 79 14 03 03 00 00 00 00 00 00 00 00 00 00 00 00 00 00 00 00 00 00 00 00 00 00 00 00 00 00 00 00 00 00 00 00 28 e0
# ReportID: 33 / 0xff000054:    1 
#              | 0xff000051:    1 | 0xff000042: 1 | # | 0xff000130:    955 | 0xff000131:   5240 | 0xff000048:    3 | 0xff000049:    3 
#              | 0xff000051:    0 | 0xff000042: 0 | # | 0xff000130:      0 | 0xff000131:      0 | 0xff000048:    0 | 0xff000049:    0 
#              | 0xff000051:    0 | 0xff000042: 0 | # | 0xff000130:      0 | 0xff000131:      0 | 0xff000048:    0 | 0xff000049:    0 
#              | 0xff000051:    0 | 0xff000042: 0 | # | 0xff000130:      0 | 0xff000131:      0 | 0xff000048:    0 | 0xff000049:    0 
#              | 0xff000051:    0 | 0xff000042: 0 | # | 0xff000130:      0 | 0xff000131:      0 | 0xff000048:    0 | 0xff000049:    0 | 0xff000056:  57484 
E: 000000.513014 44 21 01 01 01 bb 03 78 14 03 03 00 00 00 00 00 00 00 00 00 00 00 00 00 00 00 00 00 00 00 00 00 00 00 00 00 00 00 00 00 00 00 00 8c e0
# ReportID: 33 / 0xff000054:    1 
#              | 0xff000051:    1 | 0xff000042: 1 | # | 0xff000130:    955 | 0xff000131:   5239 | 0xff000048:    3 | 0xff000049:    3 
#              | 0xff000051:    0 | 0xff000042: 0 | # | 0xff000130:      0 | 0xff000131:      0 | 0xff000048:    0 | 0xff000049:    0 
#              | 0xff000051:    0 | 0xff000042: 0 | # | 0xff000130:      0 | 0xff000131:      0 | 0xff000048:    0 | 0xff000049:    0 
#              | 0xff000051:    0 | 0xff000042: 0 | # | 0xff000130:      0 | 0xff000131:      0 | 0xff000048:    0 | 0xff000049:    0 
#              | 0xff000051:    0 | 0xff000042: 0 | # | 0xff000130:      0 | 0xff000131:      0 | 0xff000048:    0 | 0xff000049:    0 | 0xff000056:  57584 
E: 000000.523009 44 21 01 01 01 bb 03 77 14 03 03 00 00 00 00 00 00 00 00 00 00 00 00 00 00 00 00 00 00 00 00 00 00 00 00 00 00 00 00 00 00 00 00 f0 e0
# ReportID: 33 / 0xff000054:    1 
#              | 0xff000051:    1 | 0xff000042: 1 | # | 0xff000130:    955 | 0xff000131:   5234 | 0xff000048:    3 | 0xff000049:    3 
#              | 0xff000051:    0 | 0xff000042: 0 | # | 0xff000130:      0 | 0xff000131:      0 | 0xff000048:    0 | 0xff000049:    0 
#              | 0xff000051:    0 | 0xff000042: 0 | # | 0xff000130:      0 | 0xff000131:      0 | 0xff000048:    0 | 0xff000049:    0 
#              | 0xff000051:    0 | 0xff000042: 0 | # | 0xff000130:      0 | 0xff000131:      0 | 0xff000048:    0 | 0xff000049:    0 
#              | 0xff000051:    0 | 0xff000042: 0 | # | 0xff000130:      0 | 0xff000131:      0 | 0xff000048:    0 | 0xff000049:    0 | 0xff000056:  57684 
E: 000000.532912 44 21 01 01 01 bb 03 72 14 03 03 00 00 00 00 00 00 00 00 00 00 00 00 00 00 00 00 00 00 00 00 00 00 00 00 00 00 00 00 00 00 00 00 54 e1
# ReportID: 33 / 0xff000054:    1 
#              | 0xff000051:    1 | 0xff000042: 1 | # | 0xff000130:    956 | 0xff000131:   5222 | 0xff000048:    3 | 0xff000049:    3 
#              | 0xff000051:    0 | 0xff000042: 0 | # | 0xff000130:      0 | 0xff000131:      0 | 0xff000048:    0 | 0xff000049:    0 
#              | 0xff000051:    0 | 0xff000042: 0 | # | 0xff000130:      0 | 0xff000131:      0 | 0xff000048:    0 | 0xff000049:    0 
#              | 0xff000051:    0 | 0xff000042: 0 | # | 0xff000130:      0 | 0xff000131:      0 | 0xff000048:    0 | 0xff000049:    0 
#              | 0xff000051:    0 | 0xff000042: 0 | # | 0xff000130:      0 | 0xff000131:      0 | 0xff000048:    0 | 0xff000049:    0 | 0xff000056:  57784 
E: 000000.543019 44 21 01 01 01 bc 03 66 14 03 03 00 00 00 00 00 00 00 00 00 00 00 00 00 00 00 00 00 00 00 00 00 00 00 00 00 00 00 00 00 00 00 00 b8 e1
# ReportID: 33 / 0xff000054:    1 
#              | 0xff000051:    1 | 0xff000042: 1 | # | 0xff000130:    960 | 0xff000131:   5200 | 0xff000048:    2 | 0xff000049:    2 
#              | 0xff000051:    0 | 0xff000042: 0 | # | 0xff000130:      0 | 0xff000131:      0 | 0xff000048:    0 | 0xff000049:    0 
#              | 0xff000051:    0 | 0xff000042: 0 | # | 0xff000130:      0 | 0xff000131:      0 | 0xff000048:    0 | 0xff000049:    0 
#              | 0xff000051:    0 | 0xff000042: 0 | # | 0xff000130:      0 | 0xff000131:      0 | 0xff000048:    0 | 0xff000049:    0 
#              | 0xff000051:    0 | 0xff000042: 0 | # | 0xff000130:      0 | 0xff000131:      0 | 0xff000048:    0 | 0xff000049:    0 | 0xff000056:  57884 
E: 000000.553067 44 21 01 01 01 c0 03 50 14 02 02 00 00 00 00 00 00 00 00 00 00 00 00 00 00 00 00 00 00 00 00 00 00 00 00 00 00 00 00 00 00 00 00 1c e2
# ReportID: 33 / 0xff000054:    1 
#              | 0xff000051:    1 | 0xff000042: 1 | # | 0xff000130:    967 | 0xff000131:   5168 | 0xff000048:    2 | 0xff000049:    2 
#              | 0xff000051:    0 | 0xff000042: 0 | # | 0xff000130:      0 | 0xff000131:      0 | 0xff000048:    0 | 0xff000049:    0 
#              | 0xff000051:    0 | 0xff000042: 0 | # | 0xff000130:      0 | 0xff000131:      0 | 0xff000048:    0 | 0xff000049:    0 
#              | 0xff000051:    0 | 0xff000042: 0 | # | 0xff000130:      0 | 0xff000131:      0 | 0xff000048:    0 | 0xff000049:    0 
#              | 0xff000051:    0 | 0xff000042: 0 | # | 0xff000130:      0 | 0xff000131:      0 | 0xff000048:    0 | 0xff000049:    0 | 0xff000056:  57984 
E: 000000.562936 44 21 01 01 01 c7 03 30 14 02 02 00 00 00 00 00 00 00 00 00 00 00 00 00 00 00 00 00 00 00 00 00 00 00 00 00 00 00 00 00 00 00 00 80 e2
# ReportID: 33 / 0xff000054:    1 
#              | 0xff000051:    1 | 0xff000042: 0 | # | 0xff000130:    967 | 0xff000131:   5168 | 0xff000048:    2 | 0xff000049:    2 
#              | 0xff000051:    0 | 0xff000042: 0 | # | 0xff000130:      0 | 0xff000131:      0 | 0xff000048:    0 | 0xff000049:    0 
#              | 0xff000051:    0 | 0xff000042: 0 | # | 0xff000130:      0 | 0xff000131:      0 | 0xff000048:    0 | 0xff000049:    0 
#              | 0xff000051:    0 | 0xff000042: 0 | # | 0xff000130:      0 | 0xff000131:      0 | 0xff000048:    0 | 0xff000049:    0 
#              | 0xff000051:    0 | 0xff000042: 0 | # | 0xff000130:      0 | 0xff000131:      0 | 0xff000048:    0 | 0xff000049:    0 | 0xff000056:  58084 
E: 000000.573019 44 21 01 01 00 c7 03 30 14 02 02 00 00 00 00 00 00 00 00 00 00 00 00 00 00 00 00 00 00 00 00 00 00 00 00 00 00 00 00 00 00 00 00 e4 e2
# ReportID: 33 / 0xff000054:    1 
#              | 0xff000051:    1 | 0xff000042: 1 | # | 0xff000130:   4350 | 0xff000131:   1702 | 0xff000048:    2 | 0xff000049:    3 
#              | 0xff000051:    0 | 0xff000042: 0 | # | 0xff000130:      0 | 0xff000131:      0 | 0xff000048:    0 | 0xff000049:    0 
#              | 0xff000051:    0 | 0xff000042: 0 | # | 0xff000130:      0 | 0xff000131:      0 | 0xff000048:    0 | 0xff000049:    0 
#              | 0xff000051:    0 | 0xff000042: 0 | # | 0xff000130:      0 | 0xff000131:      0 | 0xff000048:    0 | 0xff000049:    0 
#              | 0xff000051:    0 | 0xff000042: 0 | # | 0xff000130:      0 | 0xff000131:      0 | 0xff000048:    0 | 0xff000049:    0 | 0xff000056:   1448 
E: 000001.462049 44 21 01 01 01 fe 10 a6 06 02 03 00 00 00 00 00 00 00 00 00 00 00 00 00 00 00 00 00 00 00 00 00 00 00 00 00 00 00 00 00 00 00 00 a8 05
# ReportID: 33 / 0xff000054:    1 
#              | 0xff000051:    1 | 0xff000042: 1 | # | 0xff000130:   4350 | 0xff000131:   1702 | 0xff000048:    2 | 0xff000049:    2 
#              | 0xff000051:    0 | 0xff000042: 0 | # | 0xff000130:      0 | 0xff000131:      0 | 0xff000048:    0 | 0xff000049:    0 
#              | 0xff000051:    0 | 0xff000042: 0 | # | 0xff000130:      0 | 0xff000131:      0 | 0xff000048:    0 | 0xff000049:    0 
#              | 0xff000051:    0 | 0xff000042: 0 | # | 0xff000130:      0 | 0xff000131:      0 | 0xff000048:    0 | 0xff000049:    0 
#              | 0xff000051:    0 | 0xff000042: 0 | # | 0xff000130:      0 | 0xff000131:      0 | 0xff000048:    0 | 0xff000049:    0 | 0xff000056:   1548 
E: 000001.472141 44 21 01 01 01 fe 10 a6 06 02 02 00 00 00 00 00 00 00 00 00 00 00 00 00 00 00 00 00 00 00 00 00 00 00 00 00 00 00 00 00 00 00 00 0c 06
# ReportID: 33 / 0xff000054:    1 
#              | 0xff000051:    1 | 0xff000042: 1 | # | 0xff000130:   4353 | 0xff000131:   1711 | 0xff000048:    2 | 0xff000049:    3 
#              | 0xff000051:    0 | 0xff000042: 0 | # | 0xff000130:      0 | 0xff000131:      0 | 0xff000048:    0 | 0xff000049:    0 
#              | 0xff000051:    0 | 0xff000042: 0 | # | 0xff000130:      0 | 0xff000131:      0 | 0xff000048:    0 | 0xff000049:    0 
#              | 0xff000051:    0 | 0xff000042: 0 | # | 0xff000130:      0 | 0xff000131:      0 | 0xff000048:    0 | 0xff000049:    0 
#              | 0xff000051:    0 | 0xff000042: 0 | # | 0xff000130:      0 | 0xff000131:      0 | 0xff000048:    0 | 0xff000049:    0 | 0xff000056:   1648 
E: 000001.481986 44 21 01 01 01 01 11 af 06 02 03 00 00 00 00 00 00 00 00 00 00 00 00 00 00 00 00 00 00 00 00 00 00 00 00 00 00 00 00 00 00 00 00 70 06
# ReportID: 33 / 0xff000054:    1 
#              | 0xff000051:    1 | 0xff000042: 1 | # | 0xff000130:   4358 | 0xff000131:   1737 | 0xff000048:    3 | 0xff000049:    3 
#              | 0xff000051:    0 | 0xff000042: 0 | # | 0xff000130:      0 | 0xff000131:      0 | 0xff000048:    0 | 0xff000049:    0 
#              | 0xff000051:    0 | 0xff000042: 0 | # | 0xff000130:      0 | 0xff000131:      0 | 0xff000048:    0 | 0xff000049:    0 
#              | 0xff000051:    0 | 0xff000042: 0 | # | 0xff000130:      0 | 0xff000131:      0 | 0xff000048:    0 | 0xff000049:    0 
#              | 0xff000051:    0 | 0xff000042: 0 | # | 0xff000130:      0 | 0xff000131:      0 | 0xff000048:    0 | 0xff000049:    0 | 0xff000056:   1748 
E: 000001.492081 44 21 01 01 01 06 11 c9 06 03 03 00 00 00 00 00 00 00 00 00 00 00 00 00 00 00 00 00 00 00 00 00 00 00 00 00 00 00 00 00 00 00 00 d4 06
# ReportID: 33 / 0xff000054:    1 
#              | 0xff000051:    1 | 0xff000042: 1 | # | 0xff000130:   4364 | 0xff000131:   1782 | 0xff000048:    3 | 0xff000049:    3 
#              | 0xff000051:    0 | 0xff000042: 0 | # | 0xff000130:      0 | 0xff000131:      0 | 0xff000048:    0 | 0xff000049:    0 
#              | 0xff000051:    0 | 0xff000042: 0 | # | 0xff000130:      0 | 0xff000131:      0 | 0xff000048:    0 | 0xff000049:    0 
#              | 0xff000051:    0 | 0xff000042: 0 | # | 0xff000130:      0 | 0xff000131:      0 | 0xff000048:    0 | 0xff000049:    0 
#              | 0xff000051:    0 | 0xff000042: 0 | # | 0xff000130:      0 | 0xff000131:      0 | 0xff000048:    0 | 0xff000049:    0 | 0xff000056:   1848 
E: 000001.502118 44 21 01 01 01 0c 11 f6 06 03 03 00 00 00 00 00 00 00 00 00 00 00 00 00 00 00 00 00 00 00 00 00 00 00 00 00 00 00 00 00 00 00 00 38 07
# ReportID: 33 / 0xff000054:    1 
#              | 0xff000051:    1 | 0xff000042: 1 | # | 0xff000130:   4372 | 0xff000131:   1837 | 0xff000048:    3 | 0xff000049:    3 
#              | 0xff000051:    0 | 0xff000042: 0 | # | 0xff000130:      0 | 0xff000131:      0 | 0xff000048:    0 | 0xff000049:    0 
#              | 0xff000051:    0 | 0xff000042: 0 | # | 0xff000130:      0 | 0xff000131:      0 | 0xff000048:    0 | 0xff000049:    0 
#              | 0xff000051:    0 | 0xff000042: 0 | # | 0xff000130:      0 | 0xff000131:      0 | 0xff000048:    0 | 0xff000049:    0 
#              | 0xff000051:    0 | 0xff000042: 0 | # | 0xff000130:      0 | 0xff000131:      0 | 0xff000048:    0 | 0xff000049:    0 | 0xff000056:   1948 
E: 000001.511985 44 21 01 01 01 14 11 2d 07 03 03 00 00 00 00 00 00 00 00 00 00 00 00 00 00 00 00 00 00 00 00 00 00 00 00 00 00 00 00 00 00 00 00 9c 07
# ReportID: 33 / 0xff000054:    1 
#              | 0xff000051:    1 | 0xff000042: 1 | # | 0xff000130:   4380 | 0xff000131:   1891 | 0xff000048:    3 | 0xff000049:    3 
#              | 0xff000051:    0 | 0xff000042: 0 | # | 0xff000130:      0 | 0xff000131:      0 | 0xff000048:    0 | 0xff000049:    0 
#              | 0xff000051:    0 | 0xff000042: 0 | # | 0xff000130:      0 | 0xff000131:      0 | 0xff000048:    0 | 0xff000049:    0 
#              | 0xff000051:    0 | 0xff000042: 0 | # | 0xff000130:      0 | 0xff000131:      0 | 0xff000048:    0 | 0xff000049:    0 
#              | 0xff000051:    0 | 0xff000042: 0 | # | 0xff000130:      0 | 0xff000131:      0 | 0xff000048:    0 | 0xff000049:    0 | 0xff000056:   2048 
E: 000001.521985 44 21 01 01 01 1c 11 63 07 03 03 00 00 00 00 00 00 00 00 00 00 00 00 00 00 00 00 00 00 00 00 00 00 00 00 00 00 00 00 00 00 00 00 00 08
# ReportID: 33 / 0xff000054:    1 
#              | 0xff000051:    1 | 0xff000042: 1 | # | 0xff000130:   4388 | 0xff000131:   1960 | 0xff000048:    3 | 0xff000049:    3 
#              | 0xff000051:    0 | 0xff000042: 0 | # | 0xff000130:      0 | 0xff000131:      0 | 0xff000048:    0 | 0xff000049:    0 
#              | 0xff000051:    0 | 0xff000042: 0 | # | 0xff000130:      0 | 0xff000131:      0 | 0xff000048:    0 | 0xff000049:    0 
#              | 0xff000051:    0 | 0xff000042: 0 | # | 0xff000130:      0 | 0xff000131:      0 | 0xff000048:    0 | 0xff000049:    0 
#              | 0xff000051:    0 | 0xff000042: 0 | # | 0xff000130:      0 | 0xff000131:      0 | 0xff000048:    0 | 0xff000049:    0 | 0xff000056:   2148 
E: 000001.532010 44 21 01 01 01 24 11 a8 07 03 03 00 00 00 00 00 00 00 00 00 00 00 00 00 00 00 00 00 00 00 00 00 00 00 00 00 00 00 00 00 00 00 00 64 08
# ReportID: 33 / 0xff000054:    1 
#              | 0xff000051:    1 | 0xff000042: 1 | # | 0xff000130:   4398 | 0xff000131:   2034 | 0xff000048:    3 | 0xff000049:    3 
#              | 0xff000051:    0 | 0xff000042: 0 | # | 0xff000130:      0 | 0xff000131:      0 | 0xff000048:    0 | 0xff000049:    0 
#              | 0xff000051:    0 | 0xff000042: 0 | # | 0xff000130:      0 | 0xff000131:      0 | 0xff000048:    0 | 0xff000049:    0 
#              | 0xff000051:    0 | 0xff000042: 0 | # | 0xff000130:      0 | 0xff000131:      0 | 0xff000048:    0 | 0xff000049:    0 
#              | 0xff000051:    0 | 0xff000042: 0 | # | 0xff000130:      0 | 0xff000131:      0 | 0xff000048:    0 | 0xff000049:    0 | 0xff000056:   2248 
E: 000001.542092 44 21 01 01 01 2e 11 f2 07 03 03 00 00 00 00 00 00 00 00 00 00 00 00 00 00 00 00 00 00 00 00 00 00 00 00 00 00 00 00 00 00 00 00 c8 08
# ReportID: 33 / 0xff000054:    1 
#              | 0xff000051:    1 | 0xff000042: 1 | # | 0xff000130:   4411 | 0xff000131:   2111 | 0xff000048:    3 | 0xff000049:    3 
#              | 0xff000051:    0 | 0xff000042: 0 | # | 0xff000130:      0 | 0xff000131:      0 | 0xff000048:    0 | 0xff000049:    0 
#              | 0xff000051:    0 | 0xff000042: 0 | # | 0xff000130:      0 | 0xff000131:      0 | 0xff000048:    0 | 0xff000049:    0 
#              | 0xff000051:    0 | 0xff000042: 0 | # | 0xff000130:      0 | 0xff000131:      0 | 0xff000048:    0 | 0xff000049:    0 
#              | 0xff000051:    0 | 0xff000042: 0 | # | 0xff000130:      0 | 0xff000131:      0 | 0xff000048:    0 | 0xff000049:    0 | 0xff000056:   2348 
E: 000001.552005 44 21 01 01 01 3b 11 3f 08 03 03 00 00 00 00 00 00 00 00 00 00 00 00 00 00 00 00 00 00 00 00 00 00 00 00 00 00 00 00 00 00 00 00 2c 09
# ReportID: 33 / 0xff000054:    1 
#              | 0xff000051:    1 | 0xff000042: 1 | # | 0xff000130:   4426 | 0xff000131:   2208 | 0xff000048:    3 | 0xff000049:    3 
#              | 0xff000051:    0 | 0xff000042: 0 | # | 0xff000130:      0 | 0xff000131:      0 | 0xff000048:    0 | 0xff000049:    0 
#              | 0xff000051:    0 | 0xff000042: 0 | # | 0xff000130:      0 | 0xff000131:      0 | 0xff000048:    0 | 0xff000049:    0 
#              | 0xff000051:    0 | 0xff000042: 0 | # | 0xff000130:      0 | 0xff000131:      0 | 0xff000048:    0 | 0xff000049:    0 
#              | 0xff000051:    0 | 0xff000042: 0 | # | 0xff000130:      0 | 0xff000131:      0 | 0xff000048:    0 | 0xff000049:    0 | 0xff000056:   2448 
E: 000001.561896 44 21 01 01 01 4a 11 a0 08 03 03 00 00 00 00 00 00 00 00 00 00 00 00 00 00 00 00 00 00 00 00 00 00 00 00 00 00 00 00 00 00 00 00 90 09
# ReportID: 33 / 0xff000054:    1 
#              | 0xff000051:    1 | 0xff000042: 1 | # | 0xff000130:   4441 | 0xff000131:   2304 | 0xff000048:    2 | 0xff000049:    3 
#              | 0xff000051:    0 | 0xff000042: 0 | # | 0xff000130:      0 | 0xff000131:      0 | 0xff000048:    0 | 0xff000049:    0 
#              | 0xff000051:    0 | 0xff000042: 0 | # | 0xff000130:      0 | 0xff000131:      0 | 0xff000048:    0 | 0xff000049:    0 
#              | 0xff000051:    0 | 0xff000042: 0 | # | 0xff000130:      0 | 0xff000131:      0 | 0xff000048:    0 | 0xff000049:    0 
#              | 0xff000051:    0 | 0xff000042: 0 | # | 0xff000130:      0 | 0xff000131:      0 | 0xff000048:    0 | 0xff000049:    0 | 0xff000056:   2548 
E: 000001.571875 44 21 01 01 01 59 11 00 09 02 03 00 00 00 00 00 00 00 00 00 00 00 00 00 00 00 00 00 00 00 00 00 00 00 00 00 00 00 00 00 00 00 00 f4 09
# ReportID: 33 / 0xff000054:    1 
#              | 0xff000051:    1 | 0xff000042: 1 | # | 0xff000130:   4456 | 0xff000131:   2419 | 0xff000048:    2 | 0xff000049:    3 
#              | 0xff000051:    0 | 0xff000042: 0 | # | 0xff000130:      0 | 0xff000131:      0 | 0xff000048:    0 | 0xff000049:    0 
#              | 0xff000051:    0 | 0xff000042: 0 | # | 0xff000130:      0 | 0xff000131:      0 | 0xff000048:    0 | 0xff000049:    0 
#              | 0xff000051:    0 | 0xff000042: 0 | # | 0xff000130:      0 | 0xff000131:      0 | 0xff000048:    0 | 0xff000049:    0 
#              | 0xff000051:    0 | 0xff000042: 0 | # | 0xff000130:      0 | 0xff000131:      0 | 0xff000048:    0 | 0xff000049:    0 | 0xff000056:   2648 
E: 000001.581939 44 21 01 01 01 68 11 73 09 02 03 00 00 00 00 00 00 00 00 00 00 00 00 00 00 00 00 00 00 00 00 00 00 00 00 00 00 00 00 00 00 00 00 58 0a
# ReportID: 33 / 0xff000054:    1 
#              | 0xff000051:    1 | 0xff000042: 1 | # | 0xff000130:   4470 | 0xff000131:   2543 | 0xff000048:    2 | 0xff000049:    3 
#              | 0xff000051:    0 | 0xff000042: 0 | # | 0xff000130:      0 | 0xff000131:      0 | 0xff000048:    0 | 0xff000049:    0 
#              | 0xff000051:    0 | 0xff000042: 0 | # | 0xff000130:      0 | 0xff000131:      0 | 0xff000048:    0 | 0xff000049:    0 
#              | 0xff000051:    0 | 0xff000042: 0 | # | 0xff000130:      0 | 0xff000131:      0 | 0xff000048:    0 | 0xff000049:    0 
#              | 0xff000051:    0 | 0xff000042: 0 | # | 0xff000130:      0 | 0xff000131:      0 | 0xff000048:    0 | 0xff000049:    0 | 0xff000056:   2748 
E: 000001.592019 44 21 01 01 01 76 11 ef 09 02 03 00 00 00 00 00 00 00 00 00 00 00 00 00 00 00 00 00 00 00 00 00 00 00 00 00 00 00 00 00 00 00 00 bc 0a
# ReportID: 33 / 0xff000054:    1 
#              | 0xff000051:    1 | 0xff000042: 1 | # | 0xff000130:   4485 | 0xff000131:   2674 | 0xff000048:    2 | 0xff000049:    3 
#              | 0xff000051:    0 | 0xff000042: 0 | # | 0xff000130:      0 | 0xff000131:      0 | 0xff000048:    0 | 0xff000049:    0 
#              | 0xff000051:    0 | 0xff000042: 0 | # | 0xff000130:      0 | 0xff000131:      0 | 0xff000048:    0 | 0xff000049:    0 
#              | 0xff000051:    0 | 0xff000042: 0 | # | 0xff000130:      0 | 0xff000131:      0 | 0xff000048:    0 | 0xff000049:    0 
#              | 0xff000051:    0 | 0xff000042: 0 | # | 0xff000130:      0 | 0xff000131:      0 | 0xff000048:    0 | 0xff000049:    0 | 0xff000056:   2848 
E: 000001.601941 44 21 01 01 01 85 11 72 0a 02 03 00 00 00 00 00 00 00 00 00 00 00 00 00 00 00 00 00 00 00 00 00 00 00 00 00 00 00 00 00 00 00 00 20 0b
# ReportID: 33 / 0xff000054:    1 
#              | 0xff000051:    1 | 0xff000042: 1 | # | 0xff000130:   4499 | 0xff000131:   2812 | 0xff000048:    2 | 0xff000049:    3 
#              | 0xff000051:    0 | 0xff000042: 0 | # | 0xff000130:      0 | 0xff000131:      0 | 0xff000048:    0 | 0xff000049:    0 
#              | 0xff000051:    0 | 0xff000042: 0 | # | 0xff000130:      0 | 0xff000131:      0 | 0xff000048:    0 | 0xff000049:    0 
#              | 0xff000051:    0 | 0xff000042: 0 | # | 0xff000130:      0 | 0xff000131:      0 | 0xff000048:    0 | 0xff000049:    0 
#              | 0xff000051:    0 | 0xff000042: 0 | # | 0xff000130:      0 | 0xff000131:      0 | 0xff000048:    0 | 0xff000049:    0 | 0xff000056:   2948 
E: 000001.612068 44 21 01 01 01 93 11 fc 0a 02 03 00 00 00 00 00 00 00 00 00 00 00 00 00 00 00 00 00 00 00 00 00 00 00 00 00 00 00 00 00 00 00 00 84 0b
# ReportID: 33 / 0xff000054:    1 
#              | 0xff000051:    1 | 0xff000042: 1 | # | 0xff000130:   4503 | 0xff000131:   2949 | 0xff000048:    3 | 0xff000049:    3 
#              | 0xff000051:    0 | 0xff000042: 0 | # | 0xff000130:      0 | 0xff000131:      0 | 0xff000048:    0 | 0xff000049:    0 
#              | 0xff000051:    0 | 0xff000042: 0 | # | 0xff000130:      0 | 0xff000131:      0 | 0xff000048:    0 | 0xff000049:    0 
#              | 0xff000051:    0 | 0xff000042: 0 | # | 0xff000130:      0 | 0xff000131:      0 | 0xff000048:    0 | 0xff000049:    0 
#              | 0xff000051:    0 | 0xff000042: 0 | # | 0xff000130:      0 | 0xff000131:      0 | 0xff000048:    0 | 0xff000049:    0 | 0xff000056:   3048 
E: 000001.622111 44 21 01 01 01 97 11 85 0b 03 03 00 00 00 00 00 00 00 00 00 00 00 00 00 00 00 00 00 00 00 00 00 00 00 00 00 00 00 00 00 00 00 00 e8 0b
# ReportID: 33 / 0xff000054:    1 
#              | 0xff000051:    1 | 0xff000042: 1 | # | 0xff000130:   4507 | 0xff000131:   3081 | 0xff000048:    3 | 0xff000049:    3 
#              | 0xff000051:    0 | 0xff000042: 0 | # | 0xff000130:      0 | 0xff000131:      0 | 0xff000048:    0 | 0xff000049:    0 
#              | 0xff000051:    0 | 0xff000042: 0 | # | 0xff000130:      0 | 0xff000131:      0 | 0xff000048:    0 | 0xff000049:    0 
#              | 0xff000051:    0 | 0xff000042: 0 | # | 0xff000130:      0 | 0xff000131:      0 | 0xff000048:    0 | 0xff000049:    0 
#              | 0xff000051:    0 | 0xff000042: 0 | # | 0xff000130:      0 | 0xff000131:      0 | 0xff000048:    0 | 0xff000049:    0 | 0xff000056:   3148 
E: 000001.632207 44 21 01 01 01 9b 11 09 0c 03 03 00 00 00 00 00 00 00 00 00 00 00 00 00 00 00 00 00 00 00 00 00 00 00 00 00 00 00 00 00 00 00 00 4c 0c
# ReportID: 33 / 0xff000054:    1 
#              | 0xff000051:    1 | 0xff000042: 1 | # | 0xff000130:   4509 | 0xff000131:   3225 | 0xff000048:    3 | 0xff000049:    3 
#              | 0xff000051:    0 | 0xff000042: 0 | # | 0xff000130:      0 | 0xff000131:      0 | 0xff000048:    0 | 0xff000049:    0 
#              | 0xff000051:    0 | 0xff000042: 0 | # | 0xff000130:      0 | 0xff000131:      0 | 0xff000048:    0 | 0xff000049:    0 
#              | 0xff000051:    0 | 0xff000042: 0 | # | 0xff000130:      0 | 0xff000131:      0 | 0xff000048:    0 | 0xff000049:    0 
#              | 0xff000051:    0 | 0xff000042: 0 | # | 0xff000130:      0 | 0xff000131:      0 | 0xff000048:    0 | 0xff000049:    0 | 0xff000056:   3248 
E: 000001.642045 44 21 01 01 01 9d 11 99 0c 03 03 00 00 00 00 00 00 00 00 00 00 00 00 00 00 00 00 00 00 00 00 00 00 00 00 00 00 00 00 00 00 00 00 b0 0c
# ReportID: 33 / 0xff000054:    1 
#              | 0xff000051:    1 | 0xff000042: 1 | # | 0xff000130:   4507 | 0xff000131:   3382 | 0xff000048:    3 | 0xff000049:    3 
#              | 0xff000051:    0 | 0xff000042: 0 | # | 0xff000130:      0 | 0xff000131:      0 | 0xff000048:    0 | 0xff000049:    0 
#              | 0xff000051:    0 | 0xff000042: 0 | # | 0xff000130:      0 | 0xff000131:      0 | 0xff000048:    0 | 0xff000049:    0 
#              | 0xff000051:    0 | 0xff000042: 0 | # | 0xff000130:      0 | 0xff000131:      0 | 0xff000048:    0 | 0xff000049:    0 
#              | 0xff000051:    0 | 0xff000042: 0 | # | 0xff000130:      0 | 0xff000131:      0 | 0xff000048:    0 | 0xff000049:    0 | 0xff000056:   3348 
E: 000001.652089 44 21 01 01 01 9b 11 36 0d 03 03 00 00 00 00 00 00 00 00 00 00 00 00 00 00 00 00 00 00 00 00 00 00 00 00 00 00 00 00 00 00 00 00 14 0d
# ReportID: 33 / 0xff000054:    1 
#              | 0xff000051:    1 | 0xff000042: 1 | # | 0xff000130:   4508 | 0xff000131:   3533 | 0xff000048:    3 | 0xff000049:    3 
#              | 0xff000051:    0 | 0xff000042: 0 | # | 0xff000130:      0 | 0xff000131:      0 | 0xff000048:    0 | 0xff000049:    0 
#              | 0xff000051:    0 | 0xff000042: 0 | # | 0xff000130:      0 | 0xff000131:      0 | 0xff000048:    0 | 0xff000049:    0 
#              | 0xff000051:    0 | 0xff000042: 0 | # | 0xff000130:      0 | 0xff000131:      0 | 0xff000048:    0 | 0xff000049:    0 
#              | 0xff000051:    0 | 0xff000042: 0 | # | 0xff000130:      0 | 0xff000131:      0 | 0xff000048:    0 | 0xff000049:    0 | 0xff000056:   3448 
E: 000001.662091 44 21 01 01 01 9c 11 cd 0d 03 03 00 00 00 00 00 00 00 00 00 00 00 00 00 00 00 00 00 00 00 00 00 00 00 00 00 00 00 00 00 00 00 00 78 0d
# ReportID: 33 / 0xff000054:    1 
#              | 0xff000051:    1 | 0xff000042: 1 | # | 0xff000130:   4513 | 0xff000131:   3686 | 0xff000048:    3 | 0xff000049:    3 
#              | 0xff000051:    0 | 0xff000042: 0 | # | 0xff000130:      0 | 0xff000131:      0 | 0xff000048:    0 | 0xff000049:    0 
#              | 0xff000051:    0 | 0xff000042: 0 | # | 0xff000130:      0 | 0xff000131:      0 | 0xff000048:    0 | 0xff000049:    0 
#              | 0xff000051:    0 | 0xff000042: 0 | # | 0xff000130:      0 | 0xff000131:      0 | 0xff000048:    0 | 0xff000049:    0 
#              | 0xff000051:    0 | 0xff000042: 0 | # | 0xff000130:      0 | 0xff000131:      0 | 0xff000048:    0 | 0xff000049:    0 | 0xff000056:   3548 
E: 000001.672144 44 21 01 01 01 a1 11 66 0e 03 03 00 00 00 00 00 00 00 00 00 00 00 00 00 00 00 00 00 00 00 00 00 00 00 00 00 00 00 00 00 00 00 00 dc 0d
# ReportID: 33 / 0xff000054:    1 
#              | 0xff000051:    1 | 0xff000042: 1 | # | 0xff000130:   4526 | 0xff000131:   3839 | 0xff000048:    3 | 0xff000049:    3 
#              | 0xff000051:    0 | 0xff000042: 0 | # | 0xff000130:      0 | 0xff000131:      0 | 0xff000048:    0 | 0xff000049:    0 
#              | 0xff000051:    0 | 0xff000042: 0 | # | 0xff000130:      0 | 0xff000131:      0 | 0xff000048:    0 | 0xff000049:    0 
#              | 0xff000051:    0 | 0xff000042: 0 | # | 0xff000130:      0 | 0xff000131:      0 | 0xff000048:    0 | 0xff000049:    0 
#              | 0xff000051:    0 | 0xff000042: 0 | # | 0xff000130:      0 | 0xff000131:      0 | 0xff000048:    0 | 0xff000049:    0 | 0xff000056:   3648 
E: 000001.682040 44 21 01 01 01 ae 11 ff 0e 03 03 00 00 00 00 00 00 00 00 00 00 00 00 00 00 00 00 00 00 00 00 00 00 00 00 00 00 00 00 00 00 00 00 40 0e
# ReportID: 33 / 0xff000054:    1 
#              | 0xff000051:    1 | 0xff000042: 1 | # | 0xff000130:   4545 | 0xff000131:   3997 | 0xff000048:    3 | 0xff000049:    3 
#              | 0xff000051:    0 | 0xff000042: 0 | # | 0xff000130:      0 | 0xff000131:      0 | 0xff000048:    0 | 0xff000049:    0 
#              | 0xff000051:    0 | 0xff000042: 0 | # | 0xff000130:      0 | 0xff000131:      0 | 0xff000048:    0 | 0xff000049:    0 
#              | 0xff000051:    0 | 0xff000042: 0 | # | 0xff000130:      0 | 0xff000131:      0 | 0xff000048:    0 | 0xff000049:    0 
#              | 0xff000051:    0 | 0xff000042: 0 | # | 0xff000130:      0 | 0xff000131:      0 | 0xff000048:    0 | 0xff000049:    0 | 0xff000056:   3748 
E: 000001.692063 44 21 01 01 01 c1 11 9d 0f 03 03 00 00 00 00 00 00 00 00 00 00 00 00 00 00 00 00 00 00 00 00 00 00 00 00 00 00 00 00 00 00 00 00 a4 0e
# ReportID: 33 / 0xff000054:    1 
#              | 0xff000051:    1 | 0xff000042: 1 | # | 0xff000130:   4562 | 0xff000131:   4141 | 0xff000048:    3 | 0xff000049:    3 
#              | 0xff000051:    0 | 0xff000042: 0 | # | 0xff000130:      0 | 0xff000131:      0 | 0xff000048:    0 | 0xff000049:    0 
#              | 0xff000051:    0 | 0xff000042: 0 | # | 0xff000130:      0 | 0xff000131:      0 | 0xff000048:    0 | 0xff000049:    0 
#              | 0xff000051:    0 | 0xff000042: 0 | # | 0xff000130:      0 | 0xff000131:      0 | 0xff000048:    0 | 0xff000049:    0 
#              | 0xff000051:    0 | 0xff000042: 0 | # | 0xff000130:      0 | 0xff000131:      0 | 0xff000048:    0 | 0xff000049:    0 | 0xff000056:   3848 
E: 000001.701962 44 21 01 01 01 d2 11 2d 10 03 03 00 00 00 00 00 00 00 00 00 00 00 00 00 00 00 00 00 00 00 00 00 00 00 00 00 00 00 00 00 00 00 00 08 0f
# ReportID: 33 / 0xff000054:    1 
#              | 0xff000051:    1 | 0xff000042: 1 | # | 0xff000130:   4576 | 0xff000131:   4270 | 0xff000048:    3 | 0xff000049:    3 
#              | 0xff000051:    0 | 0xff000042: 0 | # | 0xff000130:      0 | 0xff000131:      0 | 0xff000048:    0 | 0xff000049:    0 
#              | 0xff000051:    0 | 0xff000042: 0 | # | 0xff000130:      0 | 0xff000131:      0 | 0xff000048:    0 | 0xff000049:    0 
#              | 0xff000051:    0 | 0xff000042: 0 | # | 0xff000130:      0 | 0xff000131:      0 | 0xff000048:    0 | 0xff000049:    0 
#              | 0xff000051:    0 | 0xff000042: 0 | # | 0xff000130:      0 | 0xff000131:      0 | 0xff000048:    0 | 0xff000049:    0 | 0xff000056:   3948 
E: 000001.711975 44 21 01 01 01 e0 11 ae 10 03 03 00 00 00 00 00 00 00 00 00 00 00 00 00 00 00 00 00 00 00 00 00 00 00 00 00 00 00 00 00 00 00 00 6c 0f
# ReportID: 33 / 0xff000054:    1 
#              | 0xff000051:    1 | 0xff000042: 1 | # | 0xff000130:   4586 | 0xff000131:   4394 | 0xff000048:    3 | 0xff000049:    3 
#              | 0xff000051:    0 | 0xff000042: 0 | # | 0xff000130:      0 | 0xff000131:      0 | 0xff000048:    0 | 0xff000049:    0 
#              | 0xff000051:    0 | 0xff000042: 0 | # | 0xff000130:      0 | 0xff000131:      0 | 0xff000048:    0 | 0xff000049:    0 
#              | 0xff000051:    0 | 0xff000042: 0 | # | 0xff000130:      0 | 0xff000131:      0 | 0xff000048:    0 | 0xff000049:    0 
#              | 0xff000051:    0 | 0xff000042: 0 | # | 0xff000130:      0 | 0xff000131:      0 | 0xff000048:    0 | 0xff000049:    0 | 0xff000056:   4048 
E: 000001.721892 44 21 01 01 01 ea 11 2a 11 03 03 00 00 00 00 00 00 00 00 00 00 00 00 00 00 00 00 00 00 00 00 00 00 00 00 00 00 00 00 00 00 00 00 d0 0f
# ReportID: 33 / 0xff000054:    1 
#              | 0xff000051:    1 | 0xff000042: 1 | # | 0xff000130:   4592 | 0xff000131:   4517 | 0xff000048:    3 | 0xff000049:    3 
#              | 0xff000051:    0 | 0xff000042: 0 | # | 0xff000130:      0 | 0xff000131:      0 | 0xff000048:    0 | 0xff000049:    0 
#              | 0xff000051:    0 | 0xff000042: 0 | # | 0xff000130:      0 | 0xff000131:      0 | 0xff000048:    0 | 0xff000049:    0 
#              | 0xff000051:    0 | 0xff000042: 0 | # | 0xff000130:      0 | 0xff000131:      0 | 0xff000048:    0 | 0xff000049:    0 
#              | 0xff000051:    0 | 0xff000042: 0 | # | 0xff000130:      0 | 0xff000131:      0 | 0xff000048:    0 | 0xff000049:    0 | 0xff000056:   4148 
E: 000001.731935 44 21 01 01 01 f0 11 a5 11 03 03 00 00 00 00 00 00 00 00 00 00 00 00 00 00 00 00 00 00 00 00 00 00 00 00 00 00 00 00 00 00 00 00 34 10
# ReportID: 33 / 0xff000054:    1 
#              | 0xff000051:    1 | 0xff000042: 1 | # | 0xff000130:   4596 | 0xff000131:   4619 | 0xff000048:    3 | 0xff000049:    3 
#              | 0xff000051:    0 | 0xff000042: 0 | # | 0xff000130:      0 | 0xff000131:      0 | 0xff000048:    0 | 0xff000049:    0 
#              | 0xff000051:    0 | 0xff000042: 0 | # | 0xff000130:      0 | 0xff000131:      0 | 0xff000048:    0 | 0xff000049:    0 
#              | 0xff000051:    0 | 0xff000042: 0 | # | 0xff000130:      0 | 0xff000131:      0 | 0xff000048:    0 | 0xff000049:    0 
#              | 0xff000051:    0 | 0xff000042: 0 | # | 0xff000130:      0 | 0xff000131:      0 | 0xff000048:    0 | 0xff000049:    0 | 0xff000056:   4248 
E: 000001.742129 44 21 01 01 01 f4 11 0b 12 03 03 00 00 00 00 00 00 00 00 00 00 00 00 00 00 00 00 00 00 00 00 00 00 00 00 00 00 00 00 00 00 00 00 98 10
# ReportID: 33 / 0xff000054:    1 
#              | 0xff000051:    1 | 0xff000042: 1 | # | 0xff000130:   4597 | 0xff000131:   4720 | 0xff000048:    3 | 0xff000049:    3 
#              | 0xff000051:    0 | 0xff000042: 0 | # | 0xff000130:      0 | 0xff000131:      0 | 0xff000048:    0 | 0xff000049:    0 
#              | 0xff000051:    0 | 0xff000042: 0 | # | 0xff000130:      0 | 0xff000131:      0 | 0xff000048:    0 | 0xff000049:    0 
#              | 0xff000051:    0 | 0xff000042: 0 | # | 0xff000130:      0 | 0xff000131:      0 | 0xff000048:    0 | 0xff000049:    0 
#              | 0xff000051:    0 | 0xff000042: 0 | # | 0xff000130:      0 | 0xff000131:      0 | 0xff000048:    0 | 0xff000049:    0 | 0xff000056:   4348 
E: 000001.751977 44 21 01 01 01 f5 11 70 12 03 03 00 00 00 00 00 00 00 00 00 00 00 00 00 00 00 00 00 00 00 00 00 00 00 00 00 00 00 00 00 00 00 00 fc 10
# ReportID: 33 / 0xff000054:    1 
#              | 0xff000051:    1 | 0xff000042: 1 | # | 0xff000130:   4598 | 0xff000131:   4808 | 0xff000048:    3 | 0xff000049:    3 
#              | 0xff000051:    0 | 0xff000042: 0 | # | 0xff000130:      0 | 0xff000131:      0 | 0xff000048:    0 | 0xff000049:    0 
#              | 0xff000051:    0 | 0xff000042: 0 | # | 0xff000130:      0 | 0xff000131:      0 | 0xff000048:    0 | 0xff000049:    0 
#              | 0xff000051:    0 | 0xff000042: 0 | # | 0xff000130:      0 | 0xff000131:      0 | 0xff000048:    0 | 0xff000049:    0 
#              | 0xff000051:    0 | 0xff000042: 0 | # | 0xff000130:      0 | 0xff000131:      0 | 0xff000048:    0 | 0xff000049:    0 | 0xff000056:   4448 
E: 000001.761952 44 21 01 01 01 f6 11 c8 12 03 03 00 00 00 00 00 00 00 00 00 00 00 00 00 00 00 00 00 00 00 00 00 00 00 00 00 00 00 00 00 00 00 00 60 11
# ReportID: 33 / 0xff000054:    1 
#              | 0xff000051:    1 | 0xff000042: 1 | # | 0xff000130:   4595 | 0xff000131:   4894 | 0xff000048:    3 | 0xff000049:    3 
#              | 0xff000051:    0 | 0xff000042: 0 | # | 0xff000130:      0 | 0xff000131:      0 | 0xff000048:    0 | 0xff000049:    0 
