# Touch node
#
# Recording is two movements left-to-right with one finger 
#
# +-------------------------------------------+
# +                                           +
# +  =======================================  +
# +                                           +
# +                                           +
# +                                           +
# +                                           +
# +                                           +
# +                                           +
# +  =======================================  +
# +                                           +
# +-------------------------------------------+
#
# Wacom Co.,Ltd. Wacom Intuos Pro M
# 0x06, 0x00, 0xff,              // Usage Page (Vendor Defined Page 1)  0
# 0x09, 0x05,                    // Usage (Vendor Usage 0x05)           3
# 0xa1, 0x01,                    // Collection (Application)            5
# 0x85, 0x21,                    //  Report ID (33)                     7
# 0x09, 0x54,                    //  Usage (Vendor Usage 0x54)          9
# 0x15, 0x00,                    //  Logical Minimum (0)                11
# 0x26, 0xff, 0x00,              //  Logical Maximum (255)              13
# 0x75, 0x08,                    //  Report Size (8)                    16
# 0x95, 0x01,                    //  Report Count (1)                   18
# 0x81, 0x02,                    //  Input (Data,Var,Abs)               20
# 0x09, 0x22,                    //  Usage (Vendor Usage 0x22)          22
# 0xa1, 0x02,                    //  Collection (Logical)               24
# 0x09, 0x51,                    //   Usage (Vendor Usage 0x51)         26
# 0x65, 0x00,                    //   Unit (None)                       28
# 0x55, 0x00,                    //   Unit Exponent (0)                 30
# 0x15, 0x00,                    //   Logical Minimum (0)               32
# 0x26, 0xff, 0x00,              //   Logical Maximum (255)             34
# 0x75, 0x08,                    //   Report Size (8)                   37
# 0x95, 0x01,                    //   Report Count (1)                  39
# 0x81, 0x02,                    //   Input (Data,Var,Abs)              41
# 0x09, 0x42,                    //   Usage (Vendor Usage 0x42)         43
# 0x15, 0x00,                    //   Logical Minimum (0)               45
# 0x25, 0x01,                    //   Logical Maximum (1)               47
# 0x75, 0x01,                    //   Report Size (1)                   49
# 0x95, 0x01,                    //   Report Count (1)                  51
# 0x81, 0x02,                    //   Input (Data,Var,Abs)              53
# 0x95, 0x07,                    //   Report Count (7)                  55
# 0x81, 0x03,                    //   Input (Cnst,Var,Abs)              57
# 0x0a, 0x30, 0x01,              //   Usage (Vendor Usage 0x130)        59
# 0x65, 0x11,                    //   Unit (SILinear: cm)               62
# 0x55, 0x0d,                    //   Unit Exponent (-3)                64
# 0x35, 0x00,                    //   Physical Minimum (0)              66
# 0x46, 0x80, 0x57,              //   Physical Maximum (22400)          68
# 0x15, 0x00,                    //   Logical Minimum (0)               71
# 0x26, 0x00, 0x23,              //   Logical Maximum (8960)            73
# 0x75, 0x10,                    //   Report Size (16)                  76
# 0x95, 0x01,                    //   Report Count (1)                  78
# 0x81, 0x02,                    //   Input (Data,Var,Abs)              80
# 0x0a, 0x31, 0x01,              //   Usage (Vendor Usage 0x131)        82
# 0x46, 0xd0, 0x39,              //   Physical Maximum (14800)          85
# 0x26, 0x20, 0x17,              //   Logical Maximum (5920)            88
# 0x81, 0x02,                    //   Input (Data,Var,Abs)              91
# 0x09, 0x48,                    //   Usage (Vendor Usage 0x48)         93
# 0x46, 0xbe, 0x08,              //   Physical Maximum (2238)           95
# 0x26, 0x29, 0x00,              //   Logical Maximum (41)              98
# 0x75, 0x08,                    //   Report Size (8)                   101
# 0x95, 0x01,                    //   Report Count (1)                  103
# 0x81, 0x02,                    //   Input (Data,Var,Abs)              105
# 0x09, 0x49,                    //   Usage (Vendor Usage 0x49)         107
# 0x46, 0xc9, 0x05,              //   Physical Maximum (1481)           109
# 0x26, 0x1f, 0x00,              //   Logical Maximum (31)              112
# 0x81, 0x02,                    //   Input (Data,Var,Abs)              115
# 0xc0,                          //  End Collection                     117
# 0x09, 0x22,                    //  Usage (Vendor Usage 0x22)          118
# 0xa1, 0x02,                    //  Collection (Logical)               120
# 0x09, 0x51,                    //   Usage (Vendor Usage 0x51)         122
# 0x65, 0x00,                    //   Unit (None)                       124
# 0x55, 0x00,                    //   Unit Exponent (0)                 126
# 0x15, 0x00,                    //   Logical Minimum (0)               128
# 0x26, 0xff, 0x00,              //   Logical Maximum (255)             130
# 0x75, 0x08,                    //   Report Size (8)                   133
# 0x95, 0x01,                    //   Report Count (1)                  135
# 0x81, 0x02,                    //   Input (Data,Var,Abs)              137
# 0x09, 0x42,                    //   Usage (Vendor Usage 0x42)         139
# 0x15, 0x00,                    //   Logical Minimum (0)               141
# 0x25, 0x01,                    //   Logical Maximum (1)               143
# 0x75, 0x01,                    //   Report Size (1)                   145
# 0x95, 0x01,                    //   Report Count (1)                  147
# 0x81, 0x02,                    //   Input (Data,Var,Abs)              149
# 0x95, 0x07,                    //   Report Count (7)                  151
# 0x81, 0x03,                    //   Input (Cnst,Var,Abs)              153
# 0x0a, 0x30, 0x01,              //   Usage (Vendor Usage 0x130)        155
# 0x65, 0x11,                    //   Unit (SILinear: cm)               158
# 0x55, 0x0d,                    //   Unit Exponent (-3)                160
# 0x35, 0x00,                    //   Physical Minimum (0)              162
# 0x46, 0x80, 0x57,              //   Physical Maximum (22400)          164
# 0x15, 0x00,                    //   Logical Minimum (0)               167
# 0x26, 0x00, 0x23,              //   Logical Maximum (8960)            169
# 0x75, 0x10,                    //   Report Size (16)                  172
# 0x95, 0x01,                    //   Report Count (1)                  174
# 0x81, 0x02,                    //   Input (Data,Var,Abs)              176
# 0x0a, 0x31, 0x01,              //   Usage (Vendor Usage 0x131)        178
# 0x46, 0xd0, 0x39,              //   Physical Maximum (14800)          181
# 0x26, 0x20, 0x17,              //   Logical Maximum (5920)            184
# 0x81, 0x02,                    //   Input (Data,Var,Abs)              187
# 0x09, 0x48,                    //   Usage (Vendor Usage 0x48)         189
# 0x46, 0xbe, 0x08,              //   Physical Maximum (2238)           191
# 0x26, 0x29, 0x00,              //   Logical Maximum (41)              194
# 0x75, 0x08,                    //   Report Size (8)                   197
# 0x95, 0x01,                    //   Report Count (1)                  199
# 0x81, 0x02,                    //   Input (Data,Var,Abs)              201
# 0x09, 0x49,                    //   Usage (Vendor Usage 0x49)         203
# 0x46, 0xc9, 0x05,              //   Physical Maximum (1481)           205
# 0x26, 0x1f, 0x00,              //   Logical Maximum (31)              208
# 0x81, 0x02,                    //   Input (Data,Var,Abs)              211
# 0xc0,                          //  End Collection                     213
# 0x09, 0x22,                    //  Usage (Vendor Usage 0x22)          214
# 0xa1, 0x02,                    //  Collection (Logical)               216
# 0x09, 0x51,                    //   Usage (Vendor Usage 0x51)         218
# 0x65, 0x00,                    //   Unit (None)                       220
# 0x55, 0x00,                    //   Unit Exponent (0)                 222
# 0x15, 0x00,                    //   Logical Minimum (0)               224
# 0x26, 0xff, 0x00,              //   Logical Maximum (255)             226
# 0x75, 0x08,                    //   Report Size (8)                   229
# 0x95, 0x01,                    //   Report Count (1)                  231
# 0x81, 0x02,                    //   Input (Data,Var,Abs)              233
# 0x09, 0x42,                    //   Usage (Vendor Usage 0x42)         235
# 0x15, 0x00,                    //   Logical Minimum (0)               237
# 0x25, 0x01,                    //   Logical Maximum (1)               239
# 0x75, 0x01,                    //   Report Size (1)                   241
# 0x95, 0x01,                    //   Report Count (1)                  243
# 0x81, 0x02,                    //   Input (Data,Var,Abs)              245
# 0x95, 0x07,                    //   Report Count (7)                  247
# 0x81, 0x03,                    //   Input (Cnst,Var,Abs)              249
# 0x0a, 0x30, 0x01,              //   Usage (Vendor Usage 0x130)        251
# 0x65, 0x11,                    //   Unit (SILinear: cm)               254
# 0x55, 0x0d,                    //   Unit Exponent (-3)                256
# 0x35, 0x00,                    //   Physical Minimum (0)              258
# 0x46, 0x80, 0x57,              //   Physical Maximum (22400)          260
# 0x15, 0x00,                    //   Logical Minimum (0)               263
# 0x26, 0x00, 0x23,              //   Logical Maximum (8960)            265
# 0x75, 0x10,                    //   Report Size (16)                  268
# 0x95, 0x01,                    //   Report Count (1)                  270
# 0x81, 0x02,                    //   Input (Data,Var,Abs)              272
# 0x0a, 0x31, 0x01,              //   Usage (Vendor Usage 0x131)        274
# 0x46, 0xd0, 0x39,              //   Physical Maximum (14800)          277
# 0x26, 0x20, 0x17,              //   Logical Maximum (5920)            280
# 0x81, 0x02,                    //   Input (Data,Var,Abs)              283
# 0x09, 0x48,                    //   Usage (Vendor Usage 0x48)         285
# 0x46, 0xbe, 0x08,              //   Physical Maximum (2238)           287
# 0x26, 0x29, 0x00,              //   Logical Maximum (41)              290
# 0x75, 0x08,                    //   Report Size (8)                   293
# 0x95, 0x01,                    //   Report Count (1)                  295
# 0x81, 0x02,                    //   Input (Data,Var,Abs)              297
# 0x09, 0x49,                    //   Usage (Vendor Usage 0x49)         299
# 0x46, 0xc9, 0x05,              //   Physical Maximum (1481)           301
# 0x26, 0x1f, 0x00,              //   Logical Maximum (31)              304
# 0x81, 0x02,                    //   Input (Data,Var,Abs)              307
# 0xc0,                          //  End Collection                     309
# 0x09, 0x22,                    //  Usage (Vendor Usage 0x22)          310
# 0xa1, 0x02,                    //  Collection (Logical)               312
# 0x09, 0x51,                    //   Usage (Vendor Usage 0x51)         314
# 0x65, 0x00,                    //   Unit (None)                       316
# 0x55, 0x00,                    //   Unit Exponent (0)                 318
# 0x15, 0x00,                    //   Logical Minimum (0)               320
# 0x26, 0xff, 0x00,              //   Logical Maximum (255)             322
# 0x75, 0x08,                    //   Report Size (8)                   325
# 0x95, 0x01,                    //   Report Count (1)                  327
# 0x81, 0x02,                    //   Input (Data,Var,Abs)              329
# 0x09, 0x42,                    //   Usage (Vendor Usage 0x42)         331
# 0x15, 0x00,                    //   Logical Minimum (0)               333
# 0x25, 0x01,                    //   Logical Maximum (1)               335
# 0x75, 0x01,                    //   Report Size (1)                   337
# 0x95, 0x01,                    //   Report Count (1)                  339
# 0x81, 0x02,                    //   Input (Data,Var,Abs)              341
# 0x95, 0x07,                    //   Report Count (7)                  343
# 0x81, 0x03,                    //   Input (Cnst,Var,Abs)              345
# 0x0a, 0x30, 0x01,              //   Usage (Vendor Usage 0x130)        347
# 0x65, 0x11,                    //   Unit (SILinear: cm)               350
# 0x55, 0x0d,                    //   Unit Exponent (-3)                352
# 0x35, 0x00,                    //   Physical Minimum (0)              354
# 0x46, 0x80, 0x57,              //   Physical Maximum (22400)          356
# 0x15, 0x00,                    //   Logical Minimum (0)               359
# 0x26, 0x00, 0x23,              //   Logical Maximum (8960)            361
# 0x75, 0x10,                    //   Report Size (16)                  364
# 0x95, 0x01,                    //   Report Count (1)                  366
# 0x81, 0x02,                    //   Input (Data,Var,Abs)              368
# 0x0a, 0x31, 0x01,              //   Usage (Vendor Usage 0x131)        370
# 0x46, 0xd0, 0x39,              //   Physical Maximum (14800)          373
# 0x26, 0x20, 0x17,              //   Logical Maximum (5920)            376
# 0x81, 0x02,                    //   Input (Data,Var,Abs)              379
# 0x09, 0x48,                    //   Usage (Vendor Usage 0x48)         381
# 0x46, 0xbe, 0x08,              //   Physical Maximum (2238)           383
# 0x26, 0x29, 0x00,              //   Logical Maximum (41)              386
# 0x75, 0x08,                    //   Report Size (8)                   389
# 0x95, 0x01,                    //   Report Count (1)                  391
# 0x81, 0x02,                    //   Input (Data,Var,Abs)              393
# 0x09, 0x49,                    //   Usage (Vendor Usage 0x49)         395
# 0x46, 0xc9, 0x05,              //   Physical Maximum (1481)           397
# 0x26, 0x1f, 0x00,              //   Logical Maximum (31)              400
# 0x81, 0x02,                    //   Input (Data,Var,Abs)              403
# 0xc0,                          //  End Collection                     405
# 0x09, 0x22,                    //  Usage (Vendor Usage 0x22)          406
# 0xa1, 0x02,                    //  Collection (Logical)               408
# 0x09, 0x51,                    //   Usage (Vendor Usage 0x51)         410
# 0x65, 0x00,                    //   Unit (None)                       412
# 0x55, 0x00,                    //   Unit Exponent (0)                 414
# 0x15, 0x00,                    //   Logical Minimum (0)               416
# 0x26, 0xff, 0x00,              //   Logical Maximum (255)             418
# 0x75, 0x08,                    //   Report Size (8)                   421
# 0x95, 0x01,                    //   Report Count (1)                  423
# 0x81, 0x02,                    //   Input (Data,Var,Abs)              425
# 0x09, 0x42,                    //   Usage (Vendor Usage 0x42)         427
# 0x15, 0x00,                    //   Logical Minimum (0)               429
# 0x25, 0x01,                    //   Logical Maximum (1)               431
# 0x75, 0x01,                    //   Report Size (1)                   433
# 0x95, 0x01,                    //   Report Count (1)                  435
# 0x81, 0x02,                    //   Input (Data,Var,Abs)              437
# 0x95, 0x07,                    //   Report Count (7)                  439
# 0x81, 0x03,                    //   Input (Cnst,Var,Abs)              441
# 0x0a, 0x30, 0x01,              //   Usage (Vendor Usage 0x130)        443
# 0x65, 0x11,                    //   Unit (SILinear: cm)               446
# 0x55, 0x0d,                    //   Unit Exponent (-3)                448
# 0x35, 0x00,                    //   Physical Minimum (0)              450
# 0x46, 0x80, 0x57,              //   Physical Maximum (22400)          452
# 0x15, 0x00,                    //   Logical Minimum (0)               455
# 0x26, 0x00, 0x23,              //   Logical Maximum (8960)            457
# 0x75, 0x10,                    //   Report Size (16)                  460
# 0x95, 0x01,                    //   Report Count (1)                  462
# 0x81, 0x02,                    //   Input (Data,Var,Abs)              464
# 0x0a, 0x31, 0x01,              //   Usage (Vendor Usage 0x131)        466
# 0x46, 0xd0, 0x39,              //   Physical Maximum (14800)          469
# 0x26, 0x20, 0x17,              //   Logical Maximum (5920)            472
# 0x81, 0x02,                    //   Input (Data,Var,Abs)              475
# 0x09, 0x48,                    //   Usage (Vendor Usage 0x48)         477
# 0x46, 0xbe, 0x08,              //   Physical Maximum (2238)           479
# 0x26, 0x29, 0x00,              //   Logical Maximum (41)              482
# 0x75, 0x08,                    //   Report Size (8)                   485
# 0x95, 0x01,                    //   Report Count (1)                  487
# 0x81, 0x02,                    //   Input (Data,Var,Abs)              489
# 0x09, 0x49,                    //   Usage (Vendor Usage 0x49)         491
# 0x46, 0xc9, 0x05,              //   Physical Maximum (1481)           493
# 0x26, 0x1f, 0x00,              //   Logical Maximum (31)              496
# 0x81, 0x02,                    //   Input (Data,Var,Abs)              499
# 0xc0,                          //  End Collection                     501
# 0x09, 0x56,                    //  Usage (Vendor Usage 0x56)          502
# 0x15, 0x00,                    //  Logical Minimum (0)                504
# 0x27, 0xff, 0xff, 0x00, 0x00,  //  Logical Maximum (65535)            506
# 0x75, 0x10,                    //  Report Size (16)                   511
# 0x95, 0x01,                    //  Report Count (1)                   513
# 0x81, 0x02,                    //  Input (Data,Var,Abs)               515
# 0x09, 0x0e,                    //  Usage (Vendor Usage 0x0e)          517
# 0xa1, 0x02,                    //  Collection (Logical)               519
# 0x15, 0x00,                    //   Logical Minimum (0)               521
# 0x25, 0x01,                    //   Logical Maximum (1)               523
# 0x75, 0x08,                    //   Report Size (8)                   525
# 0x85, 0x22,                    //   Report ID (34)                    527
# 0x0a, 0x0d, 0x10,              //   Usage (Vendor Usage 0x100d)       529
# 0x95, 0x01,                    //   Report Count (1)                  532
# 0xb1, 0x00,                    //   Feature (Data,Arr,Abs)            534
# 0x85, 0x23,                    //   Report ID (35)                    536
# 0x09, 0x55,                    //   Usage (Vendor Usage 0x55)         538
# 0x26, 0xff, 0x00,              //   Logical Maximum (255)             540
# 0x95, 0x01,                    //   Report Count (1)                  543
# 0xb1, 0x02,                    //   Feature (Data,Var,Abs)            545
# 0xc0,                          //  End Collection                     547
# 0xc0,                          // End Collection                      548
# 
R: 549 06 00 ff 09 05 a1 01 85 21 09 54 15 00 26 ff 00 75 08 95 01 81 02 09 22 a1 02 09 51 65 00 55 00 15 00 26 ff 00 75 08 95 01 81 02 09 42 15 00 25 01 75 01 95 01 81 02 95 07 81 03 0a 30 01 65 11 55 0d 35 00 46 80 57 15 00 26 00 23 75 10 95 01 81 02 0a 31 01 46 d0 39 26 20 17 81 02 09 48 46 be 08 26 29 00 75 08 95 01 81 02 09 49 46 c9 05 26 1f 00 81 02 c0 09 22 a1 02 09 51 65 00 55 00 15 00 26 ff 00 75 08 95 01 81 02 09 42 15 00 25 01 75 01 95 01 81 02 95 07 81 03 0a 30 01 65 11 55 0d 35 00 46 80 57 15 00 26 00 23 75 10 95 01 81 02 0a 31 01 46 d0 39 26 20 17 81 02 09 48 46 be 08 26 29 00 75 08 95 01 81 02 09 49 46 c9 05 26 1f 00 81 02 c0 09 22 a1 02 09 51 65 00 55 00 15 00 26 ff 00 75 08 95 01 81 02 09 42 15 00 25 01 75 01 95 01 81 02 95 07 81 03 0a 30 01 65 11 55 0d 35 00 46 80 57 15 00 26 00 23 75 10 95 01 81 02 0a 31 01 46 d0 39 26 20 17 81 02 09 48 46 be 08 26 29 00 75 08 95 01 81 02 09 49 46 c9 05 26 1f 00 81 02 c0 09 22 a1 02 09 51 65 00 55 00 15 00 26 ff 00 75 08 95 01 81 02 09 42 15 00 25 01 75 01 95 01 81 02 95 07 81 03 0a 30 01 65 11 55 0d 35 00 46 80 57 15 00 26 00 23 75 10 95 01 81 02 0a 31 01 46 d0 39 26 20 17 81 02 09 48 46 be 08 26 29 00 75 08 95 01 81 02 09 49 46 c9 05 26 1f 00 81 02 c0 09 22 a1 02 09 51 65 00 55 00 15 00 26 ff 00 75 08 95 01 81 02 09 42 15 00 25 01 75 01 95 01 81 02 95 07 81 03 0a 30 01 65 11 55 0d 35 00 46 80 57 15 00 26 00 23 75 10 95 01 81 02 0a 31 01 46 d0 39 26 20 17 81 02 09 48 46 be 08 26 29 00 75 08 95 01 81 02 09 49 46 c9 05 26 1f 00 81 02 c0 09 56 15 00 27 ff ff 00 00 75 10 95 01 81 02 09 0e a1 02 15 00 25 01 75 08 85 22 0a 0d 10 95 01 b1 00 85 23 09 55 26 ff 00 95 01 b1 02 c0 c0
N: Wacom Co.,Ltd. Wacom Intuos Pro M
I: 3 056a 0357
# ReportID: 33 / 0xff000054:    1 
#              | 0xff000051:    1 | 0xff000042: 1 | # | 0xff000130:   1063 | 0xff000131:   1573 | 0xff000048:    3 | 0xff000049:    3 
#              | 0xff000051:    0 | 0xff000042: 0 | # | 0xff000130:      0 | 0xff000131:      0 | 0xff000048:    0 | 0xff000049:    0 
#              | 0xff000051:    0 | 0xff000042: 0 | # | 0xff000130:      0 | 0xff000131:      0 | 0xff000048:    0 | 0xff000049:    0 
#              | 0xff000051:    0 | 0xff000042: 0 | # | 0xff000130:      0 | 0xff000131:      0 | 0xff000048:    0 | 0xff000049:    0 
#              | 0xff000051:    0 | 0xff000042: 0 | # | 0xff000130:      0 | 0xff000131:      0 | 0xff000048:    0 | 0xff000049:    0 | 0xff000056:  37620 
E: 000000.000000 44 21 01 01 01 27 04 25 06 03 03 00 00 00 00 00 00 00 00 00 00 00 00 00 00 00 00 00 00 00 00 00 00 00 00 00 00 00 00 00 00 00 00 f4 92
# ReportID: 33 / 0xff000054:    1 
#              | 0xff000051:    1 | 0xff000042: 1 | # | 0xff000130:   1063 | 0xff000131:   1573 | 0xff000048:    2 | 0xff000049:    3 
#              | 0xff000051:    0 | 0xff000042: 0 | # | 0xff000130:      0 | 0xff000131:      0 | 0xff000048:    0 | 0xff000049:    0 
#              | 0xff000051:    0 | 0xff000042: 0 | # | 0xff000130:      0 | 0xff000131:      0 | 0xff000048:    0 | 0xff000049:    0 
#              | 0xff000051:    0 | 0xff000042: 0 | # | 0xff000130:      0 | 0xff000131:      0 | 0xff000048:    0 | 0xff000049:    0 
#              | 0xff000051:    0 | 0xff000042: 0 | # | 0xff000130:      0 | 0xff000131:      0 | 0xff000048:    0 | 0xff000049:    0 | 0xff000056:  37720 
E: 000000.010146 44 21 01 01 01 27 04 25 06 02 03 00 00 00 00 00 00 00 00 00 00 00 00 00 00 00 00 00 00 00 00 00 00 00 00 00 00 00 00 00 00 00 00 58 93
# ReportID: 33 / 0xff000054:    1 
#              | 0xff000051:    1 | 0xff000042: 1 | # | 0xff000130:   1086 | 0xff000131:   1565 | 0xff000048:    2 | 0xff000049:    3 
#              | 0xff000051:    0 | 0xff000042: 0 | # | 0xff000130:      0 | 0xff000131:      0 | 0xff000048:    0 | 0xff000049:    0 
#              | 0xff000051:    0 | 0xff000042: 0 | # | 0xff000130:      0 | 0xff000131:      0 | 0xff000048:    0 | 0xff000049:    0 
#              | 0xff000051:    0 | 0xff000042: 0 | # | 0xff000130:      0 | 0xff000131:      0 | 0xff000048:    0 | 0xff000049:    0 
#              | 0xff000051:    0 | 0xff000042: 0 | # | 0xff000130:      0 | 0xff000131:      0 | 0xff000048:    0 | 0xff000049:    0 | 0xff000056:  37820 
E: 000000.019992 44 21 01 01 01 3e 04 1d 06 02 03 00 00 00 00 00 00 00 00 00 00 00 00 00 00 00 00 00 00 00 00 00 00 00 00 00 00 00 00 00 00 00 00 bc 93
# ReportID: 33 / 0xff000054:    1 
#              | 0xff000051:    1 | 0xff000042: 1 | # | 0xff000130:   1128 | 0xff000131:   1554 | 0xff000048:    3 | 0xff000049:    3 
#              | 0xff000051:    0 | 0xff000042: 0 | # | 0xff000130:      0 | 0xff000131:      0 | 0xff000048:    0 | 0xff000049:    0 
#              | 0xff000051:    0 | 0xff000042: 0 | # | 0xff000130:      0 | 0xff000131:      0 | 0xff000048:    0 | 0xff000049:    0 
#              | 0xff000051:    0 | 0xff000042: 0 | # | 0xff000130:      0 | 0xff000131:      0 | 0xff000048:    0 | 0xff000049:    0 
#              | 0xff000051:    0 | 0xff000042: 0 | # | 0xff000130:      0 | 0xff000131:      0 | 0xff000048:    0 | 0xff000049:    0 | 0xff000056:  37920 
E: 000000.029974 44 21 01 01 01 68 04 12 06 03 03 00 00 00 00 00 00 00 00 00 00 00 00 00 00 00 00 00 00 00 00 00 00 00 00 00 00 00 00 00 00 00 00 20 94
# ReportID: 33 / 0xff000054:    1 
#              | 0xff000051:    1 | 0xff000042: 1 | # | 0xff000130:   1176 | 0xff000131:   1546 | 0xff000048:    3 | 0xff000049:    3 
#              | 0xff000051:    0 | 0xff000042: 0 | # | 0xff000130:      0 | 0xff000131:      0 | 0xff000048:    0 | 0xff000049:    0 
#              | 0xff000051:    0 | 0xff000042: 0 | # | 0xff000130:      0 | 0xff000131:      0 | 0xff000048:    0 | 0xff000049:    0 
#              | 0xff000051:    0 | 0xff000042: 0 | # | 0xff000130:      0 | 0xff000131:      0 | 0xff000048:    0 | 0xff000049:    0 
#              | 0xff000051:    0 | 0xff000042: 0 | # | 0xff000130:      0 | 0xff000131:      0 | 0xff000048:    0 | 0xff000049:    0 | 0xff000056:  38020 
E: 000000.039970 44 21 01 01 01 98 04 0a 06 03 03 00 00 00 00 00 00 00 00 00 00 00 00 00 00 00 00 00 00 00 00 00 00 00 00 00 00 00 00 00 00 00 00 84 94
# ReportID: 33 / 0xff000054:    1 
#              | 0xff000051:    1 | 0xff000042: 1 | # | 0xff000130:   1234 | 0xff000131:   1539 | 0xff000048:    3 | 0xff000049:    3 
#              | 0xff000051:    0 | 0xff000042: 0 | # | 0xff000130:      0 | 0xff000131:      0 | 0xff000048:    0 | 0xff000049:    0 
#              | 0xff000051:    0 | 0xff000042: 0 | # | 0xff000130:      0 | 0xff000131:      0 | 0xff000048:    0 | 0xff000049:    0 
#              | 0xff000051:    0 | 0xff000042: 0 | # | 0xff000130:      0 | 0xff000131:      0 | 0xff000048:    0 | 0xff000049:    0 
#              | 0xff000051:    0 | 0xff000042: 0 | # | 0xff000130:      0 | 0xff000131:      0 | 0xff000048:    0 | 0xff000049:    0 | 0xff000056:  38120 
E: 000000.049983 44 21 01 01 01 d2 04 03 06 03 03 00 00 00 00 00 00 00 00 00 00 00 00 00 00 00 00 00 00 00 00 00 00 00 00 00 00 00 00 00 00 00 00 e8 94
# ReportID: 33 / 0xff000054:    1 
#              | 0xff000051:    1 | 0xff000042: 1 | # | 0xff000130:   1323 | 0xff000131:   1534 | 0xff000048:    3 | 0xff000049:    3 
#              | 0xff000051:    0 | 0xff000042: 0 | # | 0xff000130:      0 | 0xff000131:      0 | 0xff000048:    0 | 0xff000049:    0 
#              | 0xff000051:    0 | 0xff000042: 0 | # | 0xff000130:      0 | 0xff000131:      0 | 0xff000048:    0 | 0xff000049:    0 
#              | 0xff000051:    0 | 0xff000042: 0 | # | 0xff000130:      0 | 0xff000131:      0 | 0xff000048:    0 | 0xff000049:    0 
#              | 0xff000051:    0 | 0xff000042: 0 | # | 0xff000130:      0 | 0xff000131:      0 | 0xff000048:    0 | 0xff000049:    0 | 0xff000056:  38220 
E: 000000.060087 44 21 01 01 01 2b 05 fe 05 03 03 00 00 00 00 00 00 00 00 00 00 00 00 00 00 00 00 00 00 00 00 00 00 00 00 00 00 00 00 00 00 00 00 4c 95
# ReportID: 33 / 0xff000054:    1 
#              | 0xff000051:    1 | 0xff000042: 1 | # | 0xff000130:   1394 | 0xff000131:   1532 | 0xff000048:    3 | 0xff000049:    3 
#              | 0xff000051:    0 | 0xff000042: 0 | # | 0xff000130:      0 | 0xff000131:      0 | 0xff000048:    0 | 0xff000049:    0 
#              | 0xff000051:    0 | 0xff000042: 0 | # | 0xff000130:      0 | 0xff000131:      0 | 0xff000048:    0 | 0xff000049:    0 
#              | 0xff000051:    0 | 0xff000042: 0 | # | 0xff000130:      0 | 0xff000131:      0 | 0xff000048:    0 | 0xff000049:    0 
#              | 0xff000051:    0 | 0xff000042: 0 | # | 0xff000130:      0 | 0xff000131:      0 | 0xff000048:    0 | 0xff000049:    0 | 0xff000056:  38320 
E: 000000.070084 44 21 01 01 01 72 05 fc 05 03 03 00 00 00 00 00 00 00 00 00 00 00 00 00 00 00 00 00 00 00 00 00 00 00 00 00 00 00 00 00 00 00 00 b0 95
# ReportID: 33 / 0xff000054:    1 
#              | 0xff000051:    1 | 0xff000042: 1 | # | 0xff000130:   1488 | 0xff000131:   1530 | 0xff000048:    3 | 0xff000049:    3 
#              | 0xff000051:    0 | 0xff000042: 0 | # | 0xff000130:      0 | 0xff000131:      0 | 0xff000048:    0 | 0xff000049:    0 
#              | 0xff000051:    0 | 0xff000042: 0 | # | 0xff000130:      0 | 0xff000131:      0 | 0xff000048:    0 | 0xff000049:    0 
#              | 0xff000051:    0 | 0xff000042: 0 | # | 0xff000130:      0 | 0xff000131:      0 | 0xff000048:    0 | 0xff000049:    0 
#              | 0xff000051:    0 | 0xff000042: 0 | # | 0xff000130:      0 | 0xff000131:      0 | 0xff000048:    0 | 0xff000049:    0 | 0xff000056:  38420 
E: 000000.079988 44 21 01 01 01 d0 05 fa 05 03 03 00 00 00 00 00 00 00 00 00 00 00 00 00 00 00 00 00 00 00 00 00 00 00 00 00 00 00 00 00 00 00 00 14 96
# ReportID: 33 / 0xff000054:    1 
#              | 0xff000051:    1 | 0xff000042: 1 | # | 0xff000130:   1589 | 0xff000131:   1529 | 0xff000048:    3 | 0xff000049:    3 
#              | 0xff000051:    0 | 0xff000042: 0 | # | 0xff000130:      0 | 0xff000131:      0 | 0xff000048:    0 | 0xff000049:    0 
#              | 0xff000051:    0 | 0xff000042: 0 | # | 0xff000130:      0 | 0xff000131:      0 | 0xff000048:    0 | 0xff000049:    0 
#              | 0xff000051:    0 | 0xff000042: 0 | # | 0xff000130:      0 | 0xff000131:      0 | 0xff000048:    0 | 0xff000049:    0 
#              | 0xff000051:    0 | 0xff000042: 0 | # | 0xff000130:      0 | 0xff000131:      0 | 0xff000048:    0 | 0xff000049:    0 | 0xff000056:  38520 
E: 000000.089989 44 21 01 01 01 35 06 f9 05 03 03 00 00 00 00 00 00 00 00 00 00 00 00 00 00 00 00 00 00 00 00 00 00 00 00 00 00 00 00 00 00 00 00 78 96
# ReportID: 33 / 0xff000054:    1 
#              | 0xff000051:    1 | 0xff000042: 1 | # | 0xff000130:   1681 | 0xff000131:   1531 | 0xff000048:    3 | 0xff000049:    3 
#              | 0xff000051:    0 | 0xff000042: 0 | # | 0xff000130:      0 | 0xff000131:      0 | 0xff000048:    0 | 0xff000049:    0 
#              | 0xff000051:    0 | 0xff000042: 0 | # | 0xff000130:      0 | 0xff000131:      0 | 0xff000048:    0 | 0xff000049:    0 
#              | 0xff000051:    0 | 0xff000042: 0 | # | 0xff000130:      0 | 0xff000131:      0 | 0xff000048:    0 | 0xff000049:    0 
#              | 0xff000051:    0 | 0xff000042: 0 | # | 0xff000130:      0 | 0xff000131:      0 | 0xff000048:    0 | 0xff000049:    0 | 0xff000056:  38620 
E: 000000.099991 44 21 01 01 01 91 06 fb 05 03 03 00 00 00 00 00 00 00 00 00 00 00 00 00 00 00 00 00 00 00 00 00 00 00 00 00 00 00 00 00 00 00 00 dc 96
# ReportID: 33 / 0xff000054:    1 
#              | 0xff000051:    1 | 0xff000042: 1 | # | 0xff000130:   1805 | 0xff000131:   1532 | 0xff000048:    3 | 0xff000049:    3 
#              | 0xff000051:    0 | 0xff000042: 0 | # | 0xff000130:      0 | 0xff000131:      0 | 0xff000048:    0 | 0xff000049:    0 
#              | 0xff000051:    0 | 0xff000042: 0 | # | 0xff000130:      0 | 0xff000131:      0 | 0xff000048:    0 | 0xff000049:    0 
#              | 0xff000051:    0 | 0xff000042: 0 | # | 0xff000130:      0 | 0xff000131:      0 | 0xff000048:    0 | 0xff000049:    0 
#              | 0xff000051:    0 | 0xff000042: 0 | # | 0xff000130:      0 | 0xff000131:      0 | 0xff000048:    0 | 0xff000049:    0 | 0xff000056:  38720 
E: 000000.110054 44 21 01 01 01 0d 07 fc 05 03 03 00 00 00 00 00 00 00 00 00 00 00 00 00 00 00 00 00 00 00 00 00 00 00 00 00 00 00 00 00 00 00 00 40 97
# ReportID: 33 / 0xff000054:    1 
#              | 0xff000051:    1 | 0xff000042: 1 | # | 0xff000130:   1901 | 0xff000131:   1534 | 0xff000048:    3 | 0xff000049:    3 
#              | 0xff000051:    0 | 0xff000042: 0 | # | 0xff000130:      0 | 0xff000131:      0 | 0xff000048:    0 | 0xff000049:    0 
#              | 0xff000051:    0 | 0xff000042: 0 | # | 0xff000130:      0 | 0xff000131:      0 | 0xff000048:    0 | 0xff000049:    0 
#              | 0xff000051:    0 | 0xff000042: 0 | # | 0xff000130:      0 | 0xff000131:      0 | 0xff000048:    0 | 0xff000049:    0 
#              | 0xff000051:    0 | 0xff000042: 0 | # | 0xff000130:      0 | 0xff000131:      0 | 0xff000048:    0 | 0xff000049:    0 | 0xff000056:  38820 
E: 000000.120058 44 21 01 01 01 6d 07 fe 05 03 03 00 00 00 00 00 00 00 00 00 00 00 00 00 00 00 00 00 00 00 00 00 00 00 00 00 00 00 00 00 00 00 00 a4 97
# ReportID: 33 / 0xff000054:    1 
#              | 0xff000051:    1 | 0xff000042: 1 | # | 0xff000130:   2027 | 0xff000131:   1531 | 0xff000048:    3 | 0xff000049:    3 
#              | 0xff000051:    0 | 0xff000042: 0 | # | 0xff000130:      0 | 0xff000131:      0 | 0xff000048:    0 | 0xff000049:    0 
#              | 0xff000051:    0 | 0xff000042: 0 | # | 0xff000130:      0 | 0xff000131:      0 | 0xff000048:    0 | 0xff000049:    0 
#              | 0xff000051:    0 | 0xff000042: 0 | # | 0xff000130:      0 | 0xff000131:      0 | 0xff000048:    0 | 0xff000049:    0 
#              | 0xff000051:    0 | 0xff000042: 0 | # | 0xff000130:      0 | 0xff000131:      0 | 0xff000048:    0 | 0xff000049:    0 | 0xff000056:  38920 
E: 000000.130003 44 21 01 01 01 eb 07 fb 05 03 03 00 00 00 00 00 00 00 00 00 00 00 00 00 00 00 00 00 00 00 00 00 00 00 00 00 00 00 00 00 00 00 00 08 98
# ReportID: 33 / 0xff000054:    1 
#              | 0xff000051:    1 | 0xff000042: 1 | # | 0xff000130:   2127 | 0xff000131:   1533 | 0xff000048:    3 | 0xff000049:    3 
#              | 0xff000051:    0 | 0xff000042: 0 | # | 0xff000130:      0 | 0xff000131:      0 | 0xff000048:    0 | 0xff000049:    0 
#              | 0xff000051:    0 | 0xff000042: 0 | # | 0xff000130:      0 | 0xff000131:      0 | 0xff000048:    0 | 0xff000049:    0 
#              | 0xff000051:    0 | 0xff000042: 0 | # | 0xff000130:      0 | 0xff000131:      0 | 0xff000048:    0 | 0xff000049:    0 
#              | 0xff000051:    0 | 0xff000042: 0 | # | 0xff000130:      0 | 0xff000131:      0 | 0xff000048:    0 | 0xff000049:    0 | 0xff000056:  39020 
E: 000000.140026 44 21 01 01 01 4f 08 fd 05 03 03 00 00 00 00 00 00 00 00 00 00 00 00 00 00 00 00 00 00 00 00 00 00 00 00 00 00 00 00 00 00 00 00 6c 98
# ReportID: 33 / 0xff000054:    1 
#              | 0xff000051:    1 | 0xff000042: 1 | # | 0xff000130:   2255 | 0xff000131:   1531 | 0xff000048:    3 | 0xff000049:    3 
#              | 0xff000051:    0 | 0xff000042: 0 | # | 0xff000130:      0 | 0xff000131:      0 | 0xff000048:    0 | 0xff000049:    0 
#              | 0xff000051:    0 | 0xff000042: 0 | # | 0xff000130:      0 | 0xff000131:      0 | 0xff000048:    0 | 0xff000049:    0 
#              | 0xff000051:    0 | 0xff000042: 0 | # | 0xff000130:      0 | 0xff000131:      0 | 0xff000048:    0 | 0xff000049:    0 
#              | 0xff000051:    0 | 0xff000042: 0 | # | 0xff000130:      0 | 0xff000131:      0 | 0xff000048:    0 | 0xff000049:    0 | 0xff000056:  39120 
E: 000000.150017 44 21 01 01 01 cf 08 fb 05 03 03 00 00 00 00 00 00 00 00 00 00 00 00 00 00 00 00 00 00 00 00 00 00 00 00 00 00 00 00 00 00 00 00 d0 98
# ReportID: 33 / 0xff000054:    1 
#              | 0xff000051:    1 | 0xff000042: 1 | # | 0xff000130:   2379 | 0xff000131:   1529 | 0xff000048:    3 | 0xff000049:    3 
#              | 0xff000051:    0 | 0xff000042: 0 | # | 0xff000130:      0 | 0xff000131:      0 | 0xff000048:    0 | 0xff000049:    0 
#              | 0xff000051:    0 | 0xff000042: 0 | # | 0xff000130:      0 | 0xff000131:      0 | 0xff000048:    0 | 0xff000049:    0 
#              | 0xff000051:    0 | 0xff000042: 0 | # | 0xff000130:      0 | 0xff000131:      0 | 0xff000048:    0 | 0xff000049:    0 
#              | 0xff000051:    0 | 0xff000042: 0 | # | 0xff000130:      0 | 0xff000131:      0 | 0xff000048:    0 | 0xff000049:    0 | 0xff000056:  39220 
E: 000000.160089 44 21 01 01 01 4b 09 f9 05 03 03 00 00 00 00 00 00 00 00 00 00 00 00 00 00 00 00 00 00 00 00 00 00 00 00 00 00 00 00 00 00 00 00 34 99
# ReportID: 33 / 0xff000054:    1 
#              | 0xff000051:    1 | 0xff000042: 1 | # | 0xff000130:   2496 | 0xff000131:   1528 | 0xff000048:    3 | 0xff000049:    3 
#              | 0xff000051:    0 | 0xff000042: 0 | # | 0xff000130:      0 | 0xff000131:      0 | 0xff000048:    0 | 0xff000049:    0 
#              | 0xff000051:    0 | 0xff000042: 0 | # | 0xff000130:      0 | 0xff000131:      0 | 0xff000048:    0 | 0xff000049:    0 
#              | 0xff000051:    0 | 0xff000042: 0 | # | 0xff000130:      0 | 0xff000131:      0 | 0xff000048:    0 | 0xff000049:    0 
#              | 0xff000051:    0 | 0xff000042: 0 | # | 0xff000130:      0 | 0xff000131:      0 | 0xff000048:    0 | 0xff000049:    0 | 0xff000056:  39320 
E: 000000.170101 44 21 01 01 01 c0 09 f8 05 03 03 00 00 00 00 00 00 00 00 00 00 00 00 00 00 00 00 00 00 00 00 00 00 00 00 00 00 00 00 00 00 00 00 98 99
# ReportID: 33 / 0xff000054:    1 
#              | 0xff000051:    1 | 0xff000042: 1 | # | 0xff000130:   2653 | 0xff000131:   1525 | 0xff000048:    3 | 0xff000049:    3 
#              | 0xff000051:    0 | 0xff000042: 0 | # | 0xff000130:      0 | 0xff000131:      0 | 0xff000048:    0 | 0xff000049:    0 
#              | 0xff000051:    0 | 0xff000042: 0 | # | 0xff000130:      0 | 0xff000131:      0 | 0xff000048:    0 | 0xff000049:    0 
#              | 0xff000051:    0 | 0xff000042: 0 | # | 0xff000130:      0 | 0xff000131:      0 | 0xff000048:    0 | 0xff000049:    0 
#              | 0xff000051:    0 | 0xff000042: 0 | # | 0xff000130:      0 | 0xff000131:      0 | 0xff000048:    0 | 0xff000049:    0 | 0xff000056:  39420 
E: 000000.180176 44 21 01 01 01 5d 0a f5 05 03 03 00 00 00 00 00 00 00 00 00 00 00 00 00 00 00 00 00 00 00 00 00 00 00 00 00 00 00 00 00 00 00 00 fc 99
# ReportID: 33 / 0xff000054:    1 
#              | 0xff000051:    1 | 0xff000042: 1 | # | 0xff000130:   2769 | 0xff000131:   1522 | 0xff000048:    3 | 0xff000049:    3 
#              | 0xff000051:    0 | 0xff000042: 0 | # | 0xff000130:      0 | 0xff000131:      0 | 0xff000048:    0 | 0xff000049:    0 
#              | 0xff000051:    0 | 0xff000042: 0 | # | 0xff000130:      0 | 0xff000131:      0 | 0xff000048:    0 | 0xff000049:    0 
#              | 0xff000051:    0 | 0xff000042: 0 | # | 0xff000130:      0 | 0xff000131:      0 | 0xff000048:    0 | 0xff000049:    0 
#              | 0xff000051:    0 | 0xff000042: 0 | # | 0xff000130:      0 | 0xff000131:      0 | 0xff000048:    0 | 0xff000049:    0 | 0xff000056:  39520 
E: 000000.190107 44 21 01 01 01 d1 0a f2 05 03 03 00 00 00 00 00 00 00 00 00 00 00 00 00 00 00 00 00 00 00 00 00 00 00 00 00 00 00 00 00 00 00 00 60 9a
# ReportID: 33 / 0xff000054:    1 
#              | 0xff000051:    1 | 0xff000042: 1 | # | 0xff000130:   2925 | 0xff000131:   1518 | 0xff000048:    2 | 0xff000049:    3 
#              | 0xff000051:    0 | 0xff000042: 0 | # | 0xff000130:      0 | 0xff000131:      0 | 0xff000048:    0 | 0xff000049:    0 
#              | 0xff000051:    0 | 0xff000042: 0 | # | 0xff000130:      0 | 0xff000131:      0 | 0xff000048:    0 | 0xff000049:    0 
#              | 0xff000051:    0 | 0xff000042: 0 | # | 0xff000130:      0 | 0xff000131:      0 | 0xff000048:    0 | 0xff000049:    0 
#              | 0xff000051:    0 | 0xff000042: 0 | # | 0xff000130:      0 | 0xff000131:      0 | 0xff000048:    0 | 0xff000049:    0 | 0xff000056:  39620 
E: 000000.200080 44 21 01 01 01 6d 0b ee 05 02 03 00 00 00 00 00 00 00 00 00 00 00 00 00 00 00 00 00 00 00 00 00 00 00 00 00 00 00 00 00 00 00 00 c4 9a
# ReportID: 33 / 0xff000054:    1 
#              | 0xff000051:    1 | 0xff000042: 1 | # | 0xff000130:   3081 | 0xff000131:   1518 | 0xff000048:    3 | 0xff000049:    3 
#              | 0xff000051:    0 | 0xff000042: 0 | # | 0xff000130:      0 | 0xff000131:      0 | 0xff000048:    0 | 0xff000049:    0 
#              | 0xff000051:    0 | 0xff000042: 0 | # | 0xff000130:      0 | 0xff000131:      0 | 0xff000048:    0 | 0xff000049:    0 
#              | 0xff000051:    0 | 0xff000042: 0 | # | 0xff000130:      0 | 0xff000131:      0 | 0xff000048:    0 | 0xff000049:    0 
#              | 0xff000051:    0 | 0xff000042: 0 | # | 0xff000130:      0 | 0xff000131:      0 | 0xff000048:    0 | 0xff000049:    0 | 0xff000056:  39720 
E: 000000.210124 44 21 01 01 01 09 0c ee 05 03 03 00 00 00 00 00 00 00 00 00 00 00 00 00 00 00 00 00 00 00 00 00 00 00 00 00 00 00 00 00 00 00 00 28 9b
# ReportID: 33 / 0xff000054:    1 
#              | 0xff000051:    1 | 0xff000042: 1 | # | 0xff000130:   3209 | 0xff000131:   1517 | 0xff000048:    3 | 0xff000049:    3 
#              | 0xff000051:    0 | 0xff000042: 0 | # | 0xff000130:      0 | 0xff000131:      0 | 0xff000048:    0 | 0xff000049:    0 
#              | 0xff000051:    0 | 0xff000042: 0 | # | 0xff000130:      0 | 0xff000131:      0 | 0xff000048:    0 | 0xff000049:    0 
#              | 0xff000051:    0 | 0xff000042: 0 | # | 0xff000130:      0 | 0xff000131:      0 | 0xff000048:    0 | 0xff000049:    0 
#              | 0xff000051:    0 | 0xff000042: 0 | # | 0xff000130:      0 | 0xff000131:      0 | 0xff000048:    0 | 0xff000049:    0 | 0xff000056:  39820 
E: 000000.220064 44 21 01 01 01 89 0c ed 05 03 03 00 00 00 00 00 00 00 00 00 00 00 00 00 00 00 00 00 00 00 00 00 00 00 00 00 00 00 00 00 00 00 00 8c 9b
# ReportID: 33 / 0xff000054:    1 
#              | 0xff000051:    1 | 0xff000042: 1 | # | 0xff000130:   3372 | 0xff000131:   1515 | 0xff000048:    3 | 0xff000049:    3 
#              | 0xff000051:    0 | 0xff000042: 0 | # | 0xff000130:      0 | 0xff000131:      0 | 0xff000048:    0 | 0xff000049:    0 
#              | 0xff000051:    0 | 0xff000042: 0 | # | 0xff000130:      0 | 0xff000131:      0 | 0xff000048:    0 | 0xff000049:    0 
#              | 0xff000051:    0 | 0xff000042: 0 | # | 0xff000130:      0 | 0xff000131:      0 | 0xff000048:    0 | 0xff000049:    0 
#              | 0xff000051:    0 | 0xff000042: 0 | # | 0xff000130:      0 | 0xff000131:      0 | 0xff000048:    0 | 0xff000049:    0 | 0xff000056:  39920 
E: 000000.230195 44 21 01 01 01 2c 0d eb 05 03 03 00 00 00 00 00 00 00 00 00 00 00 00 00 00 00 00 00 00 00 00 00 00 00 00 00 00 00 00 00 00 00 00 f0 9b
# ReportID: 33 / 0xff000054:    1 
#              | 0xff000051:    1 | 0xff000042: 1 | # | 0xff000130:   3540 | 0xff000131:   1517 | 0xff000048:    3 | 0xff000049:    3 
#              | 0xff000051:    0 | 0xff000042: 0 | # | 0xff000130:      0 | 0xff000131:      0 | 0xff000048:    0 | 0xff000049:    0 
#              | 0xff000051:    0 | 0xff000042: 0 | # | 0xff000130:      0 | 0xff000131:      0 | 0xff000048:    0 | 0xff000049:    0 
#              | 0xff000051:    0 | 0xff000042: 0 | # | 0xff000130:      0 | 0xff000131:      0 | 0xff000048:    0 | 0xff000049:    0 
#              | 0xff000051:    0 | 0xff000042: 0 | # | 0xff000130:      0 | 0xff000131:      0 | 0xff000048:    0 | 0xff000049:    0 | 0xff000056:  40020 
E: 000000.240095 44 21 01 01 01 d4 0d ed 05 03 03 00 00 00 00 00 00 00 00 00 00 00 00 00 00 00 00 00 00 00 00 00 00 00 00 00 00 00 00 00 00 00 00 54 9c
# ReportID: 33 / 0xff000054:    1 
#              | 0xff000051:    1 | 0xff000042: 1 | # | 0xff000130:   3679 | 0xff000131:   1519 | 0xff000048:    3 | 0xff000049:    3 
#              | 0xff000051:    0 | 0xff000042: 0 | # | 0xff000130:      0 | 0xff000131:      0 | 0xff000048:    0 | 0xff000049:    0 
#              | 0xff000051:    0 | 0xff000042: 0 | # | 0xff000130:      0 | 0xff000131:      0 | 0xff000048:    0 | 0xff000049:    0 
#              | 0xff000051:    0 | 0xff000042: 0 | # | 0xff000130:      0 | 0xff000131:      0 | 0xff000048:    0 | 0xff000049:    0 
#              | 0xff000051:    0 | 0xff000042: 0 | # | 0xff000130:      0 | 0xff000131:      0 | 0xff000048:    0 | 0xff000049:    0 | 0xff000056:  40120 
E: 000000.250129 44 21 01 01 01 5f 0e ef 05 03 03 00 00 00 00 00 00 00 00 00 00 00 00 00 00 00 00 00 00 00 00 00 00 00 00 00 00 00 00 00 00 00 00 b8 9c
# ReportID: 33 / 0xff000054:    1 
#              | 0xff000051:    1 | 0xff000042: 1 | # | 0xff000130:   3838 | 0xff000131:   1520 | 0xff000048:    2 | 0xff000049:    3 
#              | 0xff000051:    0 | 0xff000042: 0 | # | 0xff000130:      0 | 0xff000131:      0 | 0xff000048:    0 | 0xff000049:    0 
#              | 0xff000051:    0 | 0xff000042: 0 | # | 0xff000130:      0 | 0xff000131:      0 | 0xff000048:    0 | 0xff000049:    0 
#              | 0xff000051:    0 | 0xff000042: 0 | # | 0xff000130:      0 | 0xff000131:      0 | 0xff000048:    0 | 0xff000049:    0 
#              | 0xff000051:    0 | 0xff000042: 0 | # | 0xff000130:      0 | 0xff000131:      0 | 0xff000048:    0 | 0xff000049:    0 | 0xff000056:  40220 
E: 000000.260119 44 21 01 01 01 fe 0e f0 05 02 03 00 00 00 00 00 00 00 00 00 00 00 00 00 00 00 00 00 00 00 00 00 00 00 00 00 00 00 00 00 00 00 00 1c 9d
# ReportID: 33 / 0xff000054:    1 
#              | 0xff000051:    1 | 0xff000042: 1 | # | 0xff000130:   4013 | 0xff000131:   1522 | 0xff000048:    2 | 0xff000049:    3 
#              | 0xff000051:    0 | 0xff000042: 0 | # | 0xff000130:      0 | 0xff000131:      0 | 0xff000048:    0 | 0xff000049:    0 
#              | 0xff000051:    0 | 0xff000042: 0 | # | 0xff000130:      0 | 0xff000131:      0 | 0xff000048:    0 | 0xff000049:    0 
#              | 0xff000051:    0 | 0xff000042: 0 | # | 0xff000130:      0 | 0xff000131:      0 | 0xff000048:    0 | 0xff000049:    0 
#              | 0xff000051:    0 | 0xff000042: 0 | # | 0xff000130:      0 | 0xff000131:      0 | 0xff000048:    0 | 0xff000049:    0 | 0xff000056:  40320 
E: 000000.270085 44 21 01 01 01 ad 0f f2 05 02 03 00 00 00 00 00 00 00 00 00 00 00 00 00 00 00 00 00 00 00 00 00 00 00 00 00 00 00 00 00 00 00 00 80 9d
# ReportID: 33 / 0xff000054:    1 
#              | 0xff000051:    1 | 0xff000042: 1 | # | 0xff000130:   4177 | 0xff000131:   1525 | 0xff000048:    3 | 0xff000049:    3 
#              | 0xff000051:    0 | 0xff000042: 0 | # | 0xff000130:      0 | 0xff000131:      0 | 0xff000048:    0 | 0xff000049:    0 
#              | 0xff000051:    0 | 0xff000042: 0 | # | 0xff000130:      0 | 0xff000131:      0 | 0xff000048:    0 | 0xff000049:    0 
#              | 0xff000051:    0 | 0xff000042: 0 | # | 0xff000130:      0 | 0xff000131:      0 | 0xff000048:    0 | 0xff000049:    0 
#              | 0xff000051:    0 | 0xff000042: 0 | # | 0xff000130:      0 | 0xff000131:      0 | 0xff000048:    0 | 0xff000049:    0 | 0xff000056:  40420 
E: 000000.280210 44 21 01 01 01 51 10 f5 05 03 03 00 00 00 00 00 00 00 00 00 00 00 00 00 00 00 00 00 00 00 00 00 00 00 00 00 00 00 00 00 00 00 00 e4 9d
# ReportID: 33 / 0xff000054:    1 
#              | 0xff000051:    1 | 0xff000042: 1 | # | 0xff000130:   4332 | 0xff000131:   1529 | 0xff000048:    3 | 0xff000049:    3 
#              | 0xff000051:    0 | 0xff000042: 0 | # | 0xff000130:      0 | 0xff000131:      0 | 0xff000048:    0 | 0xff000049:    0 
#              | 0xff000051:    0 | 0xff000042: 0 | # | 0xff000130:      0 | 0xff000131:      0 | 0xff000048:    0 | 0xff000049:    0 
#              | 0xff000051:    0 | 0xff000042: 0 | # | 0xff000130:      0 | 0xff000131:      0 | 0xff000048:    0 | 0xff000049:    0 
#              | 0xff000051:    0 | 0xff000042: 0 | # | 0xff000130:      0 | 0xff000131:      0 | 0xff000048:    0 | 0xff000049:    0 | 0xff000056:  40520 
E: 000000.290199 44 21 01 01 01 ec 10 f9 05 03 03 00 00 00 00 00 00 00 00 00 00 00 00 00 00 00 00 00 00 00 00 00 00 00 00 00 00 00 00 00 00 00 00 48 9e
# ReportID: 33 / 0xff000054:    1 
#              | 0xff000051:    1 | 0xff000042: 1 | # | 0xff000130:   4503 | 0xff000131:   1532 | 0xff000048:    3 | 0xff000049:    3 
#              | 0xff000051:    0 | 0xff000042: 0 | # | 0xff000130:      0 | 0xff000131:      0 | 0xff000048:    0 | 0xff000049:    0 
#              | 0xff000051:    0 | 0xff000042: 0 | # | 0xff000130:      0 | 0xff000131:      0 | 0xff000048:    0 | 0xff000049:    0 
#              | 0xff000051:    0 | 0xff000042: 0 | # | 0xff000130:      0 | 0xff000131:      0 | 0xff000048:    0 | 0xff000049:    0 
#              | 0xff000051:    0 | 0xff000042: 0 | # | 0xff000130:      0 | 0xff000131:      0 | 0xff000048:    0 | 0xff000049:    0 | 0xff000056:  40620 
E: 000000.300055 44 21 01 01 01 97 11 fc 05 03 03 00 00 00 00 00 00 00 00 00 00 00 00 00 00 00 00 00 00 00 00 00 00 00 00 00 00 00 00 00 00 00 00 ac 9e
# ReportID: 33 / 0xff000054:    1 
#              | 0xff000051:    1 | 0xff000042: 1 | # | 0xff000130:   4687 | 0xff000131:   1535 | 0xff000048:    3 | 0xff000049:    3 
#              | 0xff000051:    0 | 0xff000042: 0 | # | 0xff000130:      0 | 0xff000131:      0 | 0xff000048:    0 | 0xff000049:    0 
#              | 0xff000051:    0 | 0xff000042: 0 | # | 0xff000130:      0 | 0xff000131:      0 | 0xff000048:    0 | 0xff000049:    0 
#              | 0xff000051:    0 | 0xff000042: 0 | # | 0xff000130:      0 | 0xff000131:      0 | 0xff000048:    0 | 0xff000049:    0 
#              | 0xff000051:    0 | 0xff000042: 0 | # | 0xff000130:      0 | 0xff000131:      0 | 0xff000048:    0 | 0xff000049:    0 | 0xff000056:  40720 
E: 000000.310211 44 21 01 01 01 4f 12 ff 05 03 03 00 00 00 00 00 00 00 00 00 00 00 00 00 00 00 00 00 00 00 00 00 00 00 00 00 00 00 00 00 00 00 00 10 9f
# ReportID: 33 / 0xff000054:    1 
#              | 0xff000051:    1 | 0xff000042: 1 | # | 0xff000130:   4855 | 0xff000131:   1540 | 0xff000048:    3 | 0xff000049:    3 
#              | 0xff000051:    0 | 0xff000042: 0 | # | 0xff000130:      0 | 0xff000131:      0 | 0xff000048:    0 | 0xff000049:    0 
#              | 0xff000051:    0 | 0xff000042: 0 | # | 0xff000130:      0 | 0xff000131:      0 | 0xff000048:    0 | 0xff000049:    0 
#              | 0xff000051:    0 | 0xff000042: 0 | # | 0xff000130:      0 | 0xff000131:      0 | 0xff000048:    0 | 0xff000049:    0 
#              | 0xff000051:    0 | 0xff000042: 0 | # | 0xff000130:      0 | 0xff000131:      0 | 0xff000048:    0 | 0xff000049:    0 | 0xff000056:  40820 
E: 000000.320073 44 21 01 01 01 f7 12 04 06 03 03 00 00 00 00 00 00 00 00 00 00 00 00 00 00 00 00 00 00 00 00 00 00 00 00 00 00 00 00 00 00 00 00 74 9f
# ReportID: 33 / 0xff000054:    1 
#              | 0xff000051:    1 | 0xff000042: 1 | # | 0xff000130:   5016 | 0xff000131:   1546 | 0xff000048:    3 | 0xff000049:    3 
#              | 0xff000051:    0 | 0xff000042: 0 | # | 0xff000130:      0 | 0xff000131:      0 | 0xff000048:    0 | 0xff000049:    0 
#              | 0xff000051:    0 | 0xff000042: 0 | # | 0xff000130:      0 | 0xff000131:      0 | 0xff000048:    0 | 0xff000049:    0 
#              | 0xff000051:    0 | 0xff000042: 0 | # | 0xff000130:      0 | 0xff000131:      0 | 0xff000048:    0 | 0xff000049:    0 
#              | 0xff000051:    0 | 0xff000042: 0 | # | 0xff000130:      0 | 0xff000131:      0 | 0xff000048:    0 | 0xff000049:    0 | 0xff000056:  40920 
E: 000000.330204 44 21 01 01 01 98 13 0a 06 03 03 00 00 00 00 00 00 00 00 00 00 00 00 00 00 00 00 00 00 00 00 00 00 00 00 00 00 00 00 00 00 00 00 d8 9f
# ReportID: 33 / 0xff000054:    1 
#              | 0xff000051:    1 | 0xff000042: 1 | # | 0xff000130:   5178 | 0xff000131:   1551 | 0xff000048:    3 | 0xff000049:    3 
#              | 0xff000051:    0 | 0xff000042: 0 | # | 0xff000130:      0 | 0xff000131:      0 | 0xff000048:    0 | 0xff000049:    0 
#              | 0xff000051:    0 | 0xff000042: 0 | # | 0xff000130:      0 | 0xff000131:      0 | 0xff000048:    0 | 0xff000049:    0 
#              | 0xff000051:    0 | 0xff000042: 0 | # | 0xff000130:      0 | 0xff000131:      0 | 0xff000048:    0 | 0xff000049:    0 
#              | 0xff000051:    0 | 0xff000042: 0 | # | 0xff000130:      0 | 0xff000131:      0 | 0xff000048:    0 | 0xff000049:    0 | 0xff000056:  41020 
E: 000000.340135 44 21 01 01 01 3a 14 0f 06 03 03 00 00 00 00 00 00 00 00 00 00 00 00 00 00 00 00 00 00 00 00 00 00 00 00 00 00 00 00 00 00 00 00 3c a0
# ReportID: 33 / 0xff000054:    1 
#              | 0xff000051:    1 | 0xff000042: 1 | # | 0xff000130:   5356 | 0xff000131:   1560 | 0xff000048:    3 | 0xff000049:    3 
#              | 0xff000051:    0 | 0xff000042: 0 | # | 0xff000130:      0 | 0xff000131:      0 | 0xff000048:    0 | 0xff000049:    0 
#              | 0xff000051:    0 | 0xff000042: 0 | # | 0xff000130:      0 | 0xff000131:      0 | 0xff000048:    0 | 0xff000049:    0 
#              | 0xff000051:    0 | 0xff000042: 0 | # | 0xff000130:      0 | 0xff000131:      0 | 0xff000048:    0 | 0xff000049:    0 
#              | 0xff000051:    0 | 0xff000042: 0 | # | 0xff000130:      0 | 0xff000131:      0 | 0xff000048:    0 | 0xff000049:    0 | 0xff000056:  41120 
E: 000000.350070 44 21 01 01 01 ec 14 18 06 03 03 00 00 00 00 00 00 00 00 00 00 00 00 00 00 00 00 00 00 00 00 00 00 00 00 00 00 00 00 00 00 00 00 a0 a0
# ReportID: 33 / 0xff000054:    1 
#              | 0xff000051:    1 | 0xff000042: 1 | # | 0xff000130:   5536 | 0xff000131:   1566 | 0xff000048:    3 | 0xff000049:    3 
#              | 0xff000051:    0 | 0xff000042: 0 | # | 0xff000130:      0 | 0xff000131:      0 | 0xff000048:    0 | 0xff000049:    0 
#              | 0xff000051:    0 | 0xff000042: 0 | # | 0xff000130:      0 | 0xff000131:      0 | 0xff000048:    0 | 0xff000049:    0 
#              | 0xff000051:    0 | 0xff000042: 0 | # | 0xff000130:      0 | 0xff000131:      0 | 0xff000048:    0 | 0xff000049:    0 
#              | 0xff000051:    0 | 0xff000042: 0 | # | 0xff000130:      0 | 0xff000131:      0 | 0xff000048:    0 | 0xff000049:    0 | 0xff000056:  41220 
E: 000000.360025 44 21 01 01 01 a0 15 1e 06 03 03 00 00 00 00 00 00 00 00 00 00 00 00 00 00 00 00 00 00 00 00 00 00 00 00 00 00 00 00 00 00 00 00 04 a1
# ReportID: 33 / 0xff000054:    1 
#              | 0xff000051:    1 | 0xff000042: 1 | # | 0xff000130:   5717 | 0xff000131:   1574 | 0xff000048:    3 | 0xff000049:    3 
#              | 0xff000051:    0 | 0xff000042: 0 | # | 0xff000130:      0 | 0xff000131:      0 | 0xff000048:    0 | 0xff000049:    0 
#              | 0xff000051:    0 | 0xff000042: 0 | # | 0xff000130:      0 | 0xff000131:      0 | 0xff000048:    0 | 0xff000049:    0 
#              | 0xff000051:    0 | 0xff000042: 0 | # | 0xff000130:      0 | 0xff000131:      0 | 0xff000048:    0 | 0xff000049:    0 
#              | 0xff000051:    0 | 0xff000042: 0 | # | 0xff000130:      0 | 0xff000131:      0 | 0xff000048:    0 | 0xff000049:    0 | 0xff000056:  41320 
E: 000000.370122 44 21 01 01 01 55 16 26 06 03 03 00 00 00 00 00 00 00 00 00 00 00 00 00 00 00 00 00 00 00 00 00 00 00 00 00 00 00 00 00 00 00 00 68 a1
# ReportID: 33 / 0xff000054:    1 
#              | 0xff000051:    1 | 0xff000042: 1 | # | 0xff000130:   5878 | 0xff000131:   1586 | 0xff000048:    3 | 0xff000049:    3 
#              | 0xff000051:    0 | 0xff000042: 0 | # | 0xff000130:      0 | 0xff000131:      0 | 0xff000048:    0 | 0xff000049:    0 
#              | 0xff000051:    0 | 0xff000042: 0 | # | 0xff000130:      0 | 0xff000131:      0 | 0xff000048:    0 | 0xff000049:    0 
#              | 0xff000051:    0 | 0xff000042: 0 | # | 0xff000130:      0 | 0xff000131:      0 | 0xff000048:    0 | 0xff000049:    0 
#              | 0xff000051:    0 | 0xff000042: 0 | # | 0xff000130:      0 | 0xff000131:      0 | 0xff000048:    0 | 0xff000049:    0 | 0xff000056:  41420 
E: 000000.380045 44 21 01 01 01 f6 16 32 06 03 03 00 00 00 00 00 00 00 00 00 00 00 00 00 00 00 00 00 00 00 00 00 00 00 00 00 00 00 00 00 00 00 00 cc a1
# ReportID: 33 / 0xff000054:    1 
#              | 0xff000051:    1 | 0xff000042: 1 | # | 0xff000130:   6032 | 0xff000131:   1594 | 0xff000048:    3 | 0xff000049:    3 
#              | 0xff000051:    0 | 0xff000042: 0 | # | 0xff000130:      0 | 0xff000131:      0 | 0xff000048:    0 | 0xff000049:    0 
#              | 0xff000051:    0 | 0xff000042: 0 | # | 0xff000130:      0 | 0xff000131:      0 | 0xff000048:    0 | 0xff000049:    0 
#              | 0xff000051:    0 | 0xff000042: 0 | # | 0xff000130:      0 | 0xff000131:      0 | 0xff000048:    0 | 0xff000049:    0 
#              | 0xff000051:    0 | 0xff000042: 0 | # | 0xff000130:      0 | 0xff000131:      0 | 0xff000048:    0 | 0xff000049:    0 | 0xff000056:  41520 
E: 000000.390119 44 21 01 01 01 90 17 3a 06 03 03 00 00 00 00 00 00 00 00 00 00 00 00 00 00 00 00 00 00 00 00 00 00 00 00 00 00 00 00 00 00 00 00 30 a2
# ReportID: 33 / 0xff000054:    1 
#              | 0xff000051:    1 | 0xff000042: 1 | # | 0xff000130:   6201 | 0xff000131:   1601 | 0xff000048:    3 | 0xff000049:    3 
#              | 0xff000051:    0 | 0xff000042: 0 | # | 0xff000130:      0 | 0xff000131:      0 | 0xff000048:    0 | 0xff000049:    0 
#              | 0xff000051:    0 | 0xff000042: 0 | # | 0xff000130:      0 | 0xff000131:      0 | 0xff000048:    0 | 0xff000049:    0 
#              | 0xff000051:    0 | 0xff000042: 0 | # | 0xff000130:      0 | 0xff000131:      0 | 0xff000048:    0 | 0xff000049:    0 
#              | 0xff000051:    0 | 0xff000042: 0 | # | 0xff000130:      0 | 0xff000131:      0 | 0xff000048:    0 | 0xff000049:    0 | 0xff000056:  41620 
E: 000000.400061 44 21 01 01 01 39 18 41 06 03 03 00 00 00 00 00 00 00 00 00 00 00 00 00 00 00 00 00 00 00 00 00 00 00 00 00 00 00 00 00 00 00 00 94 a2
# ReportID: 33 / 0xff000054:    1 
#              | 0xff000051:    1 | 0xff000042: 1 | # | 0xff000130:   6366 | 0xff000131:   1608 | 0xff000048:    3 | 0xff000049:    3 
#              | 0xff000051:    0 | 0xff000042: 0 | # | 0xff000130:      0 | 0xff000131:      0 | 0xff000048:    0 | 0xff000049:    0 
#              | 0xff000051:    0 | 0xff000042: 0 | # | 0xff000130:      0 | 0xff000131:      0 | 0xff000048:    0 | 0xff000049:    0 
#              | 0xff000051:    0 | 0xff000042: 0 | # | 0xff000130:      0 | 0xff000131:      0 | 0xff000048:    0 | 0xff000049:    0 
#              | 0xff000051:    0 | 0xff000042: 0 | # | 0xff000130:      0 | 0xff000131:      0 | 0xff000048:    0 | 0xff000049:    0 | 0xff000056:  41720 
E: 000000.410108 44 21 01 01 01 de 18 48 06 03 03 00 00 00 00 00 00 00 00 00 00 00 00 00 00 00 00 00 00 00 00 00 00 00 00 00 00 00 00 00 00 00 00 f8 a2
# ReportID: 33 / 0xff000054:    1 
#              | 0xff000051:    1 | 0xff000042: 1 | # | 0xff000130:   6497 | 0xff000131:   1618 | 0xff000048:    3 | 0xff000049:    3 
#              | 0xff000051:    0 | 0xff000042: 0 | # | 0xff000130:      0 | 0xff000131:      0 | 0xff000048:    0 | 0xff000049:    0 
#              | 0xff000051:    0 | 0xff000042: 0 | # | 0xff000130:      0 | 0xff000131:      0 | 0xff000048:    0 | 0xff000049:    0 
#              | 0xff000051:    0 | 0xff000042: 0 | # | 0xff000130:      0 | 0xff000131:      0 | 0xff000048:    0 | 0xff000049:    0 
#              | 0xff000051:    0 | 0xff000042: 0 | # | 0xff000130:      0 | 0xff000131:      0 | 0xff000048:    0 | 0xff000049:    0 | 0xff000056:  41820 
E: 000000.420045 44 21 01 01 01 61 19 52 06 03 03 00 00 00 00 00 00 00 00 00 00 00 00 00 00 00 00 00 00 00 00 00 00 00 00 00 00 00 00 00 00 00 00 5c a3
# ReportID: 33 / 0xff000054:    1 
#              | 0xff000051:    1 | 0xff000042: 1 | # | 0xff000130:   6638 | 0xff000131:   1623 | 0xff000048:    3 | 0xff000049:    3 
#              | 0xff000051:    0 | 0xff000042: 0 | # | 0xff000130:      0 | 0xff000131:      0 | 0xff000048:    0 | 0xff000049:    0 
#              | 0xff000051:    0 | 0xff000042: 0 | # | 0xff000130:      0 | 0xff000131:      0 | 0xff000048:    0 | 0xff000049:    0 
#              | 0xff000051:    0 | 0xff000042: 0 | # | 0xff000130:      0 | 0xff000131:      0 | 0xff000048:    0 | 0xff000049:    0 
#              | 0xff000051:    0 | 0xff000042: 0 | # | 0xff000130:      0 | 0xff000131:      0 | 0xff000048:    0 | 0xff000049:    0 | 0xff000056:  41920 
E: 000000.430120 44 21 01 01 01 ee 19 57 06 03 03 00 00 00 00 00 00 00 00 00 00 00 00 00 00 00 00 00 00 00 00 00 00 00 00 00 00 00 00 00 00 00 00 c0 a3
# ReportID: 33 / 0xff000054:    1 
#              | 0xff000051:    1 | 0xff000042: 1 | # | 0xff000130:   6793 | 0xff000131:   1625 | 0xff000048:    3 | 0xff000049:    3 
#              | 0xff000051:    0 | 0xff000042: 0 | # | 0xff000130:      0 | 0xff000131:      0 | 0xff000048:    0 | 0xff000049:    0 
#              | 0xff000051:    0 | 0xff000042: 0 | # | 0xff000130:      0 | 0xff000131:      0 | 0xff000048:    0 | 0xff000049:    0 
#              | 0xff000051:    0 | 0xff000042: 0 | # | 0xff000130:      0 | 0xff000131:      0 | 0xff000048:    0 | 0xff000049:    0 
#              | 0xff000051:    0 | 0xff000042: 0 | # | 0xff000130:      0 | 0xff000131:      0 | 0xff000048:    0 | 0xff000049:    0 | 0xff000056:  42020 
E: 000000.440103 44 21 01 01 01 89 1a 59 06 03 03 00 00 00 00 00 00 00 00 00 00 00 00 00 00 00 00 00 00 00 00 00 00 00 00 00 00 00 00 00 00 00 00 24 a4
# ReportID: 33 / 0xff000054:    1 
#              | 0xff000051:    1 | 0xff000042: 1 | # | 0xff000130:   6917 | 0xff000131:   1633 | 0xff000048:    3 | 0xff000049:    3 
#              | 0xff000051:    0 | 0xff000042: 0 | # | 0xff000130:      0 | 0xff000131:      0 | 0xff000048:    0 | 0xff000049:    0 
#              | 0xff000051:    0 | 0xff000042: 0 | # | 0xff000130:      0 | 0xff000131:      0 | 0xff000048:    0 | 0xff000049:    0 
#              | 0xff000051:    0 | 0xff000042: 0 | # | 0xff000130:      0 | 0xff000131:      0 | 0xff000048:    0 | 0xff000049:    0 
#              | 0xff000051:    0 | 0xff000042: 0 | # | 0xff000130:      0 | 0xff000131:      0 | 0xff000048:    0 | 0xff000049:    0 | 0xff000056:  42120 
E: 000000.450098 44 21 01 01 01 05 1b 61 06 03 03 00 00 00 00 00 00 00 00 00 00 00 00 00 00 00 00 00 00 00 00 00 00 00 00 00 00 00 00 00 00 00 00 88 a4
# ReportID: 33 / 0xff000054:    1 
#              | 0xff000051:    1 | 0xff000042: 1 | # | 0xff000130:   7053 | 0xff000131:   1633 | 0xff000048:    3 | 0xff000049:    3 
#              | 0xff000051:    0 | 0xff000042: 0 | # | 0xff000130:      0 | 0xff000131:      0 | 0xff000048:    0 | 0xff000049:    0 
#              | 0xff000051:    0 | 0xff000042: 0 | # | 0xff000130:      0 | 0xff000131:      0 | 0xff000048:    0 | 0xff000049:    0 
#              | 0xff000051:    0 | 0xff000042: 0 | # | 0xff000130:      0 | 0xff000131:      0 | 0xff000048:    0 | 0xff000049:    0 
#              | 0xff000051:    0 | 0xff000042: 0 | # | 0xff000130:      0 | 0xff000131:      0 | 0xff000048:    0 | 0xff000049:    0 | 0xff000056:  42220 
E: 000000.460245 44 21 01 01 01 8d 1b 61 06 03 03 00 00 00 00 00 00 00 00 00 00 00 00 00 00 00 00 00 00 00 00 00 00 00 00 00 00 00 00 00 00 00 00 ec a4
# ReportID: 33 / 0xff000054:    1 
#              | 0xff000051:    1 | 0xff000042: 1 | # | 0xff000130:   7180 | 0xff000131:   1635 | 0xff000048:    3 | 0xff000049:    3 
#              | 0xff000051:    0 | 0xff000042: 0 | # | 0xff000130:      0 | 0xff000131:      0 | 0xff000048:    0 | 0xff000049:    0 
#              | 0xff000051:    0 | 0xff000042: 0 | # | 0xff000130:      0 | 0xff000131:      0 | 0xff000048:    0 | 0xff000049:    0 
#              | 0xff000051:    0 | 0xff000042: 0 | # | 0xff000130:      0 | 0xff000131:      0 | 0xff000048:    0 | 0xff000049:    0 
#              | 0xff000051:    0 | 0xff000042: 0 | # | 0xff000130:      0 | 0xff000131:      0 | 0xff000048:    0 | 0xff000049:    0 | 0xff000056:  42320 
E: 000000.470090 44 21 01 01 01 0c 1c 63 06 03 03 00 00 00 00 00 00 00 00 00 00 00 00 00 00 00 00 00 00 00 00 00 00 00 00 00 00 00 00 00 00 00 00 50 a5
# ReportID: 33 / 0xff000054:    1 
#              | 0xff000051:    1 | 0xff000042: 1 | # | 0xff000130:   7292 | 0xff000131:   1638 | 0xff000048:    3 | 0xff000049:    3 
#              | 0xff000051:    0 | 0xff000042: 0 | # | 0xff000130:      0 | 0xff000131:      0 | 0xff000048:    0 | 0xff000049:    0 
#              | 0xff000051:    0 | 0xff000042: 0 | # | 0xff000130:      0 | 0xff000131:      0 | 0xff000048:    0 | 0xff000049:    0 
#              | 0xff000051:    0 | 0xff000042: 0 | # | 0xff000130:      0 | 0xff000131:      0 | 0xff000048:    0 | 0xff000049:    0 
#              | 0xff000051:    0 | 0xff000042: 0 | # | 0xff000130:      0 | 0xff000131:      0 | 0xff000048:    0 | 0xff000049:    0 | 0xff000056:  42420 
E: 000000.480130 44 21 01 01 01 7c 1c 66 06 03 03 00 00 00 00 00 00 00 00 00 00 00 00 00 00 00 00 00 00 00 00 00 00 00 00 00 00 00 00 00 00 00 00 b4 a5
# ReportID: 33 / 0xff000054:    1 
#              | 0xff000051:    1 | 0xff000042: 1 | # | 0xff000130:   7418 | 0xff000131:   1638 | 0xff000048:    3 | 0xff000049:    3 
#              | 0xff000051:    0 | 0xff000042: 0 | # | 0xff000130:      0 | 0xff000131:      0 | 0xff000048:    0 | 0xff000049:    0 
#              | 0xff000051:    0 | 0xff000042: 0 | # | 0xff000130:      0 | 0xff000131:      0 | 0xff000048:    0 | 0xff000049:    0 
#              | 0xff000051:    0 | 0xff000042: 0 | # | 0xff000130:      0 | 0xff000131:      0 | 0xff000048:    0 | 0xff000049:    0 
#              | 0xff000051:    0 | 0xff000042: 0 | # | 0xff000130:      0 | 0xff000131:      0 | 0xff000048:    0 | 0xff000049:    0 | 0xff000056:  42520 
E: 000000.490061 44 21 01 01 01 fa 1c 66 06 03 03 00 00 00 00 00 00 00 00 00 00 00 00 00 00 00 00 00 00 00 00 00 00 00 00 00 00 00 00 00 00 00 00 18 a6
# ReportID: 33 / 0xff000054:    1 
#              | 0xff000051:    1 | 0xff000042: 1 | # | 0xff000130:   7517 | 0xff000131:   1641 | 0xff000048:    3 | 0xff000049:    3 
#              | 0xff000051:    0 | 0xff000042: 0 | # | 0xff000130:      0 | 0xff000131:      0 | 0xff000048:    0 | 0xff000049:    0 
#              | 0xff000051:    0 | 0xff000042: 0 | # | 0xff000130:      0 | 0xff000131:      0 | 0xff000048:    0 | 0xff000049:    0 
#              | 0xff000051:    0 | 0xff000042: 0 | # | 0xff000130:      0 | 0xff000131:      0 | 0xff000048:    0 | 0xff000049:    0 
#              | 0xff000051:    0 | 0xff000042: 0 | # | 0xff000130:      0 | 0xff000131:      0 | 0xff000048:    0 | 0xff000049:    0 | 0xff000056:  42620 
E: 000000.500127 44 21 01 01 01 5d 1d 69 06 03 03 00 00 00 00 00 00 00 00 00 00 00 00 00 00 00 00 00 00 00 00 00 00 00 00 00 00 00 00 00 00 00 00 7c a6
# ReportID: 33 / 0xff000054:    1 
#              | 0xff000051:    1 | 0xff000042: 1 | # | 0xff000130:   7638 | 0xff000131:   1642 | 0xff000048:    3 | 0xff000049:    3 
#              | 0xff000051:    0 | 0xff000042: 0 | # | 0xff000130:      0 | 0xff000131:      0 | 0xff000048:    0 | 0xff000049:    0 
#              | 0xff000051:    0 | 0xff000042: 0 | # | 0xff000130:      0 | 0xff000131:      0 | 0xff000048:    0 | 0xff000049:    0 
#              | 0xff000051:    0 | 0xff000042: 0 | # | 0xff000130:      0 | 0xff000131:      0 | 0xff000048:    0 | 0xff000049:    0 
#              | 0xff000051:    0 | 0xff000042: 0 | # | 0xff000130:      0 | 0xff000131:      0 | 0xff000048:    0 | 0xff000049:    0 | 0xff000056:  42720 
E: 000000.510132 44 21 01 01 01 d6 1d 6a 06 03 03 00 00 00 00 00 00 00 00 00 00 00 00 00 00 00 00 00 00 00 00 00 00 00 00 00 00 00 00 00 00 00 00 e0 a6
# ReportID: 33 / 0xff000054:    1 
#              | 0xff000051:    1 | 0xff000042: 1 | # | 0xff000130:   7735 | 0xff000131:   1648 | 0xff000048:    3 | 0xff000049:    3 
#              | 0xff000051:    0 | 0xff000042: 0 | # | 0xff000130:      0 | 0xff000131:      0 | 0xff000048:    0 | 0xff000049:    0 
#              | 0xff000051:    0 | 0xff000042: 0 | # | 0xff000130:      0 | 0xff000131:      0 | 0xff000048:    0 | 0xff000049:    0 
#              | 0xff000051:    0 | 0xff000042: 0 | # | 0xff000130:      0 | 0xff000131:      0 | 0xff000048:    0 | 0xff000049:    0 
#              | 0xff000051:    0 | 0xff000042: 0 | # | 0xff000130:      0 | 0xff000131:      0 | 0xff000048:    0 | 0xff000049:    0 | 0xff000056:  42820 
E: 000000.520122 44 21 01 01 01 37 1e 70 06 03 03 00 00 00 00 00 00 00 00 00 00 00 00 00 00 00 00 00 00 00 00 00 00 00 00 00 00 00 00 00 00 00 00 44 a7
# ReportID: 33 / 0xff000054:    1 
#              | 0xff000051:    1 | 0xff000042: 1 | # | 0xff000130:   7849 | 0xff000131:   1653 | 0xff000048:    3 | 0xff000049:    3 
#              | 0xff000051:    0 | 0xff000042: 0 | # | 0xff000130:      0 | 0xff000131:      0 | 0xff000048:    0 | 0xff000049:    0 
#              | 0xff000051:    0 | 0xff000042: 0 | # | 0xff000130:      0 | 0xff000131:      0 | 0xff000048:    0 | 0xff000049:    0 
#              | 0xff000051:    0 | 0xff000042: 0 | # | 0xff000130:      0 | 0xff000131:      0 | 0xff000048:    0 | 0xff000049:    0 
#              | 0xff000051:    0 | 0xff000042: 0 | # | 0xff000130:      0 | 0xff000131:      0 | 0xff000048:    0 | 0xff000049:    0 | 0xff000056:  42920 
E: 000000.530219 44 21 01 01 01 a9 1e 75 06 03 03 00 00 00 00 00 00 00 00 00 00 00 00 00 00 00 00 00 00 00 00 00 00 00 00 00 00 00 00 00 00 00 00 a8 a7
# ReportID: 33 / 0xff000054:    1 
#              | 0xff000051:    1 | 0xff000042: 1 | # | 0xff000130:   7939 | 0xff000131:   1660 | 0xff000048:    2 | 0xff000049:    3 
#              | 0xff000051:    0 | 0xff000042: 0 | # | 0xff000130:      0 | 0xff000131:      0 | 0xff000048:    0 | 0xff000049:    0 
#              | 0xff000051:    0 | 0xff000042: 0 | # | 0xff000130:      0 | 0xff000131:      0 | 0xff000048:    0 | 0xff000049:    0 
#              | 0xff000051:    0 | 0xff000042: 0 | # | 0xff000130:      0 | 0xff000131:      0 | 0xff000048:    0 | 0xff000049:    0 
#              | 0xff000051:    0 | 0xff000042: 0 | # | 0xff000130:      0 | 0xff000131:      0 | 0xff000048:    0 | 0xff000049:    0 | 0xff000056:  43020 
E: 000000.540139 44 21 01 01 01 03 1f 7c 06 02 03 00 00 00 00 00 00 00 00 00 00 00 00 00 00 00 00 00 00 00 00 00 00 00 00 00 00 00 00 00 00 00 00 0c a8
# ReportID: 33 / 0xff000054:    1 
#              | 0xff000051:    1 | 0xff000042: 1 | # | 0xff000130:   8031 | 0xff000131:   1666 | 0xff000048:    3 | 0xff000049:    3 
#              | 0xff000051:    0 | 0xff000042: 0 | # | 0xff000130:      0 | 0xff000131:      0 | 0xff000048:    0 | 0xff000049:    0 
#              | 0xff000051:    0 | 0xff000042: 0 | # | 0xff000130:      0 | 0xff000131:      0 | 0xff000048:    0 | 0xff000049:    0 
#              | 0xff000051:    0 | 0xff000042: 0 | # | 0xff000130:      0 | 0xff000131:      0 | 0xff000048:    0 | 0xff000049:    0 
#              | 0xff000051:    0 | 0xff000042: 0 | # | 0xff000130:      0 | 0xff000131:      0 | 0xff000048:    0 | 0xff000049:    0 | 0xff000056:  43120 
E: 000000.550178 44 21 01 01 01 5f 1f 82 06 03 03 00 00 00 00 00 00 00 00 00 00 00 00 00 00 00 00 00 00 00 00 00 00 00 00 00 00 00 00 00 00 00 00 70 a8
# ReportID: 33 / 0xff000054:    1 
#              | 0xff000051:    1 | 0xff000042: 1 | # | 0xff000130:   8119 | 0xff000131:   1671 | 0xff000048:    3 | 0xff000049:    3 
#              | 0xff000051:    0 | 0xff000042: 0 | # | 0xff000130:      0 | 0xff000131:      0 | 0xff000048:    0 | 0xff000049:    0 
#              | 0xff000051:    0 | 0xff000042: 0 | # | 0xff000130:      0 | 0xff000131:      0 | 0xff000048:    0 | 0xff000049:    0 
#              | 0xff000051:    0 | 0xff000042: 0 | # | 0xff000130:      0 | 0xff000131:      0 | 0xff000048:    0 | 0xff000049:    0 
#              | 0xff000051:    0 | 0xff000042: 0 | # | 0xff000130:      0 | 0xff000131:      0 | 0xff000048:    0 | 0xff000049:    0 | 0xff000056:  43220 
E: 000000.560020 44 21 01 01 01 b7 1f 87 06 03 03 00 00 00 00 00 00 00 00 00 00 00 00 00 00 00 00 00 00 00 00 00 00 00 00 00 00 00 00 00 00 00 00 d4 a8
# ReportID: 33 / 0xff000054:    1 
#              | 0xff000051:    1 | 0xff000042: 1 | # | 0xff000130:   8182 | 0xff000131:   1676 | 0xff000048:    2 | 0xff000049:    3 
#              | 0xff000051:    0 | 0xff000042: 0 | # | 0xff000130:      0 | 0xff000131:      0 | 0xff000048:    0 | 0xff000049:    0 
#              | 0xff000051:    0 | 0xff000042: 0 | # | 0xff000130:      0 | 0xff000131:      0 | 0xff000048:    0 | 0xff000049:    0 
#              | 0xff000051:    0 | 0xff000042: 0 | # | 0xff000130:      0 | 0xff000131:      0 | 0xff000048:    0 | 0xff000049:    0 
#              | 0xff000051:    0 | 0xff000042: 0 | # | 0xff000130:      0 | 0xff000131:      0 | 0xff000048:    0 | 0xff000049:    0 | 0xff000056:  43320 
E: 000000.570089 44 21 01 01 01 f6 1f 8c 06 02 03 00 00 00 00 00 00 00 00 00 00 00 00 00 00 00 00 00 00 00 00 00 00 00 00 00 00 00 00 00 00 00 00 38 a9
# ReportID: 33 / 0xff000054:    1 
#              | 0xff000051:    1 | 0xff000042: 1 | # | 0xff000130:   8251 | 0xff000131:   1679 | 0xff000048:    3 | 0xff000049:    3 
#              | 0xff000051:    0 | 0xff000042: 0 | # | 0xff000130:      0 | 0xff000131:      0 | 0xff000048:    0 | 0xff000049:    0 
#              | 0xff000051:    0 | 0xff000042: 0 | # | 0xff000130:      0 | 0xff000131:      0 | 0xff000048:    0 | 0xff000049:    0 
#              | 0xff000051:    0 | 0xff000042: 0 | # | 0xff000130:      0 | 0xff000131:      0 | 0xff000048:    0 | 0xff000049:    0 
#              | 0xff000051:    0 | 0xff000042: 0 | # | 0xff000130:      0 | 0xff000131:      0 | 0xff000048:    0 | 0xff000049:    0 | 0xff000056:  43420 
E: 000000.580067 44 21 01 01 01 3b 20 8f 06 03 03 00 00 00 00 00 00 00 00 00 00 00 00 00 00 00 00 00 00 00 00 00 00 00 00 00 00 00 00 00 00 00 00 9c a9
# ReportID: 33 / 0xff000054:    1 
#              | 0xff000051:    1 | 0xff000042: 1 | # | 0xff000130:   8310 | 0xff000131:   1680 | 0xff000048:    3 | 0xff000049:    3 
#              | 0xff000051:    0 | 0xff000042: 0 | # | 0xff000130:      0 | 0xff000131:      0 | 0xff000048:    0 | 0xff000049:    0 
#              | 0xff000051:    0 | 0xff000042: 0 | # | 0xff000130:      0 | 0xff000131:      0 | 0xff000048:    0 | 0xff000049:    0 
#              | 0xff000051:    0 | 0xff000042: 0 | # | 0xff000130:      0 | 0xff000131:      0 | 0xff000048:    0 | 0xff000049:    0 
#              | 0xff000051:    0 | 0xff000042: 0 | # | 0xff000130:      0 | 0xff000131:      0 | 0xff000048:    0 | 0xff000049:    0 | 0xff000056:  43520 
E: 000000.589986 44 21 01 01 01 76 20 90 06 03 03 00 00 00 00 00 00 00 00 00 00 00 00 00 00 00 00 00 00 00 00 00 00 00 00 00 00 00 00 00 00 00 00 00 aa
# ReportID: 33 / 0xff000054:    1 
#              | 0xff000051:    1 | 0xff000042: 1 | # | 0xff000130:   8350 | 0xff000131:   1678 | 0xff000048:    3 | 0xff000049:    3 
#              | 0xff000051:    0 | 0xff000042: 0 | # | 0xff000130:      0 | 0xff000131:      0 | 0xff000048:    0 | 0xff000049:    0 
#              | 0xff000051:    0 | 0xff000042: 0 | # | 0xff000130:      0 | 0xff000131:      0 | 0xff000048:    0 | 0xff000049:    0 
#              | 0xff000051:    0 | 0xff000042: 0 | # | 0xff000130:      0 | 0xff000131:      0 | 0xff000048:    0 | 0xff000049:    0 
#              | 0xff000051:    0 | 0xff000042: 0 | # | 0xff000130:      0 | 0xff000131:      0 | 0xff000048:    0 | 0xff000049:    0 | 0xff000056:  43620 
E: 000000.599954 44 21 01 01 01 9e 20 8e 06 03 03 00 00 00 00 00 00 00 00 00 00 00 00 00 00 00 00 00 00 00 00 00 00 00 00 00 00 00 00 00 00 00 00 64 aa
# ReportID: 33 / 0xff000054:    1 
#              | 0xff000051:    1 | 0xff000042: 1 | # | 0xff000130:   8375 | 0xff000131:   1676 | 0xff000048:    2 | 0xff000049:    3 
#              | 0xff000051:    0 | 0xff000042: 0 | # | 0xff000130:      0 | 0xff000131:      0 | 0xff000048:    0 | 0xff000049:    0 
#              | 0xff000051:    0 | 0xff000042: 0 | # | 0xff000130:      0 | 0xff000131:      0 | 0xff000048:    0 | 0xff000049:    0 
#              | 0xff000051:    0 | 0xff000042: 0 | # | 0xff000130:      0 | 0xff000131:      0 | 0xff000048:    0 | 0xff000049:    0 
#              | 0xff000051:    0 | 0xff000042: 0 | # | 0xff000130:      0 | 0xff000131:      0 | 0xff000048:    0 | 0xff000049:    0 | 0xff000056:  43720 
E: 000000.609972 44 21 01 01 01 b7 20 8c 06 02 03 00 00 00 00 00 00 00 00 00 00 00 00 00 00 00 00 00 00 00 00 00 00 00 00 00 00 00 00 00 00 00 00 c8 aa
# ReportID: 33 / 0xff000054:    1 
#              | 0xff000051:    1 | 0xff000042: 1 | # | 0xff000130:   8394 | 0xff000131:   1673 | 0xff000048:    2 | 0xff000049:    3 
#              | 0xff000051:    0 | 0xff000042: 0 | # | 0xff000130:      0 | 0xff000131:      0 | 0xff000048:    0 | 0xff000049:    0 
#              | 0xff000051:    0 | 0xff000042: 0 | # | 0xff000130:      0 | 0xff000131:      0 | 0xff000048:    0 | 0xff000049:    0 
#              | 0xff000051:    0 | 0xff000042: 0 | # | 0xff000130:      0 | 0xff000131:      0 | 0xff000048:    0 | 0xff000049:    0 
#              | 0xff000051:    0 | 0xff000042: 0 | # | 0xff000130:      0 | 0xff000131:      0 | 0xff000048:    0 | 0xff000049:    0 | 0xff000056:  43820 
E: 000000.619987 44 21 01 01 01 ca 20 89 06 02 03 00 00 00 00 00 00 00 00 00 00 00 00 00 00 00 00 00 00 00 00 00 00 00 00 00 00 00 00 00 00 00 00 2c ab
# ReportID: 33 / 0xff000054:    1 
#              | 0xff000051:    1 | 0xff000042: 1 | # | 0xff000130:   8407 | 0xff000131:   1671 | 0xff000048:    2 | 0xff000049:    3 
#              | 0xff000051:    0 | 0xff000042: 0 | # | 0xff000130:      0 | 0xff000131:      0 | 0xff000048:    0 | 0xff000049:    0 
#              | 0xff000051:    0 | 0xff000042: 0 | # | 0xff000130:      0 | 0xff000131:      0 | 0xff000048:    0 | 0xff000049:    0 
#              | 0xff000051:    0 | 0xff000042: 0 | # | 0xff000130:      0 | 0xff000131:      0 | 0xff000048:    0 | 0xff000049:    0 
#              | 0xff000051:    0 | 0xff000042: 0 | # | 0xff000130:      0 | 0xff000131:      0 | 0xff000048:    0 | 0xff000049:    0 | 0xff000056:  43920 
E: 000000.630105 44 21 01 01 01 d7 20 87 06 02 03 00 00 00 00 00 00 00 00 00 00 00 00 00 00 00 00 00 00 00 00 00 00 00 00 00 00 00 00 00 00 00 00 90 ab
# ReportID: 33 / 0xff000054:    1 
#              | 0xff000051:    1 | 0xff000042: 1 | # | 0xff000130:   8419 | 0xff000131:   1669 | 0xff000048:    2 | 0xff000049:    3 
#              | 0xff000051:    0 | 0xff000042: 0 | # | 0xff000130:      0 | 0xff000131:      0 | 0xff000048:    0 | 0xff000049:    0 
#              | 0xff000051:    0 | 0xff000042: 0 | # | 0xff000130:      0 | 0xff000131:      0 | 0xff000048:    0 | 0xff000049:    0 
#              | 0xff000051:    0 | 0xff000042: 0 | # | 0xff000130:      0 | 0xff000131:      0 | 0xff000048:    0 | 0xff000049:    0 
#              | 0xff000051:    0 | 0xff000042: 0 | # | 0xff000130:      0 | 0xff000131:      0 | 0xff000048:    0 | 0xff000049:    0 | 0xff000056:  44020 
E: 000000.640024 44 21 01 01 01 e3 20 85 06 02 03 00 00 00 00 00 00 00 00 00 00 00 00 00 00 00 00 00 00 00 00 00 00 00 00 00 00 00 00 00 00 00 00 f4 ab
# ReportID: 33 / 0xff000054:    1 
#              | 0xff000051:    1 | 0xff000042: 1 | # | 0xff000130:   8430 | 0xff000131:   1668 | 0xff000048:    2 | 0xff000049:    3 
#              | 0xff000051:    0 | 0xff000042: 0 | # | 0xff000130:      0 | 0xff000131:      0 | 0xff000048:    0 | 0xff000049:    0 
#              | 0xff000051:    0 | 0xff000042: 0 | # | 0xff000130:      0 | 0xff000131:      0 | 0xff000048:    0 | 0xff000049:    0 
#              | 0xff000051:    0 | 0xff000042: 0 | # | 0xff000130:      0 | 0xff000131:      0 | 0xff000048:    0 | 0xff000049:    0 
#              | 0xff000051:    0 | 0xff000042: 0 | # | 0xff000130:      0 | 0xff000131:      0 | 0xff000048:    0 | 0xff000049:    0 | 0xff000056:  44120 
E: 000000.650068 44 21 01 01 01 ee 20 84 06 02 03 00 00 00 00 00 00 00 00 00 00 00 00 00 00 00 00 00 00 00 00 00 00 00 00 00 00 00 00 00 00 00 00 58 ac
# ReportID: 33 / 0xff000054:    1 
#              | 0xff000051:    1 | 0xff000042: 1 | # | 0xff000130:   8440 | 0xff000131:   1668 | 0xff000048:    2 | 0xff000049:    3 
#              | 0xff000051:    0 | 0xff000042: 0 | # | 0xff000130:      0 | 0xff000131:      0 | 0xff000048:    0 | 0xff000049:    0 
#              | 0xff000051:    0 | 0xff000042: 0 | # | 0xff000130:      0 | 0xff000131:      0 | 0xff000048:    0 | 0xff000049:    0 
#              | 0xff000051:    0 | 0xff000042: 0 | # | 0xff000130:      0 | 0xff000131:      0 | 0xff000048:    0 | 0xff000049:    0 
#              | 0xff000051:    0 | 0xff000042: 0 | # | 0xff000130:      0 | 0xff000131:      0 | 0xff000048:    0 | 0xff000049:    0 | 0xff000056:  44220 
E: 000000.660057 44 21 01 01 01 f8 20 84 06 02 03 00 00 00 00 00 00 00 00 00 00 00 00 00 00 00 00 00 00 00 00 00 00 00 00 00 00 00 00 00 00 00 00 bc ac
# ReportID: 33 / 0xff000054:    1 
#              | 0xff000051:    1 | 0xff000042: 1 | # | 0xff000130:   8453 | 0xff000131:   1671 | 0xff000048:    3 | 0xff000049:    3 
#              | 0xff000051:    0 | 0xff000042: 0 | # | 0xff000130:      0 | 0xff000131:      0 | 0xff000048:    0 | 0xff000049:    0 
#              | 0xff000051:    0 | 0xff000042: 0 | # | 0xff000130:      0 | 0xff000131:      0 | 0xff000048:    0 | 0xff000049:    0 
#              | 0xff000051:    0 | 0xff000042: 0 | # | 0xff000130:      0 | 0xff000131:      0 | 0xff000048:    0 | 0xff000049:    0 
#              | 0xff000051:    0 | 0xff000042: 0 | # | 0xff000130:      0 | 0xff000131:      0 | 0xff000048:    0 | 0xff000049:    0 | 0xff000056:  44320 
E: 000000.669993 44 21 01 01 01 05 21 87 06 03 03 00 00 00 00 00 00 00 00 00 00 00 00 00 00 00 00 00 00 00 00 00 00 00 00 00 00 00 00 00 00 00 00 20 ad
# ReportID: 33 / 0xff000054:    1 
#              | 0xff000051:    1 | 0xff000042: 1 | # | 0xff000130:   8469 | 0xff000131:   1678 | 0xff000048:    2 | 0xff000049:    3 
#              | 0xff000051:    0 | 0xff000042: 0 | # | 0xff000130:      0 | 0xff000131:      0 | 0xff000048:    0 | 0xff000049:    0 
#              | 0xff000051:    0 | 0xff000042: 0 | # | 0xff000130:      0 | 0xff000131:      0 | 0xff000048:    0 | 0xff000049:    0 
#              | 0xff000051:    0 | 0xff000042: 0 | # | 0xff000130:      0 | 0xff000131:      0 | 0xff000048:    0 | 0xff000049:    0 
#              | 0xff000051:    0 | 0xff000042: 0 | # | 0xff000130:      0 | 0xff000131:      0 | 0xff000048:    0 | 0xff000049:    0 | 0xff000056:  44420 
E: 000000.680171 44 21 01 01 01 15 21 8e 06 02 03 00 00 00 00 00 00 00 00 00 00 00 00 00 00 00 00 00 00 00 00 00 00 00 00 00 00 00 00 00 00 00 00 84 ad
# ReportID: 33 / 0xff000054:    1 
#              | 0xff000051:    1 | 0xff000042: 1 | # | 0xff000130:   8484 | 0xff000131:   1685 | 0xff000048:    2 | 0xff000049:    3 
#              | 0xff000051:    0 | 0xff000042: 0 | # | 0xff000130:      0 | 0xff000131:      0 | 0xff000048:    0 | 0xff000049:    0 
#              | 0xff000051:    0 | 0xff000042: 0 | # | 0xff000130:      0 | 0xff000131:      0 | 0xff000048:    0 | 0xff000049:    0 
#              | 0xff000051:    0 | 0xff000042: 0 | # | 0xff000130:      0 | 0xff000131:      0 | 0xff000048:    0 | 0xff000049:    0 
#              | 0xff000051:    0 | 0xff000042: 0 | # | 0xff000130:      0 | 0xff000131:      0 | 0xff000048:    0 | 0xff000049:    0 | 0xff000056:  44520 
E: 000000.690085 44 21 01 01 01 24 21 95 06 02 03 00 00 00 00 00 00 00 00 00 00 00 00 00 00 00 00 00 00 00 00 00 00 00 00 00 00 00 00 00 00 00 00 e8 ad
# ReportID: 33 / 0xff000054:    1 
#              | 0xff000051:    1 | 0xff000042: 1 | # | 0xff000130:   8497 | 0xff000131:   1692 | 0xff000048:    1 | 0xff000049:    2 
#              | 0xff000051:    0 | 0xff000042: 0 | # | 0xff000130:      0 | 0xff000131:      0 | 0xff000048:    0 | 0xff000049:    0 
#              | 0xff000051:    0 | 0xff000042: 0 | # | 0xff000130:      0 | 0xff000131:      0 | 0xff000048:    0 | 0xff000049:    0 
#              | 0xff000051:    0 | 0xff000042: 0 | # | 0xff000130:      0 | 0xff000131:      0 | 0xff000048:    0 | 0xff000049:    0 
#              | 0xff000051:    0 | 0xff000042: 0 | # | 0xff000130:      0 | 0xff000131:      0 | 0xff000048:    0 | 0xff000049:    0 | 0xff000056:  44620 
E: 000000.700169 44 21 01 01 01 31 21 9c 06 01 02 00 00 00 00 00 00 00 00 00 00 00 00 00 00 00 00 00 00 00 00 00 00 00 00 00 00 00 00 00 00 00 00 4c ae
# ReportID: 33 / 0xff000054:    1 
#              | 0xff000051:    1 | 0xff000042: 0 | # | 0xff000130:   8497 | 0xff000131:   1692 | 0xff000048:    1 | 0xff000049:    2 
#              | 0xff000051:    0 | 0xff000042: 0 | # | 0xff000130:      0 | 0xff000131:      0 | 0xff000048:    0 | 0xff000049:    0 
#              | 0xff000051:    0 | 0xff000042: 0 | # | 0xff000130:      0 | 0xff000131:      0 | 0xff000048:    0 | 0xff000049:    0 
#              | 0xff000051:    0 | 0xff000042: 0 | # | 0xff000130:      0 | 0xff000131:      0 | 0xff000048:    0 | 0xff000049:    0 
#              | 0xff000051:    0 | 0xff000042: 0 | # | 0xff000130:      0 | 0xff000131:      0 | 0xff000048:    0 | 0xff000049:    0 | 0xff000056:  44720 
E: 000000.710121 44 21 01 01 00 31 21 9c 06 01 02 00 00 00 00 00 00 00 00 00 00 00 00 00 00 00 00 00 00 00 00 00 00 00 00 00 00 00 00 00 00 00 00 b0 ae
# ReportID: 33 / 0xff000054:    1 
#              | 0xff000051:    1 | 0xff000042: 1 | # | 0xff000130:   1094 | 0xff000131:   4740 | 0xff000048:    3 | 0xff000049:    3 
#              | 0xff000051:    0 | 0xff000042: 0 | # | 0xff000130:      0 | 0xff000131:      0 | 0xff000048:    0 | 0xff000049:    0 
#              | 0xff000051:    0 | 0xff000042: 0 | # | 0xff000130:      0 | 0xff000131:      0 | 0xff000048:    0 | 0xff000049:    0 
#              | 0xff000051:    0 | 0xff000042: 0 | # | 0xff000130:      0 | 0xff000131:      0 | 0xff000048:    0 | 0xff000049:    0 
#              | 0xff000051:    0 | 0xff000042: 0 | # | 0xff000130:      0 | 0xff000131:      0 | 0xff000048:    0 | 0xff000049:    0 | 0xff000056:  53520 
E: 000001.592996 44 21 01 01 01 46 04 84 12 03 03 00 00 00 00 00 00 00 00 00 00 00 00 00 00 00 00 00 00 00 00 00 00 00 00 00 00 00 00 00 00 00 00 10 d1
# ReportID: 33 / 0xff000054:    1 
#              | 0xff000051:    1 | 0xff000042: 1 | # | 0xff000130:   1094 | 0xff000131:   4740 | 0xff000048:    2 | 0xff000049:    2 
#              | 0xff000051:    0 | 0xff000042: 0 | # | 0xff000130:      0 | 0xff000131:      0 | 0xff000048:    0 | 0xff000049:    0 
#              | 0xff000051:    0 | 0xff000042: 0 | # | 0xff000130:      0 | 0xff000131:      0 | 0xff000048:    0 | 0xff000049:    0 
#              | 0xff000051:    0 | 0xff000042: 0 | # | 0xff000130:      0 | 0xff000131:      0 | 0xff000048:    0 | 0xff000049:    0 
#              | 0xff000051:    0 | 0xff000042: 0 | # | 0xff000130:      0 | 0xff000131:      0 | 0xff000048:    0 | 0xff000049:    0 | 0xff000056:  53620 
E: 000001.603067 44 21 01 01 01 46 04 84 12 02 02 00 00 00 00 00 00 00 00 00 00 00 00 00 00 00 00 00 00 00 00 00 00 00 00 00 00 00 00 00 00 00 00 74 d1
# ReportID: 33 / 0xff000054:    1 
#              | 0xff000051:    1 | 0xff000042: 1 | # | 0xff000130:   1094 | 0xff000131:   4740 | 0xff000048:    2 | 0xff000049:    3 
#              | 0xff000051:    0 | 0xff000042: 0 | # | 0xff000130:      0 | 0xff000131:      0 | 0xff000048:    0 | 0xff000049:    0 
#              | 0xff000051:    0 | 0xff000042: 0 | # | 0xff000130:      0 | 0xff000131:      0 | 0xff000048:    0 | 0xff000049:    0 
#              | 0xff000051:    0 | 0xff000042: 0 | # | 0xff000130:      0 | 0xff000131:      0 | 0xff000048:    0 | 0xff000049:    0 
#              | 0xff000051:    0 | 0xff000042: 0 | # | 0xff000130:      0 | 0xff000131:      0 | 0xff000048:    0 | 0xff000049:    0 | 0xff000056:  53720 
E: 000001.613002 44 21 01 01 01 46 04 84 12 02 03 00 00 00 00 00 00 00 00 00 00 00 00 00 00 00 00 00 00 00 00 00 00 00 00 00 00 00 00 00 00 00 00 d8 d1
# ReportID: 33 / 0xff000054:    1 
#              | 0xff000051:    1 | 0xff000042: 1 | # | 0xff000130:   1094 | 0xff000131:   4740 | 0xff000048:    3 | 0xff000049:    3 
#              | 0xff000051:    0 | 0xff000042: 0 | # | 0xff000130:      0 | 0xff000131:      0 | 0xff000048:    0 | 0xff000049:    0 
#              | 0xff000051:    0 | 0xff000042: 0 | # | 0xff000130:      0 | 0xff000131:      0 | 0xff000048:    0 | 0xff000049:    0 
#              | 0xff000051:    0 | 0xff000042: 0 | # | 0xff000130:      0 | 0xff000131:      0 | 0xff000048:    0 | 0xff000049:    0 
#              | 0xff000051:    0 | 0xff000042: 0 | # | 0xff000130:      0 | 0xff000131:      0 | 0xff000048:    0 | 0xff000049:    0 | 0xff000056:  53820 
E: 000001.623048 44 21 01 01 01 46 04 84 12 03 03 00 00 00 00 00 00 00 00 00 00 00 00 00 00 00 00 00 00 00 00 00 00 00 00 00 00 00 00 00 00 00 00 3c d2
# ReportID: 33 / 0xff000054:    1 
#              | 0xff000051:    1 | 0xff000042: 1 | # | 0xff000130:   1122 | 0xff000131:   4745 | 0xff000048:    3 | 0xff000049:    3 
#              | 0xff000051:    0 | 0xff000042: 0 | # | 0xff000130:      0 | 0xff000131:      0 | 0xff000048:    0 | 0xff000049:    0 
#              | 0xff000051:    0 | 0xff000042: 0 | # | 0xff000130:      0 | 0xff000131:      0 | 0xff000048:    0 | 0xff000049:    0 
#              | 0xff000051:    0 | 0xff000042: 0 | # | 0xff000130:      0 | 0xff000131:      0 | 0xff000048:    0 | 0xff000049:    0 
#              | 0xff000051:    0 | 0xff000042: 0 | # | 0xff000130:      0 | 0xff000131:      0 | 0xff000048:    0 | 0xff000049:    0 | 0xff000056:  53920 
E: 000001.633171 44 21 01 01 01 62 04 89 12 03 03 00 00 00 00 00 00 00 00 00 00 00 00 00 00 00 00 00 00 00 00 00 00 00 00 00 00 00 00 00 00 00 00 a0 d2
# ReportID: 33 / 0xff000054:    1 
#              | 0xff000051:    1 | 0xff000042: 1 | # | 0xff000130:   1156 | 0xff000131:   4750 | 0xff000048:    2 | 0xff000049:    3 
#              | 0xff000051:    0 | 0xff000042: 0 | # | 0xff000130:      0 | 0xff000131:      0 | 0xff000048:    0 | 0xff000049:    0 
#              | 0xff000051:    0 | 0xff000042: 0 | # | 0xff000130:      0 | 0xff000131:      0 | 0xff000048:    0 | 0xff000049:    0 
#              | 0xff000051:    0 | 0xff000042: 0 | # | 0xff000130:      0 | 0xff000131:      0 | 0xff000048:    0 | 0xff000049:    0 
#              | 0xff000051:    0 | 0xff000042: 0 | # | 0xff000130:      0 | 0xff000131:      0 | 0xff000048:    0 | 0xff000049:    0 | 0xff000056:  54020 
E: 000001.643099 44 21 01 01 01 84 04 8e 12 02 03 00 00 00 00 00 00 00 00 00 00 00 00 00 00 00 00 00 00 00 00 00 00 00 00 00 00 00 00 00 00 00 00 04 d3
# ReportID: 33 / 0xff000054:    1 
#              | 0xff000051:    1 | 0xff000042: 1 | # | 0xff000130:   1202 | 0xff000131:   4757 | 0xff000048:    2 | 0xff000049:    3 
#              | 0xff000051:    0 | 0xff000042: 0 | # | 0xff000130:      0 | 0xff000131:      0 | 0xff000048:    0 | 0xff000049:    0 
#              | 0xff000051:    0 | 0xff000042: 0 | # | 0xff000130:      0 | 0xff000131:      0 | 0xff000048:    0 | 0xff000049:    0 
#              | 0xff000051:    0 | 0xff000042: 0 | # | 0xff000130:      0 | 0xff000131:      0 | 0xff000048:    0 | 0xff000049:    0 
#              | 0xff000051:    0 | 0xff000042: 0 | # | 0xff000130:      0 | 0xff000131:      0 | 0xff000048:    0 | 0xff000049:    0 | 0xff000056:  54120 
E: 000001.653083 44 21 01 01 01 b2 04 95 12 02 03 00 00 00 00 00 00 00 00 00 00 00 00 00 00 00 00 00 00 00 00 00 00 00 00 00 00 00 00 00 00 00 00 68 d3
# ReportID: 33 / 0xff000054:    1 
#              | 0xff000051:    1 | 0xff000042: 1 | # | 0xff000130:   1279 | 0xff000131:   4764 | 0xff000048:    3 | 0xff000049:    3 
#              | 0xff000051:    0 | 0xff000042: 0 | # | 0xff000130:      0 | 0xff000131:      0 | 0xff000048:    0 | 0xff000049:    0 
#              | 0xff000051:    0 | 0xff000042: 0 | # | 0xff000130:      0 | 0xff000131:      0 | 0xff000048:    0 | 0xff000049:    0 
#              | 0xff000051:    0 | 0xff000042: 0 | # | 0xff000130:      0 | 0xff000131:      0 | 0xff000048:    0 | 0xff000049:    0 
#              | 0xff000051:    0 | 0xff000042: 0 | # | 0xff000130:      0 | 0xff000131:      0 | 0xff000048:    0 | 0xff000049:    0 | 0xff000056:  54220 
E: 000001.663000 44 21 01 01 01 ff 04 9c 12 03 03 00 00 00 00 00 00 00 00 00 00 00 00 00 00 00 00 00 00 00 00 00 00 00 00 00 00 00 00 00 00 00 00 cc d3
# ReportID: 33 / 0xff000054:    1 
#              | 0xff000051:    1 | 0xff000042: 1 | # | 0xff000130:   1354 | 0xff000131:   4771 | 0xff000048:    2 | 0xff000049:    3 
#              | 0xff000051:    0 | 0xff000042: 0 | # | 0xff000130:      0 | 0xff000131:      0 | 0xff000048:    0 | 0xff000049:    0 
#              | 0xff000051:    0 | 0xff000042: 0 | # | 0xff000130:      0 | 0xff000131:      0 | 0xff000048:    0 | 0xff000049:    0 
#              | 0xff000051:    0 | 0xff000042: 0 | # | 0xff000130:      0 | 0xff000131:      0 | 0xff000048:    0 | 0xff000049:    0 
#              | 0xff000051:    0 | 0xff000042: 0 | # | 0xff000130:      0 | 0xff000131:      0 | 0xff000048:    0 | 0xff000049:    0 | 0xff000056:  54320 
E: 000001.673116 44 21 01 01 01 4a 05 a3 12 02 03 00 00 00 00 00 00 00 00 00 00 00 00 00 00 00 00 00 00 00 00 00 00 00 00 00 00 00 00 00 00 00 00 30 d4
# ReportID: 33 / 0xff000054:    1 
#              | 0xff000051:    1 | 0xff000042: 1 | # | 0xff000130:   1414 | 0xff000131:   4778 | 0xff000048:    3 | 0xff000049:    3 
#              | 0xff000051:    0 | 0xff000042: 0 | # | 0xff000130:      0 | 0xff000131:      0 | 0xff000048:    0 | 0xff000049:    0 
#              | 0xff000051:    0 | 0xff000042: 0 | # | 0xff000130:      0 | 0xff000131:      0 | 0xff000048:    0 | 0xff000049:    0 
#              | 0xff000051:    0 | 0xff000042: 0 | # | 0xff000130:      0 | 0xff000131:      0 | 0xff000048:    0 | 0xff000049:    0 
#              | 0xff000051:    0 | 0xff000042: 0 | # | 0xff000130:      0 | 0xff000131:      0 | 0xff000048:    0 | 0xff000049:    0 | 0xff000056:  54420 
E: 000001.683154 44 21 01 01 01 86 05 aa 12 03 03 00 00 00 00 00 00 00 00 00 00 00 00 00 00 00 00 00 00 00 00 00 00 00 00 00 00 00 00 00 00 00 00 94 d4
# ReportID: 33 / 0xff000054:    1 
#              | 0xff000051:    1 | 0xff000042: 1 | # | 0xff000130:   1491 | 0xff000131:   4783 | 0xff000048:    3 | 0xff000049:    3 
#              | 0xff000051:    0 | 0xff000042: 0 | # | 0xff000130:      0 | 0xff000131:      0 | 0xff000048:    0 | 0xff000049:    0 
#              | 0xff000051:    0 | 0xff000042: 0 | # | 0xff000130:      0 | 0xff000131:      0 | 0xff000048:    0 | 0xff000049:    0 
#              | 0xff000051:    0 | 0xff000042: 0 | # | 0xff000130:      0 | 0xff000131:      0 | 0xff000048:    0 | 0xff000049:    0 
#              | 0xff000051:    0 | 0xff000042: 0 | # | 0xff000130:      0 | 0xff000131:      0 | 0xff000048:    0 | 0xff000049:    0 | 0xff000056:  54520 
E: 000001.693105 44 21 01 01 01 d3 05 af 12 03 03 00 00 00 00 00 00 00 00 00 00 00 00 00 00 00 00 00 00 00 00 00 00 00 00 00 00 00 00 00 00 00 00 f8 d4
# ReportID: 33 / 0xff000054:    1 
#              | 0xff000051:    1 | 0xff000042: 1 | # | 0xff000130:   1577 | 0xff000131:   4787 | 0xff000048:    3 | 0xff000049:    3 
#              | 0xff000051:    0 | 0xff000042: 0 | # | 0xff000130:      0 | 0xff000131:      0 | 0xff000048:    0 | 0xff000049:    0 
#              | 0xff000051:    0 | 0xff000042: 0 | # | 0xff000130:      0 | 0xff000131:      0 | 0xff000048:    0 | 0xff000049:    0 
#              | 0xff000051:    0 | 0xff000042: 0 | # | 0xff000130:      0 | 0xff000131:      0 | 0xff000048:    0 | 0xff000049:    0 
#              | 0xff000051:    0 | 0xff000042: 0 | # | 0xff000130:      0 | 0xff000131:      0 | 0xff000048:    0 | 0xff000049:    0 | 0xff000056:  54620 
E: 000001.703217 44 21 01 01 01 29 06 b3 12 03 03 00 00 00 00 00 00 00 00 00 00 00 00 00 00 00 00 00 00 00 00 00 00 00 00 00 00 00 00 00 00 00 00 5c d5
# ReportID: 33 / 0xff000054:    1 
#              | 0xff000051:    1 | 0xff000042: 1 | # | 0xff000130:   1648 | 0xff000131:   4791 | 0xff000048:    3 | 0xff000049:    3 
#              | 0xff000051:    0 | 0xff000042: 0 | # | 0xff000130:      0 | 0xff000131:      0 | 0xff000048:    0 | 0xff000049:    0 
#              | 0xff000051:    0 | 0xff000042: 0 | # | 0xff000130:      0 | 0xff000131:      0 | 0xff000048:    0 | 0xff000049:    0 
#              | 0xff000051:    0 | 0xff000042: 0 | # | 0xff000130:      0 | 0xff000131:      0 | 0xff000048:    0 | 0xff000049:    0 
#              | 0xff000051:    0 | 0xff000042: 0 | # | 0xff000130:      0 | 0xff000131:      0 | 0xff000048:    0 | 0xff000049:    0 | 0xff000056:  54720 
E: 000001.713161 44 21 01 01 01 70 06 b7 12 03 03 00 00 00 00 00 00 00 00 00 00 00 00 00 00 00 00 00 00 00 00 00 00 00 00 00 00 00 00 00 00 00 00 c0 d5
# ReportID: 33 / 0xff000054:    1 
#              | 0xff000051:    1 | 0xff000042: 1 | # | 0xff000130:   1767 | 0xff000131:   4793 | 0xff000048:    3 | 0xff000049:    3 
#              | 0xff000051:    0 | 0xff000042: 0 | # | 0xff000130:      0 | 0xff000131:      0 | 0xff000048:    0 | 0xff000049:    0 
#              | 0xff000051:    0 | 0xff000042: 0 | # | 0xff000130:      0 | 0xff000131:      0 | 0xff000048:    0 | 0xff000049:    0 
#              | 0xff000051:    0 | 0xff000042: 0 | # | 0xff000130:      0 | 0xff000131:      0 | 0xff000048:    0 | 0xff000049:    0 
#              | 0xff000051:    0 | 0xff000042: 0 | # | 0xff000130:      0 | 0xff000131:      0 | 0xff000048:    0 | 0xff000049:    0 | 0xff000056:  54820 
E: 000001.723041 44 21 01 01 01 e7 06 b9 12 03 03 00 00 00 00 00 00 00 00 00 00 00 00 00 00 00 00 00 00 00 00 00 00 00 00 00 00 00 00 00 00 00 00 24 d6
# ReportID: 33 / 0xff000054:    1 
#              | 0xff000051:    1 | 0xff000042: 1 | # | 0xff000130:   1853 | 0xff000131:   4793 | 0xff000048:    2 | 0xff000049:    3 
#              | 0xff000051:    0 | 0xff000042: 0 | # | 0xff000130:      0 | 0xff000131:      0 | 0xff000048:    0 | 0xff000049:    0 
#              | 0xff000051:    0 | 0xff000042: 0 | # | 0xff000130:      0 | 0xff000131:      0 | 0xff000048:    0 | 0xff000049:    0 
#              | 0xff000051:    0 | 0xff000042: 0 | # | 0xff000130:      0 | 0xff000131:      0 | 0xff000048:    0 | 0xff000049:    0 
#              | 0xff000051:    0 | 0xff000042: 0 | # | 0xff000130:      0 | 0xff000131:      0 | 0xff000048:    0 | 0xff000049:    0 | 0xff000056:  54920 
E: 000001.733021 44 21 01 01 01 3d 07 b9 12 02 03 00 00 00 00 00 00 00 00 00 00 00 00 00 00 00 00 00 00 00 00 00 00 00 00 00 00 00 00 00 00 00 00 88 d6
# ReportID: 33 / 0xff000054:    1 
#              | 0xff000051:    1 | 0xff000042: 1 | # | 0xff000130:   1986 | 0xff000131:   4792 | 0xff000048:    2 | 0xff000049:    3 
#              | 0xff000051:    0 | 0xff000042: 0 | # | 0xff000130:      0 | 0xff000131:      0 | 0xff000048:    0 | 0xff000049:    0 
#              | 0xff000051:    0 | 0xff000042: 0 | # | 0xff000130:      0 | 0xff000131:      0 | 0xff000048:    0 | 0xff000049:    0 
#              | 0xff000051:    0 | 0xff000042: 0 | # | 0xff000130:      0 | 0xff000131:      0 | 0xff000048:    0 | 0xff000049:    0 
#              | 0xff000051:    0 | 0xff000042: 0 | # | 0xff000130:      0 | 0xff000131:      0 | 0xff000048:    0 | 0xff000049:    0 | 0xff000056:  55020 
E: 000001.743013 44 21 01 01 01 c2 07 b8 12 02 03 00 00 00 00 00 00 00 00 00 00 00 00 00 00 00 00 00 00 00 00 00 00 00 00 00 00 00 00 00 00 00 00 ec d6
# ReportID: 33 / 0xff000054:    1 
#              | 0xff000051:    1 | 0xff000042: 1 | # | 0xff000130:   2087 | 0xff000131:   4790 | 0xff000048:    3 | 0xff000049:    3 
#              | 0xff000051:    0 | 0xff000042: 0 | # | 0xff000130:      0 | 0xff000131:      0 | 0xff000048:    0 | 0xff000049:    0 
#              | 0xff000051:    0 | 0xff000042: 0 | # | 0xff000130:      0 | 0xff000131:      0 | 0xff000048:    0 | 0xff000049:    0 
#              | 0xff000051:    0 | 0xff000042: 0 | # | 0xff000130:      0 | 0xff000131:      0 | 0xff000048:    0 | 0xff000049:    0 
#              | 0xff000051:    0 | 0xff000042: 0 | # | 0xff000130:      0 | 0xff000131:      0 | 0xff000048:    0 | 0xff000049:    0 | 0xff000056:  55120 
E: 000001.753057 44 21 01 01 01 27 08 b6 12 03 03 00 00 00 00 00 00 00 00 00 00 00 00 00 00 00 00 00 00 00 00 00 00 00 00 00 00 00 00 00 00 00 00 50 d7
# ReportID: 33 / 0xff000054:    1 
#              | 0xff000051:    1 | 0xff000042: 1 | # | 0xff000130:   2245 | 0xff000131:   4786 | 0xff000048:    3 | 0xff000049:    3 
